:100000000C9406020C9425020C9425020C942502F3
:100010000C9425020C9425020C9425020C942502C4
:100020000C9425020C9425020C9425020C942502B4
:100030000C9425020C948A570C9425020C942502EA
:100040000C9425020C9425020C9425020C94250294
:100050000C94201A0C9405100C9425020C94250283
:100060000C9425020C947A100C9425020C94250211
:100070000C9425020C9425020C9425020C94250264
:100080000C9427560C9425020C9425020C942502FE
:100090000C94A9100C9425020C9425020C942502B2
:1000A0000C9425020C9425020C9425020C94250234
:1000B0000C9425020C9425020C9425020C94250224
:1000C0000C9425020C9425020C9425020C94250214
:1000D0000C9425020C9425020C9425020C94250204
:1000E0000C9425020C94D9190C94E3190C94CF1993
:1000F0000C9489190C94141A0C94051A0C94F9197F
:100100000C94ED190C9425020C9425020C942502F4
:100110000C9425020C9425020C9425020C942502C3
:10012000257325730A004E657665722D75736564B7
:1001300020737461636B203E2025642062797465AE
:10014000730A000A2D2D2D2D2D2D2D2D2D0A002069
:10015000203C6E6F6E653E002920256C75730A0089
:100160002F2575202876696120000A526F75746505
:1001700073205B2575206D61785D0A0020203C6E40
:100180006F6E653E000A000A4E65696768626F72AD
:1001900073205B2575206D61785D0A000A000A41B5
:1001A0006464726573736573205B2575206D617877
:1001B0005D0A002578003A003A3A004F6E6C696E8D
:1001C000650A00526F7574696E6720456E61626CD6
:1001D00065640A0052504C20456E61626C65640A89
:1001E0000025732025732C206368616E6E656C207A
:1001F0002575202C20636865636B2072617465200F
:10020000257520487A20747820706F7765722025D4
:10021000750A004555492D3634204D41433A202575
:10022000782D25782D25782D25782D25782D257864
:100230002D25782D25780A0052616E646F6D20455A
:100240005549363420616464726573732067656E46
:100250006572617465640A000A2A2A2A2A2A2A2AEF
:10026000426F6F74696E672025732A2A2A2A2A2A08
:100270002A0A00020000FFFE00000141544D4547DC
:100280004131323872666131006C6F63616C686F46
:10029000737400454550524F4D20697320636F724F
:1002A000727570742C20726577726974696E67203C
:1002B000776974682064656661756C74732E0A00D2
:1002C000452025642E256420636C6F636B20256CAC
:1002D000752063707520256C75206C706D20256C01
:1002E000752069727120256C7520676C6564202506
:1002F0006C7520796C656420256C7520726C656462
:1003000020256C7520747820256C75206C697374B9
:10031000656E20256C752073656E736F7273202572
:100320006C752073657269616C20256C750A0053C9
:100330002025642E256420636C6F636B20256C750B
:1003400020747820256C7520727820256C752072B9
:10035000747820256C752072727820256C75207257
:1003600065786D697420256C752061636B747820E5
:10037000256C75206E6F61636B747820256C752019
:1003800061636B727820256C752074696D65646F8C
:10039000757420256C752062616461636B727820CE
:1003A000256C7520746F6F6C6F6E6720256C7520DF
:1003B000746F6F73686F727420256C75206261644E
:1003C00073796E636820256C752062616463726363
:1003D00020256C7520636F6E74656E74696F6E6432
:1003E000726F7020256C752073656E64696E67642A
:1003F000726F7020256C75206C6C747820256C757C
:10040000206C6C727820256C750A000011241FBEC8
:10041000CFEFD1E4DEBFCDBF19E0A0E0B2E0E4EF62
:10042000F2EF00E00BBF02C007900D92A238B107B7
:10043000D9F71FE3A2E8B9E001C01D92A53DB107BD
:10044000E1F70E94B10C0C9478790C940000CF93E2
:10045000DF93EC0188819981009771F40E94CD02AD
:100460000E94B4080E94B80A0E94A9030E943B0798
:100470000E94FD030E940F081982188283E0DF9119
:10048000CF910895CF93DF93EC01888199818836CD
:10049000910579F08A37910509F44EC0009709F06B
:1004A0004EC00E94741C80933A2C109288091092BE
:1004B000870982E899E00E9403032FEF8F3F92079C
:1004C00019F488E690E035C02091870930918809B9
:1004D0008D30910571F02F3731055CF7F901E75741
:1004E000F64F80832F5F3F4F309388092093870911
:1004F000E0CFF901E757F64F10822F5F3F4F30935F
:1005000088092093870980E090E060913A2C49E8BF
:1005100059E00E94041D8091B00B9091B10B65E8E9
:1005200040E050E00E94041D009709F0BECF8AE72A
:1005300090E09983888307C0653829F4B6CF198283
:10054000188283E001C081E0DF91CF910895682F88
:100550008A30F9F08091890A882351F482E899E081
:100560000E94E302009771F481E08093890A0AC037
:100570006D3041F482E899E00E94E302009711F0A7
:100580001092890A8AE292E00E94591D21E030E02F
:1005900002C020E030E0C901089582E899E069E0F6
:1005A0007AE040E80E94DB028AE292E060E070E0DC
:1005B0000E94361D0895FC0171836083415042837F
:1005C000138214820895FC012381428150E030E0BF
:1005D0008481D901A81BB109CD01842395238417F7
:1005E000950769F0A081B181A20FB31F6C9383813D
:1005F0008F5F92818923838321E030E002C020E075
:1006000030E0C9010895FC0174816281838190E02A
:10061000272F30E0821B930B462F50E08423952335
:10062000181619065CF4A081B181A20FB31F2C919A
:10063000872F8F5F8623848330E002C02FEF3FEF48
:10064000C9010895FC01228130E02F5F3F4FC901AD
:100650000895FC01238130E08481281B31098281C7
:1006600090E028233923C9010895CF93DF93EC014B
:10067000633819F487E00E94B31288819981873426
:100680009105A9F18834910538F4009769F0843414
:10069000910509F056C01AC08A349105C9F18D340C
:1006A000910509F04EC045C086E892E064E372E02F
:1006B0004AE552E00E94C9518AE89AE060E870E099
:1006C0000E944B1F84E490E0998388838AE89AE033
:1006D0000E94761F0097C9F184E00E94A8128AE860
:1006E0009AE00E94561F87E490E0998388838AE805
:1006F0009AE00E94761F009741F181E00E94A812C3
:100700008AE89AE00E94561F8AE490E099838883E1
:100710008AE89AE00E94761F0097B9F082E00E9472
:10072000A8128AE89AE00E94561F8DE490E099830F
:1007300088838AE89AE00E94761F009731F00E9431
:100740007F111982188283E001C080E0DF91CF9190
:10075000089586E892E00E947F540895CF92DF9238
:10076000EF92FF920F931F93DF93CF93CDB7DEB736
:100770006E970FB6F894DEBF0FBECDBF6C01FC01C3
:1007800080819181009731F588EC92E060E972E018
:100790004BE952E00E94C9510091AE0B1091AF0B92
:1007A0007E010894E11CF11C12C0F8016281738182
:1007B000C7014EE150E00E94857588EC92E0B701D8
:1007C0004BE952E00E94C951F801008111810115E5
:1007D000110559F7F6011182108283E06E960FB66B
:1007E000F894DEBF0FBECDBFCF91DF911F910F9167
:1007F000FF90EF90DF90CF90089588EC92E00E94F8
:100800007F5408952F923F924F925F926F927F9202
:100810008F929F92AF92BF92CF92DF92EF92FF9210
:100820000F931F93DF93CF93CDB7DEB7C057D04060
:100830000FB6F894DEBF0FBECDBF5C01DC0112968F
:100840008D919D910D90BC91A02DA9968CAF9DAFDF
:10085000AEAFBFAFA997F501468057806084718421
:100860007C018D01E40CF51C061D171DD5011E969B
:100870008D919D910D90BC91A02DAD968CAF9DAFAB
:10088000AEAFBFAFAD97D5011A968D919D910D90EA
:10089000BC91A02DE1968CAF9DAFAEAFBFAFE197FD
:1008A000EDB7FEB776970FB6F894FEBF0FBEEDBF5B
:1008B0008DB69EB60894811C911C1E010894211CC3
:1008C000311C3282218284E690E0D40113969C93FD
:1008D0008E93129782ED92E015969C938E931497C7
:1008E000A9966CAD7DAD8EAD9FADA99724E630E0A5
:1008F00040E050E00E947A74A80197010E94AD7414
:10090000F40137832683C301B20124E630E040E0DE
:1009100050E00E947A74A80197010E94AD74D4013E
:1009200019963C932E931897E1966CAD7DAD8EADE4
:100930009FADE19724E630E040E050E00E947A74F9
:10094000A80197010E94AD74F40133872287AD9608
:100950006CAD7DAD8EAD9FADAD9724E630E040E04F
:1009600050E00E947A74A80197010E94AD74D401EE
:100970001D963C932E931C97F50162897389848997
:10098000958924E630E040E050E00E947A74A801A6
:1009900097010E94AD74D4011F963C932E931E972D
:1009A000F50166897789808D918D24E630E040E0FD
:1009B00050E00E947A74A80197010E94AD74D4019E
:1009C00051963C932E935097C301B20126E630E036
:1009D00040E050E00E947A745B016C01A9966CAD16
:1009E0007DAD8EAD9FADA99729E531E040E050E0A7
:1009F0000E947A74A60EB71EC81ED91EAD966CADA5
:100A00007DAD8EAD9FADAD9720E03FE040E050E082
:100A10000E947A74A60EB71EC81ED91EE1966CAD50
:100A20007DAD8EAD9FADE19724E43DE040E050E028
:100A30000E947A74A60EB71EC81ED91EC801B7013F
:100A400026E0660F771F881F991F2A95D1F728EE99
:100A500033E040E050E00E94AD74C601B5010E9451
:100A6000AD74F401228B338B448B558B0E9404763A
:100A70008DB79EB746960FB6F8949EBF0FBE8DBF3A
:100A800089E893E0B10149E153E00E94C951C0599E
:100A9000DF4F0FB6F894DEBF0FBECDBFCF91DF9111
:100AA0001F910F91FF90EF90DF90CF90BF90AF908C
:100AB0009F908F907F906F905F904F903F902F907E
:100AC0000895CF92DF92EF92FF920F931F93CF93EF
:100AD000DF93EC0188819981009729F0893A91058B
:100AE00009F041C005C089EA90E0998388833FC03E
:100AF00070E080911B3F90911C3F68177907B9F512
:100B00008A01FA01E480F580868197818E0D9F1D10
:100B1000009721F41982188282E02AC0FA01C0806D
:100B2000D1800BC0C6010E9402048AE190E0C80E89
:100B3000D91EE6EEFFEFEE0EFF1E1E141F0494F307
:100B4000F801E680F7800281138109C0C8010E9484
:100B50000204065E1F4F86EE9FEFE80EF91E1E147C
:100B60001F04A4F3C0CF1982188283E001C081E082
:100B7000DF91CF911F910F91FF90EF90DF90CF9079
:100B80000895EF92FF920F931F93DF93CF93CDB70A
:100B9000DEB76A970FB6F894DEBF0FBECDBF7C01FB
:100BA000FC0180819181009709F04BC00E947C215B
:100BB0008CE090E09A83898380E090E00E942B2172
:100BC0006B837C838D839E8381E090E00E942B2148
:100BD0006F83788789879A8786E090E00E942B212F
:100BE0006B877C878D879E8787E090E00E942B2112
:100BF0006F87788B898B9A8B80916D2E90916E2E5A
:100C0000A0916F2EB091702E8B8B9C8BAD8BBE8B79
:100C10008091692E90916A2EA0916B2EB0916C2ECE
:100C20008F8B988FA98FBA8F80EB93E0BE016F5F97
:100C30007F4F4AE150E029E133E000E010E00E94FC
:100C40006354F7011182108283E06A960FB6F8941C
:100C5000DEBF0FBECDBFCF91DF911F910F91FF90EF
:100C6000EF900895EF92FF920F931F93DF93CF932E
:100C7000CDB7DEB76A970FB6F894DEBF0FBECDBF13
:100C80007C01FC0180819181009709F0E3C00E9402
:100C90007C218CE090E09A83898380E090E00E9440
:100CA0002B212091A60A3091A70A4091A80A5091C1
:100CB000A90A621B730B840B950B6B837C838D835A
:100CC0009E8381E090E00E942B212091A20A309126
:100CD000A30A4091A40A5091A50A621B730B840BCE
:100CE000950B6F83788789879A8786E090E00E94CA
:100CF0002B2120919E0A30919F0A4091A00A509189
:100D0000A10A621B730B840B950B6B877C878D8705
:100D10009E8787E090E00E942B2120919A0A3091D3
:100D20009B0A40919C0A50919D0A621B730B840B95
:100D3000950B6F87788B898B9A8B80916D2E909114
:100D40006E2EA0916F2EB091702E2091960A309148
:100D5000970A4091980A5091990A821B930BA40B11
:100D6000B50B8B8B9C8BAD8BBE8B8091692E90913C
:100D70006A2EA0916B2EB0916C2E2091920A309128
:100D8000930A4091940A5091950A821B930BA40BED
:100D9000B50B8F8B988FA98FBA8F80E090E00E945F
:100DA0002B216093A60A7093A70A8093A80A9093B8
:100DB000A90A81E090E00E942B216093A20A70931F
:100DC000A30A8093A40A9093A50A86E090E00E946B
:100DD0002B2160939E0A70939F0A8093A00A9093A0
:100DE000A10A87E090E00E942B2160939A0A7093F9
:100DF0009B0A80939C0A90939D0A8091692E909102
:100E00006A2EA0916B2EB0916C2E8093920A9093D3
:100E1000930AA093940AB093950A80916D2E9091B5
:100E20006E2EA0916F2EB091702E8093960A9093A3
:100E3000970AA093980AB093990A85ED93E0BE01B2
:100E40006F5F7F4F4AE150E029E133E000E010E0BE
:100E50000E946354F7011182108283E06A960FB6F4
:100E6000F894DEBF0FBECDBFCF91DF911F910F91E0
:100E7000FF90EF90089585ED93E00E947F5489E8FC
:100E800093E00E947F5480EB93E00E947F5408958A
:100E9000AF92BF92CF92DF92EF92FF920F931F9388
:100EA000DF93CF930F92CDB7DEB78C017A01FC01AF
:100EB00080819181009729F08B39910509F09FC0BD
:100EC0007CC04115510549F48DE294E06FED73E06B
:100ED00040E054E00E94C95189C0CA016AEA7AE040
:100EE0000E948D3680E68093272F81E08093282F03
:100EF00010922A2F1092292F8AE380932D2F809110
:100F0000FE3580932E2FAFE3BFE2EAEAFAE080E1FC
:100F100001900D928150E1F78FE29FE26FE37FE253
:100F20000E94684F8FE4E82E8FE2F82E80E88093CD
:100F30004F2FF70111821092532F1092542F1092BD
:100F4000552F1092562FA090C30AB090C40AC70123
:100F50000896B50140E150E00E9455750894A11C27
:100F6000B11CB092C40AA092C30A80E490E09093AE
:100F7000182F8093172F10922B2F88E180932C2FFE
:100F8000F701138212820E94D32780959095F70172
:100F9000938382830E946C3381E08093BA0A2BC0D2
:100FA0008BEB9AE060E075E00E944B1F8BE990E0CC
:100FB000F8019183808381E026C08BEB9AE06983FE
:100FC0000E94761F6981009789F470E080911B3F31
:100FD00090911C3F6817790771F4F701868197811A
:100FE00024813581820F931F009729F4F801118223
:100FF000108282E008C08091BA0A882389F6F8013D
:101000001182108283E00F90CF91DF911F910F9199
:10101000FF90EF90DF90CF90BF90AF9008958DE25A
:1010200094E00E947F540895CF93DF93EC01888170
:101030009981009721F084369105E1F407C00E9460
:10104000C75484E690E09983888318C080913A2C35
:101050006817A1F44115510589F0DA010D900020BF
:10106000E9F7BD0161507040641B750BCA010E9415
:101070007D51E7CF1982188283E001C081E0DF91C2
:10108000CF910895AF92BF92CF92DF92EF92FF92ED
:101090000F931F93CF93DF935B01EA0169010097E0
:1010A00021F4AA24BB2487E394E0209721F4CC24E4
:1010B000DD24C7E3D4E07C0100E010E00AC0F701C2
:1010C00081917F01992787FD90950E94C6750F5FDA
:1010D0001F4F0A151B059CF300E010E008C0899122
:1010E000992787FD90950E94C6750F5F1F4F0C15BD
:1010F0001D05ACF388E394E00E94CD75DF91CF919C
:101100001F910F91FF90EF90DF90CF90BF90AF9025
:1011100008952DB73EB7285030400FB6F8943EBF23
:101120000FBE2DBFEDB7FEB731962AE334E0ADB761
:10113000BEB712963C932E9311972091192E2283BD
:10114000138220911A2E24831582978386830E940E
:1011500094752DB73EB7285F3F4F0FB6F8943EBF4A
:101160000FBE2DBF089508958BE594E060E070E018
:101170000E94361D0895CF92DF92EF92FF920F9357
:101180001F93DF93CF93CDB7DEB7AA970FB6F8942E
:10119000DEBF0FBECDBF6C01DC018D919C9111971C
:1011A000009709F041C000D000D085ECE82E8AE01D
:1011B000F82EEDB7FEB7F282E182548343830E949A
:1011C00042760F900F900F900F908091C50A882360
:1011D00029F484EC95E065E674E022C000D000D0EC
:1011E00000D0EDB7FEB731968E010F5F1F4FADB740
:1011F000BEB712961C930E93119789E894E09383DF
:101200008283F582E4820E944276EDB7FEB736967D
:101210000FB6F894FEBF0FBEEDBF84EC95E0B801A9
:1012200048E854E00E94C951D60111961C921E92C2
:1012300083E0AA960FB6F894DEBF0FBECDBFCF9164
:10124000DF911F910F91FF90EF90DF90CF90089565
:10125000CF92DF92EF92FF920F931F93DF93CF9382
:10126000CDB7DEB7EA970FB6F894DEBF0FBECDBF9D
:101270006C01DC018D919C911197009709F07EC063
:1012800095ECE92E9AE0F92E8091C50A882329F47D
:101290008FE895E064EA74E00CC08A0141155105BD
:1012A00021F0FA018081882349F48FE895E06FEB03
:1012B00074E048E854E00E94C95160C08DB79EB701
:1012C00008970FB6F8949EBF0FBE8DBFEDB7FEB75F
:1012D0003196CE014196ADB7BEB712969C938E93D0
:1012E000119785EE94E093838283F582E48257839D
:1012F00046830E9442768FEF92E09A8389831C8214
:101300001B821E821D8218861F821A8619861C86E1
:101310001B861E861D8680E091E0988B8F87EDB737
:10132000FEB738960FB6F894FEBF0FBEEDBF85E04E
:101330009BE066E075E044E050E09E012F5F3F4F88
:101340000E94BA3700D000D000D0EDB7FEB731967A
:101350008BE095E0ADB7BEB712969C938E93119734
:10136000F382E282158304830E949475EDB7FEB781
:1013700036960FB6F894FEBF0FBEEDBFD60111969C
:101380001C921E9283E0EA960FB6F894DEBF0FBE61
:10139000CDBFCF91DF911F910F91FF90EF90DF9024
:1013A000CF900895CF92DF92EF92FF920F931F9309
:1013B000CF93DF93FC0101900020E9F73197E81B00
:1013C000F90BE62EE7017E01F72ED7010D900020E4
:1013D000E9F71197AE19BF0910923B2C20E030E0DD
:1013E0001EC08A01020F131F0E171F07B4F4E60177
:1013F00019916E01E70109917E01101771F44F5F99
:101400005F4F01E04A175B0764F3002331F0240FBC
:10141000351FFC01E20FF31F10C02F5F3F4F2E1747
:101420003F079CF56C01C20ED31EE62EF72E40E05E
:1014300050E000E0E7CF2F5F3F4F41914A3321F466
:10144000FC01E20FF31F05C04423A9F7F9CF2F5F7A
:101450003F4F4191423211F04423C9F7F9013196CF
:10146000E80FF91FABE3BCE280E090E002C02D93EF
:1014700001962191223229F0222319F08A32910516
:10148000B1F7855C934DFC0110828BE39CE2DF9108
:10149000CF911F910F91FF90EF90DF90CF90089523
:1014A000EF92FF920F931F93DF93CF93CDB7DEB7E9
:1014B000C455D0400FB6F894DEBF0FBECDBF00D0EC
:1014C00000D0EDB7FEB7319624E135E0ADB7BEB739
:1014D00012963C932E931197E282F3820E949475A8
:1014E0000F900F900F900F90C7016DE175E00E9473
:1014F000D209BC018E010F5F1F4FC8010E94707599
:10150000C70166E275E00E94D209BC012BE2E22E1F
:10151000F12CEC0EFD1EC7010E94707500D000D0AA
:1015200000D0EDB7FEB731968BE095E0ADB7BEB712
:1015300012969C938E93119713830283F582E48213
:101540000E9494758DB79EB706960FB6F8949EBF0D
:101550000FBE8DBFCC5ADF4F0FB6F894DEBF0FBE63
:10156000CDBFCF91DF911F910F91FF90EF90089524
:101570000F931F9384EC95E00E947F548FE895E0D1
:101580000E947F5485E09BE062ED74E040E050E013
:1015900022ED34E000E51AE00E94CD371F910F9153
:1015A00008956F927F928F929F92AF92BF92CF9247
:1015B000DF92EF92FF920F931F93CF93DF93E82E6A
:1015C000E7017E01F92EE7017724662423EBC22E82
:1015D00021E0D22E96EBA92E91E0B92E88EB882E31
:1015E00081E0982E01C07E2C188100E0898178016D
:1015F000E80EF11CE114F10481F477FC10C0E72C33
:10160000E394772049F500D0EDB7FEB7928281824E
:101610000E94A6750F900F901FC0171464F06620EB
:1016200061F000D0EDB7FEB7B282A1820E94A6752C
:101630000F900F9002C077247A9400D000D0EDB7BD
:10164000FEB7D282C182F482E3820E94A6750F9017
:101650000F900F900F90E72CF2E06F0E2296862DE0
:10166000803109F0C0CFDF91CF911F910F91FF9092
:10167000EF90DF90CF90BF90AF909F908F907F9032
:101680006F900895E6E4F1E03081208190818081BF
:101690008295869586958370307C830F2695269556
:1016A0002073820F92959C70890F0895BF92CF92FC
:1016B000DF92EF92FF920F931F93DF93CF93CDB7FB
:1016C000DEB728970FB6F894DEBF0FBECDBF0E94DD
:1016D0005C110E94681181E069E146E00E94D81027
:1016E00081E067EA72E00E941F1181E00E945311BD
:1016F0000E94300F84B784B784B784B784B7E5ED10
:10170000FFE322E432E4318320833A968DB79EB71B
:101710000A97E817F907B8F300D000D088E592E0FF
:10172000ADB7BEB712969C938E9311978EEC95E051
:1017300014969C938E9313970E94A6750F900F900A
:101740000F900F900E94B3210E94821C89E696E0C0
:1017500060E070E00E94361D0E944420E091FF0589
:10176000F091000609950E94420B90E00E94B02380
:10177000CE0101960E94170F882359F000D088E30C
:1017800092E0EDB7FEB7928381830E94A6750F9019
:101790000F90AFE1BFE2FE01319688E001900D921B
:1017A0008150E1F78E010F5F1F4FC8010E94571A49
:1017B0000E94210F7C010E94260FBC01C701A801D5
:1017C0000E94D0150E947F0E0E94B5150E942B0F1B
:1017D0000E9460172DB73EB7225130400FB6F894E3
:1017E0003EBF0FBE2DBFEDB7FEB7319683E192E04D
:1017F000ADB7BEB712969C938E9311978981828361
:1018000013828A81848315828B81868317828C81DF
:10181000808711868D81828713868E8184871586C5
:101820008F81868717868885808B118A0E94A6758E
:10183000EDB7FEB772960FB6F894FEBF0FBEEDBFC0
:101840000E949725E0914F06F09150060995E0918E
:101850003606F09137060995E091FB06F091FC06FB
:1018600009950091340610913506C0904D06D09030
:101870004E060E94B215B82EE0905B06F0905C0612
:10188000F7010995009749F0F7010995BC0180E837
:1018900090E00E9499747B0103C030E8E32EF12CA4
:1018A0000E9463172DB73EB72C5030400FB6F89406
:1018B0003EBF0FBE2DBFEDB7FEB7319621EE31E032
:1018C000ADB7BEB712963C932E9311971383028344
:1018D000D582C482B6821782F186E086828713861B
:1018E0000E94A675EDB7FEB73A960FB6F894FEBF04
:1018F0000FBEEDBF84ED91E0928381830E94A675B7
:1019000083EC91E0ADB7BEB712969C938E9311977E
:101910000E94A6750F900F9081EB96E060E070E05A
:101920000E94361D88E192E00E946F1D00D08BEB73
:1019300091E0EDB7FEB7928381830E94A6750F9068
:101940000F9028960FB6F894DEBF0FBECDBFCF9193
:10195000DF911F910F91FF90EF90DF90CF90BF909C
:1019600008952F923F924F925F926F927F928F9243
:101970009F92AF92BF92CF92DF92EF92FF920F931E
:101980001F93CF93DF930E94560BA6E2CA2EA1E0CD
:10199000DA2EFEE9AF2EF1E0BF2EECE98E2EE1E06B
:1019A0009E2E77E8672E71E0772E60E3462E512C4D
:1019B00055E8252E51E0352E0E94921C0E9474118C
:1019C0008091662C9091672C009729F00197909355
:1019D000672C8093662CE090682CF090692C009125
:1019E0006A2C10916B2C0E944D0FE616F706080723
:1019F000190711F30E944D0F6093682C7093692CA6
:101A000080936A2C90936B2C2CE330E040E050E004
:101A10000E94AD74611571058105910511F40E9454
:101A2000F1216091682C7091692C80916A2C9091C1
:101A30006B2C28E532E040E050E00E94AD7462304B
:101A400071058105910509F009C100D000D0ADB73D
:101A5000BEB71296BC92AE92119784E090E01496B5
:101A60009C938E9313970E94A6750CE016E30F903B
:101A70000F900F900F90C0E0D0E04CE1E42EF12CDD
:101A8000F80180818823B1F0CE9DC001CF9D900DDB
:101A9000DE9D900D1124835F994C0E94D10A00D0E5
:101AA000ADB7BEB712969C928E9211970E94A67502
:101AB0000F900F902196045E1F4FC430D10501F79F
:101AC00000D000D0EDB7FEB77282618284E190E071
:101AD000948383830E94A67503EC17E30F900F9005
:101AE0000F900F90C0E0D0E081E0D8019C91992345
:101AF000A9F0C49DC001C59D900DD49D900D1124E9
:101B00008C53984C0E94D10A00D0EDB7FEB73282B8
:101B100021820E94A6750F900F9080E02196005DB3
:101B20001F4FC431D10509F7882369F000D0ECE7D5
:101B3000F1E0ADB7BEB71296FC93EE9311970E94F9
:101B4000A6750F900F9000D000D0EAE6F1E0ADB797
:101B5000BEB71296FC93EE93119784E190E0149631
:101B60009C938E9313970E94A675C3E8DBE30F90B6
:101B70000F900F900F9000E010E081E09881992382
:101B800009F449C08EE290E0089F7001099FF00CB3
:101B9000189FF00C1124C7018C57944C0E94D10A55
:101BA00000D000D0EDB7FEB7319680E691E0ADB73A
:101BB000BEB712969C938E93119789898283138264
:101BC0000E94A6750F900F900F900F90C7018A5634
:101BD000944C0E94D10A00D000D000D0E8E5F1E09A
:101BE000ADB7BEB71296FC93EE9311978BA19CA153
:101BF000ADA1BEA1EDB7FEB783839483A583B68361
:101C00000E94A6758DB79EB706960FB6F8949EBF34
:101C10000FBE8DBF80E00F5F1F4FAE9604311105E0
:101C200009F0ACCF882369F000D0EFE4F1E0ADB764
:101C3000BEB71296FC93EE9311970E94A6750F9073
:101C40000F9000D0E3E4F1E0ADB7BEB71296FC937D
:101C5000EE9311970E94A6750F900F908091682CBB
:101C60009091692CA0916A2CB0916B2C9370A0700C
:101C7000B07083309105A105B10509F09DCEE5ED69
:101C8000FFE38081918122E482349207A9F000D0A1
:101C900000D0ADB7BEB71296DC92CE921197E55D3B
:101CA000FF431496FC93EE9313970E94A6750F9032
:101CB0000F900F900F9080CE3A96B1E4E53FFB076E
:101CC00000F37ACE00D000D000D0EDB7FEB7319649
:101CD00020E231E0ADB7BEB712963C932E93119738
:101CE00093838283758364830E94A6758DB79EB7A4
:101CF00006960FB6F8949EBF0FBE8DBF08950F9342
:101D00001F93DF93CF93CDB7DEB7A2970FB6F894AA
:101D1000DEBF0FBECDBF82E290E00E949A78898339
:101D20009A83982F9B50903108F08A839A819095DE
:101D3000891709F470C000D083E992E0ADB7BEB74F
:101D400012969C938E9311970E94A6758E010D5F3B
:101D50001F4F0F900F90D80180E090E0FC01ED58EC
:101D6000FD4FE491ED93019688309105B9F7F89411
:101D7000CE01039660E070E048E050E00E94A07859
:101D8000D80180E090E0FC01E558FD4FE491ED932F
:101D900001968E309105B9F7CE01039668E070E0A8
:101DA0004EE050E00E94A07880E090E0FC01E75710
:101DB000FD4FE491D801ED938D0101968A30910594
:101DC000A9F7CE01039666E170E04AE050E00E9478
:101DD000A07884E290E06DEC7BEA0E94B87886E21D
:101DE00090E060E070E00E94B87888E290E060E007
:101DF0000E94AA7880E290E060E070E00E94B878EB
:101E00008AE1898385EE8A8369817A8182E290E022
:101E10000E94B87878948981A2960FB6F894DEBFB4
:101E20000FBECDBFCF91DF911F910F910895F89410
:101E300060E070E048E050E00E948278789480E0B2
:101E4000089584E290E00E949A78089586E290E0F6
:101E50000E949A78089588E290E00E94927808950E
:101E6000F8941092B60016BC83EF87BD82E084BD63
:101E700094E095BD95B395BB80936E0078940895DA
:101E80002091210B3091220B8091210B9091220BFC
:101E900028173907A9F7C90108952091742C3091AA
:101EA000752C4091762C5091772C8091742C9091C8
:101EB000752CA091762CB091772C281739074A07FA
:101EC0005B0759F7B901CA0108956093742C7093A8
:101ED000752C8093762C9093772C0895CF93DF9375
:101EE000EC010E94400FC80FD91F0E94400F8C1BAD
:101EF0009D0B97FDFACFDF91CF9108958430910526
:101F000048F00397880F991F880F991F969587951A
:101F10000197F1F70895CF93DF93EC0184EE93E0FE
:101F200005C00E947E0F219787EE93E02097C9F7A6
:101F3000DF91CF9108950F931F931FB7F8942091CD
:101F4000210B3091220B280F391F3093220B209345
:101F5000210B2091230BFC01E20FF11D0091182EA3
:101F60006091702C7091712C8091722C9091732CD7
:101F7000DF012CC0A058B0402091742C3091752CFA
:101F80004091762C5091772C2F5F3F4F4F4F5F4FF2
:101F90002093742C3093752C4093762C5093772C8F
:101FA0000023A1F020916C2C30916D2C40916E2C6F
:101FB00050916F2C2F5F3F4F4F4F5F4F20936C2CF2
:101FC00030936D2C40936E2C50936F2CA038B1053C
:101FD00088F69F01220F232F221F330B319540E0FB
:101FE00050E0260F371F481F591F2093702C309345
:101FF000712C4093722C5093732CEF77F070E09318
:10200000230B1FBF1F910F9108951F920F920FB6C0
:102010000F920BB60F9211242F933F934F935F9320
:102020006F937F938F939F93AF93BF93EF93FF93A0
:102030008091210B9091220B01969093220B80931B
:10204000210B8091230B8F5F8093230B8091230BB7
:1020500087FF15C01092230B8091742C9091752CE2
:10206000A091762CB091772C0196A11DB11D809383
:10207000742C9093752CA093762CB093772C809130
:10208000182E8823F1F08091240B8F5F8093240B0E
:102090008091240B87FF15C01092240B80916C2C2B
:1020A00090916D2CA0916E2CB0916F2C0196A11D7A
:1020B000B11D80936C2C90936D2CA0936E2CB093DB
:1020C0006F2C0E948E1F009711F00E948E1EFF91B0
:1020D000EF91BF91AF919F918F917F916F915F91A0
:1020E0004F913F912F910F900BBE0F900FBE0F900D
:1020F0001F9018951F920F920FB60F920BB60F926A
:1021000011242F933F934F935F936F937F938F93FC
:102110009F93AF93BF93EF93FF938091C600E0919D
:102120007A2CF0917B2C309709F00995FF91EF9173
:10213000BF91AF919F918F917F916F915F914F91DF
:102140003F912F910F900BBE0F900FBE0F901F90DD
:1021500018951F920F920FB60F920BB60F92112483
:102160002F933F934F935F936F937F938F939F939F
:10217000AF93BF93EF93FF938091CE00E091782CC3
:10218000F091792C309709F00995FF91EF91BF916B
:10219000AF919F918F917F916F915F914F913F91FF
:1021A0002F910F900BBE0F900FBE0F901F901895A0
:1021B000882371F41092C5006093C40088E980936D
:1021C000C1004093C20010927B2C10927A2C08958B
:1021D000813069F41092CD006093CC0088E980933F
:1021E000C9004093CA001092792C1092782C08955F
:1021F000882339F48091C00085FFFCCF6093C6002E
:102200000895813031F48091C80085FFFCCF609340
:10221000CE0008951F93182F8A3031F48091250B3A
:102220006DE00E94F81002C08D3029F08091250BDE
:10223000612F0E94F81080E090E01F91089588239C
:1022400029F470937B2C60937A2C0895813021F4CB
:102250007093792C6093782C0895EF92FF921F93DE
:10226000CF93DF93182FE62EE7017E01F72EE701CB
:102270000CC08A3021F4812F6DE00E94F810699122
:102280006D3019F0812F0E94F8108881882389F71A
:10229000DF91CF911F91FF90EF900895682F80E01C
:1022A0000E94F81008958093250B8AED95E0909395
:1022B000D23F8093D13F089584B7877F84BF88E160
:1022C0000FB6F89480936000109260000FBE0895DE
:1022D0002FE088E190E00FB6F894A8958093600015
:1022E0000FBE209360000895A895089588E10FB669
:1022F000F89480936000109260000FBE0895F894E7
:1023000028E088E190E00FB6F894A89580936000EB
:102310000FBE20936000FFCFEF92FF920F931F93A9
:1023200080FF54C02091270B3091260B232720FFDC
:102330000CC020919400309195003093B62E2093DC
:10234000B52E21E02093A62E41C02091A62E222357
:10235000E9F120919400309195006091B52E709133
:10236000B62E26173707A0F420917D2E30917E2EB1
:1023700040917F2E5091802E2C57314E4F4F5F4F02
:1023800020937D2E30937E2E40937F2E5093802E6F
:102390002091940030919500261B370B40E050E0CF
:1023A000E0907D2EF0907E2E00917F2E1091802E59
:1023B0002E0D3F1D401F511F20937D2E30937E2EEA
:1023C00040937F2E5093802E1092A62E81FF54C0F2
:1023D0002091270B3091260B232721FF0CC0209141
:1023E0009400309195003093B82E2093B72E21E0C1
:1023F0002093A72E41C02091A72E2223E9F12091FE
:102400009400309195006091B72E7091B82E2617E8
:102410003707A0F42091812E3091822E4091832E97
:102420005091842E2C57314E4F4F5F4F2093812E69
:102430003093822E4093832E5093842E20919400CB
:1024400030919500261B370B40E050E0E090812E44
:10245000F090822E0091832E1091842E2E0D3F1D20
:10246000401F511F2093812E3093822E4093832E44
:102470005093842E1092A72E82FF54C08091270B78
:102480009091260B892782FF0CC080919400909137
:1024900095009093BA2E8093B92E81E08093A82E58
:1024A00041C08091A82E8823E9F1809194009091F9
:1024B00095002091B92E3091BA2E82179307A0F47F
:1024C0008091852E9091862EA091872EB091882E96
:1024D0008C57914EAF4FBF4F8093852E9093862E91
:1024E000A093872EB093882E8091940090919500B0
:1024F000821B930BA0E0B0E02091852E3091862EB8
:102500004091872E5091882E820F931FA41FB51FD4
:102510008093852E9093862EA093872EB093882E3D
:102520001092A82E9091260B8091270B89270E944C
:1025300026561F910F91FF90EF9008950E94235609
:102540001092260B1092270B08950E94245608958E
:102550009091270B282F292B2093270B90958923C7
:102560000E948C1108952091270B982F909592230B
:102570009093270B82230E948C1108959091260B33
:1025800098279093260B0E948C1108950E94BE12EA
:1025900008951F931091260B8091270B18271095F3
:1025A000812F0E94BE12812F0E94BE121F9108959A
:1025B00080918C2C90E0FC01EE0FFF1F9695982FD8
:1025C000882797958795E80FF91FE357F34D1082F9
:1025D00008958091832C90E008958091390181FDC8
:1025E0000CC081E491E06FE140E00E94321981303B
:1025F00039F021E030E0813129F020E030E002C004
:1026000021E030E0C90108958091390181FD12C0B7
:1026100081E491E06FE140E00E943219982F8151EE
:10262000823050F09F3141F0913041F081E09230A2
:1026300031F402C081E0089580E0089580E00895BB
:10264000CF93DF93C0E1D7E20E940413882311F4F3
:102650002197D1F7DF91CF910895E9E3F1E08081EF
:1026600080818D7F80838DE090E00197F1F782E497
:1026700091E06FE140E023E00E943C1983E090E0AC
:102680000197F1F708950E9420130E942D13809165
:1026900039018260809339018091A82E8823E9F165
:1026A00080919400909195002091B92E3091BA2E8E
:1026B00082179307A0F48091852E9091862EA09189
:1026C000872EB091882E8C57914EAF4FBF4F80937D
:1026D000852E9093862EA093872EB093882E80917E
:1026E000940090919500821B930BA0E0B0E02091A4
:1026F000852E3091862E4091872E5091882E820F04
:10270000931FA41FB51F8093852E9093862EA093B0
:10271000872EB093882E1092A82E1092182E80919A
:10272000AA2E8823E9F18091940090919500209140
:10273000BD2E3091BE2E82179307A0F480918D2E6E
:1027400090918E2EA0918F2EB091902E8C57914EFD
:10275000AF4FBF4F80938D2E90938E2EA0938F2ED0
:10276000B093902E8091940090919500821B930BD2
:10277000A0E0B0E020918D2E30918E2E40918F2ED2
:102780005091902E820F931FA41FB51F80938D2E02
:1027900090938E2EA0938F2EB093902E1092AA2EEF
:1027A00008958091182E882321F00E9404130E941E
:1027B000431380E090E008959091390191FD0AC0A3
:1027C000282F803108F02FE085E491E06FE040E0B1
:1027D0000E943C190895B82FA92FF62FE72F2091BA
:1027E000212E3091222E4091232E5091242E2F5FA6
:1027F0003F4F4F4F5F4F2093212E3093222E409317
:10280000232E5093242E862F8E5F87FF0CC080913D
:10281000152E9091162E01969093162E8093152EBC
:102820002FEF3FEF0BC028E23BE0C9016B2F7A2F5F
:102830004F2F5E2F0E943A7520E030E0C9010895C5
:1028400081E491E06FE140E00E94321908950F9316
:102850001F93182F883049F0863039F0893029F0DD
:10286000863119F0893109F041C08091390181FD2B
:1028700040C00E9420130E942014082F181709F44A
:102880003BC0183019F40E942D1329C0193141F4AE
:102890008631A9F482E491E06FE140E029E009C0CB
:1028A000163169F4893159F482E491E06FE140E036
:1028B00026E00E943C19E3E0F0E03197F1F782E472
:1028C00091E06FE140E0212F0E943C19083019F49B
:1028D000E9E6F1E002C0E3E0F0E03197F1F70E94B1
:1028E0002014811749F023E430E008C022E430E0EE
:1028F00005C024E430E002C020E430E0C9011F91AB
:102900000F91089580919400909195009093BE2E20
:102910008093BD2E21E02093AA2E2093182E809123
:10292000390181FF16C08091940090919500909399
:10293000BA2E8093B92E2093A82E2093172E789428
:10294000809139018D7F809339018091172E8823E2
:10295000E1F786E10E9427140E94201308958091D8
:10296000182E882311F40E94821481E090E00895CB
:102970000F931F938091182E882359F0809139016D
:1029800081FD74C00E940413882309F46FC000E025
:1029900003C00E94AF1401E08091940090919500D3
:1029A0009093B82E8093B72E11E01093A72E7894B1
:1029B00086E00E9427141093842C10924701809186
:1029C000842C8823E1F7809147018E3010F010E0CD
:1029D00001C01FEF86E10E9427148091A72E882353
:1029E000E9F180919400909195002091B72E30915B
:1029F000B82E82179307A0F48091812E9091822E99
:102A0000A091832EB091842E8C57914EAF4FBF4F23
:102A10008093812E9093822EA093832EB093842E48
:102A20008091940090919500821B930BA0E0B0E000
:102A30002091812E3091822E4091832E5091842EB0
:102A4000820F931FA41FB51F8093812E9093822E17
:102A5000A093832EB093842E1092A72E002311F002
:102A60000E94D11321E030E016FD02C020E030E0EA
:102A7000C9011F910F9108958093AA0B08950E9498
:102A800020148250813130F4E82FF0E0ED5EF94FF0
:102A90008081089581E00895282F8EE691E060E21C
:102AA00045E00E943C1908958FEF80934E018CE61B
:102AB00091E060EF44E022E00E943C198CE691E056
:102AC0006EE041E025E00E943C1980E880936F01B0
:102AD0008091460180936D0184E491E060E245E0DD
:102AE00021E00E943C190895CF93DF93CDEFD3E00E
:102AF000CE010197F1F70E942D1910928D2C1092A2
:102B00000F2D1092912D10928C2C10928B2CE9E3AA
:102B1000F1E080818E7F808380818D7F808381EC56
:102B20009DE00197F1F780818160808382E491E0EC
:102B30006FE140E023E00E943C192197F1F780917A
:102B40005D0180915E010E94541585EF95E060E083
:102B500070E00E94361D0E94821481E090E0DF91B7
:102B6000CF9108958091A90B0895DF93CF930F9291
:102B7000CDB7DEB789830E94201329812093A90B4A
:102B800088E491E06FE140E00E943C190F90CF9102
:102B9000DF9108950E94B51586E00E9427140895DC
:102BA000809362019093630160936001709361016F
:102BB0004115510531F1FA01819180936B01DA01E0
:102BC00011968C9180936A01DF0111968181809327
:102BD0006901FD01319611968C9180936801DF01A6
:102BE0001196818180936701FD01319611968C9138
:102BF0001197809366018181809365018281809322
:102C00006401089585EF95E00E94591D81E080934D
:102C1000832C8091852C9091862C01969093862C04
:102C20008093852C8091652E9091662EA091672EC1
:102C3000B091682E0196A11DB11D8093652E9093D1
:102C4000662EA093672EB093682E81E090E00895E1
:102C5000EF92FF92CF93DF9350918C2C252F30E091
:102C6000F901EE0FFF1F3695322F22273795279552
:102C7000E20FF31FE357F34D4081442309F4CEC024
:102C80002091390121FDCAC02091182E222309F478
:102C9000C5C047FF16C00E94D8128091512E909156
:102CA000522EA091532EB091542E0196A11DB11D0C
:102CB0008093512E9093522EA093532EB093542E66
:102CC000ADC04330B0F40E94D81280914D2E909147
:102CD0004E2EA0914F2EB091502E0196A11DB11DE8
:102CE00080934D2E90934E2EA0934F2EB093502E46
:102CF00095C0C42FD0E022976C177D07B0F40E94D6
:102D0000D8128091492E90914A2EA0914B2EB091CD
:102D10004C2E0196A11DB11D8093492E90934A2EF1
:102D2000A0934B2EB0934C2E79C0652F70E09B0181
:102D3000220F331F7695762F662777956795260F96
:102D4000371F2257334DB90150E00E943A75209148
:102D50008C2C822F90E0FC01EE0FFF1F9695982F90
:102D6000882797958795E80FF91FE35FF24D8081DB
:102D700080937C2C822F90E0FC01EE0FFF1F969534
:102D8000982F882797958795E80FF91FE357F34DFC
:102D900010822F5F20938C2C233010F010928C2CFB
:102DA00080918C2C90E0FC01EE0FFF1F9695982FE0
:102DB000882797958795E80FF91FE357F34D808192
:102DC000882311F00E9402166091470160937D2CC8
:102DD0008091822C882311F0681710F46093822C64
:102DE00084E070E00E946B2560917C2C83E070E0B1
:102DF0000E946B258091252E9091262EA091272E42
:102E0000B091282E0196A11DB11D8093252E90937F
:102E1000262EA093272EB093282E02C0C0E0D0E02B
:102E2000CE01DF91CF91FF90EF9008950F931F9304
:102E3000DF93CF930F92CDB7DEB78C01FC01808179
:102E40009181009729F0F5E081319F0769F506C06F
:102E500081E195E0F801918380832BC0623849F5C8
:102E60001092832C0E94E5248FB78983F8940E94E6
:102E70003F2460E870E00E94281629812FBF1816B1
:102E8000190644F40E943A24E0915506F091560642
:102E90000995DECF8091802C9091812C01969093A2
:102EA000812C8093802CD4CFF8011182108283E092
:102EB00001C081E00F90CF91DF911F910F91089594
:102EC0000E94DC1308958091390181FD07C085E4DB
:102ED00091E06FE040E00E943219089580E108958A
:102EE000DF92EF92FF920F931F93CF93DF93D82E31
:102EF0008091390181FF1AC08091940090919500D2
:102F00009093BA2E8093B92E81E08093A82E80935F
:102F1000172E809139018D7F8093390180E197E2EE
:102F20002091172E222311F00197D1F70E94201330
:102F30008091182E882309F441C08091AA2E8823FD
:102F4000E9F120919400309195008091BD2E9091EF
:102F5000BE2E28173907A0F420918D2E30918E2E89
:102F600040918F2E5091902E2C57314E4F4F5F4FE6
:102F700020938D2E30938E2E40938F2E5093902E33
:102F80002091940030919500281B390B40E050E0CF
:102F9000E0908D2EF0908E2E00918F2E1091902E1D
:102FA0002E0D3F1D401F511F20938D2E30938E2ECE
:102FB00040938F2E5093902E1092AA2E89E10E945A
:102FC000271486E00E947625009751F00E9463172F
:102FD000C82F86E00E94762581500E94DC1302C033
:102FE000C0E0D0E080919400909195009093BC2E29
:102FF0008093BB2E81E08093A92EF89480913901B3
:10300000826080933901809139018D7F80933901ED
:103010006D2D6E5F88E29BE00E947A197894809112
:10302000132E9091142E01969093142E8093132EAC
:103030000E94201382E491E060EE45E00E94321984
:10304000182F86E00E947625009719F08C2F0E9499
:10305000DC138091A92E8823E9F12091940030910E
:1030600095008091BB2E9091BC2E28173907A0F4B3
:103070002091892E30918A2E40918B2E50918C2E4A
:103080002C57314E4F4F5F4F2093892E30938A2E0D
:1030900040938B2E50938C2E20919400309195006C
:1030A000281B390B40E050E06091892E70918A2EE8
:1030B00080918B2E90918C2E260F371F481F591F01
:1030C0002093892E30938A2E40938B2E50938C2EF2
:1030D0001092A92E8091182E882371F0809194006F
:1030E000909195009093BE2E8093BD2E81E08093A9
:1030F000AA2E0E94821402C00E944313113011F0C4
:10310000112369F58091612E9091622EA091632E1A
:10311000B091642E0196A11DB11D8093612E9093F4
:10312000622EA093632EB093642E8CE00E947625CD
:10313000009709F445C080913D2E90913E2EA091BC
:103140003F2EB091402E0196A11DB11D80933D2EC2
:1031500090933E2EA0933F2EB093402E31C013305B
:10316000A9F48091592E90915A2EA0915B2EB09186
:103170005C2E0196A11DB11D8093592E90935A2E5D
:10318000A0935B2EB0935C2E12E01DC01530A9F405
:103190008091452E9091462EA091472EB091482EB9
:1031A0000196A11DB11D8093452E9093462EA093AC
:1031B000472EB093482E13E006C0173021F402C00A
:1031C00010E001C011E0812F90E0DF91CF911F91BD
:1031D0000F91FF90EF90DF900895CF93DF93EB0175
:1031E0000E94EB139C01009731F4CE010E947017EE
:1031F0009C01009749F08091152E9091162E019612
:103200009093162E8093152EC901DF91CF910895CA
:103210000F931F938091182E882321F40E94AF14DE
:1032200011E001C010E00E942014863111F08131BC
:1032300019F40091470109C086E491E06FE140E094
:103240000E943219082F000F080F112311F00E945D
:10325000D113802F1F910F9108951092AC0B1092F3
:10326000AB0B0895FC018081862390E002C0959508
:1032700087954A95E2F70895F894FC019081862F8E
:103280008095892330E002C0220F331F4A95E2F770
:103290002623282B20837894089520917B01322FB8
:1032A00033503D37E0F4FC012193215030E0A90177
:1032B0004F575E4FA0E8B1E06D916193A417B50739
:1032C000D9F7FC01E058FF4F2F573E4FD9012C9101
:1032D00020838F579F4F21E0FC0120830895DC015C
:1032E0001C92FC01E058FF4F10828F579F4FFC014A
:1032F00010820895FC016093800101966350860F4F
:10330000911DA1E8B1E021912D93E817F907D9F7B4
:1033100008951F920F920FB60F920BB60F921124C1
:103320002F933F934F935F936F937F938F939F93CD
:10333000AF93BF93EF93FF938091470180937D2CD0
:1033400020918B2C30E0C901880F991F3695322FC0
:10335000222737952795820F931F8357934D0E94FD
:103360004D1980918B2C8F5F80938B2C833010F0C4
:1033700010928B2C0E940216FF91EF91BF91AF919A
:103380009F918F917F916F915F914F913F912F917D
:103390000F900BBE0F900FBE0F901F9018951F92AD
:1033A0000F920FB60F9211240F900FBE0F901F9027
:1033B00018951F920F920FB60F9211240F900FBE07
:1033C0000F901F9018951F920F920FB60F92112415
:1033D0000F900FBE0F901F9018951F920F920FB66F
:1033E0000F9211241092172E0F900FBE0F901F9066
:1033F00018951F920F920FB60F9211241092172E4C
:103400000F900FBE0F901F9018951F920F920FB63E
:103410000F9211248F9381E08093832C8F910F90D2
:103420000FBE0F901F9018951F920F920FB60F921C
:1034300011241092842C0F900FBE0F901F9018959E
:103440001F920F920FB60F9211248F939F9380912A
:10345000AB0B9091AC0B01969093AC0B8093AB0BA4
:103460009F918F910F900FBE0F901F901895262F50
:10347000372FF901282F392FD90188E091919D9399
:103480008150E1F70895282F392FD901862F972FE2
:10349000FC0188E02D919191291729F48150D1F7F1
:1034A00021E030E002C020E030E0C9010895282F7B
:1034B000392FD901E9E1FEE28D9181938EE2E1326B
:1034C000F807D1F70895E0915106F0915206099559
:1034D0000895E091FD06F091FE0609950895E091AA
:1034E0005706F091580609950895E0915906F09114
:1034F0005A060995089580E090E008950895E091B6
:103500000F06F091100609950895009731F0E091AB
:103510000F06F091100609950895E0911106F091BB
:1035200012060995089580E090E008950F931F9387
:10353000DF93CF93CDB7DEB7E0970FB6F894DEBF39
:103540000FBECDBF0E9491248C010E943F24602FAA
:10355000AE014F5F5F4F0E94F658882309F445C0C3
:1035600088A99801281B3109C9010E941B240097D2
:10357000E1F12E81222371F18A859B853BEA8D3C06
:10358000930721F03FEF8F3F930779F5223041F009
:1035900088E090E007C0019722912F3F41F00BC0D7
:1035A00082E090E0FE01E80FF91F3C96F4CF181678
:1035B00019068CF30FC089E1BE01645F7F4F0E9442
:1035C0007F2589E10E948C2569E17EE20E94431AF1
:1035D000009759F088E1BE016A5E7F4F0E947F2507
:1035E000E0913A06F0913B060995E0960FB6F89403
:1035F000DEBF0FBECDBFCF91DF911F910F91089518
:10360000AF92BF92CF92DF92EF92FF920F931F93F0
:10361000DF93CF93CDB7DEB7E0970FB6F894DEBF58
:103620000FBECDBF6C018B01FE01319680E3DF013F
:103630001D928A95E9F781E089838CE00E947625C6
:103640008C831D821F828091AD0B89878F5F809351
:10365000AD0B83E0E82EE8868DEC9BEA9B878A879A
:1036600089E10E948C2564E276E00E94431A00976B
:1036700031F082E08E838FEF8C878D8709C089E1DE
:103680000E948C25BC01CE010C960E94371AEE8256
:103690008DEC9BEA9D8B8C8BCE01469669E17EE298
:1036A0000E94371A0E943F249FA78EA70E94912450
:1036B00088AB7E010894E11CF11CC7010E94ED5704
:1036C000A82E90E00E94A724009741F10E94472471
:1036D000BC01C7014A2D0E940B58A0900506B0906E
:1036E00006060E9447247C010E949B24BC01C7015E
:1036F000F5010995C114D10489F0009721F08130BA
:10370000910561F404C0C80160E070E003C0C80125
:1037100064E070E041E050E0F6010995E0960FB6F4
:10372000F894DEBF0FBECDBFCF91DF911F910F91F7
:10373000FF90EF90DF90CF90BF90AF9008950E94E0
:10374000B3238093AD0BE0910F06F091100609951D
:1037500008950F931F93CF93DF938C01EB014115D5
:10376000510549F0FA01828193810E942026C80107
:10377000BE010E94001BDF91CF911F910F91089510
:103780001F93CF93DF93EC01162F888580FF1DC018
:10379000EC81FD813097C9F0D093B10BC093B00B91
:1037A00082E08887CE0106960995992787FD909536
:1037B00002978230910510F0133829F4CE01BE0132
:1037C0000E94E91B02C081E08887DF91CF911F91A1
:1037D0000895CF92DF92EF92FF920F931F93CF93B2
:1037E000DF93EC017B01C090B00BD090B10B009146
:1037F000AE0B1091AF0BF80103C00190F081E02DEA
:10380000EC17FD0719F03097C1F746C0209709F46F
:1038100043C08885882309F118860BC0C017D107DB
:1038200029F0C80167E8AE010E94C01BF8010081C1
:1038300011810115110591F7EC81FD81309769F037
:10384000CE15DF0551F0D093B10BC093B00BCE0174
:10385000069663E840E050E00995E091AE0BF091E8
:10386000AF0BCE17DF0791F4888199819093AF0B4E
:103870008093AE0B0DC0808191818C179D0729F438
:10388000888199819183808303C0FC01309799F7E7
:10389000D092B10BC092B00BDF91CF911F910F91DD
:1038A000FF90EF90DF90CF9008951F93CF93DF9319
:1038B0001092B20BC091AE0BD091AF0B11E00EC0C5
:1038C0008985882341F018871986CE0162E840E097
:1038D00050E00E94C01B0990D881C02D209781F72D
:1038E000DF91CF911F91089580915D0C982F9F5F7C
:1038F00090935D0C08956091B00B7091B10B0E9494
:10390000E91B08958AE880935D0C1092B40B109225
:10391000B30B1092AF0B1092AE0B1092B10B109232
:10392000B00B08958091B20B882311F00E94551CB2
:103930007091B30B772309F455C02091B40B30E09C
:10394000F901EE0FFF1FEE0FFF1FE20FF31FEB5405
:10395000F44F608160935C0C4181528150935B0C09
:1039600040935A0C838194819093590C8093580C06
:103970002F5F3F4F2F7130702093B40B71507093B5
:10398000B30B009741F58091AE0B9091AF0B18C02F
:103990008091B20B882311F00E94551C40915A0C63
:1039A00050915B0C8091560C9091570C60915C0C7F
:1039B0000E94C01BE091560CF091570C80819181C0
:1039C0009093570C8093560C8091560C9091570C05
:1039D0000097F1F607C0613819F421E0FC01208757
:1039E0000E94C01B8091B20B2091B30B30E0280FD6
:1039F000311DC90108958091B20B2091B30B30E0C5
:103A0000280F311DC90108957091B30B7032D9F0A0
:103A10002091B40B270F2F712093550C30E0F90142
:103A2000EE0FFF1FEE0FFF1FE20FF31FEB54F44FDB
:103A3000608352834183948383837F5F7093B30B4E
:103A400020E030E002C021E030E0C9010895CF93CA
:103A5000DF93C091B00BD091B10B0E94C01BD093EB
:103A6000B10BC093B00BDF91CF910895FC01AB0176
:103A70009091AE0B8091AF0B9C01A32FB22F03C08E
:103A80000D90BC91A02DAE17BF0791F01097C1F714
:103A9000309771F090838183F093AF0BE093AE0B7E
:103AA00081E0808717821682CF0161E80E94271D7E
:103AB0000895FC01009741F080858150823020F408
:103AC00081E081878093B20B089521E030E0FC0112
:103AD0008085882311F420E030E0C9010895EF9239
:103AE000FF92CF93DF93E82EE7017E01F92EE701E5
:103AF00004C060E070E00E94361D899199910097A2
:103B0000C1F7DF91CF91FF90EF900895EF92FF9270
:103B1000CF93DF93E82EE7017E01F92EE70102C083
:103B20000E947B1C899199910097D1F7DF91CF91E9
:103B3000FF90EF90089510926D2E10926E2E1092BD
:103B40006F2E1092702E1092692E10926A2E109283
:103B50006B2E10926C2E0895EF92FF920F931F938D
:103B6000CF93DF93EC010E947C2187E090E00E94DC
:103B70002B219B01AC0188819981AA81BB81E090B6
:103B8000620CF090630C0091640C1091650C8E191E
:103B90009F09A00BB10B820F931FA41FB51F888331
:103BA0009983AA83BB832093620C3093630C409368
:103BB000640C5093650C86E090E00E942B219B01E1
:103BC000AC018C819D81AE81BF81E0905E0CF09054
:103BD0005F0C0091600C1091610C8E199F09A00B75
:103BE000B10B820F931FA41FB51F8C839D83AE83DF
:103BF000BF8320935E0C30935F0C4093600C509316
:103C0000610CDF91CF911F910F91FF90EF9008957C
:103C1000FC01148215821682178210821182128290
:103C200013820895CF93DF93EC0187E00E947625FD
:103C300068817981680F791F87E00E946B2588E091
:103C40000E9476256C817D81680F791F88E00E9433
:103C50006B25DF91CF910895EF92FF920F931F9301
:103C6000CF93DF93EC01E880F9800A811B8187E024
:103C70000E947625A0E0B0E08E0D9F1DA01FB11F11
:103C800088839983AA83BB83EC80FD800E811F818A
:103C900088E00E947625A0E0B0E08E0D9F1DA01F59
:103CA000B11F8C839D83AE83BF83DF91CF911F9122
:103CB0000F91FF90EF9008958091660C9091670CA2
:103CC000009729F41092690C1092680C08950E94D4
:103CD000400FE091660CF091670C228133814081A6
:103CE0005181240F351F281B390B0CC04281538191
:103CF00060817181460F571F481B590B42175307AC
:103D000008F49A010480F581E02D309779F7280FA7
:103D1000391F3093690C2093680C089589E696E06A
:103D20000E94591D0895CF92DF92EF92FF920F9358
:103D30001F93CF93DF937C01FC01808191810097D9
:103D400029F08A35910509F06EC00BC01092670CFE
:103D50001092660C8AE590E0F7019183808381E000
:103D600066C0673849F5CA01E091660CF091670CAE
:103D700003C00480F581E02D309741F3268137811F
:103D800028173907B1F3E093660CF093670C0FC066
:103D900016962D913C9117972817390739F41496E8
:103DA0002D913C91159735832483DF01FD01A4817A
:103DB000B581109769F7CECF623861F6C091660C75
:103DC000D091670C00E010E02BC0CE010E94A970DA
:103DD0000097F1F08E819F8168E8AE010E94041D7A
:103DE0000097A1F41F821E828C819D81011511050F
:103DF00021F0F8019583848304C09093670C80932D
:103E0000660C1D821C820E945C1ED8CF0E948E1EF2
:103E10008E019C818D81C92EE6016E01D82EE601AE
:103E2000209799F697CFF7011182108283E0DF91F6
:103E3000CF911F910F91FF90EF90DF90CF90089559
:103E4000CF93DF93EC010E948E1E8E819F8100979D
:103E500069F0E091660CF091670C06C0EC17FD0765
:103E6000A9F00480F581E02D3097C1F78091B00B67
:103E70009091B10B9F838E838091660C9091670C1B
:103E80009D838C83D093670CC093660C0E945C1E4C
:103E9000DF91CF910895CF93DF93EC010E94897059
:103EA000CE010E94201FDF91CF910895CF93DF9321
:103EB000EC010E949570CE010E94201FDF91CF91EE
:103EC0000895CF93DF93EC010E949F70CE010E9472
:103ED000201FDF91CF910895FC0180819181860F91
:103EE000971F918380830E945C1E089521E030E03B
:103EF000FC0186819781009711F020E030E0C90134
:103F00000895FC012281338180819181280F391F1E
:103F1000C9010895FC0180819181089521E030E07C
:103F20008091660C9091670C009711F420E030E0CE
:103F3000C90108958091660C9091670C009729F053
:103F40002091680C3091690C02C020E030E0C9017A
:103F50000895CF93DF93EC01E091660CF091670C2C
:103F60008E179F0741F48C819D819093670C8093FD
:103F7000660C14C0FC01309731F0848195818C1758
:103F80009D07C1F707C01D821C821F821E82DF9120
:103F9000CF9108958C819D81958384830E945C1EBE
:103FA000F2CFCF92DF92EF92FF920F931F93CF93B6
:103FB000DF938C017A01FC0180819181009729F0C7
:103FC0008B34910509F051C01EC08BE69CE00E9425
:103FD000D970C82EE6017E01F92EE70109C06C8177
:103FE0007D81CE0102960E944B1F0990D881C02D81
:103FF0002097A9F781E080936A0C8BE490E0F801A8
:104000009183808337C06838A9F58BE69CE00E94D5
:10401000D970C82EE6016E01D92EE60123C0CE016B
:104020000296E816F906D9F48BE69CE0BE010E94E0
:104030002771E090B00BF090B10B8A859B8590932F
:10404000B10B8093B00BEC85FD85309719F08E8510
:104050009F850995F092B10BE092B00BCECF0990FD
:10406000D881C02D2097D9F6C8CFF80111821082CF
:1040700083E001C081E0DF91CF911F910F91FF900C
:10408000EF90DF90CF90089510926A0C8BE69CE041
:104090000E94D57082E896E060E070E00E94361DD4
:1040A00008950F931F93CF93DF93EC010091B00B12
:1040B0001091B10B1B870A875D874C873F872E873E
:1040C00080916A0C882379F082E896E09093B10B96
:1040D0008093B00BCE0102960E944B1F1093B10B40
:1040E0000093B00B02C07D836C838BE69CE0BE0125
:1040F0000E9427718BE69CE0BE010E946071DF91F7
:10410000CF911F910F9108950F931F93CF93DF933A
:10411000EC0180916A0C882391F00091B00B109112
:10412000B10B82E896E09093B10B8093B00BCE0177
:1041300002960E94561F1093B10B0093B00B8BE6B2
:104140009CE0BE010E9427718BE69CE0BE010E94AC
:104150006071DF91CF911F910F9108950F931F937D
:10416000CF93DF93EC0180916A0C882391F000914A
:10417000B00B1091B10B82E896E09093B10B809355
:10418000B00BCE0102960E94611F1093B10B0093F9
:10419000B00B8BE69CE0BE010E9427718BE69CE091
:1041A000BE010E946071DF91CF911F910F91089520
:1041B000CF93DF93EC0180916A0C882329F0CE0124
:1041C00002960E94A91F04C01F821E8219861886AB
:1041D0008BE69CE0BE010E942771DF91CF9108958C
:1041E000CF93DF93EC0180916A0C882331F0CE01EC
:1041F00002960E94761F9C0114C08BE69CE00E94F0
:10420000D970E82FF92F06C0EC17FD0741F0019097
:10421000F081E02D3097C1F721E030E002C020E0CE
:1042200030E0C901DF91CF910895CF93DF93EFEA9A
:10423000FEE2C1E7DEE2A3EABEE211921192199218
:104240001992199219921D928EE2E73CF807A9F78C
:10425000DF91CF9108950F931F93CF93DF93FC01CC
:10426000DC01AD55B14D8C91882339F1009194005A
:1042700010919500EF01CC0FDD1FCC0FDD1FCF5843
:10428000D14DDF01AA0FBB1FA155B14D8D919C915E
:1042900011979801281B390B40E050E06881798123
:1042A0008A819B81260F371F481F591F2883398316
:1042B0004A835B8311961C930E93EE0FFF1FEE0F44
:1042C000FF1FEF58F14D6081718182819381DF91F1
:1042D000CF911F910F91089560E070E0CB01089598
:1042E000FC01EE0FFF1FEE0FFF1FEF58F14D408353
:1042F0005183628373830895EF92FF920F931F930C
:10430000CF93DF9323EA3EE2C1E7DEE2EFEAFEE28B
:10431000D9018D919D018823C9F04091940050915D
:104320009500808191817A01E81AF90A00E010E095
:1043300088819981AA81BB818E0D9F1DA01FB11F0D
:1043400088839983AA83BB835183408324963296C2
:10435000BEE22F3A3B07E1F6DF91CF911F910F911B
:10436000FF90EF9008950E94A05608950F931F9319
:10437000FC01CB0140916D0C50916E0C3383228374
:104380001583048371836083F0936E0CE0936D0C4E
:104390004115510511F40E94BA5680E090E01F913A
:1043A0000F91089580916D0C90916E0C0097C1F063
:1043B00010926E0C10926D0CDC0114966D917C9134
:1043C00015971296ED91FC9113970995E0916D0C5C
:1043D000F0916E0C309721F0808191810E94BA5645
:1043E00008950F931F930091192E10911A2E0E9479
:1043F0004D0F2DB73EB7225530400FB6F8943EBF53
:104400000FBE2DBFEDB7FEB731962FE233E0ADB74B
:10441000BEB712963C932E93119702831382148396
:10442000158266837783808791878091212E909172
:10443000222EA091232EB091242E82879387A487C9
:10444000B5878091252E9091262EA091272EB09190
:10445000282E86879787A08BB18B8091292E9091EB
:104460002A2EA0912B2EB0912C2E828B938BA48B75
:10447000B58B80912D2E90912E2EA0912F2EB09144
:10448000302E868B978BA08FB18F8091312E90919B
:10449000322EA091332EB091342E828F938FA48F21
:1044A000B58F8091352E9091362EA091372EB091F8
:1044B000382E868F978FA0A3B1A38091392E90912B
:1044C0003A2EA0913B2EB0913C2E82A393A3A4A39D
:1044D000B5A380913D2E90913E2EA0913F2EB0919C
:1044E000402E86A397A3A0A7B1A78091412E9091BB
:1044F000422EA091432EB091442E82A793A7A4A749
:10450000B5A78091452E9091462EA091472EB0914F
:10451000482E86A797A7A0ABB1AB8091492E90916A
:104520004A2EA0914B2EB0914C2E82AB93ABA4ABF4
:10453000B5AB80914D2E90914E2EA0914F2EB09103
:10454000502E86AB97ABA0AFB1AF8091512E90911A
:10455000522EA091532EB091542E82AF93AFA4AFA0
:10456000B5AFEDB7FEB7FF968091552E9091562EC0
:10457000A091572EB091582E80839183A283B3834C
:10458000EDB7FEB7ED5BFF4F8091592E90915A2EFB
:10459000A0915B2EB0915C2E80839183A283B38324
:1045A000EDB7FEB7E95BFF4F80915D2E90915E2ED7
:1045B000A0915F2EB091602E80839183A283B383FC
:1045C000EDB7FEB7E55BFF4F8091612E9091622EB3
:1045D000A091632EB091642E80839183A283B383D4
:1045E000EDB7FEB7E15BFF4F8091652E9091662E8F
:1045F000A091672EB091682E80839183A283B383AC
:104600000E94A6750091192E10911A2E2DB73EB753
:104610002E5A3F4F0FB6F8943EBF0FBE2DBF0E94DB
:104620004D0FADB7BEB7D2970FB6F894BEBF0FBE51
:10463000ADBFEDB7FEB7319620EC32E012963C9359
:104640002E931197028313821483158266837783D6
:10465000808791878091712E9091722EA091732EF8
:10466000B091742E82879387A487B5878091752E29
:104670009091762EA091772EB091782E868797878D
:10468000A08BB18B8091792E90917A2EA0917B2E68
:10469000B0917C2E828B938BA48BB58B80917D2ED9
:1046A00090917E2EA0917F2EB091802E868B978B3D
:1046B000A08FB18F8091812E9091822EA091832E18
:1046C000B091842E828F938FA48FB58F8091852E89
:1046D0009091862EA091872EB091882E868F978FED
:1046E000A0A3B1A38091892E90918A2EA0918B2EA8
:1046F000B0918C2E82A393A3A4A3B5A380918D2EF9
:1047000090918E2EA0918F2EB091902E86A397A37C
:10471000A0A7B1A78091992E90919A2EA0919B2E3F
:10472000B0919C2E82A793A7A4A7B5A780919D2E98
:1047300090919E2EA0919F2EB091A02E86A797A714
:10474000A0ABB1AB0E94A6752DB73EB72E5C3F4F14
:104750000FB6F8943EBF0FBE2DBF1F910F91089565
:104760000E94227508950E941D75089580E380932C
:104770006F0C0895EF92FF92CF93DF9320916F0C0F
:1047800030E0C0E3D0E0C21BD30B2C58334FB9014B
:10479000AE010E943A75CE01DF91CF91FF90EF906C
:1047A0000895AF92BF92CF92DF92EF92FF920F9354
:1047B0001F93CF93DF937C01C090700CD090710C4D
:1047C00020916F0C30E08601005D1F4F021B130B20
:1047D00001381105E0F4C0E3D0E0C21BD30B2C5824
:1047E000334FB901AE010E943A75CE0DDF1D209105
:1047F000720C3091730C8091260D9091270D280F2B
:10480000391FCE01B901A6010E943A7502C000E02D
:1048100010E0C801DF91CF911F910F91FF90EF90B1
:10482000DF90CF90BF90AF90089590916F0C980F4C
:1048300090936F0C08954091700C5091710C9C01F5
:104840004817590798F08091260D9091270D820FF7
:10485000931F9093270D8093260D421B530B50936B
:10486000710C4093700C21E030E002C020E030E099
:10487000C90108959093710C8093700C0895209154
:10488000260D3091270D2C55334FC90108952091E5
:104890006F0C30E02C58334FC901089521E030E00F
:1048A0008091720C9091730C4CE0843A940711F44F
:1048B00020E030E0C90108950E944E24009771F075
:1048C00024EA3CE06091720C7091730C4091700C82
:1048D0005091710CC9010E943A750895A091260D5E
:1048E000B091270D1097B9F02091700C3091710C98
:1048F000205D3F4FAC55B34FE4EAFCE080E390E02D
:1049000003C04D914193019682179307D4F31092FF
:10491000270D1092260D08958091720C9091730CC2
:1049200008958091700C9091710C089590916F0C86
:1049300080E3891B089580E390916F0C891B20917F
:10494000700C3091710C280F311DC90108951F930F
:10495000CF93DF93EC0110916F0C812F90E08C17B7
:104960009D076CF00E949B248C0F9D1F8138910540
:1049700030F41C1B10936F0C21E030E002C020E0EB
:1049800030E0C901DF91CF911F910895CF93DF935C
:10499000E7EEFEE2119211928FE2E731F807D1F7CC
:1049A000C0E0D0E0CE0123E0880F991F2A95E1F7FF
:1049B0008953914D64E276E00E94371A2196C43003
:1049C000D10581F7DF91CF9108951092270D1092B4
:1049D000260D1092710C1092700C80E380936F0C76
:1049E00084EA9CE09093730C8093720C0E94C6241E
:1049F00008950F931F93CF93DF93EC018B010E94D7
:104A0000E524D093730CC093720C1093710C009337
:104A1000700CDF91CF911F910F910895CF92DF928B
:104A2000EF92FF920F931F93DF93CF9300D0CDB7F8
:104A3000DEB78C0169837A830E94E52469817A81DB
:104A4000C62ED72E21E8C216D10418F030E8C32EA6
:104A5000D12C8091720C9091730CB801A6010E9428
:104A60003A75D092710CC092700CC6010F900F90E5
:104A7000CF91DF911F910F91FF90EF90DF90CF903A
:104A80000895282F392FD901E7EEFEE280E3019047
:104A90000D928150E1F7862F972FDC01E7ECFEE2C3
:104AA00080E201900D928150E1F70895E7EEFEE279
:104AB000282F392FD90180E30D9001928150E1F721
:104AC000A7ECBEE2862F972FFC0180E201900D92A9
:104AD0008150E1F70895E82FF0E0EE0FFF1FE95154
:104AE000F14D7183608381E090E00895E82FF0E05C
:104AF000EE0FFF1FE951F14D80819181089590E003
:104B0000E3E0880F991FEA95E1F7895F914D0E94D4
:104B1000371A81E090E00895282F30E0F3E0220F6B
:104B2000331FFA95E1F7295F314DC90108958CE9EA
:104B300096E00E9401708CE896E00E94017084E982
:104B400096E00E9401700895EF92FF920F931F93D9
:104B5000CF93DF930E944E240097C9F084E996E03A
:104B60000E942170E82EE7017E01F92EE7012097CF
:104B700091F10E949124998388830E948C249B83C5
:104B80008A83C70104960E94BA238CAB24C08CE8A8
:104B900096E00E942170EC017E01F92EE70120973A
:104BA000D1F08CE996E00E9421708C019983888372
:104BB000009779F002960E94D123F80191838083B7
:104BC000B8016E547F4FC8018E579F4F0E944125F8
:104BD00002C0C0E0D0E0CE01DF91CF911F910F91D4
:104BE000FF90EF900895FC0180819181BC016E548B
:104BF0007F4F8E579F4F0E9441250895CF93DF939B
:104C0000EC018CE896E0BE010E946C70009749F0C0
:104C1000688179818CE996E00E9447708CE896E083
:104C200009C084E996E0BE010E946C70009729F0EB
:104C300084E996E0BE010E944770DF91CF9108950C
:104C4000EF92FF92CF93DF93EC018CE896E0BE01E8
:104C50000E946C70009791F00990D881C02D6881F6
:104C60007981CE0102960E940E25BE016E547F4FBF
:104C7000CE018E579F4F0E9456251BC084E996E0B7
:104C8000BE010E946C700097A1F00E94E52468812B
:104C900079818A819B810E940E258CA990E00E94D7
:104CA000A7240E9447244CA92496BE0150E00E94EC
:104CB0003A75DF91CF91FF90EF900895CF93DF93F6
:104CC000EC018CE896E0BE010E946C70009729F020
:104CD000288139812E5F3F4F0CC084E996E0BE01E8
:104CE0000E946C70009719F02A813B8102C020E07D
:104CF00030E0C901DF91CF910895DC01ED91FC9185
:104D0000119780819181089570E023E0660F771FED
:104D10002A95E1F76E507040FC0120813181260F09
:104D2000371FC9010895DC01ED91FC91119770E0E6
:104D30006F5B7F4F660F771FE60FF71F80819181B2
:104D4000089508959C0141505040460F571FDB01C4
:104D500010C0FC91E0E011968C911197BF01680F93
:104D6000711D260F371F2617370710F42F5F3F4F8F
:104D70001296A417B50768F3A417B50749F49C91D8
:104D800080E0280F391F2817390710F42F5F3F4F95
:104D9000C90108950F931F93DF93CF9300D0CDB730
:104DA000DEB70091451430912B2F20E010E0201B3E
:104DB000310B90912C2F290F311D3A8329832981A2
:104DC0003A81A901480F511DCA016FE27FE240E21A
:104DD00050E00E94A22649815A81B801615B704D62
:104DE0000E94A226009719F0382F292F02C02FEF1A
:104DF0003FEFC9010F900F90CF91DF911F910F915D
:104E00000895A09145146A2F70E0685D7F4FFB0103
:104E1000E95DF04D418150E083E0440F551F8A95D4
:104E2000E1F7495F5F4F22E054C0FC01E60FF71F36
:104E3000E95DF04D3081313009F448C0313018F06F
:104E40003336D1F402C02F5F44C0209346140E9431
:104E5000666E009709F047C0909146148091451402
:104E6000E92FF0E0E80FF11DE15BF04D8181890F42
:104E70008E5F8093461435C0832F90E0807C9070C5
:104E80008038910549F0803C910549F080349105C6
:104E9000E9F42093461427C02093461406C02093BB
:104EA000461480913F2F8F3F01F130E040E050E009
:104EB0002A0F311D411D511D285D3F4F4F4F5F4F40
:104EC00084E062E00E94CF3882E0089581818E5FA5
:104ED000280F822F90E0481759070CF0A6CF209397
:104EE000461480E0089581E0089581E00895FC0172
:104EF0004381460F40931E2F872F99272281280F29
:104F000020931D2FA181A0931C2F508150931B2F04
:104F100030E02817390748F48A2F8F5F80931C2FC1
:104F2000882319F45F5F50931B2F842F90E07070DB
:104F30008617970798F480911D2F8F5F80931D2F00
:104F4000882361F480911C2F8F5F80931C2F88230E
:104F500029F480911B2F8F5F80931B2F0895BC0134
:104F600080912E3490912F3444960E947727E091BF
:104F70002E34F0912F3480911B2F848B80911C2F25
:104F8000858B80911D2F868B80911E2F878B089596
:104F90009C01AB0180E090E0B9010E94A226382F6D
:104FA000292FC90108958AE30E94CA26089586E040
:104FB0000E94CA26089581E10E94CA2608950E948F
:104FC000045080E009C0E82FF0E0EE0FFF1FEC5125
:104FD000FB4C118210828F5F8430A8F340E08CE29A
:104FE00090E00DC0242F30E0289FF001299FF00DA4
:104FF000389FF00D1124E05DFB4C15A24F5F44304B
:1050000088F380E094E09093501480934F1440E034
:1050100089E190E00EC0242F30E0289FF001299F05
:10502000F00D389FF00D1124E251FB4C118A108ACB
:105030004F5F4A3080F340934D1408950F931F93B0
:10504000CF93DF9320914F14309150144CE250E0F5
:105050002F5F3F4FEDE720303E0710F020E030E1BA
:10506000B22FA32F10E015C0C12FD0E0C49FF001D4
:10507000C59FF00DD49FF00D1124E05DFB4C05A100
:10508000002331F00088F189E02DEA17FB0701F3D6
:105090001F5F143049F73093501420934F1410922F
:1050A0004D1410E0E0E0F0E02CE230E020C0412FB1
:1050B00050E0429FD001439FB00D529FB00D11248C
:1050C000A05DBB4C95964C919597442321F4109389
:1050D0004D14FD0110C0473049F4309731F09696D9
:1050E0005C91969746A1451708F4FD011F5F1430A7
:1050F000F0F210934D143097B1F122E025A32091E6
:105100004714208F20914814218F20914914228F19
:1051100020914A14238F148A158A168A178A24EC40
:1051200034E0378F268F31A320A321E030E0358F84
:10513000248F17A221E026A323E024A312A220E1BA
:1051400023A320914F143091501432272327322764
:10515000318B208B738B628BEF01DC0180E10D9032
:1051600009928150E1F7CF01DF91CF911F910F910B
:1051700008950F931F93CF93DF9360914514662397
:10518000E9F070E0C091172FD091182FC61BD70BF4
:105190008E0108521040615B704D8FE49FE2A801C0
:1051A0000E944375D093182FC093172FE7E2FFE2B8
:1051B00014839E012852258310924514DF91CF91CC
:1051C0001F910F9108950F931F93CF93DF93209119
:1051D0004F143091501449E150E02F5F3F4FEDE7FD
:1051E00020303E0710F020E030E1B22FA32F10E076
:1051F00012C0C12FD0E0C49FF001C59FF00DD49F15
:10520000F00D1124E251FB4C0088F189E02DEA17E2
:10521000FB0719F31F5F1A3061F730935014209386
:105220004F1410E049E150E019C0012F0F5F212F0A
:1052300030E0249FF001259FF00D349FF00D1124E4
:10524000E251FB4CDF015096C089D189209729F4A7
:1052500010934D14309749F433C0102F1A3028F3AF
:1052600010934D14E0E0F0E02BC040914F145091AA
:10527000501454274527542711965C934E93738BF3
:10528000628B009731F480E1EF0119928A95E9F77A
:1052900007C0EF01DC0180E10D9009928150E1F738
:1052A00089E190E0289FD001299FB00D389FB00D73
:1052B0001124A251BB4C8091FE3554968C93549787
:1052C000CF01DF91CF911F910F91089540E013C05E
:1052D000E42FF0E0542F5F5FEE0FFF1FEC51FB4C0B
:1052E000208131812817390729F440934D14118208
:1052F00010820895452F443058F340934D1408957B
:1053000040E013C0E42FF0E0542F5F5FEE0FFF1F6B
:10531000EC51FB4C208131812115310529F440935A
:105320004D14918380830895452F443058F3409362
:105330004D140895BF92CF92DF92EF92FF920F9398
:105340001F93CF93DF93C0912E34D0912F348430AC
:1053500009F488C323E63FE230932D3420932C34A4
:1053600030931A2F2093192F833079F48DA190E078
:105370008F7090708330910509F079C08C8D9D8D70
:10538000009711F00C942D3291C0823009F092C038
:105390001092182F1092172F1092ED341092EC34B7
:1053A00080914A148F5F80934A14882399F48091E6
:1053B00049148F5F80934914882361F480914814C5
:1053C0008F5F80934814882329F4809147148F5F5E
:1053D000809347148DA1873011F0853051F48EA150
:1053E0008F5F8EA3843111F00C942D321DA20C948A
:1053F0002D32882311F40C942D322C8D3D8D2115E6
:10540000310509F44FC09EA1292F21502EA39923C5
:1054100011F00C942D329FA1983031F0282F21509B
:10542000223048F4953039F41DA280E88093273467
:105430000E94DE35FAC6953048F423E030E0092EAC
:1054400002C0220F331F0A94E2F701C020E32EA30B
:105450009F5F9FA390E08F70907083309105E1F083
:10546000843091054CF48130910509F4C6C4823032
:10547000910509F0F2C70DC08630910509F471C697
:105480008830910509F46DC68430910509F0E5C7AF
:1054900068C610925C2FB4C484E0809327340E94C5
:1054A000DE35F5C68F70833009F0D7C788E080936A
:1054B0002734B0C6853019F5E0912A34F0912B34A9
:1054C00080899189009709F4C8C710922F341092EF
:1054D0002E342C50304030932D3420932C34309384
:1054E0001A2F2093192F1092ED341092EC34109251
:1054F000182F1092172F88E080932734B1C2E9014A
:10550000EC978091272F807F803609F0A6C7909175
:105510002B2F80E020912C2F820F911D2091172F8F
:105520003091182F2817390708F497C78896909359
:10553000182F8093172F80912F2F8F3F09F48DC73D
:10554000CE01069690932934809328341092451406
:105550001092441480912D2F8823F9F481E08093D8
:1055600044140E940127813009F477C7813018F074
:10557000823099F47AC780914514E82FF0E0E15B1E
:10558000F04DF0932934E0932834885F9181990F8E
:10559000990F990F890F809345148FE39FE20E9422
:1055A0006D4B009709F01CC18FE39FE20E94A34C52
:1055B000009709F015C120913F2F2F3F09F495C0A6
:1055C0002E3F29F48091402F803809F48EC08091BD
:1055D0002F2F8E3F29F48091302F803809F485C019
:1055E00080912F2F9091302F009759F58091312F76
:1055F0009091322F009729F58091332F9091342F7D
:105600000097F9F48091352F9091362F0097C9F4C7
:105610008091372F9091382F009799F48091392FEE
:1056200090913A2F009769F480913B2F90913C2FF5
:10563000009739F480913D2F90913E2F009709F407
:1056400054C080913F2F9091402F009761F5809139
:10565000412F9091422F009731F58091432F9091E7
:10566000442F009701F58091452F9091462F009788
:10567000D1F48091472F9091482F0097A1F4809109
:10568000492F90914A2F009771F480914B2F909160
:105690004C2F009741F480914D2F882321F4809165
:1056A0004E2F813011F18091172F9091182F25E006
:1056B0008130920738F082E060E020E035E040E0A1
:1056C00050E009C080912E2F823040F483E060E0EA
:1056D00020E030E0A9010E94CF38C7C60E94AD6E1D
:1056E00080912E2F81508F83C0C680912F2F8E3FA7
:1056F00009F0B3C68091302F803809F0AEC6809192
:105700002F2F9091302F009759F58091312F909144
:10571000322F009729F58091332F9091342F0097E5
:10572000F9F48091352F9091362F0097C9F480912C
:10573000372F9091382F009799F48091392F9091BD
:105740003A2F009769F480913B2F90913C2F00975E
:1057500039F480913D2F90913E2F009709F47DC63A
:1057600080913F2F9091402F009769F58091412FB4
:105770009091422F009739F58091432F9091442FBB
:10578000009709F58091452F9091462F0097D9F405
:105790008091472F9091482F0097A9F48091492F2D
:1057A00090914A2F009779F480914B2F90914C2F34
:1057B000009749F480914D2F882329F480914E2F32
:1057C000813009F44AC62F3F09F447C68FE39FE2B0
:1057D0000E943D4B882309F040C681E062E078CF0B
:1057E000E0912834F091293480818B32E9F18C32B8
:1057F00048F4863009F488C1813109F4A5C08823B2
:1058000089F059C08A3309F460C08B3320F48C329C
:1058100009F051C022C68B3309F41FC68C3309F03E
:105820004AC006C08091441480FD45C0816009C013
:105830008091441481FF04C086FD3DC0806401C096
:105840008260809344140E940127813009F405C6C8
:10585000813018F0823021F608C680914514E82F77
:10586000F0E0E15BF04D1AC08091441482FD23C04A
:1058700084608093441480914514282F30E0F9010E
:10588000E15BF04D9381992349F0265D3F4F44271A
:1058900037FD4095542F84E060E01DCFF09329340C
:1058A000E0932834885F9181990F990F990F890FA0
:1058B0008093451495CFE752FF429F01442737FD5F
:1058C0004095542F84E061E006CF0E94D327EFEF8C
:1058D0008F3F9E0709F0C1C5E0914514F0E0E95DF6
:1058E000F04D80A50E944733E0914514F0E0E95D5A
:1058F000F04D80A58638E1F0873838F48138C1F062
:105900008538B1F08038A1F410C0883841F088386B
:1059100018F08B3969F406C00E942C3A0DC00E9421
:10592000B63C0AC00E949F6807C00E942A3804C083
:105930001092182F1092172F8091172F9091182FD7
:10594000009709F48AC591C50E94B9288091172F44
:105950009091182FC0979093182F8093172F87E559
:105960009FE290932D3480932C348091552F909109
:10597000562F009739F00E94DB27FFEF8F3F9F07DC
:1059800009F06BC50091512F1091522F011511058F
:1059900009F463C58EEE94E390932B3480932A34FC
:1059A00040C0888999890097B9F108171907A1F5AE
:1059B0008A899B89009739F020914F2F3091502F81
:1059C0002817390749F5888199810097E1F48A8180
:1059D0009B810097C1F48C819D810097A1F48E81F9
:1059E0009F81009781F488859985009761F48A8565
:1059F0009B85009741F48C859D85009721F48E85C9
:105A00009F850097C1F08FE29FE2BE0140E150E028
:105A10000E942D75009779F06996D0932B34C0932E
:105A20002A34C0912A34D0912B3425E3C83ED207C2
:105A300008F4B7CF12C510922F3410922E3482E0A2
:105A40008093273487E59FE290932D3480932C3404
:105A500090931A2F8093192F1092ED341092EC34FA
:105A60000E94DE358091EC349091ED34009709F47A
:105A7000F4C49C01205D3F4F3093182F2093172FC3
:105A8000089690932B2F285220932C2FE0912A34A4
:105A9000F0912B34248920932E2F21E120932D2F58
:105AA000CFE4DFE29827892798279D838C831F8284
:105AB0001E82808991899093502F80934F2F8289E5
:105AC00093899B838A83DE01509780E101900D9238
:105AD0008150E1F78FE29FE26FE37FE20E94684F1F
