:100000000C94B2010C94D1010C94D1010C94D10147
:100010000C94D1010C94D1010C94D1010C94D10118
:100020000C94D1010C94D1010C94D1010C94D10108
:100030000C94D1010C94EF240C94D1010C94D101B7
:100040000C94D1010C94D1010C94D1010C94D101E8
:100050000C94540D0C9485040C94D1010C94D10192
:100060000C94D1010C94FA040C94D1010C94D1019C
:100070000C94D1010C94D1010C94D1010C94D101B8
:100080000C948C230C94D1010C94D1010C94D101CB
:100090000C9429050C94D1010C94D1010C94D1013C
:1000A0000C94D1010C94D1010C94D1010C94D10188
:1000B0000C94D1010C94D1010C94D1010C94D10178
:1000C0000C94D1010C94D1010C94D1010C94D10168
:1000D0000C94D1010C94D1010C94D1010C94D10158
:1000E0000C94D1010C940D0D0C94170D0C94030D70
:1000F0000C94BD0C0C94480D0C94390D0C942D0DE2
:100100000C94210D0C94D1010C94D1010C94D101CB
:100110000C94D1010C94D1010C94D1010C94D10117
:10012000257325730A004E657665722D75736564B7
:1001300020737461636B203E2025642062797465AE
:10014000730A004F6E6C696E650A00257320257373
:100150002C206368616E6E656C202575202C2063F1
:100160006865636B207261746520257520487A206C
:10017000747820706F7765722025750A000A002553
:10018000783A004D414320616464726573732000C6
:1001900052616E646F6D2045554936342061646448
:1001A000726573732067656E6572617465640A00B9
:1001B0000A2A2A2A2A2A2A2A426F6F74696E67201D
:1001C00025732A2A2A2A2A2A2A0A00020000FFFE68
:1001D00000000141544D454741313238726661316A
:1001E000006C6F63616C686F737400454550524FCB
:1001F0004D20697320636F72727570742C20726564
:1002000077726974696E67207769746820646566BF
:1002100061756C74732E0A00452025642E256420B8
:10022000636C6F636B20256C752063707520256C83
:1002300075206C706D20256C752069727120256C9D
:100240007520676C656420256C7520796C65642069
:10025000256C7520726C656420256C75207478207F
:10026000256C75206C697374656E20256C75207320
:10027000656E736F727320256C752073657269618A
:100280006C20256C750A00532025642E256420639C
:100290006C6F636B20256C7520747820256C75203D
:1002A000727820256C752072747820256C75207208
:1002B000727820256C75207265786D697420256CC4
:1002C000752061636B747820256C75206E6F616397
:1002D0006B747820256C752061636B727820256CB7
:1002E000752074696D65646F757420256C75206266
:1002F000616461636B727820256C7520746F6F6C1C
:100300006F6E6720256C7520746F6F73686F7274E1
:1003100020256C752062616473796E636820256C9A
:10032000752062616463726320256C7520636F6E53
:1003300074656E74696F6E64726F7020256C7520C1
:1003400073656E64696E6764726F7020256C7520CA
:100350006C6C747820256C75206C6C727820256C20
:10036000750A000011241FBECFEFD1E4DEBFCDBF60
:1003700013E0A0E0B2E0E0E9FCE600E00BBF02C061
:1003800007900D92A436B107D9F725E1A4E6B3E0B2
:1003900001C01D92A13FB207E1F70E94D1310C9438
:1003A00046360C940000CF93DF93EC01888199814D
:1003B000892B21F487E393E00E94FC321982188292
:1003C00083E0DF91CF910895E6E4F1E03081208170
:1003D000908180818295869586958370307C830F8D
:1003E000269526952073820F92959C70890F08950B
:1003F000FF920F931F93CF93DF9300D0CDB7DEB75B
:100400000E94DC050E94E80546E069E181E00E9467
:1004100058056EE277E181E00E949F0581E00E942D
:10042000D3050E94B00384B784B784B784B784B778
:10043000E1EFF5E122E432E4318320833A968DB78F
:100440009EB70A97E817F907B8F388E593E09F93FA
:100450008F9380EB91E09F938F930E94D8320E94FC
:100460008D1B0E94B01560E070E083ED92E00E9469
:1004700064160E941E1AE0912F02F0913002099535
:100480000E94E40190E00E948A1DCE0101960E9424
:1004900097030F900F900F900F90882341F080E901
:1004A00091E09F938F930E94D8320F900F90CE01CE
:1004B00001960E94860D0E94A6038C010E94A10352
:1004C000AE014F5F5F4FB8010E9404090E94FF0216
:1004D0000E94E9080E94AB030E94940A83E891E01D
:1004E0009F938F930E94D8328A811F928F930FE738
:1004F00011E01F930F930E94D83289811F928F932E
:100500001F930F930E94D8328DE791E09F938F93B2
:100510000E94D8320E94C21FE091A102F091A20273
:100520000995E0918802F09189020995E0915D02B8
:10053000F0915E0209950E94970AF82E0091AD0293
:100540001091AE02F80109950FB6F894DEBF0FBE08
:10055000CDBF892B51F0F8010995BC0180E890E0EE
:100560000E943632162F072F02C010E800E00E94CA
:10057000E6081F92FF920F931F931F928F93809113
:10058000A0028F9380919F028F93809187028F9317
:10059000809186028F938BE491E09F938F930E94CA
:1005A000D83260E070E08BE193E00E94641683E350
:1005B00093E00E949D1683E491E09F938F930E94A5
:1005C000D8320FB6F894DEBF0FBECDBF0F900F909C
:1005D000DF91CF911F910F91FF9008957F936F93BB
:1005E0009F938F9380E291E09F938F930E94D832E4
:1005F0000F900F900F900F900F900F9008950F9302
:100600001F93DF93CF93CDB7DEB7A2970FB6F894C1
:10061000DEBF0FBECDBF82E290E00E943C358983F1
:100620009A83982F9B50903108F08A839A819095F5
:10063000891709F470C000D08BEE91E0ADB7BEB75A
:1006400012969C938E9311970E94D8328E010D5F63
:100650001F4F0F900F90D80180E090E0FC01E55310
:10066000FE4FE491ED93019688309105B9F7F89427
:10067000CE01039660E070E048E050E00E94423511
:10068000D80180E090E0FC01ED52FE4FE491ED9343
:1006900001968E309105B9F7CE01039668E070E0BF
:1006A0004EE050E00E94423580E090E0FC01EF51C6
:1006B000FE4FE491D801ED938D0101968A309105AA
:1006C000A9F7CE01039666E170E04AE050E00E948F
:1006D000423584E290E06DEC7BEA0E945A3586E276
:1006E00090E060E070E00E945A3588E290E060E0BF
:1006F0000E944C3580E290E060E070E00E945A3544
:100700008AE1898385EE8A8369817A8182E290E039
:100710000E945A3578948981A2960FB6F894DEBF6C
:100720000FBECDBFCF91DF911F910F910895F89427
:1007300060E070E042E050E00E942435789480E070
:10074000089584E290E00E943C35089586E290E0AE
:100750000E943C35089588E290E00E943435089567
:10076000F8941092B60016BC83EF87BD82E084BD7A
:1007700094E095BD95B395BB80936E0078940895F1
:100780002091640330916503809164039091650327
:1007900028173907A9F7C90108952091450D30910F
:1007A000460D4091470D5091480D8091450D909117
:1007B000460DA091470DB091480D281739074A07FB
:1007C0005B0759F7B901CA0108956093450D70930D
:1007D000460D8093470D9093480D0895CF93DF9376
:1007E000EC010E94C003C80FD91F0E94C0038C1BDC
:1007F0009D0B97FDFACFDF91CF910895843091053D
:1008000048F00397880F991F880F991F9695879531
:100810000197F1F70895CF93DF93EC0184EE93E015
:1008200005C00E94FE03219787EE93E02097C9F749
:10083000DF91CF9108950F931F931FB7F8942091E4
:10084000640330916503280F391F309365032093AB
:10085000640320916603FC01E20FF11D0091E90E93
:100860006091410D7091420D8091430D9091440D26
:10087000DF012CC0A058B0402091450D3091460DAD
:100880004091470D5091480D2F5F3F4F4F4F5F4FA5
:100890002093450D3093460D4093470D5093480DDE
:1008A0000023A1F020913D0D30913E0D40913F0D70
:1008B0005091400D2F5F3F4F4F4F5F4F20933D0DA5
:1008C00030933E0D40933F0D5093400DA038B1053D
:1008D00088F69F01220F232F221F330B319540E012
:1008E00050E0260F371F481F591F2093410D3093AA
:1008F000420D4093430D5093440DEF77F070E09319
:1009000066031FBF1F910F9108951F920F920FB69C
:100910000F920BB60F9211242F933F934F935F9337
:100920006F937F938F939F93AF93BF93EF93FF93B7
:100930008091640390916503019690936503809381
:100940006403809166038F5F8093660380916603E2
:1009500087FF15C0109266038091450D9091460D5A
:10096000A091470DB091480D0196A11DB11D809336
:10097000450D9093460DA093470DB093480D80917F
:10098000E90E8823F1F0809167038F5F80936703FE
:100990008091670387FF15C01092670380913D0D1A
:1009A00090913E0DA0913F0DB091400D0196A11D7B
:1009B000B11D80933D0D90933E0DA0933F0DB093DC
:1009C000400D0E946819009711F00E946818FF916D
:1009D000EF91BF91AF919F918F917F916F915F91B7
:1009E0004F913F912F910F900BBE0F900FBE0F9024
:1009F0001F9018951F920F920FB60F920BB60F9281
:100A000011242F933F934F935F936F937F938F9313
:100A10009F93AF93BF93EF93FF938091C600E091B4
:100A20004B0DF0914C0D309709F00995FF91EF9126
:100A3000BF91AF919F918F917F916F915F914F91F6
:100A40003F912F910F900BBE0F900FBE0F901F90F4
:100A500018951F920F920FB60F920BB60F9211249A
:100A60002F933F934F935F936F937F938F939F93B6
:100A7000AF93BF93EF93FF938091CE00E091490D28
:100A8000F0914A0D309709F00995FF91EF91BF91D0
:100A9000AF919F918F917F916F915F914F913F9116
:100AA0002F910F900BBE0F900FBE0F901F901895B7
:100AB000882371F41092C5006093C40088E9809384
:100AC000C1004093C20010924C0D10924B0D08953E
:100AD000813069F41092CD006093CC0088E9809356
:100AE000C9004093CA0010924A0D1092490D089512
:100AF000882339F48091C00085FFFCCF6093C60045
:100B00000895813031F48091C80085FFFCCF609357
:100B1000CE0008951F93182F8A3031F48091680316
:100B20006DE00E94780502C08D3029F08091680345
:100B3000612F0E94780580E090E01F91089588233E
:100B400029F470934C0D60934B0D0895813021F47E
:100B500070934A0D6093490D0895EF92FF921F9391
:100B6000CF93DF93182FE62EE7017E01F72EE701E2
:100B70000CC08A3021F4812F6DE00E9478056991C4
:100B80006D3019F0812F0E9478058881882389F7BC
:100B9000DF91CF911F91FF90EF900895682F80E033
:100BA0000E9478050895809368038AE092E090930C
:100BB000EE158093ED15089584B7877F84BF88E193
:100BC0000FB6F89480936000109260000FBE0895F5
:100BD0002FE088E190E00FB6F894A895809360002C
:100BE0000FBE209360000895A895089588E10FB680
:100BF000F89480936000109260000FBE0895F894FE
:100C000028E088E190E00FB6F894A8958093600002
:100C10000FBE20936000FFCF80915D0D90E0FC013E
:100C2000EE0FFF1F9695982F882797958795E80FC9
:100C3000F91FE25AF24F108208958091540D90E00E
:100C400008958091390181FD0CC081E491E06FE14C
:100C500040E00E94660C813039F021E030E08131C3
:100C600029F020E030E002C021E030E0C901089521
:100C70008091390181FD12C081E491E06FE140E093
:100C80000E94660C982F8151823050F09F3141F0C4
:100C9000913041F081E0923031F402C081E008955A
:100CA00080E0089580E00895CF93DF93C0E1D7E21C
:100CB0000E943806882311F42197D1F7DF91CF9154
:100CC0000895E9E3F1E0808180818D7F80838DE06C
:100CD00090E00197F1F782E491E06FE140E023E0DA
:100CE0000E94700C83E090E00197F1F708950E9454
:100CF00054060E9461068091390182608093390117
:100D000080916C0F8823E9F1809194009091950077
:100D100020917D0F30917E0F82179307A0F4809170
:100D2000490F90914A0FA0914B0FB0914C0F8C57E7
:100D3000914EAF4FBF4F8093490F90934A0FA093AE
:100D40004B0FB0934C0F8091940090919500821BB3
:100D5000930BA0E0B0E02091490F30914A0F4091F1
:100D60004B0F50914C0F820F931FA41FB51F809300
:100D7000490F90934A0FA0934B0FB0934C0F1092D2
:100D80006C0F1092E90E80916E0F8823E9F180912B
:100D90009400909195002091810F3091820F8217DD
:100DA0009307A0F48091510F9091520FA091530F8F
:100DB000B091540F8C57914EAF4FBF4F8093510F4E
:100DC0009093520FA093530FB093540F80919400BF
:100DD00090919500821B930BA0E0B0E02091510F01
:100DE0003091520F4091530F5091540F820F931F27
:100DF000A41FB51F8093510F9093520FA093530FD0
:100E0000B093540F10926E0F08958091E90E8823CD
:100E100021F00E9438060E94770680E090E0089555
:100E20009091390191FD0AC0282F803108F02FE000
:100E300085E491E06FE040E00E94700C0895B82FC7
:100E4000A92FF62FE72F2091EC0E3091ED0E409157
:100E5000EE0E5091EF0E2F5F3F4F4F4F5F4F20939D
:100E6000EC0E3093ED0E4093EE0E5093EF0E862F66
:100E70008E5F87FF0CC08091E60E9091E70E019681
:100E80009093E70E8093E60E2FEF3FEF0BC029E61D
:100E900033E0C9016B2F7A2F4F2F5E2F0E94C8328B
:100EA00020E030E0C901089581E491E06FE140E085
:100EB0000E94660C08950F931F93182F883049F0F5
:100EC000863039F0893029F0863119F0893109F0FE
:100ED00041C08091390181FD40C00E9454060E94AA
:100EE0005407082F181709F43BC0183019F40E9452
:100EF000610629C0193141F48631A9F482E491E0F8
:100F00006FE140E029E009C0163169F4893159F4F4
:100F100082E491E06FE140E026E00E94700CE3E0A3
:100F2000F0E03197F1F782E491E06FE140E0212FAA
:100F30000E94700C083019F4E9E6F1E002C0E3E029
:100F4000F0E03197F1F70E945407811749F023E44C
:100F500030E008C022E430E005C024E430E002C004
:100F600020E430E0C9011F910F9108958091940011
:100F7000909195009093820F8093810F21E02093B0
:100F80006E0F2093E90E8091390181FF16C0809188
:100F900094009091950090937E0F80937D0F209305
:100FA0006C0F2093E80E7894809139018D7F8093A7
:100FB00039018091E80E8823E1F786E10E945B0702
:100FC0000E94540608958091E90E882311F40E942E
:100FD000B60781E090E008950F931F938091E90E8A
:100FE000882359F08091390181FD74C00E94380630
:100FF000882309F46FC000E003C00E94E30701E00A
:10100000809194009091950090937C0F80937B0F3A
:1010100011E010936B0F789486E00E945B071093A9
:10102000550D109247018091550D8823E1F780916D
:1010300047018E3010F010E001C01FEF86E10E94E2
:101040005B0780916B0F8823E9F180919400909168
:10105000950020917B0F30917C0F82179307A0F4AD
:101060008091450F9091460FA091470FB091480F86
:101070008C57914EAF4FBF4F8093450F9093460FC3
:10108000A093470FB093480F8091940090919500E2
:10109000821B930BA0E0B0E02091450F3091460FEA
:1010A0004091470F5091480F820F931FA41FB51F07
:1010B0008093450F9093460FA093470FB093480F2E
:1010C00010926B0F002311F00E94050721E030E021
:1010D00016FD02C020E030E0C9011F910F91089574
:1010E0008093EB0308950E9454078250813130F4BD
:1010F000E82FF0E0ED5BFD4F8081089581E00895D9
:10110000282F8EE691E060E245E00E94700C089581
:101110008FEF80934E018CE691E060EF44E022E097
:101120000E94700C8CE691E06EE041E025E00E94A8
:10113000700C80E880936F018091460180936D016F
:1011400084E491E060E245E021E00E94700C0895A3
:10115000CF93DF93CDEFD3E0CE010197F1F70E945B
:10116000610C10925E0D1092E00D1092620E1092C2
:101170005D0D10925C0DE9E3F1E080818E7F80834C
:1011800080818D7F808381EC9DE00197F1F78081E4
:101190008160808382E491E06FE140E023E00E947F
:1011A000700C2197F1F780915D0180915E010E94A2
:1011B000880885E292E060E070E00E9464160E9478
:1011C000B60781E090E0DF91CF9108958091EA0326
:1011D0000895DF93CF930F92CDB7DEB789830E9436
:1011E000540629812093EA0388E491E06FE140E00E
:1011F0000E94700C0F90CF91DF9108950E94E90832
:1012000086E00E945B0708958093620190936301DA
:1012100060936001709361014115510531F1FA014C
:10122000819180936B01DA0111968C9180936A0110
:10123000DF011196818180936901FD01319611963C
:101240008C9180936801DF01119681818093670101
:10125000FD01319611968C911197809366018181E1
:1012600080936501828180936401089585E292E014
:101270000E94871681E08093540D8091560D9091C5
:10128000570D01969093570D8093560D8091300F16
:101290009091310FA091320FB091330F0196A11DA3
:1012A000B11D8093300F9093310FA093320FB09304
:1012B000330F81E090E00895EF92FF92CF93DF9398
:1012C00050915D0D252F30E0F901EE0FFF1F36958F
:1012D000322F222737952795E20FF31FE25AF24F5C
:1012E0004081442309F4CEC02091390121FDCAC0B8
:1012F0002091E90E222309F4C5C047FF16C00E94C1
:101300000C0680911C0F90911D0FA0911E0FB091A3
:101310001F0F0196A11DB11D80931C0F90931D0FEF
:10132000A0931E0FB0931F0FADC04330B0F40E94C6
:101330000C068091180F9091190FA0911A0FB0917F
:101340001B0F0196A11DB11D8093180F9093190FCB
:10135000A0931A0FB0931B0F95C0C42FD0E0229713
:101360006C177D07B0F40E940C068091140F9091C9
:10137000150FA091160FB091170F0196A11DB11D69
:101380008093140F9093150FA093160FB093170F1F
:1013900079C0652F70E09B01220F331F7695762F61
:1013A000662777956795260F371F215A324FB90167
:1013B00050E00E94C83220915D0D822F90E0FC0128
:1013C000EE0FFF1F9695982F882797958795E80F22
:1013D000F91FE252F24F808180934D0D822F90E0F1
:1013E000FC01EE0FFF1F9695982F882797958795FC
:1013F000E80FF91FE25AF24F10822F5F20935D0D24
:10140000233010F010925D0D80915D0D90E0FC0195
:10141000EE0FFF1F9695982F882797958795E80FD1
:10142000F91FE25AF24F8081882311F00E94360999
:101430006091470160934E0D8091530D882311F008
:10144000681710F46093530D84E070E00E949C1FB5
:1014500060914D0D83E070E00E949C1F8091F00E22
:101460009091F10EA091F20EB091F30E0196A11D94
:10147000B11D8093F00E9093F10EA093F20EB093F5
:10148000F30E02C0C0E0D0E0CE01DF91CF91FF901B
:10149000EF9008950F931F93DF93CF930F92CDB7E3
:1014A000DEB78C01FC0180819181009729F0F5E085
:1014B00081319F0769F506C081E195E0F8019183CC
:1014C00080832BC0623849F51092540D0E94161F7C
:1014D0008FB78983F8940E94731E60E870E00E94C1
:1014E0005C0929812FBF1816190644F40E946E1E4C
:1014F000E091A702F091A8020995DECF8091510DED
:101500009091520D01969093520D8093510DD4CF2E
:10151000F8011182108283E001C081E00F90CF9129
:10152000DF911F910F9108950E94100708958091F7
:10153000390181FD07C085E491E06FE040E00E9441
:10154000660C089580E10895DF92EF92FF920F9369
:101550001F93CF93DF93D82E8091390181FF1AC05A
:10156000809194009091950090937E0F80937D0FD1
:1015700081E080936C0F8093E80E809139018D7F1C
:101580008093390180E197E22091E80E222311F047
:101590000197D1F70E9454068091E90E882309F43F
:1015A00041C080916E0F8823E9F120919400309121
:1015B00095008091810F9091820F28173907A0F430
:1015C0002091510F3091520F4091530F5091540F71
:1015D0002C57314E4F4F5F4F2093510F3093520F86
:1015E0004093530F5093540F2091940030919500E5
:1015F000281B390B40E050E0E090510FF090520F63
:101600000091530F1091540F2E0D3F1D401F511F7D
:101610002093510F3093520F4093530F5093540F18
:1016200010926E0F89E10E945B0786E00E94A71F5F
:10163000009751F00E94970AC82F86E00E94A71FCA
:1016400081500E94100702C0C0E0D0E08091940059
:10165000909195009093800F80937F0F81E080930D
:101660006D0FF894809139018260809339018091E7
:1016700039018D7F809339016D2D6E5F89E693E08E
:101680000E94AE0C78948091E40E9091E50E019644
:101690009093E50E8093E40E0E94540682E491E05C
:1016A00060EE45E00E94660C182F86E00E94A71F9E
:1016B000009719F08C2F0E94100780916D0F8823DE
:1016C000E9F1209194003091950080917F0F9091E5
:1016D000800F28173907A0F420914D0F30914E0F3D
:1016E00040914F0F5091500F2C57314E4F4F5F4F3D
:1016F00020934D0F30934E0F40934F0F5093500F48
:101700002091940030919500281B390B40E050E067
:1017100060914D0F70914E0F80914F0F9091500F2F
:10172000260F371F481F591F20934D0F30934E0F20
:1017300040934F0F5093500F10926D0F8091E90E10
:10174000882371F080919400909195009093820F7E
:101750008093810F81E080936E0F0E94B60702C0D4
:101760000E947706113011F0112369F580912C0F3A
:1017700090912D0FA0912E0FB0912F0F0196A11DCA
:10178000B11D80932C0F90932D0FA0932E0FB0932B
:101790002F0F8CE00E94A71F009709F445C080918D
:1017A000080F9091090FA0910A0FB0910B0F0196AD
:1017B000A11DB11D8093080F9093090FA0930A0FEC
:1017C000B0930B0F31C01330A9F48091240F909186
:1017D000250FA091260FB091270F0196A11DB11DD5
:1017E0008093240F9093250FA093260FB093270F7B
:1017F00012E01DC01530A9F48091100F9091110FC7
:10180000A091120FB091130F0196A11DB11D8093ED
:10181000100F9093110FA093120FB093130F13E0BA
:1018200006C0173021F402C010E001C011E0812F82
:1018300090E0DF91CF911F910F91FF90EF90DF909B
:101840000895CF93DF93EB010E941F079C0100973F
:1018500031F4CE010E94A40A9C01009749F08091C6
:10186000E60E9091E70E01969093E70E8093E60EB8
:10187000C901DF91CF9108950F931F938091E90ED5
:10188000882321F40E94E30711E001C010E00E94C8
:101890005407863111F0813119F40091470109C0D4
:1018A00086E491E06FE140E00E94660C082F000F93
:1018B000080F112311F00E940507802F1F910F912F
:1018C00008951092ED031092EC030895FC018081BD
:1018D000862390E002C0959587954A95E2F7089592
:1018E000F894FC019081862F8095892330E002C016
:1018F000220F331F4A95E2F72623282B2083789462
:10190000089520917B01322F33503D37E0F4FC01E4
:101910002193215030E0A9014F575E4FA0E8B1E07C
:101920006D916193A417B507D9F7FC01E058FF4FFB
:101930002F573E4FD9012C9120838F579F4F21E085
:10194000FC0120830895DC011C92FC01E058FF4F4C
:1019500010828F579F4FFC0110820895FC01609305
:10196000800101966350860F911DA1E8B1E021919D
:101970002D93E817F907D9F708951F920F920FB624
:101980000F920BB60F9211242F933F934F935F93B7
:101990006F937F938F939F93AF93BF93EF93FF9337
:1019A0008091470180934E0D20915C0D30E0C9017C
:1019B000880F991F3695322F222737952795820F4A
:1019C000931F825A924F0E94810C80915C0D8F5F11
:1019D00080935C0D833010F010925C0D0E943609EC
:1019E000FF91EF91BF91AF919F918F917F916F91F7
:1019F0005F914F913F912F910F900BBE0F900FBEB3
:101A00000F901F9018951F920F920FB60F921124EE
:101A10000F900FBE0F901F9018951F920F920FB648
:101A20000F9211240F900FBE0F901F9018951F92C8
:101A30000F920FB60F9211240F900FBE0F901F90B0
:101A400018951F920F920FB60F9211241092E80E64
:101A50000F900FBE0F901F9018951F920F920FB608
:101A60000F9211241092E80E0F900FBE0F901F904E
:101A700018951F920F920FB60F9211248F9381E049
:101A80008093540D8F910F900FBE0F901F9018955B
:101A90001F920F920FB60F9211241092550D0F90B6
:101AA0000FBE0F901F9018951F920F920FB60F92B6
:101AB00011248F939F938091EC039091ED030196F5
:101AC0009093ED038093EC039F918F910F900FBE45
:101AD0000F901F901895FC01DB018C91808311966B
:101AE0008C91119781830895FC01DB0190818C9189
:101AF000981741F421E030E0918111968C91119773
:101B0000981711F020E030E0C9010895FC018081B0
:101B10008093EA0E81818093EB0E08950F931F93BB
:101B2000CF93DF938091F00E9091F10EA091F20E81
:101B3000B091F30E0196A11DB11D8093F00E90930C
:101B4000F10EA093F20EB093F30E0E94B610EC01CA
:101B50008EEE93E00E9466170BC0D8011296ED91AD
:101B6000FC911397309709F00995C8010E942C1831
:101B7000082F192F0115110581F7209719F0CE01B3
:101B80000E949F10DF91CF911F910F9108950E94A5
:101B9000C21F0E94161F0E94430E0E94B31082E0D3
:101BA00090E060E072E040E05EE12FEF31E00E9403
:101BB000E00F0895CF92DF92EF92FF920F931F9361
:101BC000CF93DF936C01EB018A018EEE93E00E94CC
:101BD00066170CC0D7011496ED91FC9115973097BC
:101BE00011F0CE010995C7010E942C18E82EF92E9C
:101BF000E114F10479F7C601BE01A8010E94A71003
:101C0000DF91CF911F910F91FF90EF90DF90CF90D8
:101C10000895BC018EEE93E00E94ED170895BC017B
:101C20008EEE93E00E94B4170895CF93DF93EC01FA
:101C30008091EC0E9091ED0EA091EE0EB091EF0E12
:101C40000196A11DB11D8093EC0E9093ED0EA09313
:101C5000EE0EB093EF0ECE010E94CD10009769F00A
:101C60000E94901EE0918A02F0918B028AED9DE025
:101C7000BE01099521E030E002C020E030E0C9015A
:101C8000DF91CF91089580EF93E00E94621708954D
:101C90000F93CF93DF93EC017B836A8318865F8376
:101CA0004E8380EF93E0BE010E94ED17E091F203B6
:101CB000F091F303309749F04C815D818A819B81DB
:101CC000688520E030E001E00995DF91CF910F9128
:101CD0000895BC0180EF93E00E94B41708950F931C
:101CE000DC0118961C921897E091F203F091F3032F
:101CF000309759F012968D919C91139760E040E0D7
:101D000050E020E030E000E009950F9108950F9336
:101D1000DC01AB0114962D913C91159781E018964A
:101D20008C93189715967C936E931497E091F20319
:101D3000F091F303309739F012968D919C9113979F
:101D400061E000E009950F9108950F93DC01E091A7
:101D5000F203F091F303309769F014962D913C91C2
:101D6000159712968D919C91139718966C91A901D5
:101D700001E009950F910895E091F403F091F503C6
:101D8000309709F0099508959093F5038093F40333
:101D900008959093F3038093F203089580EF93E006
:101DA0000E9466170895EF92FF920F931F93CF93AF
:101DB000DF938C01EB017A0180EF93E00E946617BC
:101DC00015C0DC0112962D913C9113972C173D07FD
:101DD00059F41696ED91FC911797309761F0B80180
:101DE000AE019701099507C00E942C18282F392FA2
:101DF000C901009731F7DF91CF911F910F91FF90AB
:101E0000EF9008950895AF92BF92CF92DF92EF9234
:101E1000FF920F931F93DF93CF9300D0CDB7DEB720
:101E20005B010E94731E8C01FC01E080F180FA824C
:101E3000E9820E94C51E9701220F331F220F331F14
:101E40002E5F3F4F8217930798F0CC24DD240DC0FE
:101E5000F8016281738144815581C5010E94D30ECE
:101E60000894C11CD11C0C5F1F4FCE14DF0480F3FB
:101E70000F900F90CF91DF911F910F91FF90EF90F6
:101E8000DF90CF90BF90AF900895CF93DF93C1E1E3
:101E9000D4E06091270470912804CE0147E75FE009
:101EA00020E030E00E942B1A0E948D1D60912704D3
:101EB000709128040E943632BC01CE0140974CE854
:101EC0005FE020E030E00E942B1ADF91CF9108956F
:101ED0000F93013051F4809121049091220490934A
:101EE0002804809327040E94450F0F910895809144
:101EF0002704909128042091250430912604880F0E
:101F0000991F2817390708F4C90190932804809372
:101F100027040E94450F0895EF92FF92CF93DF931D
:101F20000E94161F0E94731EE82EE7017E01F92E03
:101F3000E701198218820E94CE0E26C028813981BD
:101F4000F901EE0FFF1FEE0FFF1FEC0FFD1FDC016D
:101F500012964D915C911397538342832F5F3F4FAD
:101F6000F901EE0FFF1FEE0FFF1FEC0FFD1F149680
:101F70004D915C91159751834083398328830E944A
:101F80002C18282F392FC901009721F0FC0120853A
:101F90002223A1F688819981880F991F880F991FA4
:101FA00002960E946E1E88819981009721F086EF2B
:101FB00093E00E947210DF91CF91FF90EF9008950F
:101FC000EF92FF920F931F93CF93DF93FC018B014E
:101FD0007A01E90186EF93E0BF0141E652E00E94F9
:101FE00054101093220400932104F0922404E092F0
:101FF0002304D0932604C093250488E69FE00E9422
:10200000C90EDF91CF911F910F91FF90EF9008952E
:10201000CF93DF93C1E1D4E0CE010E94B21ACE018A
:1020200040970E94B21ACE014B970E946F10DF9129
:10203000CF91089580912704909128040895DC01A0
:102040001996ED91FC911A970280F381E02D30975B
:1020500009F009950895EF92FF920F931F93DF9374
:10206000CF9300D0CDB7DEB78C0188E10E94BA1FB4
:10207000BC017E010894E11CF11CC7010E946B0D9C
:10208000D8011996ED91FC911A970190F081E02DFD
:10209000C801B70109950F900F90CF91DF911F9163
:1020A0000F91FF90EF900895EF92FF920F931F937F
:1020B000CF93DF93EC018B017A0145E652E00E9459
:1020C0008010FA86E986C80169E672E00E941C1158
:1020D000DF91CF911F910F91FF90EF9008950E9493
:1020E00099100895CF93DF93EC0188E16AEE7EE0CA
:1020F0000E94B01FCE010E949C10DF91CF910895E5
:10210000EF92FF920F931F93CF93DF93EC018B011C
:102110007A010E94F510F886EF82C8016DE672E040
:102120000E941C11DF91CF911F910F91FF90EF90B2
:1021300008950E94FE1008950E94150E0895FC0156
:10214000A781B0852D913C91F90109950895DC0195
:102150001796ED91FC9118970280F381E02D30974E
:1021600009F0099508950E94F0100895EF92FF92EA
:10217000CF93DF93E0916F02F09170020995EC012B
:10218000009729F06A817B8181E00E949C1FCE012B
:10219000DF91CF91FF90EF9008950F931F93CF930E
:1021A000DF938C01E0917102F09172020995EC01CC
:1021B000F8016281738181E00E949C1F21E030E080
:1021C000209711F420E030E0C901DF91CF911F91F9
:1021D0000F910895E0917302F091740209950895AA
:1021E0008BE294E00E9462170895FC01738362837E
:1021F0008BE294E0BF010E94ED170895BC018BE2D1
:1022000094E00E94B4170895CF93DF93EC018BE222
:1022100094E00E94661708C0828193818C179D0705
:1022200039F0CF010E942C18E82FF92F3097A1F731
:10223000CF01DF91CF9108950F931F93CF93DF9339
:102240008B010E940411EC01009731F01D830C8377
:10225000C8010E94EA108E83DF91CF911F910F91E8
:102260000895FC0120E030E004C08181280F311D79
:10227000329680818823C9F7C9010895FC018181C4
:1022800090E0308120E0822B932B02C0880F991FB1
:102290006A95E2F7892F9927FA01EB58FD4F2081C3
:1022A00030E08223932328E030E0241B350B02C06A
:1022B000969587952A95E2F708956F927F928F926F
:1022C0009F92AF92BF92CF92DF92EF92FF920F93C5
:1022D0001F93CF93DF936C017B015A018901283052
:1022E000310544F4CB01BA01A9010E943E11F60167
:1022F000808341C0390133E0759467943A95E1F7E2
:102300004115510521F04C01C0E0D0E016C0DB01C1
:10231000FC01C0E0D0E08D9181932196C615D705D0
:10232000D4F3A801477050704115510521F1C70140
:102330008C0F9D1F60E070E019C0C7018C0F9D1FBE
:10234000B50148E050E00E943E11F40181934F0135
:102350002196C615D7058CF3A8014770507041151A
:10236000510549F0C7018C0F9D1FB5010E943E1118
:10237000CC0DDD1D8883DF91CF911F910F91FF90D0
:10238000EF90DF90CF90BF90AF909F908F907F9015
:102390006F9008954F925F926F927F928F929F926B
:1023A000AF92BF92CF92DF92EF92FF920F931F9363
:1023B000DF93CF9300D000D0CDB7DEB70E94731E5D
:1023C000E82E092F82E090E00E944F1E009709F44A
:1023D00064C0EE2DF02F918180E02081820F911D4D
:1023E0000E9404117C01009709F459C00E94731ED9
:1023F0003C01F7014681242F30E02770307081E0E6
:1024000090E02115310511F480E090E04695469565
:102410004695840F911D0E944F1E0097F1F1F70120
:1024200004811581CC24DD2453E0452E512C4C0E23
:102430005D1E4E010894811C911C2AC0F801A180E8
:10244000BB24B60143E0759567954A95E1F7660DA3
:10245000771DA60147705070883150F0C401950176
:102460000E945D11F8018081B4010E94B01F0CC070
:102470001C821B82C20195010E945D116B817C81CF
:10248000F80180810E949C1FCA0CDB1C0E5F1F4F4D
:10249000F8018081882391F602C0EE24FF24C70151
:1024A0000F900F900F900F90CF91DF911F910F9190
:1024B000FF90EF90DF90CF90BF90AF909F908F9064
:1024C0007F906F905F904F900895FC0150E080E105
:1024D00090E0861B970B821B930B02C0440F551F85
:1024E0008A95E2F78081852B80838181842B81838B
:1024F00008956F927F928F929F92AF92BF92CF92E8
:10250000DF92EF92FF920F931F93CF93DF938C0193
:102510005B016A0179012830310524F4C801FA0110
:10252000408156C0390163E0759467946A95E1F77C
:10253000A114B10421F04A01C0E0D0E021C0DA01C9
:10254000F80180E090E02D91219301968615970582
:10255000D4F397012770307021153105D9F1F601B8
:10256000E80FF91F408150E068E070E0621B730BD8
:1025700002C0559547956A95E2F7800F911F26C0D6
:10258000F40141914F01C8018C0F9D1FB50128E056
:1025900030E00E9465122196C615D7058CF397018D
:1025A0002770307021153105A9F0F601EC0FFD1FE1
:1025B000408150E0C5010896821B930B02C05595DF
:1025C00047958A95E2F7C8018C0F9D1F60E070E087
:1025D0000E946512DF91CF911F910F91FF90EF90B4
:1025E000DF90CF90BF90AF909F908F907F906F9033
:1025F00008954F925F926F927F928F929F92AF92C7
:10260000BF92CF92DF92EF92FF920F931F93DF93CF
:10261000CF9300D0CDB7DEB78C01DC0116964C917C
:102620001697842F90E08770907021E030E000973B
:1026300011F420E030E04695469546957901E40E88
:10264000F11CC70102960E94DB1E009709F453C0DB
:102650000E947B1EFC01D80112968C9112978083F8
:1026600013968C9181830E947B1EF2E06F2E712C59
:10267000680E791EC30160E070E0A7010E94D132AC
:10268000F801C480D58000E010E02E010894411CC0
:10269000511C2AC0D60111968C901197992478016B
:1026A000E3E0F594E794EA95E1F7E60CF71C77E0B0
:1026B000A72EB12CA022B122883130F00E94BA1F7F
:1026C000AC01C701B50107C00E94A71F9A83898387
:1026D000C701B501A20194010E947912080D191DCC
:1026E000E2E0F0E0CE0EDF1ED6018C91882391F659
:1026F00021E030E002C020E030E0C9010F900F90EF
:10270000CF91DF911F910F91FF90EF90DF90CF90CD
:10271000BF90AF909F908F907F906F905F904F9001
:102720000895E091A302F091A40209950895E09123
:102730005F02F091600209950895E091A902F0917D
:10274000AA0209950895E091AB02F091AC020995B7
:10275000089580E090E008950895E0913F02F0919F
:10276000400209950895009731F0E0913F02F09101
:10277000400209950895E0914102F09142020995C5
:10278000089580E090E008950F931F93DF93CF9317
:10279000CDB7DEB7E0970FB6F894DEBF0FBECDBF62
:1027A0000E94C51E8C010E94731E602FAE014F5FF8
:1027B0005F4F0E945B26882309F445C088A99801D1
:1027C000281B3109C9010E944F1E0097E1F12E819B
:1027D000222371F18A859B853BEA8D3C930721F08A
:1027E0003FEF8F3F930779F5223041F088E090E08A
:1027F00007C0019722912F3F41F00BC082E090E08B
:10280000FE01E80FF91F3C96F4CF181619068CF359
:102810000FC089E1BE01645F7F4F0E94B01F89E154
:102820000E94BA1F6AEE7EE00E94740D009759F074
:1028300088E1BE016A5E7F4F0E94B01FE0918C026A
:10284000F0918D020995E0960FB6F894DEBF0FBEA9
:10285000CDBFCF91DF911F910F910895AF92BF929D
:10286000CF92DF92EF92FF920F931F93DF93CF935C
:10287000CDB7DEB7E0970FB6F894DEBF0FBECDBF81
:102880006C018B01FE01319680E3DF011D928A9578
:10289000E9F781E089838CE00E94A71F8C831D8269
:1028A0001F8280912D0489878F5F80932D0483E0A0
:1028B000E82EE8868DEC9BEA9B878A8789E10E9457
:1028C000BA1F64E572E00E94740D009731F082E057
:1028D0008E838FEF8C878D8709C089E10E94BA1F94
:1028E000BC01CE010C960E946B0DEE828DEC9BEA32
:1028F0009D8B8C8BCE0146966AEE7EE00E946B0D1E
:102900000E94731E9FA78EA70E94C51E88AB7E01E2
:102910000894E11CF11CC7010E945225A82E90E0EA
:102920000E94DB1E009741F10E947B1EBC01C70183
:102930004A2D0E947025A0903502B09036020E9468
:102940007B1E7C010E94CF1EBC01C701F5010995C9
:10295000C114D10489F0009721F08130910561F410
:1029600004C0C80160E070E003C0C80164E070E02A
:1029700041E050E0F6010995E0960FB6F894DEBF0D
:102980000FBECDBFCF91DF911F910F91FF90EF90C0
:10299000DF90CF90BF90AF9008950E948D1D8093DF
:1029A0002D04E0913F02F0914002099508950F93A4
:1029B0001F93CF93DF938C01EB014115510549F033
:1029C000FA01828193810E944B20C801BE010E94BE
:1029D0002E14DF91CF911F910F9108951F93CF93E4
:1029E000DF93EC01162F888580FF1DC0EC81FD81EF
:1029F0003097C9F0D0933104C093300482E08887C7
:102A0000CE0106960995992787FD90950297823009
:102A1000910510F0133829F4CE01BE010E9417155C
:102A200002C081E08887DF91CF911F910895CF92F6
:102A3000DF92EF92FF920F931F93CF93DF93EC01FE
:102A40007B01C0903004D090310400912E0410918D
:102A50002F04F80103C00190F081E02DEC17FD0771
:102A600019F03097C1F746C0209709F443C0888514
:102A7000882309F118860BC0C017D10729F0C801B7
:102A800067E8AE010E94EE14F80100811181011582
:102A9000110591F7EC81FD81309769F0CE15DF05C6
:102AA00051F0D0933104C0933004CE01069663E810
:102AB00040E050E00995E0912E04F0912F04CE17EC
:102AC000DF0791F48881998190932F0480932E04DD
:102AD0000DC0808191818C179D0729F4888199818F
:102AE0009183808303C0FC01309799F7D092310421
:102AF000C0923004DF91CF911F910F91FF90EF9022
:102B0000DF90CF9008951F93CF93DF9310923204FC
:102B1000C0912E04D0912F0411E00EC08985882326
:102B200041F018871986CE0162E840E050E00E942B
:102B3000EE140990D881C02D209781F7DF91CF91B5
:102B40001F9108958091DD04982F9F5F9093DD047D
:102B5000089560913004709131040E941715089512
:102B60008AE88093DD0410923404109233041092AA
:102B70002F0410922E041092310410923004089504
:102B800080913204882311F00E94831570913304E0
:102B9000772309F455C02091340430E0F901EE0F99
:102BA000FF1FEE0FFF1FE20FF31FEB5CFB4F608177
:102BB0006093DC04418152815093DB044093DA043A
:102BC000838194819093D9048093D8042F5F3F4FE1
:102BD0002F71307020933404715070933304009738
:102BE00041F580912E0490912F0418C080913204F9
:102BF000882311F00E9483154091DA045091DB0480
:102C00008091D6049091D7046091DC040E94EE1468
:102C1000E091D604F091D704808191819093D704FC
:102C20008093D6048091D6049091D7040097F1F652
:102C300007C0613819F421E0FC0120870E94EE14DE
:102C4000809132042091330430E0280F311DC901F6
:102C50000895809132042091330430E0280F311D13
:102C6000C9010895709133047032D9F02091340471
:102C7000270F2F712093D50430E0F901EE0FFF1FCD
:102C8000EE0FFF1FE20FF31FEB5CFB4F60835283DD
:102C90004183948383837F5F7093330420E030E02B
:102CA00002C021E030E0C9010895CF93DF93C091C5
:102CB0003004D09131040E94EE14D0933104C093BB
:102CC0003004DF91CF910895FC01AB0190912E0467
:102CD00080912F049C01A32FB22F03C00D90BC91B3
:102CE000A02DAE17BF0791F01097C1F7309771F084
:102CF00090838183F0932F04E0932E0481E08087FA
:102D000017821682CF0161E80E9455160895FC01D2
:102D1000009741F080858150823020F481E08187E6
:102D200080933204089521E030E0FC0180858823FF
:102D300011F420E030E0C9010895EF92FF92CF93A3
:102D4000DF93E82EE7017E01F92EE70104C060E081
:102D500070E00E946416899199910097C1F7DF9104
:102D6000CF91FF90EF900895EF92FF92CF93DF9372
:102D7000E82EE7017E01F92EE70102C00E94A915A5
:102D8000899199910097D1F7DF91CF91FF90EF90C2
:102D90000895CF93DF93EC0188819981883691055E
:102DA00079F08A37910509F44EC0009709F04EC0BA
:102DB0000E94A2158093340F1092E4041092E30451
:102DC0008EED94E00E94B81D2FEF8F3F920719F40B
:102DD00088E690E035C02091E3043091E4048D3022
:102DE000910571F02F3731055CF7F901EB51FB4F7D
:102DF00080832F5F3F4F3093E4042093E304E0CFC0
:102E0000F901EB51FB4F10822F5F3F4F3093E404E9
:102E10002093E30480E090E06091340F45EE54E0AD
:102E20000E943216809130049091310465E840E0B0
:102E300050E00E943216009709F0BECF8AE790E07A
:102E40009983888307C0653829F4B6CF1982188220
:102E500083E001C081E0DF91CF910895682F8A302F
:102E6000F9F08091E505882351F48EED94E00E94FD
:102E7000981D009771F481E08093E5050AC06D30DC
:102E800041F48EED94E00E94981D009711F010928D
:102E9000E5058DEB92E00E94871621E030E002C04C
:102EA00020E030E0C90108958EED94E065E675E01C
:102EB00040E80E94901D8DEB92E060E070E00E947F
:102EC00064160895FC01118210820895FC0180812E
:102ED00091810895FB0120813181FC0131832083A0
:102EE0000895FC01208131812115310511F407C0BD
:102EF0009C01F901808191810097D1F702C020E007
:102F000030E0C9010895CF93DF93DC012D913C910E
:102F1000119721153105A9F0F90180819181009760
:102F200029F411961C921E920EC0F9012081318164
:102F3000D9018D919C9111970097B9F71182108258
:102F400002C020E030E0C901DF91CF910895DC019B
:102F5000ED91FC911197309729F080819181119624
:102F60009C938E93CF010895CF93DF93FC01A081B2
:102F7000B1811097D9F0C0E0D0E016C0A617B7070E
:102F800071F48D919C911197209719F4918380830E
:102F900002C09983888311961C921E9207C0ED018E
:102FA00098818981A92FB82F109741F7DF91CF9190
:102FB00008950F931F93CF93DF938C01EB010E9431
:102FC000B417F8018081918199838883D183C0836C
:102FD000DF91CF911F910F910895EF92FF920F9380
:102FE0001F93CF93DF93EC017B010E94B417F7018D
:102FF00011821082CE010E947117FC01009719F412
:10300000E882F98202C0F182E082DF91CF911F91C4
:103010000F91FF90EF900895DC01ED91FC911197D5
:1030200020E030E005C02F5F3F4F0190F081E02DA0
:103030003097C9F7C9010895FB01309721F4BA010F
:103040000E94D9170895DA018081918111969C938D
:103050008E93518340830895009721F0FC012081D5
:10306000318102C020E030E0C90108958091E60579
:103070009091E705009729F41092E9051092E80570
:1030800008950E94C003E091E605F091E7052281D2
:10309000338140815181240F351F281B390B0CC00F
:1030A0004281538160817181460F571F481B590B24
:1030B0004217530708F49A010480F581E02D3097F8
:1030C00079F7280F391F3093E9052093E805089513
:1030D00083ED92E00E9487160895CF92DF92EF92DF
:1030E000FF920F931F93CF93DF937C01FC018081AC
:1030F0009181009729F08A35910509F06EC00BC0C7
:103100001092E7051092E6058AE590E0F7019183B9
:10311000808381E066C0673849F5CA01E091E60521
:10312000F091E70503C00480F581E02D309741F36D
:103130002681378128173907B1F3E093E605F0932C
:10314000E7050FC016962D913C9117972817390760
:1031500039F414962D913C91159735832483DF0122
:10316000FD01A481B581109769F7CECF623861F671
:10317000C091E605D091E70500E010E02BC0CE013C
:103180000E94CA270097F1F08E819F8168E8AE0106
:103190000E9432160097A1F41F821E828C819D81AD
:1031A0000115110521F0F8019583848304C09093E3
:1031B000E7058093E6051D821C820E943618D8CF51
:1031C0000E9468188E019C818D81C92EE6016E01D6
:1031D000D82EE601209799F697CFF7011182108239
:1031E00083E0DF91CF911F910F91FF90EF90DF90DF
:1031F000CF900895CF93DF93EC010E9468188E81E1
:103200009F81009769F0E091E605F091E70506C01F
:10321000EC17FD07A9F00480F581E02D3097C1F788
:1032200080913004909131049F838E838091E605D4
:103230009091E7059D838C83D093E705C093E605C5
:103240000E943618DF91CF910895CF93DF93EC0160
:103250000E94AA27CE010E94FA18DF91CF9108950B
:10326000CF93DF93EC010E94B627CE010E94FA189B
:10327000DF91CF910895CF93DF93EC010E94C02797
:10328000CE010E94FA18DF91CF910895FC01808150
:103290009181860F971F918380830E94361808952D
:1032A00021E030E0FC0186819781009711F020E059
:1032B00030E0C9010895FC01228133818081918130
:1032C000280F391FC9010895FC018081918108955B
:1032D00021E030E08091E6059091E705009711F438
:1032E00020E030E0C90108958091E6059091E7055E
:1032F000009729F02091E8053091E90502C020E00F
:1033000030E0C9010895CF93DF93EC01E091E60529
:10331000F091E7058E179F0741F48C819D81909372
:10332000E7058093E60514C0FC01309731F08481F5
:1033300095818C179D07C1F707C01D821C821F82D3
:103340001E82DF91CF9108958C819D819583848326
:103350000E943618F2CFCF92DF92EF92FF920F9336
:103360001F93CF93DF938C017A01FC0180819181BF
:10337000009729F08B34910509F051C01EC08BEEE7
:1033800095E00E946617C82EE6017E01F92EE7013E
:1033900009C06C817D81CE0102960E942519099099
:1033A000D881C02D2097A9F781E08093EA058BE4AE
:1033B00090E0F8019183808337C06838A9F58BEEDF
:1033C00095E00E946617C82EE6016E01D92EE6012F
:1033D00023C0CE010296E816F906D9F48BEE95E0EB
:1033E000BE010E94B417E0903004F09031048A8549
:1033F0009B859093310480933004EC85FD85309754
:1034000019F08E859F850995F0923104E092300481
:10341000CECF0990D881C02D2097D9F6C8CFF8011A
:103420001182108283E001C081E0DF91CF911F9172
:103430000F91FF90EF90DF90CF9008951092EA05E2
:103440008BEE95E00E9462178CEE92E060E070E0F7
:103450000E94641608950F931F93CF93DF93EC019E
:1034600000913004109131041B870A875D874C87D7
:103470003F872E878091EA05882379F08CEE92E0D1
:103480009093310480933004CE0102960E94251956
:10349000109331040093300402C07D836C838BEE63
:1034A00095E0BE010E94B4178BEE95E0BE010E942C
:1034B000ED17DF91CF911F910F9108950F931F93F7
:1034C000CF93DF93EC018091EA05882391F000917E
:1034D0003004109131048CEE92E09093310480938B
:1034E0003004CE0102960E943019109331040093EB
:1034F00030048BEE95E0BE010E94B4178BEE95E090
:10350000BE010E94ED17DF91CF911F910F91089599
:103510000F931F93CF93DF93EC018091EA058823EB
:1035200091F000913004109131048CEE92E0909370
:10353000310480933004CE0102960E943B1910930F
:103540003104009330048BEE95E0BE010E94B41765
:103550008BEE95E0BE010E94ED17DF91CF911F9198
:103560000F910895CF93DF93EC018091EA058823B2
:1035700029F0CE0102960E94831904C01F821E8288
:10358000198618868BEE95E0BE010E94B417DF9174
:10359000CF910895CF93DF93EC018091EA058823C2
:1035A00031F0CE0102960E9450199C0114C08BEE9E
:1035B00095E00E946617E82FF92F06C0EC17FD076B
:1035C00041F00190F081E02D3097C1F721E030E02B
:1035D00002C020E030E0C901DF91CF910895CF9380
:1035E000DF93E3E7FFE0C5E3DFE0A7E6BFE011928A
:1035F000119219921992199219921D928FE0EB383B
:10360000F807A9F7DF91CF9108950F931F93CF93F8
:10361000DF93FC01DC01A959B04F8C91882339F16B
:103620000091940010919500EF01CC0FDD1FCC0F9D
:10363000DD1FCB5CD04FDF01AA0FBB1FAD58B04FD1
:103640008D919C9111979801281B390B40E050E017
:10365000688179818A819B81260F371F481F591FF6
:10366000288339834A835B8311961C930E93EE0F54
:10367000FF1FEE0FFF1FEB5CF04F608171818281B5
:103680009381DF91CF911F910F91089560E070E0D9
:10369000CB010895FC01EE0FFF1FEE0FFF1FEB5C47
:1036A000F04F40835183628373830895EF92FF92BA
:1036B0000F931F93CF93DF9327E63FE0C5E3DFE04F
:1036C000E3E7FFE0D9018D919D018823C9F0409186
:1036D000940050919500808191817A01E81AF90A4D
:1036E00000E010E088819981AA81BB818E0D9F1D29
:1036F000A01FB11F88839983AA83BB835183408312
:1037000024963296BFE023373B07E1F6DF91CF9155
:103710001F910F91FF90EF9008950E940524089546
:103720000F931F93FC01CB014091ED055091EE05E5
:10373000338322831583048371836083F093EE05C2
:10374000E093ED054115510511F40E941F2480E01E
:1037500090E01F910F9108958091ED059091EE05F5
:103760000097C1F01092EE051092ED05DC01149661
:103770006D917C9115971296ED91FC911397099597
:10378000E091ED05F091EE05309721F08081918177
:103790000E941F2408950F931F930091EA0E109129
:1037A000EB0E0E94CD032DB73EB7225530400FB629
:1037B000F8943EBF0FBE2DBFEDB7FEB7319627E898
:1037C00032E0ADB7BEB712963C932E9311970283A9
:1037D0001382148315826683778380879187809113
:1037E000EC0E9091ED0EA091EE0EB091EF0E82874F
:1037F0009387A487B5878091F00E9091F10EA091E8
:10380000F20EB091F30E86879787A08BB18B8091D3
:10381000F40E9091F50EA091F60EB091F70E828BFA
:10382000938BA48BB58B8091F80E9091F90EA0919B
:10383000FA0EB091FB0E868B978BA08FB18F809183
:10384000FC0E9091FD0EA091FE0EB091FF0E828FA6
:10385000938FA48FB58F8091000F9091010FA0914D
:10386000020FB091030F868F978FA0A3B1A3809111
:10387000040F9091050FA091060FB091070F82A33E
:1038800093A3A4A3B5A38091080F9091090FA091D1
:103890000A0FB0910B0F86A397A3A0A7B1A78091A1
:1038A0000C0F90910D0FA0910E0FB0910F0F82A7EA
:1038B00093A7A4A7B5A78091100F9091110FA09185
:1038C000120FB091130F86A797A7A0ABB1AB809151
:1038D000140F9091150FA091160FB091170F82AB96
:1038E00093ABA4ABB5AB8091180F9091190FA09139
:1038F0001A0FB0911B0F86AB97ABA0AFB1AF809101
:103900001C0F90911D0FA0911E0FB0911F0F82AF41
:1039100093AFA4AFB5AFEDB7FEB7FF968091200F80
:103920009091210FA091220FB091230F808391835A
:10393000A283B383EDB7FEB7ED5BFF4F8091240FF9
:103940009091250FA091260FB091270F808391832E
:10395000A283B383EDB7FEB7E95BFF4F8091280FD9
:103960009091290FA0912A0FB0912B0F8083918302
:10397000A283B383EDB7FEB7E55BFF4F80912C0FB9
:1039800090912D0FA0912E0FB0912F0F80839183D6
:10399000A283B383EDB7FEB7E15BFF4F8091300F99
:1039A0009091310FA091320FB091330F80839183AA
:1039B000A283B3830E94D8320091EA0E1091EB0EDD
:1039C0002DB73EB72E5A3F4F0FB6F8943EBF0FBEED
:1039D0002DBF0E94CD03ADB7BEB7D2970FB6F894F6
:1039E000BEBF0FBEADBFEDB7FEB7319628E132E0E6
:1039F00012963C932E93119702831382148315829F
:103A000066837783808791878091350F9091360FF9
:103A1000A091370FB091380F82879387A487B5871D
:103A20008091390F90913A0FA0913B0FB0913C0FCC
:103A300086879787A08BB18B80913D0F90913E0F29
:103A4000A0913F0FB091400F828B938BA48BB58BCD
:103A50008091410F9091420FA091430FB091440F7C
:103A6000868B978BA08FB18F8091450F9091460FD9
:103A7000A091470FB091480F828F938FA48FB58F7D
:103A80008091490F90914A0FA0914B0FB0914C0F2C
:103A9000868F978FA0A3B1A380914D0F90914E0F69
:103AA000A0914F0FB091500F82A393A3A4A3B5A3ED
:103AB0008091510F9091520FA091530FB091540FDC
:103AC00086A397A3A0A7B1A780915D0F90915E0FE9
:103AD000A0915F0FB091600F82A793A7A4A7B5A78D
:103AE0008091610F9091620FA091630FB091640F6C
:103AF00086A797A7A0ABB1AB0E94D8322DB73EB72F
:103B00002E5C3F4F0FB6F8943EBF0FBE2DBF1F91E6
:103B10000F9108950E94BD3208950E94B932089510
:103B2000FC017183608341504283138214820895A3
:103B3000FC012381428150E030E08481D901A81B3F
:103B4000B109CD01842395238417950769F0A081DD
:103B5000B181A20FB31F6C9383818F5F9281892300
:103B6000838321E030E002C020E030E0C901089505
:103B7000FC0174816281838190E0272F30E0821BF9
:103B8000930B462F50E084239523181619065CF4F6
:103B9000A081B181A20FB31F2C91872F8F5F862345
:103BA000848330E002C02FEF3FEFC9010895FC018C
:103BB000228130E02F5F3F4FC9010895FC0123812E
:103BC00030E08481281B3109828190E02823392349
:103BD000C901089580E38093EF050895EF92FF9265
:103BE000CF93DF932091EF0530E0C0E3D0E0C21B1C
:103BF000D30B2C503A4FB901AE010E94C832CE010E
:103C0000DF91CF91FF90EF900895AF92BF92CF9246
:103C1000DF92EF92FF920F931F93CF93DF937C017C
:103C2000C090F005D090F1052091EF0530E08601BD
:103C3000005D1F4F021B130B01381105E0F4C0E3B8
:103C4000D0E0C21BD30B2C503A4FB901AE010E94F9
:103C5000C832CE0DDF1D2091F2053091F305809121
:103C6000A6069091A706280F391FCE01B901A6011B
:103C70000E94C83202C000E010E0C801DF91CF917D
:103C80001F910F91FF90EF90DF90CF90BF90AF907A
:103C900008959091EF05980F9093EF050895409146
:103CA000F0055091F1059C014817590798F0809153
:103CB000A6069091A706820F931F9093A706809364
:103CC000A606421B530B5093F1054093F00521E0EB
:103CD00030E002C020E030E0C90108959093F10582
:103CE0008093F00508952091A6063091A7062C5DDB
:103CF000394FC90108952091EF0530E02C503A4F1B
:103D0000C901089521E030E08091F2059091F3051A
:103D100046E08432940711F420E030E0C9010895B0
:103D20000E94821E009771F024E236E06091F20555
:103D30007091F3054091F0055091F105C9010E9481
:103D4000C8320895A091A606B091A7061097B9F0C1
:103D50002091F0053091F105205D3F4FAC5DB94FEA
:103D6000E4E2F6E080E390E003C04D9141930196D8
:103D700082179307D4F31092A7061092A60608950F
:103D80008091F2059091F30508958091F00590914E
:103D9000F10508959091EF0580E3891B089580E374
:103DA0009091EF05891B2091F0053091F105280FC6
:103DB000311DC90108951F93CF93DF93EC0110913A
:103DC000EF05812F90E08C179D076CF00E94CF1EAD
:103DD0008C0F9D1F8138910530F41C1B1093EF054B
:103DE00021E030E002C020E030E0C901DF91CF9156
:103DF0001F910895CF93DF93E3E9FFE011921192B1
:103E00008FE0E33CF807D1F7C0E0D0E0CE01880FA7
:103E1000991F8557904F64E572E00E946B0D2196C3
:103E2000C430D10599F7DF91CF9108951092A7067C
:103E30001092A6061092F1051092F00580E380938F
:103E4000EF0584E296E09093F3058093F2050E94DB
:103E5000FA1E08950F931F93CF93DF93EC018B010C
:103E60000E94161FD093F305C093F2051093F1053D
:103E70000093F005DF91CF911F910F910895CF929C
:103E8000DF92EF92FF920F931F93DF93CF9300D0B7
:103E9000CDB7DEB78C0169837A830E94161F6981D2
:103EA0007A81C62ED72E21E8C216D10418F030E848
:103EB000C32ED12C8091F2059091F305B801A60193
:103EC0000E94C832D092F105C092F005C6010F9051
:103ED0000F90CF91DF911F910F91FF90EF90DF90A6
:103EE000CF900895282F392FD901E3E9FFE080E32F
:103EF00001900D928150E1F7862F972FDC01EBE8BE
:103F0000FFE088E001900D928150E1F70895E3E928
:103F1000FFE0282F392FD90180E30D9001928150C5
:103F2000E1F7ABE8BFE0862F972FFC0188E0019016
:103F30000D928150E1F70895E82FF0E0EE0FFF1F9A
:103F4000ED56F04F7183608381E090E00895E82F93
:103F5000F0E0EE0FFF1FED56F04F80819181089544
:103F600090E0880F991F855A904F0E946B0D81E059
:103F700090E00895282F30E0220F331F255A304F4C
:103F8000C901089586E093E00E94222786EF92E01F
:103F90000E9422278EEF92E00E9422270895EF923E
:103FA000FF920F931F93CF93DF930E94821E00977F
:103FB000C9F08EEF92E00E944227E82EE7017E01D1
:103FC000F92EE701209791F10E94C51E99838883FD
:103FD0000E94C01E9B838A83C70104960E94EE1D27
:103FE0008CAB24C086EF92E00E944227EC017E0158
:103FF000F92EE7012097D1F086E093E00E94422756
:104000008C0199838883009779F002960E94051E9F
:10401000F80191838083B8016E547F4FC8018E5799
:104020009F4F0E94721F02C0C0E0D0E0CE01DF911E
:10403000CF911F910F91FF90EF900895FC01808127
:104040009181BC016E547F4F8E579F4F0E94721F0B
:104050000895CF93DF93EC0186EF92E0BE010E94BA
:104060008D27009749F06881798186E093E00E946E
:10407000682786EF92E009C08EEF92E0BE010E94B1
:104080008D27009729F08EEF92E0BE010E946827ED
:10409000DF91CF910895EF92FF92CF93DF93EC01E0
:1040A00086EF92E0BE010E948D27009791F0099063
:1040B000D881C02D68817981CE0102960E943F1F70
:1040C000BE016E547F4FCE018E579F4F0E94871FB7
:1040D0001BC08EEF92E0BE010E948D270097A1F0D9
:1040E0000E94161F688179818A819B810E943F1FEF
:1040F0008CA990E00E94DB1E0E947B1E4CA9249696
:10410000BE0150E00E94C832DF91CF91FF90EF9046
:104110000895CF93DF93EC0186EF92E0BE010E94F9
:104120008D27009729F0288139812E5F3F4F0CC0E1
:104130008EEF92E0BE010E948D27009719F02A8130
:104140003B8102C020E030E0C901DF91CF910895AA
:10415000DC01ED91FC91119780819181089570E0CF
:104160006F5B7F4F660F771FFC0120813181260F27
:10417000371FC9010895DC01ED91FC91119770E0A2
:104180006F5B7F4F660F771FE60FF71F808191816E
:104190000895089586E19DE00E945019009721F04E
:1041A00086E19DE00E943B190895E091230DF09176
:1041B000240D309711F00995089580E00895EF924D
:1041C000FF920F931F93CF93DF93EC018A018881B5
:1041D0009981009731F023E08030920709F006C101
:1041E0002BC080E00BC0E82FF0E0EE0FFF1FEE0FBA
:1041F000FF1FEC5FF24F118210828F5F843098F3C3
:1042000080931E0D80913004909131049093150D90
:104210008093140D0E94A2158093C30F86E19DE048
:1042200060E470E00E9425190E94BE2880E093E0BF
:104230009983888381E0DDC0623009F4B9C06330BE
:1042400030F4662309F489C0613081F79CC0673877
:1042500019F0683859F741C010921F0D44E0E42E60
:104260004DE0F42E18C0F7018281938180179107E9
:1042700049F4808191810E94052AF7011182108200
:104280001382128284E090E0E80EF91E80911F0DE7
:104290008F5F80931F0D80911F0D843020F3E3ED1D
:1042A000F4E1848D958D8017910719F4158E148E85
:1042B000118EB09695E1E335F90799F7E9E6F5E156
:1042C000818592858017910711F4158214823D969D
:1042D00025E1EB3EF207A1F7A9CF8DE04631580763
:1042E00009F0A4CFCA010E945019009709F49ECF8B
:1042F00010921F0D2DC0F0E035E0EE0FFF1F3A9534
:10430000E1F7ED52FB4E818D8823E9F086E19DE0D7
:104310000E943B1980911F0D90E025E0880F991FA6
:104320002A95E1F78D529B4E9093D2148093D1142D
:1043300082E00E94392A8091C40F9091C50F0097A6
:1043400011F00E94D52080911F0D8F5F80931F0D6B
:10435000E0911F0DE43078F269CF4115510509F461
:1043600065CF5093D2144093D11483E00E94392A30
:104370008091C40F9091C50F009711F00E94D52035
:104380000E94CA2053CF4115510509F44FCF5093D5
:10439000CE144093CD1485E00E94392A8091C40F39
:1043A0009091C50F009709F441CF0E94D5203ECFD0
:1043B0008091C40F9091C50F009709F437CF809179
:1043C000D50F863031F48091ED0F81FF02C00E943D
:1043D000CA2081E00E94392A8091C40F9091C50FB4
:1043E000009709F423CF0E94082320CF1982188256
:1043F00083E0DF91CF911F910F91FF90EF9008958F
:104400009093240D8093230D0895209130043091D2
:10441000310460E0E4E0FDE013C0408151814817C1
:10442000590761F4428153814217530739F460936D
:10443000220D118210820E94052A089534966F5F22
:10444000643058F36093220D089540E0E4E0FDE00D
:1044500016C0542F5F5F208131812115310569F429
:104460004093210D91838083209130043091310459
:10447000338322830E941F2A08953496452F4430A7
:1044800040F34093210D0895FC01809130049091F8
:104490003104958F848F778F668F0895FC0180910A
:1044A00030049091310492878187748763870895DF
:1044B000CF93DF93EA010E948129FC01009741F02C
:1044C000809130049091310492878187D487C3878B
:1044D000CF01DF91CF9108950F931F93DF93CF9377
:1044E00000D000D0CDB7DEB78C01AB018FEF898350
:1044F0008A838B838C83CE010196B8010E94582257
:10450000FC01009711F015830483CF010F900F90E9
:104510000F900F90CF91DF911F910F9108958BE134
:1045200093E062E040E050E00E9455161092C50F03
:104530001092C40F0895AC018BE193E061E00E94FA
:1045400032160895AC018BE193E060E00E943216D0
:1045500008950F931F93CF93DF93EA010E94F728EA
:104560008C01009761F08091300490913104F80142
:10457000958F848FD78FC68FC8010E94A222C80151
:10458000DF91CF911F910F910895CF93DF93A09169
:10459000D114B091D214109719F0ED016C9605C0AA
:1045A000C091CD14D091CE1429968091CC1486FF61
:1045B00022C01092200D40E0E4E0FDE016C0208112
:1045C000318114968D919C9115972817390759F4CC
:1045D00082819381009739F04093200D99838883DD
:1045E0001B821A8206C034964F5F443040F34093DA
:1045F000200D0E94CA2088819981009731F04A815C
:104600005B816091C30F0E945516DF91CF91089591
:104610000F931F93CF93DF938091D50F863009F0CE
:1046200074C08091C40F9091C50F25E0803092072F
:1046300009F06BC0C4E9D2E0D093C50FC093C40F9A
:1046400002E00093CE0F14E91093CF0F1092F10FF8
:104650001092F00F0E94B628809590959093F10FDC
:104660008093F00F1092D70F1092D60F0E94A528BA
:10467000809590959093D70F8093D60F0E94D52068
:10468000D093C50FC093C40F0093CE0F1093CF0FDC
:104690009091CF148091D014E92FF82FDF01A45905
:1046A000BD4F8CE692E00D9001920197E1F784EE08
:1046B0009FE06CE672E00E9449288091C80F8093C9
:1046C000E40F8091C90F8093E50F8091CA0F80930A
:1046D000E60F8091CB0F8093E70F1092F10F1092AD
:1046E000F00F0E94B628809590959093F10F8093DB
:1046F000F00F1092D70F1092D60F0E94A528809528
:1047000090959093D70F8093D60F0E94D520DF917C
:10471000CF911F910F9108951F920F920FB60F9294
:104720000BB60F9211242F933F934F935F936F9388
:104730007F938F939F93AF93BF93EF93FF9380915A
:104740009400909195009093780F8093770F81E07B
:104750008093690F80917100807D809371000E9429
:10476000AC1B8091690F8823E9F1809194009091AE
:1047700095002091770F3091780F82179307A0F45E
:1047800080913D0F90913E0FA0913F0FB091400F4F
:104790008C57914EAF4FBF4F80933D0F90933E0F7C
:1047A000A0933F0FB093400F80919400909195009B
:1047B000821B930BA0E0B0E020913D0F30913E0FA3
:1047C00040913F0F5091400F820F931FA41FB51FC0
:1047D00080933D0F90933E0FA0933F0FB093400FF7
:1047E0001092690FFF91EF91BF91AF919F918F91BF
:1047F0007F916F915F914F913F912F910F900BBEE1
:104800000F900FBE0F901F9018959FB7F894E1E797
:10481000F0E08081807D808388B38F6288BB1092B6
:104820009000E1E9F0E01082109292001092950061
:10483000109294008081856080839FBF08952FB778
:10484000F894909399008093980088B38F6288BB06
:10485000E1E7F0E08081826080832FBF0895EF92CE
:10486000FF920F931F93CF93DF93EC01F8940E9474
:10487000F60583B7817F866083BF8091B600806232
:104880008093B60082E08093B00083E08093B10013
:104890007E0100E010E0C801B7013AE0660F771F23
:1048A000881F991F3A95D1F724E83EE140E050E097
:1048B0000E944A322093B3001092B2008091B60059
:1048C00084FDFCCF8091700082608093700083B77C
:1048D000816083BF78948091670F8823E9F180918C
:1048E0009400909195002091730F3091740F82176E
:1048F0009307A0F48091350F9091360FA091370F58
:10490000B091380F8C57914EAF4FBF4F8093350FFA
:104910009093360FA093370FB093380F8091940087
:1049200090919500821B930BA0E0B0E02091350F91
:104930003091360F4091370F5091380F820F931FEF
:10494000A41FB51F8093350F9093360FA093370F98
:10495000B093380F1092670F8091B300882339F01D
:1049600083B7816083BF889583B78E7F83BF83B70A
:104970008E7F83BF80919400909195008C0F9D1F36
:10498000909395008093940080919400909195006D
:104990009093740F8093730F81E08093670F8091E1
:1049A00070008D7F809370000E94E805C801B701F8
:1049B00027E0660F771F881F991F2A95D1F724E8F3
:1049C0003EE140E050E00E944A32C9010E941B04CF
:1049D000DF91CF911F910F91FF90EF9008951F925B
:1049E0000F920FB60F9211240F900FBE0F901F90D1
:1049F0001895EF92FF92CF93DF93FC01DB0185E0E6
:104A0000EB0119928A95E9F7858190E083709070A7
:104A1000009711F082E08C93878190E08370907012
:104A2000009721F082E012968C931297858190E096
:104A300083709070009799F0878190E083709070F8
:104A4000009769F023893489818592852817390771
:104A500031F481E0848312961C92129701C0148273
:104A6000858183708250823030F4C82FD0E0CB5DD6
:104A7000DC4F888101C080E011968C931197E7810B
:104A8000E370E250E23028F4F0E0EB5DFC4F80810F
:104A900001C080E013968C931397DF91CF91FF9024
:104AA000EF900895DF93CF9300D000D00F92CDB751
:104AB000DEB7BE016F5F7F4F0E94F92489819A8122
:104AC000890F8D5F9B81890F9C81890F9D81890F43
:104AD0000F900F900F900F900F90CF91DF9108954E
:104AE000AF92BF92CF92DF92EF92FF920F931F93FC
:104AF000DF93CF9300D000D000D0CDB7DEB78C01CC
:104B00007B01BE016F5F7F4F4E830E94F924C980F5
:104B10009A81A92EBB24DB808C81682F70E09501DF
:104B20002C0D311D2D5F3F4F2D0D311D260F371FD1
:104B30005D81250F311D4E8150E0421753070CF463
:104B4000A8C0D80111964C91119750E04170507057
:104B5000E3E0440F551FEA95E1F712962C91129766
:104B600030E02170307054E0220F331F5A95E1F786
:104B7000242B3C913770232B13963C911397E32FF2
:104B8000F0E0E170F07045E0EE0FFF1F4A95E1F7AD
:104B90002E2B14963C911497E32FF0E0E170F07007
:104BA00036E0EE0FFF1F3A95E1F72E2BF701208339
:104BB00015964C91159750E043705070440F551F57
:104BC000440F551F16962C91169730E023703070C5
:104BD00054E0220F331F5A95E1F7242B17963C918E
:104BE00017973295330F330F307C322B3183189661
:104BF0002C9118972283FC2DF23069F419962C9190
:104C0000D70113962C931397F801228514962C93B1
:104C1000149745E001C043E0E92FF0E03B96E00F38
:104C2000F11F542F0AC09701250F311DC290D901E1
:104C3000CC925F5F0894A108B108A114B10499F760
:104C4000940FBD2DB23089F4F701E90FF11DD801A1
:104C500053962C91539720839F5FF701E90FF11D25
:104C600054962C91549720839F5FE82FF0E075961F
:104C7000E00FF11F292F08C0D701A20FB11D3291FB
:104C80003C932F5F6150704061157105A9F7890F42
:104C900001C080E026960FB6F894DEBF0FBECDBFF0
:104CA000CF91DF911F910F91FF90EF90DF90CF9008
:104CB000BF90AF900895BF92CF92DF92EF92FF9294
:104CC0000F931F93CF93DF937C01D62EEA016330BD
:104CD00008F4ADC0FC018081B82EB294B694B694AD
:104CE000B3E0BB22F1E0BF22F7019181292F269585
:104CF00026952370C92EC294C694C694A3E0CA22F6
:104D0000382F37703883382F369536953695317071
:104D10003983382F329531703A8382958695817028
:104D20008B83BC822D83892F829583708E83CF8263
:104D30008281888787010D5F1F4F222361F1F8016F
:104D4000918180E0F7013381830F911D9A878987D4
:104D500087010B5F1F4F223081F4CA010B9664E577
:104D600072E00E946B0DF80181818B87F7018581CC
:104D70008C878701095F1F4F16C02330A1F4F7010C
:104D80003D96DA011B9682918D93E017F107D9F7D2
:104D9000085F1F4F08C0CA010B9664E572E00E94CD
:104DA0006B0D1A861986CC2089F1BB2059F4F801C5
:104DB000918180E02081820F911D9C8B8B8B0E5FF7
:104DC0001F4F04C089859A859C8B8B8BFC2DF230FC
:104DD00071F4CE01459664E572E00E946B0DF80116
:104DE00081818D8B80818E8B0E5F1F4F17C0FC2DB4
:104DF000F330A1F4085F1F4FD801FE01759680E0E3
:104E00009E9191938F5F8830D9F708C0CE01459667
:104E100064E572E00E946B0D1C8A1B8A802F8E193C
:104E20009D2D981B9FA71EA70DA7D81608F480E0FC
:104E3000DF91CF911F910F91FF90EF90DF90CF9076
:104E4000BF900895CF93DF93EC014A815B818C8101
:104E50009D8160E070E00E94D1324A815B8188814F
:104E60009981489F9001499F300D589F300D112422
:104E70008E819F8160E070E0A9010E94D132DF91B4
:104E8000CF910895FC018281938120E030E019C028
:104E9000A481B581A20FB31F4C91442381F481E01A
:104EA0008C9340815181249FC001259F900D349F98
:104EB000900D112426813781280F391F07C02F5FDD
:104EC0003F4F2817390720F320E030E0C90108954B
:104ED000FC01268137814281538180E090E018C037
:104EE0002617370781F4A481B581A80FB91F2C912B
:104EF000121614F421502C930480F581E02DE80F54
:104F0000F91F80810895A081B1812A0F3B1F01966E
:104F10008417950728F38FEF0895FC01CB012681B4
:104F200037816217730790F0A081B181628173812C
:104F3000A69FA001A79F500DB69F500D1124420FB0
:104F4000531F21E030E08417950710F020E030E097
:104F5000C9010895CF93DF93EC017B836A830E949C
:104F6000C00399838883DF91CF910895FC018081EC
:104F7000918122813381820F931F918380830895D1
:104F8000CF93DF93EC010E94C00399838883DF9164
:104F9000CF910895CF93DF93EC010E94C003288145
:104FA0003981821B930B019621E030E04A815B81BD
:104FB0004817590710F020E030E0C901DF91CF9188
:104FC0000895EF92FF92CF93DF93FC01C281D381CA
:104FD00080819181C80FD91F0E94C003C81BD90BC3
:104FE000CE01DF91CF91FF90EF9008959C01415049
:104FF0005040460F571FDB0110C0FC91E0E01196B6
:105000008C911197BF01680F711D260F371F26174E
:10501000370710F42F5F3F4F1296A417B50768F3B8
:10502000A417B50749F49C9180E0280F391F281771
:10503000390710F42F5F3F4FC9010895CF93DF93D5
:105040009091CF0FC92FD0E064973091CE0F20E020
:10505000C20FD31F9E01280F311DC90168ED7FE0EB
:1050600048E050E00E94F62760EE7FE0AE010E942B
:10507000F627009719F0382F292F02C02FEF3FEFA6
:10508000C901DF91CF9108959093340D8093330D32
:105090000895FC014381460F4093CB0F872F99273A
:1050A0002281280F2093CA0FA181A093C90F50819C
:1050B0005093C80F30E02817390748F48A2F8F5FC4
:1050C0008093C90F882319F45F5F5093C80F842F12
:1050D00090E070708617970798F48091CA0F8F5FE1
:1050E0008093CA0F882361F48091C90F8F5F8093EA
:1050F000C90F882329F48091C80F8F5F8093C80F50
:105100000895BC018091D1149091D21408960E9408
:105110004928E091D114F091D2148091C80F808772
:105120008091C90F81878091CA0F82878091CB0FB0
:10513000838708959C01AB0180E090E0B9010E9453
:10514000F627382F292FC901089580E090E06CECF4
:105150007FE044E150E00E94F627009719F0382FD5
:10516000292F02C02FEF3FEFC901089586E00E946A
:105170001E28089581E10E941E28089580E009C03C
:10518000E82FF0E0EE0FFF1FED5AFA4E1182108269
:105190008F5F8430A8F380E00BC0E82FF0E095E04B
:1051A000EE0FFF1F9A95E1F7ED52FB4E118E8F5FC8
:1051B000843098F380E094E09093360D8093350D21
:1051C00040E08DE090E00EC0242F30E0289FF001F9
:1051D000299FF00D389FF00D1124E759FA4E1582E2
:1051E00014824F5F4A3080F34093310D089520912F
:1051F000350D3091360D2F5F3F4F4DE7203034078E
:1052000010F020E030E1522F432FA0E013C0EA2F2E
:10521000F0E0B5E0EE0FFF1FBA95E1F7ED52FB4E5F
:10522000B18DBB2331F00480F581E02DE417F50743
:1052300011F3AF5FA43059F73093360D2093350D3D
:105240001092310D20E0E0E0F0E01EC0A22FB0E0AF
:1052500035E0AA0FBB1F3A95E1F7AD52BB4E599608
:105260003C915997332321F42093310DFD0110C057
:10527000373049F4309731F05A964C915A97328D25
:10528000341708F4FD012F5F243000F32093310D13
:105290003097A9F122E0218F20912B0D24872091B6
:1052A0002C0D258720912D0D268720912E0D2787E7
:1052B00028ED34E0338B228B358B248B21E030E0DA
:1052C000318B208B138E21E0228F23E0208F168AD2
:1052D00020E1278B2091350D3091360D3227232781
:1052E00032273583248377836683DC012D913D91BA
:1052F0004D915C9113972083318342835383CF0177
:1053000008950F931F93CF93DF932091350D309124
:10531000360D4DE050E02F5F3F4FADE720303A07AC
:1053200010F020E030E1B22FA32F10E012C0C12F07
:10533000D0E0C49FF001C59FF00DD49FF00D112463
:10534000E759FA4E0480F581E02DEA17FB0719F3BF
:105350001F5F1A3061F73093360D2093350D10E042
:105360002DE030E01AC0012F0F5FC12FD0E0C29FA7
:10537000F001C39FF00DD29FF00D1124E759FA4EB2
:10538000DF011496448155814115510529F410938C
:10539000310D309749F433C0102F1A3020F3109399
:1053A000310DE0E0F0E02BC02091350D3091360D4D
:1053B00032272327322711963C932E9377836683D7
:1053C000009729F4108211821282138209C0DC0135
:1053D0002D913D914D915C91208331834283538384
:1053E0008DE090E0C89FD001C99FB00DD89FB00D4F
:1053F0001124A759BA4E80E418968C931897CF01C0
:10540000DF91CF911F910F91089540E013C0E42FD9
:10541000F0E0542F5F5FEE0FFF1FED5AFA4E208130
:1054200031812817390729F44093310D11821082F8
:105430000895452F443058F34093310D089540E0CE
:1054400013C0E42FF0E0542F5F5FEE0FFF1FED5A03
:10545000FA4E208131812115310529F44093310D17
:10546000918380830895452F443058F34093310D44
:105470000895EF92FF920F931F93CF93DF93C09104
:10548000D114D091D214843009F4F7C104EF1FE095
:105490001093D0140093CF141093C70F0093C60F2E
:1054A000833071F4898D90E08F7090708330910516
:1054B00009F074C088899989009709F02FC78DC0B9
:1054C000823009F08EC080912E0D8F5F80932E0D5B
:1054D000882399F480912D0D8F5F80932D0D882363
:1054E00061F480912C0D8F5F80932C0D882329F41B
:1054F00080912B0D8F5F80932B0D1092C50F109212
:10550000C40F1092681510926715898D873011F0BD
:10551000853041F48A8D8F5F8A8F843109F0FEC611
:10552000198EFCC6882309F4F9C628893989211502
:10553000310509F44EC09A8D292F21502A8F9923C5
:1055400009F0ECC69B8D983031F0282F2150223085
:1055500048F4953039F4198E80E88093CC140E9479
:10556000C52295C5953048F423E030E0092E02C0ED
:10557000220F331F0A94E2F701C020E32A8F9F5FB6
:105580009B8F90E08F70907083309105E1F08430B4
:1055900091054CF48130910509F461C38230910585
:1055A00009F0BCC60DC08630910509F40CC58830E1
:1055B000910509F408C58430910509F0AFC603C50B
:1055C0001092ED0F4FC384E08093CC140E94C5224B
:1055D00090C58F70833009F0A1C688E08093CC1409
:1055E0004BC5853019F5E091CD14F091CE1484812E
:1055F0009581009709F492C61092D2141092D1149A
:105600000C5010401093D0140093CF141093C70F78
:105610000093C60F10926815109267151092C50F6F
:105620001092C40F88E08093CC1425C1085210401A
:105630008091CC0F853409F071C69091CE0F80E037
:105640002091CF0F7C01E20EF11C8091C40F90914C
:10565000C50F8E159F0508F461C6F092C50FE09244
:10566000C40F8091D20F90E08F739070009709F073
:1056700055C68091D30F882309F050C680916315D9
:1056800090916415C0912B03D0912C038C179D072A
:1056900059F4409165155091661520912D03309174
:1056A0002E0342175307A1F02091DC0F3091DD0F3C
:1056B0002817390709F032C62091DE0F3091DF0F2D
:1056C00080916515909166152817390709F026C64F
:1056D0000E94A5282FEF8F3F920709F01FC68091E7
:1056E000D50F863009F431C18131E9F1813009F0FB
:1056F00015C68091E00F883009F010C61092E00FB7
:105700008091E20F9091E30F4FEF873F940710F0E5
:10571000099601C008969093E30F8093E20F809161
:10572000D80F9091D90FA091DA0FB091DB0F809331
:10573000DC0F9093DD0FA093DE0FB093DF0F80910D
:10574000631590916415A0916515B09166158093CD
:10575000D80F9093D90FA093DA0FB093DB0F80E4AA
:10576000F8018087B8C5C7014C979093C50F809307
:10577000C40F88EE9FE09093D0148093CF14809153
:10578000E60F9091E70F009739F00E94BA28FFEFDB
:105790008F3F9F0709F0C2C52091E20F3091E30FC0
:1057A0002115310509F4BAC589E695E19093CE1427
:1057B0008093CD1460912D0370912E0340912703A7
:1057C000509128030091290310912A0339C0848144
:1057D0009581009781F12817390769F586819781AE
:1057E000009739F0A091E00FB091E10FA817B90729
:1057F00011F5808191818C179D0729F4A281B381D5
:10580000A617B70739F18417950729F4A281B38148
:10581000A017B107F9F0A091D80FB091D90FA81730
:10582000B90749F4A091DA0FB091DB0F828193811F
:10583000A817B90779F03D96F093CE14E093CD14F4
:10584000E091CD14F091CE1485E1EB3EF80708F419
:10585000BECF64C51092D2141092D11482E080930E
:10586000CC1488EE9FE09093C70F8093C60F1092E0
:105870006815109267150E94C52280916715909156
:105880006815009709F44AC59C01245E3F4F309388
:10589000C50F2093C40F3093CE0F2093CF0FE0910C
:1058A000CD14F091CE1420852093D40F21E12093C4
:1058B000D50F08969827892798279093E50F80930E
:1058C000E40F1092E70F1092E60F84819581909378
:1058D000E10F8093E00F868197819093E30F80938F
:1058E000E20F8091631590916415A0916515B091B8
:1058F00066158093D80F9093D90FA093DA0FB093C9
:10590000DB0F80819181A281B3818093DC0F909322
:10591000DD0FA093DE0FB093DF0F84EF9FE0909335
:10592000D0148093CF140E94BA28809590959093BC
:10593000E70F8093E60F009709F0CDC48FEF9FEF3C
:105940009093E70F8093E60FC6C40E94B628EFEF4E
:105950008F3F9E0709F0E2C48091E20F9091E30F20
:10596000009709F4DBC42091E00F3091E10F21157D
:10597000310509F4D3C4C3EDD4E1498D4423E9F0E2
:105980006C817D8186179707C1F46E817F81261710
:10599000370799F4E091D80FF091D90F6881798198
:1059A000E617F70751F4E091DA0FF091DB0F6A8107
:1059B0007B81E617F70709F46DC1A096F5E1C335C1
:1059C000DF07D9F62091ED0F2F732230B9F49093B1
:1059D000300D80932F0D40E00DC0E42FF0E0EE0F6E
:1059E000FF1FED5AFA4E208131814F5F82179307D6
:1059F00009F46EC0443088F34093310D8091ED0F6F
:105A000082FD8CC484E1F80181A388E290E0909348
:105A1000C50F8093C40F80E580A38091E70F90911C
:105A2000EB0F938F3091E60F9091EA0F928F368FA4
:105A30002091E50F9091E90F918F258F9091E40FC0
:105A40009093310D4091E80F408F948F8F5F878F37
:105A5000882361F4832F8F5F868F882339F4822F08
:105A60008F5F858F882311F49F5F948F8091E00F63
:105A70009091E10F9093300D80932F0D2091E20FC4
:105A80003091E30FF801358B248B978B868B8091B7
:105A9000D80F9091D90FA091DA0FB091DB0F8093BE
:105AA000DC0F9093DD0FA093DE0FB093DF0F80919A
:105AB000631590916415A0916515B091661580935A
:105AC000D80F9093D90FA093DA0FB093DB0FE8C3F0
:105AD0001092310D80E0C0E0D0E022C0E82FF0E06D
