:100000000C9406010C9425010C9425010C942501F7
:100010000C9425010C9425010C9425010C942501C8
:100020000C9425010C9425010C9425010C942501B8
:100030000C9425010C9457450C9425010C94250132
:100040000C9425010C9425010C9425010C94250198
:100050000C9438120C94F90A0C9425010C94250187
:100060000C9425010C946E0B0C9425010C94250125
:100070000C9425010C9425010C9425010C94250168
:100080000C948C440C9425010C9425010C942501AE
:100090000C949D0B0C9425010C9425010C942501C6
:1000A0000C9425010C9425010C9425010C94250138
:1000B0000C9425010C9425010C9425010C94250128
:1000C0000C9425010C9425010C9425010C94250118
:1000D0000C9425010C9425010C9425010C94250108
:1000E0000C9425010C94F1110C94FB110C94E71164
:1000F0000C94A1110C942C120C941D120C9411123E
:100100000C9405120C9425010C9425010C942501E6
:100110000C9425010C9425010C9425010C942501C7
:10012000257325730A000A2D2D2D2D2D2D2D2D2DF6
:100130000A000A000A416464726573736573205B88
:100140002575206D61785D0A002575282575297350
:100150000A002578003A003A3A004555492D3634D0
:10016000204D41433A2025782D25782D25782D25C1
:10017000782D25782D25782D25782D25780A000ACB
:100180002A2A2A2A2A2A2A20452D50726F7465634A
:10019000742050726F6A656374202A2A2A2A2A2AD8
:1001A0002A0A0A000A2A2A2A2A2A2A2A426F6F744D
:1001B000696E672025732A2A2A2A2A2A2A0A000217
:1001C0000000FFFE00000141544D454741313238E7
:1001D00072666131006C6F63616C686F73740045A7
:1001E0004550524F4D20697320636F727275707461
:1001F0002C20726577726974696E672077697468FC
:100200002064656661756C74732E0A0011241FBE2C
:10021000CFEFD1E4DEBFCDBF14E0A0E0B2E0E4E870
:10022000FCEC00E00BBF02C007900D92A439B107AF
:10023000D9F71BE3A4E9B4E001C01D92AB35B107C7
:10024000E1F70E9420080C9440660C940000EF92A5
:10025000FF920F931F93DF93CF93CDB7DEB76097D5
:100260000FB6F894DEBF0FBECDBF8C018091B804ED
:10027000882309F093C081E08093B8040E94410A6A
:100280006093B9047093BA048093BB049093BC0448
:1002900000D000D080E092E0ADB7BEB712969C933C
:1002A0008E93119714961C930E9313970E949A6243
:1002B00087E192E0EDB7FEB79283818314830383D5
:1002C0000E949A620F900F900F900F908AE090E03A
:1002D0000E94CC628FE192E00E94D3628FEF92E0A5
:1002E0009A8389831C821B821E821D8218861F822C
:1002F0001A8619861C861B861E861D8680E091E064
:10030000988B8F8700D000D08DE292E0ADB7BEB75A
:1003100012969C938E9311978DEBE82E84E0F82E25
:100320001496FC92EE9213970E949A62EDB7FEB774
:1003300038970FB6F894FEBF0FBEEDBF3196ADB73C
:10034000BEB71296FC92EE92119780E492E09383EE
:10035000828383E090E095838483178216821187DD
:100360000087938782870E940A63F701019000202B
:10037000E9F7AF01415050404E195F098DB79EB764
:100380000C960FB6F8949EBF0FBE8DBF84E994E023
:10039000B7019E012F5F3F4F0E94080560960FB680
:1003A000F894DEBF0FBECDBFCF91DF911F910F91AB
:1003B000FF90EF900895EF92FF920F931F93DF93BA
:1003C000CF93CDB7DEB760970FB6F894DEBF0FBE00
:1003D000CDBF7C0185E792E00E94D3628FEF92E06F
:1003E0009A8389831C821B821E821D8218861F822B
:1003F0001A8619861C861B861E861D8680E091E063
:10040000988B8F878DB79EB70A970FB6F8949EBFCB
:100410000FBE8DBFEDB7FEB731960DEB14E0ADB753
:10042000BEB712961C930E93119784E892E09383C3
:10043000828383E090E095838483F782E6829187CC
:1004400080870E940A63F80101900020E9F7AF015C
:1004500041505040401B510B8DB79EB70A960FB6C6
:10046000F8949EBF0FBE8DBF84E994E0B8019E0151
:100470002F5F3F4F0E94080560960FB6F894DEBFCD
:100480000FBECDBFCF91DF911F910F91FF90EF90E5
:100490000895EF92FF920F931F93CF93DF93EC0198
:1004A00088819981009729F08337910509F064C00C
:1004B00036C014B815B88FEF80BB11BA80916800B0
:1004C00081608093680080916B00816080936B00F5
:1004D00081E081BB84E994E062ED74E040E050E0AB
:1004E00022ED34E008EC12E00E941B0580EB94E062
:1004F00060E871E00E94F70380E063E346E00E9459
:10050000CC0B80E066E576E00E94130C87E291E078
:100510000E94150683E790E09983888331C080EBC1
:1005200094E00E942204009759F180EB94E00E942D
:1005300002048091B804882329F480E090E00E94AE
:10054000DB01E8CFE090B904F090BA040091BB045D
:100550001091BC0483E090E0A0E0B0E0E80EF91E4A
:100560000A1F1B1F0E94410AE616F7060807190713
:1005700088F61092B804CECF1982188283E001C0A9
:1005800081E0DF91CF911F910F91FF90EF9008953F
:10059000CF92DF92EF92FF92CF93DF93F601CE2CB2
:1005A000E6016E01DF2CEC0DFD1D1082C6016EEA26
:1005B00072E00E947805FC018081833779F4C601DE
:1005C00062EB72E00E9478050E94456283309105DB
:1005D000C1F480E090E00E94DB0113C0853739F45C
:1005E00011BA85EB92E00E94D36281E009C08C369B
:1005F00041F481E081BB81ED92E00E94D36282E010
:1006000081BBDF91CF91FF90EF90DF90CF90089565
:100610008091170590911805009729F410921A05FA
:100620001092190508950E94340AE0911705F0917F
:1006300018052281338140815181240F351F281BE9
:10064000390B0CC04281538160817181460F571F65
:10065000481B590B4217530708F49A010480F5818F
:10066000E02D309779F7280F391F30931A05209322
:100670001905089585E193E00E9471150895CF92C0
:10068000DF92EF92FF920F931F93CF93DF937C0142
:10069000FC0180819181009729F08A35910509F04C
:1006A0006EC00BC010921805109217058AE590E0F5
:1006B000F7019183808381E066C0673849F5CA01FC
:1006C000E0911705F091180503C00480F581E02D35
:1006D000309741F32681378128173907B1F3E0932A
:1006E0001705F09318050FC016962D913C9117979A
:1006F0002817390739F414962D913C9115973583B5
:100700002483DF01FD01A481B581109769F7CECF65
:10071000623861F6C0911705D091180500E010E02D
:100720002BC0CE010E946C160097F1F08E819F8144
:1007300068E8AE010E941C150097A1F41F821E827A
:100740008C819D810115110521F0F8019583848329
:1007500004C090931805809317051D821C820E9487
:100760000803D8CF0E943A038E019C818D81C92E47
:10077000E6016E01D82EE601209799F697CFF70192
:100780001182108283E0DF91CF911F910F91FF9032
:10079000EF90DF90CF900895CF93DF93EC010E940C
:1007A0003A038E819F81009769F0E0911705F091DF
:1007B000180506C0EC17FD07A9F00480F581E02DAF
:1007C0003097C1F78091AD0A9091AE0A9F838E83D6
:1007D00080911705909118059D838C83D0931805FF
:1007E000C09317050E940803DF91CF910895CF931E
:1007F000DF93EC010E944C16CE010E94CC03DF91E6
:10080000CF910895CF93DF93EC010E945816CE014B
:100810000E94CC03DF91CF910895CF93DF93EC0139
:100820000E946216CE010E94CC03DF91CF91089501
:10083000FC0180819181860F971F918380830E94A4
:100840000803089521E030E0FC018681978100973C
:1008500011F020E030E0C9010895FC0122813381CC
:1008600080819181280F391FC9010895FC01808181
:100870009181089521E030E080911705909118054D
:10088000009711F420E030E0C90108958091170528
:1008900090911805009729F02091190530911A05BB
:1008A00002C020E030E0C9010895CF93DF93EC014E
:1008B000E0911705F09118058E179F0741F48C8180
:1008C0009D81909318058093170514C0FC01309703
:1008D00031F0848195818C179D07C1F707C01D8277
:1008E0001C821F821E82DF91CF9108958C819D8191
:1008F000958384830E940803F2CF8F929F92AF92D8
:10090000BF92CF92DF92EF92FF920F931F93CF93FC
:10091000DF935C01FC0180819181009729F08B3A83
:10092000910509F04EC007C08BEA90E0F501918374
:10093000808381E04AC0809170316817A9F7E42E66
:10094000E7017E01F52EE701209771F38091AF2F2B
:1009500081FFEACFC0909F2AD090A02A8BE1E82E99
:1009600085E0F82E6091B42F7091B52FC701A601D4
:100970000E947062EE89FF893097B1F28090AD0AD3
:100980009090AE0A8A8D9B8D9093AE0A8093AD0AAB
:100990004091D72A5091D82A5427452754270091AF
:1009A000D92A1091DA2A102701271027CE0167EBE8
:1009B0007AE227EC3AE209959092AE0A8092AD0A6B
:1009C000B3CFF5011182108283E0DF91CF911F91A7
:1009D0000F91FF90EF90DF90CF90BF90AF909F90DE
:1009E0008F9008950F931F93FC01808D918D009738
:1009F00051F09F012E5F3F4F028913891027012775
:100A000010270E94092B80E090E01F910F9108951C
:100A10000F931F93FC01808D918D009739F002890F
:100A200013891027012710270E94092B80E090E0EE
:100A30001F910F910895AF92BF92CF92DF92EF92E4
:100A4000FF920F931F93CF93DF93EC015B017A0129
:100A5000690180911B0A882349F482E393E060E0F6
:100A600070E00E944E1581E080931B0ABD8AAC8A1B
:100A7000DB8ACA8AE114F10441F0DE011296F70123
:100A800080E101900D928150E1F71F8B0E8B009158
:100A9000AD0A1091AE0A82E393E09093AE0A809380
:100AA000AD0A7C2D6D2DC701AE010E94A827998F3C
:100AB000888F009729F03A2D2B2DFC01318B208B4C
:100AC0001093AE0A0093AD0A21E030E0888D998D35
:100AD000009711F420E030E0C901DF91CF911F9120
:100AE0000F91FF90EF90DF90CF90BF90AF9008955F
:100AF000CF92DF92EF92FF920F931F93CF93DF93EA
:100B0000FC0101900020E9F73197E81BF90BE62E74
:100B1000E7017E01F72ED7010D900020E9F711972C
:100B2000AE19BF091092202720E030E01EC08A01D4
:100B3000020F131F0E171F07B4F4E60119916E017F
:100B4000E70109917E01101771F44F5F5F4F01E0DB
:100B50004A175B0764F3002331F0240F351FFC01B3
:100B6000E20FF31F10C02F5F3F4F2E173F079CF57A
:100B70006C01C20ED31EE62EF72E40E050E000E0DE
:100B8000E7CF2F5F3F4F41914A3321F4FC01E20F41
:100B9000F31F05C04423A9F7F9CF2F5F3F4F4191C1
:100BA000423211F04423C9F7F9013196E80FF91FD9
:100BB000A0E2B7E280E090E002C02D93019621917F
:100BC000223229F0222319F08A329105B1F7805E92
:100BD000984DFC01108280E297E2DF91CF911F9146
:100BE0000F91FF90EF90DF90CF900895EBE4F7E244
:100BF000ABECB7E211921D9287E2EB38F807D1F720
:100C00008BE497E290933D0380933C0390933F03E2
:100C100080933E038BEC97E29093410380934003D3
:100C20009093430380934203089590931D0A809309
:100C30001C0A089590931F0A80931E0A0895E0915C
:100C40003E03F0913F03808120913C0330913D03AE
:100C5000E217F30781F03196F0933F03E0933E03F0
:100C600097E2EB38F90740F02BE437E230933F038B
:100C700020933E03089580E0089580913E03909173
:100C80003F0320913C0330913D032817390750F46E
:100C90004BE857E2421B530B9C012B543742240F65
:100CA000351F02C0281B390BC90108950F931F93EC
:100CB000CF93DF93E0913C03F0913D03808320913B
:100CC0003C0330913D032F5F3F4F30933D03209312
:100CD0003C0320911C0A30911D0A21153105F9F0C1
:100CE0008A30E9F40BE817E2C0E0D0E008C00E94C7
:100CF0001F068A3041F0F80181938F0121960E94EE
:100D00003D060097A1F7FE01E557F84D1082E091EE
:100D10001C0AF0911D0A8BE897E2BE0109958091AB
:100D20003C0390913D03F7E28B389F0730F08BE452
:100D300097E290933D0380933C0380E090E0DF9145
:100D4000CF911F910F91089580E090E00895E09178
:100D50004203F0914303808120914003309141038D
:100D6000E217F30781F03196F0934303E0934203D7
:100D700098E2EB30F90740F02BEC37E23093430375
:100D800020934203089580E008958091420390915A
:100D9000430320914003309141032817390750F451
:100DA0004BE058E2421B530B9C012B5C3742240F53
:100DB000351F02C0281B390BC90108950F931F93DB
:100DC000CF93DF93E0914003F09141038083209122
:100DD0004003309141032F5F3F4F309341032093F5
:100DE000400320911E0A30911F0A21153105F9F0A8
:100DF0008A30E9F40BE018E2C0E0D0E008C00E94BD
:100E0000A7068A3041F0F80181938F0121960E9454
:100E1000C5060097A1F7FE01E55FF74D1082E0914E
:100E20001E0AF0911F0A8BE098E2BE01099580919D
:100E3000400390914103F8E28B309F0730F08BEC38
:100E400097E2909341038093400381E090E0DF912B
:100E5000CF911F910F91089580E090E00895E6E40E
:100E6000F1E0308120819081808182958695869500
:100E70008370307C830F269526952073820F929580
:100E80009C70890F0895EF92FF920F931F93DF9349
:100E9000CF93CDB7DEB728970FB6F894DEBF0FBE5D
:100EA000CDBF0E94500C0E945C0C81E069E146E0DD
:100EB0000E94CC0B81E068E176E10E94130C81E096
:100EC0000E94470C0E94240A84B784B784B784B771
:100ED00084B700D000D084EA91E0ADB7BEB71296D7
:100EE0009C938E93119784E493E014969C938E9335
:100EF00013970E94AC620F900F908FE791E0EDB7CF
:100F0000FEB7928381830E94AC620F900F900E9483
:100F1000DC170E949A1485E193E060E070E00E9483
:100F20004E150E940B17E0917503F0917603099519
:100F30000E942F0790E00E941A188E010F5F1F4F2A
:100F4000C8010E940B0AA7EABAE2F80188E0019002
:100F50000D928150E1F78E010F5F1F4FC8010E9473
:100F60006F120E94150A7C010E941A0ABC01C70177
:100F7000A8010E94960E0E9473090E947B0E0E9497
:100F80001F0A0E9426108DB79EB742970FB6F8949D
:100F90009EBF0FBE8DBFEDB7FEB731968AE591E0DB
:100FA000ADB7BEB712969C938E93119789818283B9
:100FB00013828A81848315828B81868317828C8138
:100FC000808711868D81828713868E81848715861E
:100FD0008F81868717868885808B118A0E94AC62F4
:100FE000EDB7FEB772960FB6F894FEBF0FBEEDBF19
:100FF0000E945B1AE091C503F091C6030995E09148
:10100000AC03F091AD030995E0915604F0915704BB
:10101000099589E294E060E070E00E944E1585E059
:1010200093E00E94871528960FB6F894DEBF0FBE96
:10103000CDBFCF91DF911F910F91FF90EF90089559
:101040002F923F924F925F927F928F929F92AF9298
:10105000BF92CF92EF92FF920F931F93DF93CF93A4
:1010600000D000D000D0CDB7DEB70E9443079CE38C
:10107000892E912CA12CB12C88E5282E82E0382EC7
:10108000412C512C0E94AA140E94680C80914B287C
:1010900090914C28009729F0019790934C288093C9
:1010A0004B28E0904D28F0904E2800914F28109149
:1010B00050280E94410AE616F7060807190711F39F
:1010C0000E94410A7B018C0160934D2870934E2849
:1010D00080934F2890935028A50194010E94C561E8
:1010E000611571058105910579F5809151289091DF
:1010F0005228A0915328B09154282DB73EB72A50BA
:1011000030400FB6F8943EBF0FBE2DBF4DB75EB74F
:101110004F5F5F4F29E431E0EDB7FEB732832183A3
:10112000FA01E282F3820483158386839783A08782
:10113000B1870E94AC622DB73EB7265F3F4F0FB616
:10114000F8943EBF0FBE2DBF60914D2870914E2880
:1011500080914F2890915028A20191010E94C56171
:10116000623071058105910509F08CCF00D000D067
:1011700024E331E0EDB7FEB73283218384E090E0D1
:10118000948383830E94AC62E4E9F1E3FA83E98308
:101190000F900F900F900F9000E010E0E981FA811E
:1011A0008081882309F46BC08CE190E0089F900156
:1011B000099F300D189F300D11242B563E4CCC2426
:1011C00077243E832D8301C0CE2CED81FE81F081FA
:1011D000FC831B82ED81FE818181EB80FC80E80E27
:1011E000F11CE114F10491F4C7FC10C0EC2CE39461
:1011F000CC2079F500D027E531E0EDB7FEB732839A
:1012000021830E94AC620F900F9023C01C1474F0D5
:10121000772071F000D025E531E0EDB7FEB73283DD
:1012200021830E94AC620F900F9002C0CC24CA941C
:1012300000D000D022E531E0EDB7FEB73283218344
:10124000F482E3820E94AC620F900F900F900F9097
:10125000EC2C32E0730E8D819E8102969E838D83ED
:10126000972D903109F0B0CF00D022E331E0EDB7F7
:10127000FEB7328321830E94AC620F900F900F5F04
:101280001F4F89819A814C969A8389830430110576
:1012900009F084CF00D026E231E0EDB7FEB732830B
:1012A00021830E94AC620F900F90ECCE00D000D052
:1012B00000D0EDB7FEB7319620E231E0ADB7BEB752
:1012C00012963C932E931197938382837583648344
:1012D0000E94AC628DB79EB706960FB6F8949EBF7B
:1012E0000FBE8DBF08950F931F93DF93CF93CDB79C
:1012F000DEB7A2970FB6F894DEBF0FBECDBF82E275
:1013000090E00E94626589839A83982F9B50903168
:1013100008F08A839A819095891709F470C000D0EB
:101320008FED91E0ADB7BEB712969C938E93119757
:101330000E94AC628E010D5F1F4F0F900F90D8017D
:1013400080E090E0FC01E154FE4FE491ED930196C2
:1013500088309105B9F7F894CE01039660E070E00B
:1013600048E050E00E946865D80180E090E0FC0110
:10137000E953FE4FE491ED9301968E309105B9F754
:10138000CE01039668E070E04EE050E00E94686590
:1013900080E090E0FC01EB52FE4FE491D801ED9328
:1013A0008D0101968A309105A9F7CE01039666E179
:1013B00070E04AE050E00E94686584E290E06DECE5
:1013C0007BEA0E94806586E290E060E070E00E9427
:1013D000806588E290E060E00E94726580E290E0C3
:1013E00060E070E00E9480658AE1898385EE8A83EF
:1013F00069817A8182E290E00E9480657894898197
:10140000A2960FB6F894DEBF0FBECDBFCF91DF918D
:101410001F910F910895F89460E070E048E050E06B
:101420000E944A65789480E0089584E290E00E94EA
:101430006265089586E290E00E946265089588E200
:1014400090E00E945A650895F8941092B60016BC78
:1014500083EF87BD82E084BD94E095BD95B395BBD5
:1014600080936E00789408952091200A3091210A8B
:101470008091200A9091210A28173907A9F7C901FC
:1014800008952091592830915A2840915B28509115
:101490005C288091592890915A28A0915B28B0919E
:1014A0005C28281739074A075B0759F7B901CA01B1
:1014B00008956093592870935A2880935B289093DD
:1014C0005C280895CF93DF93EC010E94340AC80F83
:1014D000D91F0E94340A8C1B9D0B97FDFACFDF9118
:1014E000CF9108958430910548F00397880F991F94
:1014F000880F991F969587950197F1F70895CF93D7
:10150000DF93EC0184EE93E005C00E94720A2197FC
:1015100087EE93E02097C9F7DF91CF9108950F935D
:101520001F931FB7F8942091200A3091210A280FA9
:10153000391F3093210A2093200A2091220AFC01AE
:10154000E20FF11D0091FD296091552870915628F8
:101550008091572890915828DF012CC0A058B040A6
:101560002091592830915A2840915B2850915C284D
:101570002F5F3F4F4F4F5F4F2093592830935A288A
:1015800040935B2850935C280023A1F020915128C0
:101590003091522840915328509154282F5F3F4F4B
:1015A0004F4F5F4F20935128309352284093532838
:1015B00050935428A038B10588F69F01220F232F9D
:1015C000221F330B319540E050E0260F371F481F94
:1015D000591F2093552830935628409357285093ED
:1015E0005828EF77F070E093220A1FBF1F910F91E8
:1015F00008951F920F920FB60F920BB60F921124FF
:101600002F933F934F935F936F937F938F939F930A
:10161000AF93BF93EF93FF938091200A9091210A9B
:1016200001969093210A8093200A8091220A8F5F6D
:101630008093220A8091220A87FF15C01092220A05
:101640008091592890915A28A0915B28B0915C28EC
:101650000196A11DB11D8093592890935A28A093FB
:101660005B28B0935C288091FD298823F1F080915C
:10167000230A8F5F8093230A8091230A87FF15C076
:101680001092230A8091512890915228A0915328BA
:10169000B09154280196A11DB11D809351289093BB
:1016A0005228A0935328B09354280E943A040097DC
:1016B00011F00E943A03FF91EF91BF91AF919F917A
:1016C0008F917F916F915F914F913F912F910F90EB
:1016D0000BBE0F900FBE0F901F9018951F920F9288
:1016E0000FB60F920BB60F9211242F933F934F9387
:1016F0005F936F937F938F939F93AF93BF93EF937A
:10170000FF938091C600E0915F28F09160283097A8
:1017100009F00995FF91EF91BF91AF919F918F9142
:101720007F916F915F914F913F912F910F900BBEE1
:101730000F900FBE0F901F9018951F920F920FB62B
:101740000F920BB60F9211242F933F934F935F93F9
:101750006F937F938F939F93AF93BF93EF93FF9379
:101760008091CE00E0915D28F0915E28309709F0DD
:101770000995FF91EF91BF91AF919F918F917F91CB
:101780006F915F914F913F912F910F900BBE0F90F2
:101790000FBE0F901F901895882371F41092C5000A
:1017A0006093C40088E98093C1004093C200109206
:1017B000602810925F280895813069F41092CD005E
:1017C0006093CC0088E98093C9004093CA001092CE
:1017D0005E2810925D280895882339F48091C00016
:1017E00085FFFCCF6093C6000895813031F480916D
:1017F000C80085FFFCCF6093CE0008951F93182F7B
:101800008A3031F48091240A6DE00E94EC0B02C012
:101810008D3029F08091240A612F0E94EC0B80E02A
:1018200090E01F910895882329F4709360286093B5
:101830005F280895813021F470935E2860935D28BD
:101840000895EF92FF921F93CF93DF93182FE62E08
:10185000E7017E01F72EE7010CC08A3021F4812FC9
:101860006DE00E94EC0B69916D3019F0812F0E94A0
:10187000EC0B8881882389F7DF91CF911F91FF902E
:10188000EF900895682F80E00E94EC0B08958093FC
:10189000240A80E593E09093583B8093573B08954A
:1018A00084B7877F84BF88E10FB6F8948093600087
:1018B000109260000FBE08952FE088E190E00FB60F
:1018C000F894A895809360000FBE2093600008955F
:1018D000A895089588E10FB6F8948093600010925F
:1018E00060000FBE0895F89428E088E190E00FB6FC
:1018F000F894A895809360000FBE20936000FFCFFE
:101900008091712890E0FC01EE0FFF1F9695982FB3
:10191000882797958795E80FF91FEE58F74D1082A5
:1019200008958091682890E008958091390181FDA3
:101930000CC081E491E06FE140E00E944A118130E7
:1019400039F021E030E0813129F020E030E002C0C0
:1019500021E030E0C90108958091390181FD12C074
:1019600081E491E06FE140E00E944A11982F81519B
:10197000823050F09F3141F0913041F081E092305F
:1019800031F402C081E0089580E0089580E0089578
:10199000CF93DF93C0E1D7E20E94AC0C882311F40F
:1019A0002197D1F7DF91CF910895E9E3F1E08081AC
:1019B00080818D7F80838DE090E00197F1F782E454
:1019C00091E06FE140E023E00E94541183E090E059
:1019D0000197F1F708950E94C80C0E94D50CE9E325
:1019E000F1E08081826080831092FD2908958091CA
:1019F000FD29882321F00E94AC0C0E94EB0C80E0B2
:101A000090E008959091390191FD0AC0282F80310E
:101A100008F02FE085E491E06FE040E00E9454116F
:101A20000895B82FA92FF62FE72F2091062A30917D
:101A3000072A4091082A5091092A2F5F3F4F4F4FA4
:101A40005F4F2093062A3093072A4093082A509329
:101A5000092A862F8E5F87FF0CC08091FA2990910A
:101A6000FB2901969093FB298093FA292FEF3FEFF2
:101A70000BC025E23AE0C9016B2F7A2F4F2F5E2F62
:101A80000E94706220E030E0C901089581E491E095
:101A90006FE140E00E944A1108950F931F93182FA1
:101AA000883049F0863039F0893029F0863119F0D4
:101AB000893109F041C08091390181FD40C00E9407
:101AC000C80C0E94460D082F181709F43BC01830A7
:101AD00019F40E94D50C29C0193141F48631A9F4BA
:101AE00082E491E06FE140E029E009C0163169F439
:101AF000893159F482E491E06FE140E026E00E94F0
:101B00005411E3E0F0E03197F1F782E491E06FE106
:101B100040E0212F0E945411083019F4E9E6F1E069
:101B200002C0E3E0F0E03197F1F70E94460D811723
:101B300049F023E430E008C022E430E005C024E4AA
:101B400030E002C020E430E0C9011F910F910895F8
:101B500081E08093FD299091390191FF0CC0809321
:101B6000FC297894809139018D7F8093390180918F
:101B7000FC298823E1F786E10E944D0D0E94C80CE4
:101B800008958091FD29882311F40E94A80D81E019
:101B900090E008950F931F938091FD29882351F0C1
:101BA0008091390181FD28C00E94AC0C882321F16D
:101BB00000E003C00E94C10D01E0789486E00E941D
:101BC0004D0D81E08093692810924701809169282A
:101BD0008823E1F7809147018E3010F010E001C0BA
:101BE0001FEF86E10E944D0D002311F00E94F70CBB
:101BF00021E030E016FD02C020E030E0C9011F9175
:101C00000F9108958093A70A08950E94460D82506F
:101C1000813130F4E82FF0E0E757FC4F80810895E0
:101C200081E00895282F8EE691E060E245E00E9471
:101C3000541108958FEF80934E018CE691E060EF90
:101C400044E022E00E9454118CE691E06EE041E015
:101C500025E00E94541180E880936F018091460135
:101C600080936D0184E491E060E245E021E00E9410
:101C700054110895CF93DF93CDEFD3E0CE010197B8
:101C8000F1F70E944511109272281092F4281092D8
:101C900076291092712810927028E9E3F1E0808192
:101CA0008E7F808380818D7F808381EC9DE0019792
:101CB000F1F780818160808382E491E06FE140E010
:101CC00023E00E9454112197F1F780915D018091EA
:101CD0005E010E941A0E8BE693E060E070E00E94C5
:101CE0004E150E94A80D81E090E0DF91CF910895FC
:101CF0008091A60A0895DF93CF930F92CDB7DEB7F8
:101D000089830E94C80C29812093A60A88E491E067
:101D10006FE140E00E9454110F90CF91DF91089540
:101D20000E947B0E86E00E944D0D08958093620113
:101D300090936301609360017093610141155105B7
:101D400031F1FA01819180936B01DA0111968C9146
:101D500080936A01DF011196818180936901FD0101
:101D6000319611968C9180936801DF0111968181E3
:101D700080936701FD01319611968C9111978093A4
:101D80006601818180936501828180936401089559
:101D90008BE693E00E94711581E080936828809122
:101DA0006A2890916B28019690936B2880936A28FB
:101DB00080914A2A90914B2AA0914C2AB0914D2AA9
:101DC0000196A11DB11D80934A2A90934B2AA0939E
:101DD0004C2AB0934D2A81E090E00895EF92FF9253
:101DE000CF93DF9350917128252F30E0F901EE0F4A
:101DF000FF1F3695322F222737952795E20FF31FC5
:101E0000EE58F74D4081442309F4CEC020913901AA
:101E100021FDCAC02091FD29222309F4C5C047FF36
:101E200016C00E94800C8091362A9091372AA0918A
:101E3000382AB091392A0196A11DB11D8093362A06
:101E40009093372AA093382AB093392AADC04330F3
:101E5000B0F40E94800C8091322A9091332AA09194
:101E6000342AB091352A0196A11DB11D8093322AE2
:101E70009093332AA093342AB093352A95C0C42F67
:101E8000D0E022976C177D07B0F40E94800C8091FF
:101E90002E2A90912F2AA091302AB091312A0196B2
:101EA000A11DB11D80932E2A90932F2AA093302A32
:101EB000B093312A79C0652F70E09B01220F331F48
:101EC0007695762F662777956795260F371F2D58BD
:101ED000374DB90150E00E94706220917128822F25
:101EE00090E0FC01EE0FFF1F9695982F882797959D
:101EF0008795E80FF91FEE50F74D80818093612898
:101F0000822F90E0FC01EE0FFF1F9695982F8827F7
:101F100097958795E80FF91FEE58F74D10822F5FC0
:101F200020937128233010F010927128809171282D
:101F300090E0FC01EE0FFF1F9695982F882797954C
:101F40008795E80FF91FEE58F74D8081882311F02F
:101F50000E94C80E609147016093622880916728B3
:101F6000882311F0681710F46093672884E070E00C
:101F70000E942F1A6091612883E070E00E942F1A5E
:101F800080910A2A90910B2AA0910C2AB0910D2AD7
:101F90000196A11DB11D80930A2A90930B2AA0934C
:101FA0000C2AB0930D2A02C0C0E0D0E0CE01DF9130
:101FB000CF91FF90EF9008950F931F93DF93CF93EE
:101FC0000F92CDB7DEB78C01FC0180819181009723
:101FD00029F0F5E081319F0769F506C081E195E0C0
:101FE000F801918380832BC0623849F510926828EC
:101FF0000E94A9198FB78983F8940E94031960E899
:1020000070E00E94EE0E29812FBF1816190644F4C5
:102010000E94FE18E091CB03F091CC030995DECF2E
:102020008091652890916628019690936628809308
:102030006528D4CFF8011182108283E001C081E0CD
:102040000F90CF91DF911F910F9108950E94020D83
:1020500008958091390181FD07C085E491E06FE02A
:1020600040E00E944A11089580E108951F93CF93A4
:10207000DF93182F8091390181FF11C081E0809397
:10208000FC29809139018D7F8093390120E137E26D
:102090008091FC29882319F021503040C9F70E9413
:1020A000C80C89E10E944D0D86E00E943A1A009703
:1020B00051F00E942910C82F86E00E943A1A8150E0
:1020C0000E94020D02C0C0E0D0E0F8948091390176
:1020D000826080933901809139018D7F809339012D
:1020E000612F6E5F85E29AE00E9492117894809150
:1020F000F8299091F92901969093F9298093F8296C
:102100000E94C80C82E491E060EE45E00E944A1112
:10211000182F86E00E943A1A009719F08C2F0E941F
:10212000020D8091FD29882319F00E94A80D02C09C
:102130000E94EB0C113011F0112369F58091462AB1
:102140009091472AA091482AB091492A0196A11D51
:10215000B11D8093462A9093472AA093482AB093B2
:10216000492A8CE00E943A1A009709F445C08091F0
:10217000222A9091232AA091242AB091252A0196FF
:10218000A11DB11D8093222A9093232AA093242A73
:10219000B093252A31C01330A9F480913E2A909142
:1021A0003F2AA091402AB091412A0196A11DB11D5C
:1021B00080933E2A90933F2AA093402AB093412ACD
:1021C00012E01DC01530A9F480912A2A90912B2A83
:1021D000A0912C2AB0912D2A0196A11DB11D8093AA
:1021E0002A2A90932B2AA0932C2AB0932D2A13E00D
:1021F00006C0173021F402C010E001C011E0812FA9
:1022000090E0DF91CF911F910895CF93DF93EB0181
:102210000E94110D9C01009731F4CE010E943610EE
:102220009C01009749F08091FA299091FB29019631
:102230009093FB298093FA29C901DF91CF910895EA
:102240000F931F938091FD29882321F40E94C10DD3
:1022500011E001C010E00E94460D863111F081317D
:1022600019F40091470109C086E491E06FE140E074
:102270000E944A11082F000F080F112311F00E942D
:10228000F70C802F1F910F9108951092A90A1092B8
:10229000A80A0895FC018081862390E002C09595EC
:1022A00087954A95E2F70895F894FC019081862F6E
:1022B0008095892330E002C0220F331F4A95E2F750
:1022C0002623282B20837894089520917B01322F98
:1022D00033503D37E0F4FC012193215030E0A90157
:1022E0004F575E4FA0E8B1E06D916193A417B50719
:1022F000D9F7FC01E058FF4F2F573E4FD9012C91E1
:1023000020838F579F4F21E0FC0120830895DC013B
:102310001C92FC01E058FF4F10828F579F4FFC0129
:1023200010820895FC016093800101966350860F2E
:10233000911DA1E8B1E021912D93E817F907D9F794
:1023400008951F920F920FB60F920BB60F921124A1
:102350002F933F934F935F936F937F938F939F93AD
:10236000AF93BF93EF93FF938091470180936228CF
:102370002091702830E0C901880F991F3695322FBF
:10238000222737952795820F931F8E58974D0E94CD
:102390006511809170288F5F80937028833010F0D2
:1023A000109270280E94C80EFF91EF91BF91AF91DB
:1023B0009F918F917F916F915F914F913F912F915D
:1023C0000F900BBE0F900FBE0F901F9018951F928D
:1023D0000F920FB60F9211240F900FBE0F901F9007
:1023E00018951F920F920FB60F9211240F900FBEE7
:1023F0000F901F9018951F920F920FB60F921124F5
:102400000F900FBE0F901F9018951F920F920FB64E
:102410000F9211241092FC290F900FBE0F901F9065
:1024200018951F920F920FB60F9211241092FC294B
:102430000F900FBE0F901F9018951F920F920FB61E
:102440000F9211248F9381E0809368288F910F90D1
:102450000FBE0F901F9018951F920F920FB60F92FC
:102460001124109269280F900FBE0F901F9018959D
:102470001F920F920FB60F9211248F939F9380910A
:10248000A80A9091A90A01969093A90A8093A80A94
:102490009F918F910F900FBE0F901F901895262F30
:1024A000372FF901282F392FD90188E091919D9379
:1024B0008150E1F70895282F392FD901862F972FC2
:1024C000FC0188E02D919191291729F48150D1F7D1
:1024D00021E030E002C020E030E0C9010895282F5B
:1024E000392FD901EEEFF9E28D9181938AE2E6303E
:1024F000F807D1F70895E091C703F091C803099553
:102500000895E0915804F091590409950895E091D7
:10251000CD03F091CE0309950895E091CF03F0919A
:10252000D0030995089580E090E008950895E09122
:102530008503F091860309950895009731F0E091A5
:102540008503F091860309950895E0918703F09142
:1025500088030995089580E090E008950F931F93F4
:10256000DF93CF93CDB7DEB7E0970FB6F894DEBF19
:102570000FBECDBF0E9455198C010E940319602F18
:10258000AE014F5F5F4F0E94C346882309F445C0E8
:1025900088A99801281B3109C9010E94DF180097FA
:1025A000E1F12E81222371F18A859B853BEA8D3CE6
:1025B000930721F03FEF8F3F930779F5223041F0E9
:1025C00088E090E007C0019722912F3F41F00BC0B7
:1025D00082E090E0FE01E80FF91F3C96F4CF181658
:1025E00019068CF30FC089E1BE01645F7F4F0E9422
:1025F000431A89E10E94501A6EEF79E20E945B1241
:10260000009759F088E1BE016A5E7F4F0E94431A2D
:10261000E091B003F091B1030995E0960FB6F894FC
:10262000DEBF0FBECDBFCF91DF911F910F910895F7
:10263000AF92BF92CF92DF92EF92FF920F931F93D0
:10264000DF93CF93CDB7DEB7E0970FB6F894DEBF38
:102650000FBECDBF6C018B01FE01319680E3DF011F
:102660001D928A95E9F781E089838CE00E943A1AED
:102670008C831D821F828091AA0A89878F5F809335
:10268000AA0A83E0E82EE8868DEC9BEA9B878A877E
:1026900089E10E94501A6AE973E00E945B12009778
:1026A00031F082E08E838FEF8C878D8709C089E1BE
:1026B0000E94501ABC01CE010C960E944F12EE826D
:1026C0008DEC9BEA9D8B8C8BCE0146966EEF79E26A
:1026D0000E944F120E9403199FA78EA70E945519AE
:1026E00088AB7E010894E11CF11CC7010E94BA4529
:1026F000A82E90E00E946B19009741F10E940B19DF
:10270000BC01C7014A2D0E94D845A0907B03B09020
:102710007C030E940B197C010E945F19BC01C70158
:10272000F5010995C114D10489F0009721F0813099
:10273000910561F404C0C80160E070E003C0C80105
:1027400064E070E041E050E0F6010995E0960FB6D4
:10275000F894DEBF0FBECDBFCF91DF911F910F91D7
:10276000FF90EF90DF90CF90BF90AF9008950E94C0
:102770001D188093AA0AE0918503F09186030995BC
:1027800008950F931F93CF93DF938C01EB014115B5
:10279000510549F0FA01828193810E94E41AC8012F
:1027A000BE010E941813DF91CF911F910F910895E0
:1027B0001F93CF93DF93EC01162F888580FF1DC0F8
:1027C000EC81FD813097C9F0D093AE0AC093AD0A79
:1027D00082E08887CE0106960995992787FD909516
:1027E00002978230910510F0133829F4CE01BE0112
:1027F0000E94011402C081E08887DF91CF911F9170
:102800000895CF92DF92EF92FF920F931F93CF9391
:10281000DF93EC017B01C090AD0AD090AE0A00912D
:10282000AB0A1091AC0AF80103C00190F081E02DD1
:10283000EC17FD0719F03097C1F746C0209709F44F
:1028400043C08885882309F118860BC0C017D107BB
:1028500029F0C80167E8AE010E94D813F801008191
:1028600011810115110591F7EC81FD81309769F017
:10287000CE15DF0551F0D093AE0AC093AD0ACE015C
:10288000069663E840E050E00995E091AB0AF091CC
:10289000AC0ACE17DF0791F4888199819093AC0A36
:1028A0008093AB0A0DC0808191818C179D0729F41C
:1028B000888199819183808303C0FC01309799F7C7
:1028C000D092AE0AC092AD0ADF91CF911F910F91C5
:1028D000FF90EF90DF90CF9008951F93CF93DF93F9
:1028E0001092AF0AC091AB0AD091AC0A11E00EC0B1
:1028F0008985882341F018871986CE0162E840E077
:1029000050E00E94D8130990D881C02D209781F7FC
:10291000DF91CF911F91089580915A0B982F9F5F5F
:1029200090935A0B08956091AD0A7091AE0A0E947F
:10293000011408958AE880935A0B1092B10A1092FC
:10294000B00A1092AC0A1092AB0A1092AE0A109222
:10295000AD0A08958091AF0A882311F00E946D148A
:102960007091B00A772309F455C02091B10A30E084
:10297000F901EE0FFF1FEE0FFF1FE20FF31FEE54E2
:10298000F54F60816093590B418152815093580BF0
:102990004093570B838194819093560B8093550BF2
:1029A0002F5F3F4F2F7130702093B10A7150709399
:1029B000B00A009741F58091AB0A9091AC0A18C01B
:1029C0008091AF0A882311F00E946D144091570B3B
:1029D0005091580B8091530B9091540B6091590B6F
:1029E0000E94D813E091530BF091540B8081918198
:1029F0009093540B8093530B8091530B9091540BF5
:102A00000097F1F607C0613819F421E0FC01208736
:102A10000E94D8138091AF0A2091B00A30E0280FAD
:102A2000311DC90108958091AF0A2091B00A30E0AC
:102A3000280F311DC90108957091B00A7032D9F084
:102A40002091B10A270F2F712093520B30E0F9012A
:102A5000EE0FFF1FEE0FFF1FE20FF31FEE54F54FB7
:102A6000608352834183948383837F5F7093B00A32
:102A700020E030E002C021E030E0C9010895CF93AA
:102A8000DF93C091AD0AD091AE0A0E94D813D093C3
:102A9000AE0AC093AD0ADF91CF910895FC01AB015E
:102AA0009091AB0A8091AC0A9C01A32FB22F03C076
:102AB0000D90BC91A02DAE17BF0791F01097C1F7F4
:102AC000309771F090838183F093AC0AE093AB0A66
:102AD00081E0808717821682CF0161E80E943F154E
:102AE0000895FC01009741F080858150823020F4E8
:102AF00081E081878093AF0A089521E030E0FC01F6
:102B00008085882311F420E030E0C9010895EF9218
:102B1000FF92CF93DF93E82EE7017E01F92EE701C4
:102B200004C060E070E00E944E1589919991009771
:102B3000C1F7DF91CF91FF90EF900895EF92FF9250
:102B4000CF93DF93E82EE7017E01F92EE70102C063
:102B50000E949314899199910097D1F7DF91CF91B9
:102B6000FF90EF900895CF93DF93EC0188819981D6
:102B70008836910579F08A37910509F44EC000979F
:102B800009F04EC00E948C1480934E2A1092610B63
:102B90001092600B8BE59BE00E9448182FEF8F3F4F
:102BA000920719F488E690E035C02091600B3091CF
:102BB000610B8D30910571F02F3731055CF7F9010C
:102BC000EE59F44F80832F5F3F4F3093610B20937A
:102BD000600BE0CFF901EE59F44F10822F5F3F4FA9
:102BE0003093610B2093600B80E090E060914E2A5F
:102BF00042E65BE00E941C158091AD0A9091AE0AFE
:102C000065E840E050E00E941C15009709F0BECF37
:102C10008AE790E09983888307C0653829F4B6CFA6
:102C20001982188283E001C081E0DF91CF9108957D
:102C3000682F8A30F9F08091620C882351F48BE57B
:102C40009BE00E942818009771F481E08093620C49
:102C50000AC06D3041F48BE59BE00E942818009774
:102C600011F01092620C81EE93E00E94711521E048
:102C700030E002C020E030E0C90108958BE59BE020
:102C800062EE7BE040E80E94201881EE93E060E075
:102C900070E00E944E150895CF93DF93EC017B8383
:102CA0006A830E94340A99838883DF91CF910895C3
:102CB000FC018081918122813381820F931F918356
:102CC00080830895CF93DF93EC010E94340A9983A7
:102CD0008883DF91CF910895CF93DF93EC010E9419
:102CE000340A28813981821B930B019621E030E060
:102CF0004A815B814817590710F020E030E0C90194
:102D0000DF91CF910895EF92FF92CF93DF93FC0173
:102D1000C281D38180819181C80FD91F0E94340A5A
:102D2000C81BD90BCE01DF91CF91FF90EF90089592
:102D3000CF92DF92EF92FF920F931F93CF93DF9387
:102D40008C017A01FC0180819181009729F08B34FC
:102D5000910509F051C01EC084E69CE00E945A5EB5
:102D6000C82EE6017E01F92EE70109C06C817D8144
:102D7000CE0102960E94F7030990D881C02D2097BA
:102D8000A9F781E08093630C8BE490E0F8019183D4
:102D9000808337C06838A9F584E69CE00E945A5EBB
:102DA000C82EE6016E01D92EE60123C0CE0102969F
:102DB000E816F906D9F484E69CE0BE010E94A85EFC
:102DC000E090AD0AF090AE0A8A859B859093AE0A9A
:102DD0008093AD0AEC85FD85309719F08E859F852F
:102DE0000995F092AE0AE092AD0ACECF0990D88153
:102DF000C02D2097D9F6C8CFF8011182108283E048
:102E000001C081E0DF91CF911F910F91FF90EF9072
:102E1000DF90CF9008951092630C84E69CE00E94AE
:102E2000565E8AEF93E060E070E00E944E150895D0
:102E30000F931F93CF93DF93EC010091AD0A109194
:102E4000AE0A1B870A875D874C873F872E87809154
:102E5000630C882379F08AEF93E09093AE0A809315
:102E6000AD0ACE0102960E94F7031093AE0A0093BA
:102E7000AD0A02C07D836C8384E69CE0BE010E94A3
:102E8000A85E84E69CE0BE010E94E15EDF91CF91E6
:102E90001F910F9108950F931F93CF93DF93EC0130
:102EA0008091630C882391F00091AD0A1091AE0AD5
:102EB0008AEF93E09093AE0A8093AD0ACE0102961A
:102EC0000E9402041093AE0A0093AD0A84E69CE0CF
:102ED000BE010E94A85E84E69CE0BE010E94E15E05
:102EE000DF91CF911F910F9108950F931F93CF936F
:102EF000DF93EC018091630C882391F00091AD0A7F
:102F00001091AE0A8AEF93E09093AE0A8093AD0AD7
:102F1000CE0102960E940D041093AE0A0093AD0AF2
:102F200084E69CE0BE010E94A85E84E69CE0BE01AF
:102F30000E94E15EDF91CF911F910F910895CF9391
:102F4000DF93EC018091630C882329F0CE01029677
:102F50000E94550404C01F821E821986188684E6CA
:102F60009CE0BE010E94A85EDF91CF910895CF93AF
:102F7000DF93EC018091630C882331F0CE0102963F
:102F80000E9422049C0114C084E69CE00E945A5EC8
:102F9000E82FF92F06C0EC17FD0741F00190F081F2
:102FA000E02D3097C1F721E030E002C020E030E0B2
:102FB000C901DF91CF9108950E94B94408950F93FC
:102FC0001F93FC01CB014091660C5091670C338339
:102FD00022831583048371836083F093670CE093ED
:102FE000660C4115510511F40E94D34480E090E035
:102FF0001F910F9108958091660C9091670C009736
:10300000C1F01092670C1092660CDC0114966D9161
:103010007C9115971296ED91FC9113970995E0918B
:10302000660CF091670C309721F0808191810E94AD
:10303000D34408950E943A6208950E94356208952B
:10304000FC0171836083415042831382148208958E
:10305000FC012381428150E030E08481D901A81B2A
:10306000B109CD01842395238417950769F0A081C8
:10307000B181A20FB31F6C9383818F5F92818923EB
:10308000838321E030E002C020E030E0C9010895F0
:10309000FC0174816281838190E0272F30E0821BE4
:1030A000930B462F50E084239523181619065CF4E1
:1030B000A081B181A20FB31F2C91872F8F5F862330
:1030C000848330E002C02FEF3FEFC9010895FC0177
:1030D000228130E02F5F3F4FC9010895FC01238119
:1030E00030E08481281B3109828190E02823392334
:1030F000C901089580E38093680C0895EF92FF92D0
:10310000CF93DF932091680C30E0C0E3D0E0C21B86
:10311000D30B2359334FB901AE010E947062CE0127
:10312000DF91CF91FF90EF900895AF92BF92CF9231
:10313000DF92EF92FF920F931F93CF93DF937C0167
:10314000C090690CD0906A0C2091680C30E0860128
:10315000005D1F4F021B130B01381105E0F4C0E3A3
:10316000D0E0C21BD30B2359334FB901AE010E94EB
:103170007062CE0DDF1D20916B0C30916C0C809134
:103180001F0D9091200D280F391FCE01B901A60106
:103190000E94706202C000E010E0C801DF91CF9190
:1031A0001F910F91FF90EF90DF90CF90BF90AF9065
:1031B00008959091680C980F9093680C0895409131
:1031C000690C50916A0C9C014817590798F080913E
:1031D0001F0D9091200D820F931F9093200D8093CF
:1031E0001F0D421B530B50936A0C4093690C21E056
:1031F00030E002C020E030E0C901089590936A0CED
:103200008093690C089520911F0D3091200D235655
:10321000334FC90108952091680C30E02359334F92
:10322000C901089521E030E080916B0C90916C0C05
:103230004CE08D39940711F420E030E0C901089585
:103240000E941219009771F02DE93CE060916B0C1F
:1032500070916C0C4091690C50916A0CC9010E94EC
:1032600070620895A0911F0DB091200D1097B9F0D4
:103270002091690C30916A0C205D3F4FA356B34FEB
:10328000EDE9FCE080E390E003C04D9141930196AD
:1032900082179307D4F31092200D10921F0D0895FA
:1032A00080916B0C90916C0C08958091690C9091B9
:1032B0006A0C08959091680C80E3891B089580E35F
:1032C0009091680C891B2091690C30916A0C280F31
:1032D000311DC90108951F93CF93DF93EC01109125
:1032E000680C812F90E08C179D076CF00E945F198D
:1032F0008C0F9D1F8138910530F41C1B1093680CB6
:1033000021E030E002C020E030E0C901DF91CF9140
:103310001F910895CF93DF93EFE6FAE21192119295
:103320008AE2EF39F807D1F7C0E0D0E0CE0123E020
:10333000880F991F2A95E1F7815B954D6AE973E043
:103340000E944F122196C430D10581F7DF91CF91B1
:1033500008951092200D10921F0D10926A0C109279
:10336000690C80E38093680C8DE99CE090936C0C71
:1033700080936B0C0E948A1908950F931F93CF932B
:10338000DF93EC018B010E94A919D0936C0CC093C0
:103390006B0C10936A0C0093690CDF91CF911F9115
:1033A0000F910895CF92DF92EF92FF920F931F93A8
:1033B000DF93CF9300D0CDB7DEB78C0169837A83DA
:1033C0000E94A91969817A81C62ED72E21E8C216DA
:1033D000D10418F030E8C32ED12C80916B0C909161
:1033E0006C0CB801A6010E947062D0926A0CC09267
:1033F000690CC6010F900F90CF91DF911F910F9133
:10340000FF90EF90DF90CF900895282F392FD901AA
:10341000EFE6FAE280E301900D928150E1F7862F0A
:10342000972FDC01EFE4FAE280E201900D928150E7
:10343000E1F70895EFE6FAE2282F392FD90180E36A
:103440000D9001928150E1F7AFE4BAE2862F972FF9
:10345000FC0180E201900D928150E1F70895E82F80
:10346000F0E0EE0FFF1FE159F54D7183608381E0BD
:1034700090E00895E82FF0E0EE0FFF1FE159F54DC1
:1034800080819181089590E0E3E0880F991FEA958B
:10349000E1F78157964D0E944F1281E090E0089528
:1034A000282F30E0F3E0220F331FFA95E1F7215780
:1034B000364DC901089584E194E00E94CE5D84E018
:1034C00094E00E94CE5D8CE094E00E94CE5D089571
:1034D000EF92FF920F931F93CF93DF930E941219E5
:1034E0000097C9F08CE094E00E94EE5DE82EE701C1
:1034F0007E01F92EE701209791F10E9455199983D9
:1035000088830E9450199B838A83C70104960E9476
:103510007E188CAB24C084E094E00E94EE5DEC0148
:103520007E01F92EE7012097D1F084E194E00E941A
:10353000EE5D8C0199838883009779F002960E9452
:103540009518F80191838083B8016E547F4FC801AC
:103550008E579F4F0E94051A02C0C0E0D0E0CE01F6
:10356000DF91CF911F910F91FF90EF900895FC0193
:1035700080819181BC016E547F4F8E579F4F0E9476
:10358000051A0895CF93DF93EC0184E094E0BE0127
:103590000E94395E009749F06881798184E194E066
:1035A0000E94145E84E094E009C08CE094E0BE01C7
:1035B0000E94395E009729F08CE094E0BE010E94E1
:1035C000145EDF91CF910895EF92FF92CF93DF9336
:1035D000EC0184E094E0BE010E94395E009791F016
:1035E0000990D881C02D68817981CE0102960E9410
:1035F000D219BE016E547F4FCE018E579F4F0E944D
:103600001A1A1BC08CE094E0BE010E94395E00973C
:10361000A1F00E94A919688179818A819B810E9409
:10362000D2198CA990E00E946B190E940B194CA929
:103630002496BE0150E00E947062DF91CF91FF900E
:10364000EF900895CF93DF93EC0184E094E0BE0106
:103650000E94395E009729F0288139812E5F3F4F03
:103660000CC08CE094E0BE010E94395E009719F016
:103670002A813B8102C020E030E0C901DF91CF9177
:103680000895DC01ED91FC9111978081918108955D
:1036900070E023E0660F771F2A95E1F76E507040C7
:1036A000FC0120813181260F371FC9010895DC01FB
:1036B000ED91FC91119770E06F5B7F4F660F771F64
:1036C000E60FF71F80819181089508959C01415074
:1036D0005040460F571FDB0110C0FC91E0E01196EF
:1036E0008C911197BF01680F711D260F371F261788
:1036F000370710F42F5F3F4F1296A417B50768F3F2
:10370000A417B50749F49C9180E0280F391F2817AA
:10371000390710F42F5F3F4FC90108950F931F938E
:10372000DF93CF9300D0CDB7DEB700913E14309138
:10373000B32A20E010E0201B310B9091B42A290F0E
:10374000311D3A83298329813A81A901480F511DEE
:10375000CA0167EB7AE240E250E00E94661B4981B1
:103760005A81B8016952754D0E94661B009719F085
:10377000382F292F02C02FEF3FEFC9010F900F9074
:10378000CF91DF911F910F910895A0913E146A2F60
:1037900070E0685D7F4FFB01E155F54D418150E0E0
:1037A00083E0440F551F8A95E1F7495F5F4F22E0A0
:1037B00054C0FC01E60FF71FE155F54D3081313063
:1037C00009F448C0313018F03336D1F402C02F5F0D
:1037D00044C020933F140E94335C009709F047C017
:1037E00090913F1480913E14E92FF0E0E80FF11D15
:1037F000E952F54D8181890F8E5F80933F1435C06A
:10380000832F90E0807C90708038910549F0803C57
:10381000910549F080349105E9F420933F1427C0C5
:1038200020933F1406C020933F148091C72A8F3FF6
:1038300001F130E040E050E02A0F311D411D511DE3
:10384000285D3F4F4F4F5F4F84E062E00E945F2C46
:1038500082E0089581818E5F280F822F90E04817C3
:1038600059070CF0A6CF20933F1480E0089581E023
:10387000089581E00895FC014381460F4093A62AF4
:10388000872F99272281280F2093A52AA181A09311
:10389000A42A50815093A32A30E02817390748F40E
:1038A0008A2F8F5F8093A42A882319F45F5F509337
:1038B000A32A842F90E070708617970798F4809160
:1038C000A52A8F5F8093A52A882361F48091A42A7A
:1038D0008F5F8093A42A882329F48091A32A8F5F85
:1038E0008093A32A0895BC018091B62F9091B72FA1
:1038F00044960E943B1CE091B62FF091B72F809127
:10390000A32A848B8091A42A858B8091A52A868BFB
:103910008091A62A878B08959C01AB0180E090E0FE
:10392000B9010E94661B382F292FC90108958AE327
:103930000E948E1B089586E00E948E1B089581E1EF
:103940000E948E1B08950E94944380E009C0E82FD6
:10395000F0E0EE0FFF1FE459FF4C118210828F5FE1
:103960008430A8F340E08CE290E00DC0242F30E0DA
:10397000289FF001299FF00D389FF00D1124E85485
:10398000F04D15A24F5F443088F380E094E09093AF
:1039900049148093481440E089E190E00EC0242F40
:1039A00030E0289FF001299FF00D389FF00D112481
:1039B000EA58FF4C118A108A4F5F4A3080F34093D7
:1039C000461408950F931F93CF93DF9320914814CB
:1039D000309149144CE250E02F5F3F4FEDE720302B
:1039E0003E0710F020E030E1B22FA32F10E015C009
:1039F000C12FD0E0C49FF001C59FF00DD49FF00D02
:103A00001124E854F04D05A1002331F00088F1891C
:103A1000E02DEA17FB0701F31F5F143049F73093DD
:103A20004914209348141092461410E0E0E0F0E0AE
:103A30002CE230E020C0412F50E0429FD001439F54
:103A4000B00D529FB00D1124A854B04D95964C91D5
:103A50009597442321F410934614FD0110C047307C
:103A600049F4309731F096965C91969746A14517A8
:103A700008F4FD011F5F1430F0F2109346143097E4
:103A8000B1F122E025A320914014208F2091411410
:103A9000218F20914214228F20914314238F148A66
:103AA000158A168A178A24EC34E0378F268F31A3C3
:103AB00020A321E030E0358F248F17A221E026A338
:103AC00023E024A312A220E123A3209148143091E3
:103AD0004914322723273227318B208B738B628B3B
:103AE000EF01DC0180E10D9009928150E1F7CF01F7
:103AF000DF91CF911F910F9108950F931F93CF9353
:103B0000DF9360913E146623E9F070E0C0919F2A34
:103B1000D091A02AC61BD70B8E01085210406952C3
:103B2000754D87ED9AE2A8010E947962D093A02A90
:103B3000C0939F2AEFEAFAE214839E01285225835C
:103B400010923E14DF91CF911F910F9108950F9322
:103B50001F93CF93DF93209148143091491449E18A
:103B600050E02F5F3F4FEDE720303E0710F020E0A0
:103B700030E1B22FA32F10E012C0C12FD0E0C49FBC
:103B8000F001C59FF00DD49FF00D1124EA58FF4CB1
:103B90000088F189E02DEA17FB0719F31F5F1A303F
:103BA00061F7309349142093481410E049E150E044
:103BB00019C0012F0F5F212F30E0249FF001259FB6
:103BC000F00D349FF00D1124EA58FF4CDF015096A0
:103BD000C089D189209729F410934614309749F46D
:103BE00033C0102F1A3028F310934614E0E0F0E0B1
:103BF0002BC040914814509149145427452754270D
:103C000011965C934E93738B628B009731F480E135
:103C1000EF0119928A95E9F707C0EF01DC0180E115
:103C20000D9009928150E1F789E190E0289FD00141
:103C3000299FB00D389FB00D1124AA58BF4C809118
:103C4000863154968C935497CF01DF91CF911F9179
:103C50000F91089540E013C0E42FF0E0542F5F5F10
:103C6000EE0FFF1FE459FF4C2081318128173907DF
:103C700029F440934614118210820895452F443050
:103C800058F340934614089540E013C0E42FF0E049
:103C9000542F5F5FEE0FFF1FE459FF4C20813181ED
:103CA0002115310529F440934614918380830895AA
:103CB000452F443058F3409346140895BF92CF9255
:103CC000DF92EF92FF920F931F93CF93DF93C091F8
:103CD000B62FD091B72F843009F488C32BEE3AE287
:103CE0003093B52F2093B42F3093A22A2093A12A8A
:103CF000833079F48DA190E08F70907083309105BE
:103D000009F079C08C8D9D8D009711F00C94F126EF
:103D100091C0823009F092C01092A02A10929F2A7E
:103D20001092753010927430809143148F5F80939D
:103D30004314882399F4809142148F5F8093421436
:103D4000882361F4809141148F5F8093411488230C
:103D500029F4809140148F5F809340148DA18730A7
:103D600011F0853051F48EA18F5F8EA3843111F054
:103D70000C94F1261DA20C94F126882311F40C94C6
:103D8000F1262C8D3D8D2115310509F44FC09EA1E2
:103D9000292F21502EA3992311F00C94F1269FA1D5
:103DA000983031F0282F2150223048F4953039F4E2
:103DB0001DA280E88093AF2F0E94A22AFAC69530F8
:103DC00048F423E030E0092E02C0220F331F0A948A
:103DD000E2F701C020E32EA39F5F9FA390E08F70C6
:103DE000907083309105E1F0843091054CF481307E
:103DF000910509F4C6C48230910509F0F2C70DC0DF
:103E00008630910509F471C68830910509F46DC6B4
:103E10008430910509F0E5C768C61092E42AB4C45D
:103E200084E08093AF2F0E94A22AF5C68F70833062
:103E300009F0D7C788E08093AF2FB0C6853019F559
:103E4000E091B22FF091B32F80899189009709F406
:103E5000C8C71092B72F1092B62F2C503040309315
:103E6000B52F2093B42F3093A22A2093A12A109229
:103E70007530109274301092A02A10929F2A88E018
:103E80008093AF2FB1C2E901EC978091AF2A807F78
:103E9000803609F0A6C79091B32A80E02091B42A19
:103EA000820F911D20919F2A3091A02A281739074F
:103EB00008F497C788969093A02A80939F2A8091B0
:103EC000B72A8F3F09F48DC7CE0106969093B12F84
:103ED0008093B02F10923E1410923D148091B52A19
:103EE0008823F9F481E080933D140E94C51B813042
:103EF00009F477C7813018F0823099F47AC780913D
:103F00003E14E82FF0E0E952F54DF093B12FE09325
:103F1000B02F885F9181990F990F990F890F809326
:103F20003E1487EC9AE20E94FD3E009709F01CC106
:103F300087EC9AE20E943340009709F015C1209166
:103F4000C72A2F3F09F495C02E3F29F48091C82A33
:103F5000803809F48EC08091B72A8E3F29F4809171
:103F6000B82A803809F485C08091B72A9091B82A80
:103F7000009759F58091B92A9091BA2A009729F5AE
:103F80008091BB2A9091BC2A0097F9F48091BD2AB8
:103F90009091BE2A0097C9F48091BF2A9091C02ABF
:103FA000009799F48091C12A9091C22A009769F4F0
:103FB0008091C32A9091C42A009739F48091C52A30
:103FC0009091C62A009709F454C08091C72A909115
:103FD000C82A009761F58091C92A9091CA2A009752
:103FE00031F58091CB2A9091CC2A009701F58091F0
:103FF000CD2A9091CE2A0097D1F48091CF2A90912A
:10400000D02A0097A1F48091D12A9091D22A0097CA
:1040100071F48091D32A9091D42A009741F4809131
:10402000D52A882321F48091D62A813011F18091FC
:104030009F2A9091A02A25E08130920738F082E0F3
:1040400060E020E035E040E050E009C08091B62A11
:10405000823040F483E060E020E030E0A9010E947B
:104060005F2CC7C60E947A5C8091B62A81508F83EC
:10407000C0C68091B72A8E3F09F0B3C68091B82A96
:10408000803809F0AEC68091B72A9091B82A00977F
:1040900059F58091B92A9091BA2A009729F5809113
:1040A000BB2A9091BC2A0097F9F48091BD2A909187
:1040B000BE2A0097C9F48091BF2A9091C02A009728
:1040C00099F48091C12A9091C22A009769F4809155
:1040D000C32A9091C42A009739F48091C52A9091FF
:1040E000C62A009709F47DC68091C72A9091C82AF4
:1040F000009769F58091C92A9091CA2A009739F5ED
:104100008091CB2A9091CC2A009709F58091CD2AF5
:104110009091CE2A0097D9F48091CF2A9091D02AFD
:104120000097A9F48091D12A9091D22A009779F42E
:104130008091D32A9091D42A009749F48091D52A6E
:10414000882329F48091D62A813009F44AC62F3F6A
:1041500009F447C687EC9AE20E94CD3E882309F015
:1041600040C681E062E078CFE091B02FF091B12FAE
:1041700080818B32E9F18C3248F4863009F488C1B1
:10418000813109F4A5C0882389F059C08A3309F424
:1041900060C08B3320F48C3209F051C022C68B33BF
:1041A00009F41FC68C3309F04AC006C080913D1443
:1041B00080FD45C0816009C080913D1481FF04C02D
:1041C00086FD3DC0806401C0826080933D140E94E2
:1041D000C51B813009F405C6813018F0823021F604
:1041E00008C680913E14E82FF0E0E952F54D1AC060
:1041F00080913D1482FD23C0846080933D148091A2
:104200003E14282F30E0F901E952F54D93819923AE
:1042100049F0265D3F4F442737FD4095542F84E0F9
:1042200060E01DCFF093B12FE093B02F885F9181B4
:10423000990F990F990F890F80933E1495CFEF5ADC
:10424000FA429F01442737FD4095542F84E061E0F6
:1042500006CF0E94971CEFEF8F3F9E0709F0C1C564
:10426000E0913E14F0E0E155F54D80A50E940B2849
:10427000E0913E14F0E0E155F54D80A58638E1F07F
:10428000873838F48138C1F08538B1F08038A1F42E
:1042900010C0883841F0883818F08B3969F406C0AE
:1042A0000E94BC2D0DC00E9446300AC00E946C5670
:1042B00007C00E94BA2B04C01092A02A10929F2A15
:1042C00080919F2A9091A02A009709F48AC591C5F0
:1042D0000E947D1D80919F2A9091A02AC097909363
:1042E000A02A80939F2A8FED9AE29093B52F809316
:1042F000B42F8091DD2A9091DE2A009739F00E9438
:104300009F1CFFEF8F3F9F0709F06BC50091D92AD3
:104310001091DA2A0115110509F463C586E790E3C7
:104320009093B32F8093B22F40C0888999890097CA
:10433000B9F108171907A1F58A899B89009739F007
:104340002091D72A3091D82A2817390749F5888132
:1043500099810097E1F48A819B810097C1F48C8157
:104360009D810097A1F48E819F81009781F48885BB
:104370009985009761F48A859B85009741F48C8527
:104380009D85009721F48E859F850097C1F087EB6E
:104390009AE2BE0140E150E00E946362009779F02A
:1043A0006996D093B32FC093B22FC091B22FD09102
:1043B000B32F21E3C037D20708F4B7CF12C510924C
:1043C000B72F1092B62F82E08093AF2F8FED9AE235
:1043D0009093B52F8093B42F9093A22A8093A12A13
:1043E00010927530109274300E94A22A809174301D
:1043F00090917530009709F4F4C49C01205D3F4F03
:104400003093A02A20939F2A08969093B32A28528B
:104410002093B42AE091B22FF091B32F24892093F6
:10442000B62A21E12093B52AC7EDDAE29827892739
:1044300098279D838C831F821E8280899189909307
:10444000D82A8093D72A828993899B838A83DE0125
:10445000509780E101900D928150E1F787EB9AE24D
:1044600067EC7AE20E94F8428BEE9AE29093B52FC5
:104470008093B42F0E949F1C809590959F838E837C
:10448000009709F0A4C48FEF9FEF9F838E839FC492
:104490000E947D1D0E949B1CEFEF8F3F9E0709F03D
:1044A000A0C407ED1AE2E090D92AF090DA2AE114CC
:1044B000F10409F496C4C090D72AD090D82AC11428
:1044C000D10409F48EC4C8EBDFE2BDA0BB20A1F08B
:1044D00088899989E816F90679F48A899B89C8162A
:1044E000D90651F487EB9AE2BE0140E150E00E9408
:1044F0006362009709F45EC1AC96F0E3C836DF074B
:1045000021F78091E42A8F738230B9F4F092451438
:10451000E092441420E00DC0E22FF0E0EE0FFF1F08
:10452000E459FF4C808191812F5FE816F90609F468
:104530005FC0243088F3209346148091E42A82FDE2
:1045400050C484E1F80185878CE390E09093A02A21
:1045500080939F2A80E584878091DE2A9091E22AC9
:1045600097833091DD2A9091E12A968332872091BA
:10457000DC2A9091E02A958321879091DB2A909301
:1045800046144091DF2A448390878F5F8387882376
:1045900061F4832F8F5F8287882339F4822F8F5FA6
:1045A0008187882311F49F5F90878091D72A90910B
:1045B000D82A90934514809344142091D92A30919D
:1045C000DA2A3093D82A2093D72AF801938382835A
:1045D000E7ECFAE2DF01509780E10D900192815003
:1045E000E1F787EB9AE267EC7AE20E94F842D3C3E4
:1045F0001092461440E0C0E0D0E08CE290E026C08B
:10460000242F30E0289FF001299FF00D389FF00DF6
:104610001124E854F04D25A1222321F4409346149F
:10462000EF0118C0273089F4209721F036A12EA180
:10463000231758F4242F30E0289FE001299FD00D44
:10464000389FD00D1124C854D04D4F5F4430C0F274
:1046500040934614209709F4C4C3D093B72FC09356
:10466000B62F83E08EA38CA31AA284E08BA31FA293
:104670008091D92A9091DA2A998B888B8091D72AB8
:104680009091D82A9B8B8A8BDE01E7EBFAE280E1DE
:1046900001900D928150E1F781E08DA3809140144B
:1046A000888F80914114898F809142148A8F8091E4
:1046B00043148B8F81E090E09D8F8C8F8091DE2A58
:1046C0008F8B8091DD2A8E8B8091DC2A8D8B80915F
:1046D000DB2A8C8B81E090E00E94731C8091E32A9E
:1046E000282F30E0207F3070213531050CF449C08F
:1046F00082958F7090E00597880F991F880F991FFA
:104700005091471440E034C0F901E155F54D54ADE6
:10471000552329F4409346141092471432C0513067
:1047200011F44F5F25C05230E1F465AD6430C9F437
:10473000409346145093471436AD20E087AD90E087
:10474000822B932B9093451480934414F4E0853C82
:104750009F0710F084EC94E09F8F8E8F99A388A31D
:1047600010C02451354DF9012081222331F0420F30
:10477000242F30E0281739073CF240934614509319
:10478000471480E18093E42AE7EDFAE28091E42A7D
:104790008260858782E0848B84E0858B868B84ECC5
:1047A000878B80E490E09093A02A80939F2A80E6F4
:1047B0008487B7C2D093B72FC093B62F1092AF2F74
:1047C0008091E42A90E082FF03C01DA280E250C2E3
:1047D0004091E32A42954F70440F440F4093461492
:1047E00020919F2A3091A02A28523040241B310961
:1047F0003093A02A20939F2A4B2D50E04F70507089
:104800004230510539F4AC014F73507042315105BB
:1048100051F429C04130510531F4AC014F7350704F
:104820004230510501F12115310531F49C0123700D
:10483000307021153105B9F03091DB2A2C893217FF
:1048400079F43091DC2A2D89321751F43091DD2A28
:104850002E89321729F43091DE2A2F89321719F068
:1048600081FD8FCF52C284FF4AC06C8D7D8D611552
:10487000710509F444C0CE0148960E943B1C30915A
:10488000DF2A8091A32A3817D1F52091E02A809160
:10489000A42A2817A1F59091E12A8091A52A9817BA
:1048A00071F58091E22A4091A62A841741F5388F4C
:1048B000298F9A8F8B8F8FA18823D1F42AA18CA165
:1048C0009EA1891B922F969596959695891B280FE8
:1048D0002AA387FD81959BA1392F36953695931B89
:1048E000980F9BA3822F869586958695890F8CA31A
:1048F00081E08093AF2F8CA18EA31D8E1C8E2DA1E5
:1049000030E0C9018F7090708430910509F4B5C111
:104910008530910564F482309105C9F183309105A9
:104920000CF0B9C08130910509F05BC211C086302E
:10493000910509F4E2C1863091050CF4BEC18730BF
:10494000910509F4E2C18830910509F04AC28AC193
:104950008091AF2F80FF14C083E08DA380E480930B
:10496000AF2F1D8E1C8E80919F2A9091A02A0097B8
:1049700009F410C122E42093AF2F0E94731C0AC1D6
:104980008091E42A8F73823009F02BC2FACE809195
:10499000AF2F80FF75C08091E42A8F73823109F0B8
:1049A0006FC08091E32A282F30E0207F30702135BE
:1049B00031050CF449C082958F7090E00597880FFF
:1049C000991F880F991F5091471440E034C0F90196
:1049D000E155F54D54AD552329F4409346141092FA
:1049E000471432C0513011F44F5F25C05230E1F40A
:1049F00065AD6430C9F4409346145093471436AD06
:104A000020E087AD90E0822B932B90934514809308
:104A10004414F4E0853C9F0710F084EC94E09F8FF1
:104A20008E8F99A388A310C02451354DF9012081A0
:104A3000222331F0420F242F30E0281739073CF2AF
:104A4000409346145093471483E08DA38091DB2A52
:104A50008C8B8091DC2A8D8B8091DD2A8E8B8091CE
:104A6000DE2A8F8B81E090E00E94731C82E48093A9
:104A7000AF2F1D8E1C8E1092A02A10929F2A8AC0E2
:104A800080E28093AF2F0E94A22AE091B62FF0918E
:104A9000B72F15A252CD8091E42A80FF2AC024FDB1
:104AA00028C08C8D9D8D009709F09BC180919F2A15
:104AB0009091A02A01960E94731C2091AF2F822F03
:104AC00080618093AF2F80919F2A9091A02A0097B8
:104AD00019F022612093AF2F0E94A22A81E090E07A
:104AE0009D8F8C8F88E08DA31FA281E18093E42AA3
:104AF0000FC185FF1CC05091E92A40E08091EA2A4D
:104B000090E0842B952B4091B42F5091B52F480FF6
:104B1000591F5093B52F4093B42F40919F2A509125
:104B2000A02A481B590B5093A02A40939F2A80919A
:104B30009F2A9091A02A009749F024FD07C0209158
:104B4000AF2F22602093AF2F0E94731C9091E52A13
:104B500080E02091E62A820F911D90934514809366
:104B6000441428A139A12817390710F0009721F41F
:104B7000309345142093441480914414909145142B
:104B80009F8F8E8F8091AF2F90E0837090700097F1
:104B900009F427C110927530109274300E94A22A35
:104BA0008091AF2F85FF07C010927530109274303E
:104BB0001DA284E19BCF84FF0AC010927530109231
:104BC000743081E090E09D8F8C8F84E08CCF2091B9
:104BD00074303091753021153105E1F080FF02C04D
:104BE0001D8E1C8E8C8D9D8D009781F48E8D9F8DDA
:104BF0008217930720F490937530809374308091DE
:104C00007430909175309D8F8C8F04C09093753067
:104C1000809374301FA28091A12A9091A22A909330
:104C2000B52F8093B42F8091743090917530009798
:104C300059F08C8D9D8D009739F0CC969093A02AD9
:104C400080939F2A88E10BC08091AF2F81FFC9C05C
:104C50008CE390E09093A02A80939F2A80E1809338
:104C6000E42A5CC08091AF2F80FFBBC01DA280E111
:104C70008093AF2F0E94A22AB4C080919F2A909166
:104C8000A02A009711F00E94731C9091E42A809151
:104C9000AF2F90FF0BC080FF06C087E08DA31EA240
:104CA0001D8E1C8E19C086E08DA316C080FF1EC00D
:104CB00085E08DA31D8E1C8E94C080919F2A9091BB
:104CC000A02A009711F00E94731C8091E42A80FFB3
:104CD0000DC087E08DA31EA281E090E00E94731CAE
:104CE00080E18093AF2F0E94A22A0FC080919F2A5B
:104CF0009091A02A009749F474C08091AF2F80FF53
:104D000070C087E08DA31EA26CC080E1F80185878A
:104D10008CE390E09093A02A80939F2A80E5809373
:104D2000E32A07ED1AE28C89F80180878D89818753
:104D30008E8982878F898387888D8483898D8583F7
:104D40008A8D86838B8D878386E08093B52A8889B8
:104D500099899093D82A8093D72A8A899B899383AB
:104D60008283D8015097FE0180E101900D9281501D
:104D7000E1F787EB9AE267EC7AE20E94F8428DA1B4
:104D800084FF04C0F8011786168605C084E0F80188
:104D9000868784EC8787809186318093B62A8091BC
:104DA0009F2A9091A02A9C01285230403093B32A28
:104DB00088528093B42AC7EDDAE21B8A1A8A198ACC
:104DC000188A0E949B1C80959095998B888B80E611
:104DD0008093AF2A1092B02A1092B22A1092B12A70
:104DE00008C01092A02A10929F2A10923E1410928E
:104DF0003D141092AF2FDF91CF911F910F91FF9033
:104E0000EF90DF90CF90BF900895382F292FC901E0
:104E10000895382F292F40E050E07627672776271E
:104E200080E090E0CB0177276627262B372B482B95
:104E3000592BB901CA010895AC01E091A12AF09162
:104E4000A22A222733272E1B3F0B2155304D6217F4
:104E500073070CF49B011216130664F4209374304C
:104E6000309375304E175F0729F0CF01BA01A901C1
:104E70000E94706208958CE594E10E9422040097DC
:104E800021F08CE594E10E940D040895E0916914ED
:104E9000F0916A14309711F00995089580E0089513
:104EA00090936A148093691408952091AD0A30910B
:104EB000AE0A60E0EAE4F4E113C040815181481792
:104EC000590761F4428153814217530739F46093C3
:104ED0006814118210820E942A1E089534966F5F12
:104EE000643058F360936814089540E0EAE4F4E114
:104EF00016C0542F5F5F208131812115310569F47F
:104F000040936714918380832091AD0A3091AE0A5B
:104F1000338322830E94441E08953496452F4430E3
:104F200040F3409367140895FC018091AD0A90917D
:104F3000AE0A91A780A773A762A70895FC0180918C
:104F4000AD0A9091AE0A968B858B708F678B089512
:104F5000CF93DF93EA010E94A71DFC01009741F067
:104F60008091AD0A9091AE0A968B858BD08FC78BBE
:104F7000CF01DF91CF9108950F931F93DF93CF93CC
:104F8000CDB7DEB760970FB6F894DEBF0FBECDBFCA
:104F90008C01AB018FEF92E09A8389831C821B8284
:104FA0001E821D8218861F821A8619861C861B8601
:104FB0001E861D8680E091E0988B8F87CE0101963A
:104FC000B8010E94A827FC01009711F0118B008BFB
:104FD000CF0160960FB6F894DEBF0FBECDBFCF9164
:104FE000DF911F910F9108952091683030916930C1
:104FF0002115310571F42091AD0A3091AE0A30933C
:1050000069302093683090936B3080936A3080E0F1
:10501000089581E00895DF93CF930F92CDB7DEB767
:1050200089838091683090916930009739F0609160
:105030007131AE014F5F5F4F0E943F150F90CF91CE
:10504000DF91089589E294E062E040E050E00E9440
:105050003F151092A02A10929F2A10923E14089594
:105060000F931F93CF93DF9380919F2A9091A02A53
:10507000009709F412C125E08130920708F0FEC0C4
:1050800007EC1AE28091C72A9091C82A009759F537
:105090008091C92A9091CA2A009729F58091CB2A3C
:1050A0009091CC2A0097F9F48091CD2A9091CE2A44
:1050B0000097C9F48091CF2A9091D02A009799F453
:1050C0008091D12A9091D22A009769F48091D32AB5
:1050D0009091D42A009739F48091D52A9091D62ABC
:1050E000009709F4CBC08091C72A8F3F09F4CBC049
:1050F00087EC9AE20E94CD3E882379F487EC9AE20D
:105100000E940342009731F40E94083E8C010097F0
:1051100021F4B4C08C010D5E1F4FC8010E94055DD3
:10512000009709F0ABC0C8010E94313DEC01009727
:1051300009F051C0C80160E070E040E020E00E944A
:105140008A3CEC01009709F499C08C01025D1F4F65
:10515000C80160E072E00E949A31009799F0C8019E
:105160000E94D5312FEA3AE240919F2A5091A02A1D
:10517000B9010E94706260919F2A7091A02AC801B3
:105180000E94F13187EB9AE20E94FD3EAE014F5F33
:105190005F4F009719F087EB9AE202C080E090E041
:1051A00060E070E00E946F2F60918F3170919031BC
:1051B000809191319091923128EE33E040E050E0BF
:1051C0000E94C561CE018196BA01A9010E942A5FA1
:1051D00081E08BA758C08DA58823E9F4AE96CE0157
:1051E00060E072E00E949A31009709F447C0CE0156
:1051F0000E94D5312FEA3AE240919F2A5091A02A8D
:10520000B9010E94706260919F2A7091A02ACE011C
:105210000E94F13133C0823059F483E08DA7CE0172
:10522000499645E050E060E070E00E942A5F1BA6CE
:105230008E010F5E1F4FC8010E944627AE96CE0119
:105240000E94E2310097D1F0CE010E94E2319093AA
:10525000A02A80939F2ACE010E94D531BC012FEA5B
:105260003AE240919F2A5091A02AC9010E9470629F
:10527000CE010E94BF31C8010E9446271092A02A89
:1052800010929F2A0AC080E090E00E944627109268
:10529000A02A10929F2A10923E14DF91CF911F9165
:1052A0000F910895EF92FF920F931F93CF93DF9387
:1052B000EC018A0188819981009731F023E08030E8
:1052C000920709F00BC131C080E00BC0E82FF0E07D
:1052D000EE0FFF1FEE0FFF1FE65BFB4E11821082E9
:1052E0008F5F843098F3809364148091AD0A90911D
:1052F000AE0A90935B1480935A140E948C1480938E
:1053000070310E948C14809371318CE594E160E4DB
:1053100070E00E94F7030E94A31C0E94F64880E000
:1053200093E09983888381E0DCC0623009F4B8C0DF
:10533000633030F4662309F495C0613081F7A2C070
:10534000673819F0683859F741C0109265149AE42B
:10535000E92E94E1F92E18C0F7018281938180171C
:10536000910749F4808191810E942A1EF7011182E0
:1053700010821382128284E090E0E80EF91E809180
:1053800065148F5F8093651480916514843020F3D9
:10539000EDEDFFE2838194818017910719F4148267
:1053A00013821082BC9690E3ED38F90799F7E6E78F
:1053B000F0E3858996898017910711F4118A108A84
:1053C000799621E3E037F207A1F7A9CF84E14C35C4
:1053D0005807D1F5CA010E9422040097A9F1109242
:1053E00065148CE2E82EF12C2BC090E08E9DF0012C
:1053F0008F9DF00D9E9DF00D1124E854F04D85A178
:105400008823C9F08CE594E10E940D042091651475
:1054100030E02E9DC0012F9D900D3E9D900D1124DA
:105420008854904D9093B72F8093B62F82E00E94BE
:105430005E1E0E943028809165148F5F80936514F2
:1054400080916514843088F293E30F30190709F0D6
:1054500066CFC8010E942204009709F460CF0E9421
:105460008C401BC04115510509F459CF5093B72FFB
:105470004093B62F83E00E945E1E0E9430280E9457
:105480003B274DCF4115510509F449CF5093B32F18
:105490004093B22F85E00E945E1E0E9430283FCFCD
:1054A00080919F2A9091A02A009709F438CF80918B
:1054B000B52A863031F48091E42A81FF02C00E942F
:1054C0003B2781E00E945E1E80919F2A9091A02A36
:1054D000009709F424CF0E944E2B21CF1982188205
:1054E00083E0DF91CF911F910F91FF90EF9008958E
:1054F000AC0189E294E061E00E941C150895AC01C2
:1055000089E294E060E00E941C1508950F931F93B8
:10551000CF93DF93EA010E94E21C8C01009761F0B7
:105520008091AD0A9091AE0AF80191A780A7D3A708
:10553000C2A7C8010E947F2AC801DF91CF911F91A5
:105540000F910895CF93DF93A091B62FB091B72F0D
:10555000109719F0ED01A89605C0C091B22FD09117
:10556000B32F65968091AF2F86FF22C010926614EC
:1055700040E0EAE4F4E116C02081318150968D913B
:105580009C9151972817390759F48281938100978C
:1055900039F040936614998388831B821A8206C06F
:1055A00034964F5F443040F3409366140E943B278B
:1055B00088819981009731F04A815B8160917031D7
:1055C0000E943F15DF91CF910895FB013097E1F0E4
:1055D0009093B32F8093B22F4093743050937530D3
:1055E0006FED7AE2242F352F85E02130380714F053
:1055F00020E035E0CB01BF01A9010E94706284E088
:105600000E945E1E0E9430281092753010927430F5
:105610000895CF92DF92EF92FF920F931F93DF9343
:10562000CF93CDB7DEB760970FB6F894DEBF0FBE4D
:10563000CDBF7C012115310511F1DE011196FC0170
:1056400080E101900D928150E1F7F701C288D38883
:10565000D90180E10D9001928150E1F7F701138BA0
:10566000028BC7010E94E52AD701FE01319680E135
:1056700001900D928150E1F7F701D38AC28A6096BA
:105680000FB6F894DEBF0FBECDBFCF91DF911F9153
:105690000F91FF90EF90DF90CF9008950F931F939D
:1056A000CF93DF938091B52A863009F05CC080915A
:1056B0009F2A9091A02A25E08030920709F053C0DC
:1056C000CEE9D2E0D093A02AC0939F2A02E00093B3
:1056D000B32A16E71093B42A1092E82A1092E72A08
:1056E0000E949B1C809590959093E82A8093E72ACE
:1056F0000E943028D093A02AC0939F2A0093B32AF7
:105700001093B42A9091B42F8091B52FE92FF82FE0
:10571000DF01AE59BD4F82E692E00D9001920197F4
:10572000E1F78BED9AE262E672E00E943B1C809109
:10573000A32A8093DB2A8091A42A8093DC2A80917B
:10574000A52A8093DD2A8091A62A8093DE2A1092D2
:10575000E82A1092E72A0E949B1C809590959093CE
:10576000E82A8093E72A0E943028DF91CF911F9189
:105770000F9108951F93CF93DF938091863180938B
:10578000B62A8091C72A8F3F81F4E7ECFAE2DF0165
:10579000509780E10D9001928150E1F787EB9AE2FA
:1057A00067EC7AE20E94F8421BC0ABE6B4E1E7EB9B
:1057B000FAE280E101900D928150E1F7E7EBFAE225
:1057C000DF01509680E10D9001928150E1F7A7EC46
:1057D000BAE2EBE6F4E180E101900D928150E1F74D
:1057E00080913E14882309F455C00E94A05D182FB3
:1057F00060913E14882371F18AE38093D72A611760
:1058000031F1212F30E070E0C901861B970B4091E8
:105810009F2A5091A02A480F591F5093A02A4093C5
:105820009F2AFA01B897F093B32AE42FE852E09345
:10583000B42A645D7F4F860F971F6155754D421BDB
:10584000530B4C5250408155954D0E9479621093F4
:105850003E1420C08AE38093B52A70E040919F2ACD
:105860005091A02A461B570B5093A02A40939F2A81
:10587000CA0188979093B32A842F88528093B42AC0
:105880006552754D4C5250408BED9AE20E94796200
:1058900010923E1480913E14C82FD0E0C952D54DCD
:1058A00081E8888319821B821A820E94971C809546
:1058B00090959B838A83DF91CF911F910895BF922A
:1058C000CF92DF92EF92FF920F931F93CF93DF93CC
:1058D000082F162F69017A01E0913E14EE2339F06A
:1058E000F0E0E952F54D80818A3349F493C080910C
:1058F000B52A8A3321F48091D72A87FF8BC00E9472
:10590000A05DB82E80933E14ABE6B4E1E7ECFAE27A
:1059100080E101900D928150E1F780919F2A909152
:10592000A02AC0969093A02A80939F2A25E08130D8
:10593000920730F080E095E09093A02A80939F2A10
:105940002B2D30E0C901880F991F40919F2A50915B
:10595000A02A40535040421B530B8152954D6FEA91
:105960007AE20E94796280E68093AF2A1092B02A90
:105970001092B22A1092B12ABB2021F08AE38093C0
:10598000D72A03C08AE38093B52A80918631809319
:10599000B62A8091B72A9091B82A009751F5809144
:1059A000B92A9091BA2A009721F58091BB2A90914B
:1059B000BC2A0097F1F48091BD2A9091BE2A0097ED
:1059C000C1F48091BF2A9091C02A009791F48091F0
:1059D000C12A9091C22A009761F48091C32A9091C4
:1059E000C42A009731F48091C52A9091C62A009765
:1059F00089F0E7ECFAE2DF01509780E10D90019227
:105A00008150E1F780916B148F3F49F4043011F419
:105A1000123029F01092A02A10929F2A33C087EBEF
:105A20009AE26BE674E10E94F84280913E14C82F1E
:105A3000D0E0FE01E952F54D00831183C701B601A4
:105A40000E940927C552D54D688379838A839B8339
:105A500080919F2A9091A02A9C0128523040309337
:105A6000B32A88528093B42A80913E14C82FD0E084
:105A7000C952D54D1B821A820E94971C8095909521
:105A80009B838A83DF91CF911F910F91FF90EF90BD
:105A9000DF90CF90BF900895CF92DF92FF920F9347
:105AA0001F93DF93CF930F92CDB7DEB7F62E690128
:105AB00020E62093AF2A1092B02A1092B22A1092B8
:105AC000B12A2AE32093B52A209186312093B62A61
:105AD00096012C5F3F4F3093B32A2C2D2C5F2093DF
