:100000000C9406020C9425020C9425020C942502F3
:100010000C9425020C9425020C9425020C942502C4
:100020000C9425020C9427020C9425020C942502B2
:100030000C9425020C94244A0C9425020C9425025D
:100040000C9425020C9425020C9425020C94250294
:100050000C9410140C94410B0C9425020C94250262
:100060000C9425020C94B60B0C9425020C942502DA
:100070000C9425020C9425020C9425020C94250264
:100080000C94C1480C9425020C9425020C94250272
:100090000C94E50B0C9425020C9425020C9425027B
:1000A0000C9425020C9425020C9425020C94250234
:1000B0000C9425020C9425020C9425020C94250224
:1000C0000C9425020C9425020C9425020C94250214
:1000D0000C9425020C9425020C9425020C94250204
:1000E0000C9425020C94C9130C94D3130C94BF13D5
:1000F0000C9479130C9404140C94F5130C94E913D8
:100100000C94DD130C9425020C9425020C9425020A
:100110000C9425020C9425020C9425020C942502C3
:10012000257325730A004E657665722D75736564B7
:1001300020737461636B203E2025642062797465AE
:10014000730A000A2D2D2D2D2D2D2D2D2D0A002069
:10015000203C6E6F6E653E002920256C75730A0089
:100160002F2575202876696120000A526F75746505
:1001700073205B2575206D61785D0A0020203C6E40
:100180006F6E653E000A000A4E65696768626F72AD
:1001900073205B2575206D61785D0A000A000A41B5
:1001A0006464726573736573205B2575206D617877
:1001B0005D0A002578003A003A3A004F6E6C696E8D
:1001C000650A00526F7574696E6720456E61626CD6
:1001D00065640A0052504C20456E61626C65640A89
:1001E0000025732025732C206368616E6E656C207A
:1001F0002575202C20636865636B2072617465200F
:10020000257520487A20747820706F7765722025D4
:10021000750A004555492D3634204D41433A202575
:10022000782D25782D25782D25782D25782D257864
:100230002D25782D25780A0052616E646F6D20455A
:100240005549363420616464726573732067656E46
:100250006572617465640A000A2A2A2A2A2A2A2AEF
:10026000426F6F74696E672025732A2A2A2A2A2A08
:100270002A0A00020000FFFE00000141544D4547DC
:100280004131323872666131006C6F63616C686F46
:10029000737400454550524F4D20697320636F724F
:1002A000727570742C20726577726974696E67203C
:1002B000776974682064656661756C74732E0A00D2
:1002C000452025642E256420636C6F636B20256CAC
:1002D000752063707520256C75206C706D20256C01
:1002E000752069727120256C7520676C6564202506
:1002F0006C7520796C656420256C7520726C656462
:1003000020256C7520747820256C75206C697374B9
:10031000656E20256C752073656E736F7273202572
:100320006C752073657269616C20256C750A0053C9
:100330002025642E256420636C6F636B20256C750B
:1003400020747820256C7520727820256C752072B9
:10035000747820256C752072727820256C75207257
:1003600065786D697420256C752061636B747820E5
:10037000256C75206E6F61636B747820256C752019
:1003800061636B727820256C752074696D65646F8C
:10039000757420256C752062616461636B727820CE
:1003A000256C7520746F6F6C6F6E6720256C7520DF
:1003B000746F6F73686F727420256C75206261644E
:1003C00073796E636820256C752062616463726363
:1003D00020256C7520636F6E74656E74696F6E6432
:1003E000726F7020256C752073656E64696E67642A
:1003F000726F7020256C75206C6C747820256C757C
:10040000206C6C727820256C750A000011241FBEC8
:10041000CFEFD1E4DEBFCDBF13E0A0E0B2E0ECEE61
:10042000F5ED00E00BBF02C007900D92AE3DB107A5
:10043000D9F719E3AEEDB3E001C01D92A839B107B9
:10044000E1F70E94ED070C94F46A0C9400001F92EF
:100450000F920FB60F920BB60F9211242F933F936A
:100460004F935F936F937F938F939F93AF93BF93BC
:10047000EF93FF9380E092E00E948767FF91EF91F6
:10048000BF91AF919F918F917F916F915F914F91AC
:100490003F912F910F900BBE0F900FBE0F901F90AA
:1004A00018950F931F93DF93CF93CDB7DEB7CA563E
:1004B000D0400FB6F894DEBF0FBECDBF8FEF92E0F5
:1004C0009A8389831C821B821E821D8218861F824A
:1004D0001A8619861C861B861E861D8680E091E082
:1004E000988B8F878DB79EB708970FB6F8949EBFED
:1004F0000FBE8DBFEDB7FEB731968E010F5E1F4F59
:10050000ADB7BEB712961C930E93119782E192E09D
:100510009383828382E090E095838483178216829E
:100520000E94BE67F80101900020E9F7AF01415039
:100530005040401B510B8DB79EB708960FB6F894EC
:100540009EBF0FBE8DBF8EED93E0B8019E012F5F61
:100550003F4F0E941F05C659DF4F0FB6F894DEBF0C
:100560000FBECDBFCF91DF911F910F9108950F93D3
:100570001F93CF93DF93EC0188819981009721F03D
:100580008A369105C1F526C08FEF84B985B980BB45
:1005900081BB8091680081608093680080916B00CE
:1005A000816080936B008EED93E062ED74E040E03B
:1005B00050E022ED34E005E013E00E9432058AEFBE
:1005C00093E060E871E00E940E048AE690E099836F
:1005D000888315C08AEF93E00E943904009779F070
:1005E0008AEF93E00E94190482E392E00E948767F9
:1005F0000E945102EACF1982188283E001C081E093
:10060000DF91CF911F910F910895EF92FF92C70153
:1006100068E372E00E948F05FC018081833761F4FA
:10062000C7016CE372E00E948F050E94126782305E
:10063000910511F40E945102FF90EF90089580916E
:10064000020490910304009729F41092050410927B
:10065000040408950E947C0AE0910204F0910304CE
:100660002281338140815181240F351F281B390B92
:100670000CC04281538160817181460F571F481B16
:10068000590B4217530708F49A010480F581E02DB5
:10069000309779F7280F391F30930504209304040D
:1006A000089588E692E00E9449170895CF92DF925C
:1006B000EF92FF920F931F93CF93DF937C01FC0186
:1006C00080819181009729F08A35910509F06EC0EB
:1006D0000BC010920304109202048AE590E0F70127
:1006E0009183808381E066C0673849F5CA01E09153
:1006F0000204F091030403C00480F581E02D3097DB
:1007000041F32681378128173907B1F3E0930204BA
:10071000F09303040FC016962D913C91179728175C
:10072000390739F414962D913C911597358324831C
:10073000DF01FD01A481B581109769F7CECF623842
:1007400061F6C0910204D091030400E010E02BC0D8
:10075000CE010E9444180097F1F08E819F8168E8D5
:10076000AE010E94F4160097A1F41F821E828C81B4
:100770009D810115110521F0F8019583848304C042
:1007800090930304809302041D821C820E941F0325
:10079000D8CF0E9451038E019C818D81C92EE60124
:1007A0006E01D82EE601209799F697CFF7011182B6
:1007B000108283E0DF91CF911F910F91FF90EF9016
:1007C000DF90CF900895CF93DF93EC010E94510307
:1007D0008E819F81009769F0E0910204F0910304FB
:1007E00006C0EC17FD07A9F00480F581E02D3097D5
:1007F000C1F780919409909195099F838E83809190
:100800000204909103049D838C83D0930304C093CE
:1008100002040E941F03DF91CF910895CF93DF93CD
:10082000EC010E942418CE010E94E303DF91CF91D6
:100830000895CF93DF93EC010E943018CE010E94FF
:10084000E303DF91CF910895CF93DF93EC010E94F2
:100850003A18CE010E94E303DF91CF910895FC0185
:1008600080819181860F971F918380830E941F034F
:10087000089521E030E0FC0186819781009711F016
:1008800020E030E0C9010895FC012281338180819C
:100890009181280F391FC9010895FC018081918140
:1008A000089521E030E080910204909103040097C4
:1008B00011F420E030E0C901089580910204909184
:1008C0000304009729F0209104043091050402C02C
:1008D00020E030E0C9010895CF93DF93EC01E0916F
:1008E0000204F09103048E179F0741F48C819D81CF
:1008F000909303048093020414C0FC01309731F0FC
:10090000848195818C179D07C1F707C01D821C82C9
:100910001F821E82DF91CF9108958C819D819583E6
:1009200084830E941F03F2CF8F929F92AF92BF9257
:10093000CF92DF92EF92FF920F931F93CF93DF93AB
:100940005C01FC0180819181009729F08B3A91052F
:1009500009F04EC007C08BEA90E0F50191838083D7
:1009600081E04AC08091AD2F6817A9F7E42EE70116
:100970007E01F52EE701209771F38091EC2D81FF28
:10098000EACFC090DC28D090DD2886E0E82E84E015
:10099000F82E6091F12D7091F22DC701A6010E94F1
:1009A0003D67EE89FF893097B1F28090940990906D
:1009B00095098A8D9B8D9093950980939409409118
:1009C0001429509115295427452754270091162999
:1009D00010911729102701271027CE0164EF78E224
:1009E00024E039E209959092950980929409B3CF59
:1009F000F5011182108283E0DF91CF911F910F9159
:100A0000FF90EF90DF90CF90BF90AF909F908F902E
:100A100008950F931F93FC01808D918D009751F0E5
:100A20009F012E5F3F4F028913891027012710274E
:100A30000E943E2F80E090E01F910F9108950F9348
:100A40001F93FC01808D918D009739F002891389E5
:100A50001027012710270E943E2F80E090E01F9171
:100A60000F910895AF92BF92CF92DF92EF92FF92D3
:100A70000F931F93CF93DF93EC015B017A01690120
:100A800080910609882349F485E892E060E070E0EF
:100A90000E94261781E080930609BD8AAC8ADB8A12
:100AA000CA8AE114F10441F0DE011296F70180E1F7
:100AB00001900D928150E1F71F8B0E8B00919409EC
:100AC0001091950985E892E0909395098093940997
:100AD0007C2D6D2DC701AE010E94DD2B998F888F73
:100AE000009729F03A2D2B2DFC01318B208B109390
:100AF00095090093940921E030E0888D998D009745
:100B000011F420E030E0C901DF91CF911F910F91E6
:100B1000FF90EF90DF90CF90BF90AF900895CF926D
:100B2000DF92EF92FF920F931F93CF93DF93FC011D
:100B300001900020E9F73197E81BF90BE62EE70159
:100B40007E01F72ED7010D900020E9F71197AE191D
:100B5000BF091092072620E030E01EC08A01020F74
:100B6000131F0E171F07B4F4E60119916E01E70178
:100B700009917E01101771F44F5F5F4F01E04A1732
:100B80005B0764F3002331F0240F351FFC01E20FF3
:100B9000F31F10C02F5F3F4F2E173F079CF56C01CE
:100BA000C20ED31EE62EF72E40E050E000E0E7CF65
:100BB0002F5F3F4F41914A3321F4FC01E20FF31FB5
:100BC00005C04423A9F7F9CF2F5F3F4F419142322F
:100BD00011F04423C9F7F9013196E80FF91FA7E096
:100BE000B6E280E090E002C02D930196219122327E
:100BF00029F0222319F08A329105B1F7895F994DC6
:100C0000FC01108287E096E2DF91CF911F910F9156
:100C1000FF90EF90DF90CF9008956F927F928F9228
:100C20009F92AF92BF92CF92DF92EF92FF920F937B
:100C30001F93CF93DF93E82EE7017E01F92EE701A2
:100C40007724662423EBC22E21E0D22E96EBA92E28
:100C500091E0B92E88EB882E81E0982E01C07E2C81
:100C6000188100E089817801E80EF11CE114F1049B
:100C700081F477FC10C0E72CE394772049F500D08D
:100C8000EDB7FEB7928281820E9467670F900F9046
:100C90001FC0171464F0662061F000D0EDB7FEB7F6
:100CA000B282A1820E9467670F900F9002C07724E2
:100CB0007A9400D000D0EDB7FEB7D282C182F48220
:100CC000E3820E9467670F900F900F900F90E72CC0
:100CD000F2E06F0E2296862D803109F0C0CFDF91B1
:100CE000CF911F910F91FF90EF90DF90CF90BF9029
:100CF000AF909F908F907F906F900895E6E4F1E021
:100D0000308120819081808182958695869583703F
:100D1000307C830F269526952073820F92959C70C8
:100D2000890F0895BF92CF92DF92EF92FF920F93B7
:100D30001F93DF93CF93CDB7DEB728970FB6F89404
:100D4000DEBF0FBECDBF0E94980C0E94A40C81E0B4
:100D500069E146E00E94140C81E060EF77E10E94B7
:100D60005B0C81E00E948F0C0E946C0A84B784B7F0
:100D700084B784B784B7E8E9F9E322E432E4318345
:100D800020833A968DB79EB70A97E817F907B8F30C
:100D900000D000D088E592E0ADB7BEB712969C9324
:100DA0008E9311978FE892E014969C938E931397ED
:100DB0000E9467670F900F900F900F900E94521A39
:100DC0000E94721688E692E060E070E00E942617AA
:100DD0000E94E318E091C002F091C10209950E94BF
:100DE0007E0690E00E944F1CCE0101960E94530A9D
:100DF000882359F000D088E392E0EDB7FEB79283E4
:100E000081830E9467670F900F90A4EEB8E2FE0105
:100E1000319688E001900D928150E1F78E010F5FCD
:100E20001F4FC8010E9447140E945D0A7C010E9466
:100E3000620ABC01C701A8010E94C00F0E94BB0941
:100E40000E94A50F0E94670A0E9450112DB73EB75D
:100E5000225130400FB6F8943EBF0FBE2DBFEDB704
:100E6000FEB7319683E192E0ADB7BEB712969C9380
:100E70008E9311978981828313828A81848315825C
:100E80008B81868317828C81808711868D818287F2
:100E900013868E81848715868F818687178688853D
:100EA000808B118A0E946767EDB7FEB772960FB606
:100EB000F894FEBF0FBEEDBF0E94901EE09110039C
:100EC000F09111030995E091F702F091F80209956C
:100ED000E091A103F091A20309950091F502109110
:100EE000F602C0900E03D0900F030E94A20FB82EFE
:100EF000E0901C03F0901D03F7010995009749F05D
:100F0000F7010995BC0180E890E00E947E667B01B4
:100F100003C030E8E32EF12C0E9453112DB73EB7E9
:100F20002C5030400FB6F8943EBF0FBE2DBFEDB72A
:100F3000FEB7319621EE31E0ADB7BEB712963C93C5
:100F40002E93119713830283D582C482B6821782AF
:100F5000F186E086828713860E946767EDB7FEB749
:100F60003A960FB6F894FEBF0FBEEDBF84ED91E048
:100F7000928381830E94676783EC91E0ADB7BEB72F
:100F800012969C938E9311970E9467670F900F9013
:100F900084E793E060E070E00E94261788E592E025
:100FA0000E945F1700D08BEB91E0EDB7FEB7928304
:100FB00081830E9467670F900F9028960FB6F89470
:100FC000DEBF0FBECDBFCF91DF911F910F91FF907C
:100FD000EF90DF90CF90BF9008952F923F924F9265
:100FE0005F926F927F928F929F92AF92BF92CF92B9
:100FF000DF92EF92FF920F931F93CF93DF930E94A4
:101000009206A6E2CA2EA1E0DA2EFEE9AF2EF1E0AA
:10101000BF2EECE98E2EE1E09E2E77E8672E71E080
:10102000772E60E3462E512C55E8252E51E0352EC3
:101030000E9482160E94B00C809132269091332635
:10104000009729F001979093332680933226E09001
:101050003426F090352600913626109137260E94CE
:10106000890AE616F7060807190711F30E94890A8C
:1010700060933426709335268093362690933726D6
:101080002CE330E040E050E00E949266611571056B
:101090008105910511F40E94901A60913426709197
:1010A0003526809136269091372628E532E040E0BB
:1010B00050E00E949266623071058105910509F049
:1010C00009C100D000D0ADB7BEB71296BC92AE92A7
:1010D000119784E090E014969C938E9313970E944E
:1010E000676701ED1FE20F900F900F900F90C0E027
:1010F000D0E04CE1E42EF12CF80180818823B1F09E
:10110000CE9DC001CF9D900DDE9D900D11248E527D
:10111000904D0E940D0600D0ADB7BEB712969C92BE
:101120008E9211970E9467670F900F902196045E30
:101130001F4FC430D10501F700D000D0EDB7FEB786
:101140007282618284E190E0948383830E94676766
:1011500008E811E30F900F900F900F90C0E0D0E0DF
:1011600081E0D8019C919923A9F0C49DC001C59D3F
:10117000900DD49D900D112487579E4C0E940D0612
:1011800000D0EDB7FEB7328221820E9467670F90D0
:101190000F9080E02196005D1F4FC431D10509F703
:1011A000882369F000D0ECE7F1E0ADB7BEB7129646
:1011B000FC93EE9311970E9467670F900F9000D0F9
:1011C00000D0EAE6F1E0ADB7BEB71296FC93EE931D
:1011D000119784E190E014969C938E9313970E944C
:1011E0006767C8E4D5E30F900F900F900F9000E071
:1011F00010E081E09881992309F449C08EE290E0E3
:10120000089F7001099FF00C189FF00C1124C70172
:10121000875B9A4C0E940D0600D000D0EDB7FEB758
:10122000319680E691E0ADB7BEB712969C938E934F
:1012300011978989828313820E9467670F900F90AC
:101240000F900F90C701855A9A4C0E940D0600D04E
:1012500000D000D0E8E5F1E0ADB7BEB71296FC9340
:10126000EE9311978BA19CA1ADA1BEA1EDB7FEB7E6
:1012700083839483A583B6830E9467678DB79EB7E7
:1012800006960FB6F8949EBF0FBE8DBF80E00F5F2D
:101290001F4FAE960431110509F0ACCF882369F0D9
:1012A00000D0EFE4F1E0ADB7BEB71296FC93EE9339
:1012B00011970E9467670F900F9000D0E3E4F1E070
:1012C000ADB7BEB71296FC93EE9311970E94676775
:1012D0000F900F908091342690913526A09136265C
:1012E000B09137269370A070B07083309105A1053E
:1012F000B10509F09DCEE8E9F9E38081918122E40E
:1013000082349207A9F000D000D0ADB7BEB71296D4
:10131000DC92CE921197E859F9431496FC93EE9320
:1013200013970E9467670F900F900F900F9080CED9
:101330003A96B1E4E53FFB0700F37ACE00D000D047
:1013400000D0EDB7FEB7319620E231E0ADB7BEB7C1
:1013500012963C932E9311979383828375836483B3
:101360000E9467678DB79EB706960FB6F8949EBF2A
:101370000FBE8DBF08950F931F93DF93CF93CDB70B
:10138000DEB7A2970FB6F894DEBF0FBECDBF82E2E4
:1013900090E00E94166A89839A83982F9B5090311F
:1013A00008F08A839A819095891709F470C000D05B
:1013B00083E992E0ADB7BEB712969C938E931197D6
:1013C0000E9467678E010D5F1F4F0F900F90D8012D
:1013D00080E090E0FC01ED58FD4FE491ED93019623
:1013E00088309105B9F7F894CE01039660E070E07B
:1013F00048E050E00E941C6AD80180E090E0FC01C7
:10140000E558FD4FE491ED9301968E309105B9F7C3
:10141000CE01039668E070E04EE050E00E941C6A46
:1014200080E090E0FC01E757FD4FE491D801ED9397
:101430008D0101968A309105A9F7CE01039666E1E8
:1014400070E04AE050E00E941C6A84E290E06DEC9B
:101450007BEA0E94346A86E290E060E070E00E94DD
:10146000346A88E290E060E00E94266A80E290E0C0
:1014700060E070E00E94346A8AE1898385EE8A83A5
:1014800069817A8182E290E00E94346A789489814D
:10149000A2960FB6F894DEBF0FBECDBFCF91DF91FD
:1014A0001F910F910895F89460E070E048E050E0DB
:1014B0000E94FE69789480E0089584E290E00E94A2
:1014C000166A089586E290E00E94166A089588E2FE
:1014D00090E00E940E6A0895F8941092B60016BC2F
:1014E00083EF87BD82E084BD94E095BD95B395BB45
:1014F00080936E007894089520910709309108092F
:10150000809107099091080928173907A9F7C9019F
:1015100008952091402630914126409142265091D5
:1015200043268091402690914126A0914226B09179
:101530004326281739074A075B0759F7B901CA013B
:10154000089560934026709341268093422690939D
:1015500043260895CF93DF93EC010E947C0AC80FC5
:10156000D91F0E947C0A8C1B9D0B97FDFACFDF913F
:10157000CF9108958430910548F00397880F991F03
:10158000880F991F969587950197F1F70895CF9346
:10159000DF93EC0184EE93E005C00E94BA0A219724
:1015A00087EE93E02097C9F7DF91CF9108950F93CD
:1015B0001F931FB7F8942091070930910809280F4D
:1015C000391F309308092093070920910909FC016C
:1015D000E20FF11D0091E42760913C2670913D26B9
:1015E00080913E2690913F26DF012CC0A058B0404C
:1015F0002091402630914126409142265091432629
:101600002F5F3F4F4F4F5F4F20934026309341262F
:1016100040934226509343260023A1F02091382680
:101620003091392640913A2650913B262F5F3F4F0B
:101630004F4F5F4F209338263093392640933A26F8
:1016400050933B26A038B10588F69F01220F232F27
:10165000221F330B319540E050E0260F371F481F03
:10166000591F20933C2630933D2640933E265093AD
:101670003F26EF77F070E09309091FBF1F910F918C
:1016800008951F920F920FB60F920BB60F9211246E
:101690002F933F934F935F936F937F938F939F937A
:1016A000AF93BF93EF93FF9380910709909108093F
:1016B00001969093080980930709809109098F5F2B
:1016C000809309098091090987FF15C010920909C3
:1016D0008091402690914126A0914226B0914326C8
:1016E0000196A11DB11D8093402690934126A093A1
:1016F0004226B09343268091E4278823F1F080911D
:101700000A098F5F80930A0980910A0987FF15C033
:1017100010920A098091382690913926A0913A2694
:10172000B0913B260196A11DB11D80933826909360
:101730003926A0933A26B0933B260E945104009785
:1017400011F00E945103FF91EF91BF91AF919F91D2
:101750008F917F916F915F914F913F912F910F905A
:101760000BBE0F900FBE0F901F9018951F920F92F7
:101770000FB60F920BB60F9211242F933F934F93F6
:101780005F936F937F938F939F93AF93BF93EF93E9
:10179000FF938091C600E0914626F091472630974E
:1017A00009F00995FF91EF91BF91AF919F918F91B2
:1017B0007F916F915F914F913F912F910F900BBE51
:1017C0000F900FBE0F901F9018951F920F920FB69B
:1017D0000F920BB60F9211242F933F934F935F9369
:1017E0006F937F938F939F93AF93BF93EF93FF93E9
:1017F0008091CE00E0914426F0914526309709F083
:101800000995FF91EF91BF91AF919F918F917F913A
:101810006F915F914F913F912F910F900BBE0F9061
:101820000FBE0F901F901895882371F41092C50079
:101830006093C40088E98093C1004093C200109275
:101840004726109246260895813069F41092CD0003
:101850006093CC0088E98093C9004093CA0010923D
:101860004526109244260895882339F48091C000BB
:1018700085FFFCCF6093C6000895813031F48091DC
:10188000C80085FFFCCF6093CE0008951F93182FEA
:101890008A3031F480910B096DE00E94340C02C053
:1018A0008D3029F080910B09612F0E94340C80E06B
:1018B00090E01F910895882329F470934726609340
:1018C00046260895813021F470934526609344267E
:1018D0000895EF92FF921F93CF93DF93182FE62E78
:1018E000E7017E01F72EE7010CC08A3021F4812F39
:1018F0006DE00E94340C69916D3019F0812F0E94C7
:10190000340C8881882389F7DF91CF911F91FF9054
:10191000EF900895682F80E00E94340C0895809322
:101920000B098BE992E0909395398093943908954F
:1019300084B7877F84BF88E10FB6F89480936000F6
:10194000109260000FBE08952FE088E190E00FB67E
:10195000F894A895809360000FBE209360000895CE
:10196000A895089588E10FB6F894809360001092CE
:1019700060000FBE0895F89428E088E190E00FB66B
:10198000F894A895809360000FBE20936000FFCF6D
:101990008091582690E0FC01EE0FFF1F9695982F3E
:1019A000882797958795E80FF91FE75AF94D108218
:1019B000089580914F2690E008958091390181FD2E
:1019C0000CC081E491E06FE140E00E94221381307D
:1019D00039F021E030E0813129F020E030E002C030
:1019E00021E030E0C90108958091390181FD12C0E4
:1019F00081E491E06FE140E00E942213982F815131
:101A0000823050F09F3141F0913041F081E09230CE
:101A100031F402C081E0089580E0089580E00895E7
:101A2000CF93DF93C0E1D7E20E94F40C882311F436
:101A30002197D1F7DF91CF910895E9E3F1E080811B
:101A400080818D7F80838DE090E00197F1F782E4C3
:101A500091E06FE140E023E00E942C1383E090E0EE
:101A60000197F1F708950E94100D0E941D0D8091BD
:101A7000390182608093390180916D288823E9F1D2
:101A8000809194009091950020917E2830917F283C
:101A900082179307A0F480914A2890914B28A09137
:101AA0004C28B0914D288C57914EAF4FBF4F80932B
:101AB0004A2890934B28A0934C28B0934D288091AE
:101AC000940090919500821B930BA0E0B0E02091D0
:101AD0004A2830914B2840914C2850914D28820F34
:101AE000931FA41FB51F80934A2890934B28A0935F
:101AF0004C28B0934D2810926D281092E4278091C5
:101B00006F288823E9F180919400909195002091AD
:101B100082283091832882179307A0F4809152285D
:101B200090915328A0915428B09155288C57914EEC
:101B3000AF4FBF4F8093522890935328A0935428BF
:101B4000B09355288091940090919500821B930B3F
:101B5000A0E0B0E0209152283091532840915428C1
:101B600050915528820F931FA41FB51F80935228B0
:101B700090935328A0935428B093552810926F281F
:101B800008958091E427882321F00E94F40C0E949C
:101B9000330D80E090E008959091390191FD0AC0E5
:101BA000282F803108F02FE085E491E06FE040E0DD
:101BB0000E942C130895B82FA92FF62FE72F2091FC
:101BC000ED273091EE274091EF275091F0272F5FBE
:101BD0003F4F4F4F5F4F2093ED273093EE274093B9
:101BE000EF275093F027862F8E5F87FF0CC08091E0
:101BF000E1279091E22701969093E2278093E127D5
:101C00002FEF3FEF0BC02CE039E0C9016B2F7A2F8B
:101C10004F2F5E2F0E943D6720E030E0C9010895FC
:101C200081E491E06FE140E00E94221308950F9358
:101C30001F93182F883049F0863039F0893029F009
:101C4000863119F0893109F041C08091390181FD57
:101C500040C00E94100D0E94100E082F181709F4A2
:101C60003BC0183019F40E941D0D29C0193141F4F0
:101C70008631A9F482E491E06FE140E029E009C0F7
:101C8000163169F4893159F482E491E06FE140E062
:101C900026E00E942C13E3E0F0E03197F1F782E4B4
:101CA00091E06FE140E0212F0E942C13083019F4DD
:101CB000E9E6F1E002C0E3E0F0E03197F1F70E94DD
:101CC000100E811749F023E430E008C022E430E030
:101CD00005C024E430E002C020E430E0C9011F91D7
:101CE0000F9108958091940090919500909383288E
:101CF0008093822821E020936F282093E42780910D
:101D0000390181FF16C080919400909195009093C5
:101D10007F2880937E2820936D282093E327789452
:101D2000809139018D7F809339018091E327882349
:101D3000E1F786E10E94170E0E94100D0895809130
:101D4000E427882311F40E94720E81E090E0089548
:101D50000F931F938091E427882359F080913901D4
:101D600081FD74C00E94F40C882309F46FC000E068
:101D700003C00E949F0E01E0809194009091950015
:101D800090937D2880937C2811E010936C287894A0
:101D900086E00E94170E1093502610924701809102
:101DA00050268823E1F7809147018E3010F010E033
:101DB00001C01FEF86E10E94170E80916C288823D6
:101DC000E9F1809194009091950020917C283091C8
:101DD0007D2882179307A0F4809146289091472888
:101DE000A0914828B09149288C57914EAF4FBF4FD2
:101DF0008093462890934728A0934828B093492879
:101E00008091940090919500821B930BA0E0B0E02C
:101E100020914628309147284091482850914928E0
:101E2000820F931FA41FB51F8093462890934728C5
:101E3000A0934828B093492810926C28002311F0F1
:101E40000E94C10D21E030E016FD02C020E030E02C
:101E5000C9011F910F91089580938E0908950E94E2
:101E6000100E8250813130F4E82FF0E0EC52FD4F3B
:101E70008081089581E00895282F8EE691E060E248
:101E800045E00E942C1308958FEF80934E018CE65D
:101E900091E060EF44E022E00E942C138CE691E098
:101EA0006EE041E025E00E942C1380E880936F01F2
:101EB0008091460180936D0184E491E060E245E009
:101EC00021E00E942C130895CF93DF93CDEFD3E050
:101ED000CE010197F1F70E941D131092592610921E
:101EE000DB2610925D271092582610925726E9E3C0
:101EF000F1E080818E7F808380818D7F808381EC83
:101F00009DE00197F1F780818160808382E491E018
:101F10006FE140E023E00E942C132197F1F78091BC
:101F20005D0180915E010E94440F86EB92E060E0CB
:101F300070E00E9426170E94720E81E090E0DF910F
:101F4000CF91089580918D090895DF93CF930F92DB
:101F5000CDB7DEB789830E94100D298120938D09AA
:101F600088E491E06FE140E00E942C130F90CF9144
:101F7000DF9108950E94A50F86E00E94170E089534
:101F8000809362019093630160936001709361019B
:101F90004115510531F1FA01819180936B01DA010C
:101FA00011968C9180936A01DF0111968181809353
:101FB0006901FD01319611968C9180936801DF01D2
:101FC0001196818180936701FD01319611968C9164
:101FD000119780936601818180936501828180934E
:101FE0006401089586EB92E00E94491781E0809396
:101FF0004F26809151269091522601969093522619
:10200000809351268091312890913228A0913328D5
:10201000B09134280196A11DB11D80933128909371
:102020003228A0933328B093342881E090E00895BB
:10203000EF92FF92CF93DF9350915826252F30E0F7
:10204000F901EE0FFF1F3695322F2227379527957E
:10205000E20FF31FE75AF94D4081442309F4CEC043
:102060002091390121FDCAC02091E427222309F4DF
:10207000C5C047FF16C00E94C80C80911D289091D2
:102080001E28A0911F28B09120280196A11DB11DE6
:1020900080931D2890931E28A0931F28B09320287A
:1020A000ADC04330B0F40E94C80C809119289091C3
:1020B0001A28A0911B28B0911C280196A11DB11DC2
:1020C0008093192890931A28A0931B28B0931C285A
:1020D00095C0C42FD0E022976C177D07B0F40E9402
:1020E000C80C8091152890911628A0911728B091BE
:1020F00018280196A11DB11D8093152890931628CC
:10210000A0931728B093182879C0652F70E09B0121
:10211000220F331F7695762F662777956795260FC2
:10212000371F265A394DB90150E00E943D67209172
:102130005826822F90E0FC01EE0FFF1F9695982FF6
:10214000882797958795E80FF91FE752F94D808109
:1021500080934826822F90E0FC01EE0FFF1F96959A
:10216000982F882797958795E80FF91FE75AF94D1B
:1021700010822F5F20935826233010F0109258269B
:102180008091582690E0FC01EE0FFF1F9695982F46
:10219000882797958795E80FF91FE75AF94D8081B1
:1021A000882311F00E94F20F609147016093492645
:1021B00080914E26882311F0681710F460934E2604
:1021C00084E070E00E94641E6091482683E070E025
:1021D0000E94641E8091F1279091F227A091F3272D
:1021E000B091F4270196A11DB11D8093F127909322
:1021F000F227A093F327B093F42702C0C0E0D0E009
:10220000CE01DF91CF91FF90EF9008950F931F9330
:10221000DF93CF930F92CDB7DEB78C01FC018081A5
:102220009181009729F0F5E081319F0769F506C09B
:1022300081E195E0F801918380832BC0623849F5F4
:1022400010924F260E94DE1D8FB78983F8940E945A
:10225000381D60E870E00E94181029812FBF181601
:10226000190644F40E94331DE0911603F091170300
:102270000995DECF80914C2690914D260196909342
:102280004D2680934C26D4CFF8011182108283E032
:1022900001C081E00F90CF91DF911F910F910895C0
:1022A0000E94CC0D08958091390181FD07C085E41D
:1022B00091E06FE040E00E942213089580E10895CC
:1022C000DF92EF92FF920F931F93CF93DF93D82E5D
:1022D0008091390181FF1AC08091940090919500FE
:1022E00090937F2880937E2881E080936D2880934F
:1022F000E327809139018D7F8093390180E197E256
:102300002091E327222311F00197D1F70E94100DAD
:102310008091E427882309F441C080916F288823A5
:10232000E9F120919400309195008091822890915C
:10233000832828173907A0F4209152283091532878
:1023400040915428509155282C57314E4F4F5F4F94
:102350002093522830935328409354285093552863
:102360002091940030919500281B390B40E050E0FB
:10237000E0905228F090532800915428109155284D
:102380002E0D3F1D401F511F20935228309353287C
:10239000409354285093552810926F2889E10E9449
:1023A000170E86E00E946F1E009751F00E94531195
:1023B000C82F86E00E946F1E81500E94CC0D02C083
:1023C000C0E0D0E080919400909195009093812896
:1023D0008093802881E080936E28F8948091390161
:1023E000826080933901809139018D7F809339011A
:1023F0006D2D6E5F8CE099E00E946A137894809155
:10240000DF279091E02701969093E0278093DF27C4
:102410000E94100D82E491E060EE45E00E942213DC
:10242000182F86E00E946F1E009719F08C2F0E94D3
:10243000CC0D80916E288823E9F120919400309191
:102440009500809180289091812828173907A0F461
:1024500020914E2830914F2840915028509151287A
:102460002C57314E4F4F5F4F20934E2830934F28BB
:10247000409350285093512820919400309195001A
:10248000281B390B40E050E060914E2870914F2896
:102490008091502890915128260F371F481F591FAF
:1024A00020934E2830934F28409350285093512822
:1024B00010926E288091E427882371F08091940017
:1024C00090919500909383288093822881E0809357
:1024D0006F280E94720E02C00E94330D113011F05D
:1024E000112369F580912D2890912E28A0912F28F5
:1024F000B09130280196A11DB11D80932D28909395
:102500002E28A0932F28B09330288CE00E946F1EB5
:10251000009709F445C08091092890910A28A0915C
:102520000B28B0910C280196A11DB11D809309289C
:1025300090930A28A0930B28B0930C2831C0133035
:10254000A9F48091252890912628A0912728B09160
:1025500028280196A11DB11D809325289093262837
:10256000A0932728B093282812E01DC01530A9F4A5
:102570008091112890911228A0911328B0911428CD
:102580000196A11DB11D8093112890931228A0934C
:102590001328B093142813E006C0173021F402C0AA
:1025A00010E001C011E0812F90E0DF91CF911F91E9
:1025B0000F91FF90EF90DF900895CF93DF93EB01A1
:1025C0000E94DB0D9C01009731F4CE010E94601146
:1025D0009C01009749F08091E1279091E2270196B4
:1025E0009093E2278093E127C901DF91CF9108956D
:1025F0000F931F938091E427882321F40E949F0E5C
:1026000011E001C010E00E94100E863111F08131FE
:1026100019F40091470109C086E491E06FE140E0C0
:102620000E942213082F000F080F112311F00E949F
:10263000C10D802F1F910F91089510929009109253
:102640008F090895FC018081862390E002C0959552
:1026500087954A95E2F70895F894FC019081862FBA
:102660008095892330E002C0220F331F4A95E2F79C
:102670002623282B20837894089520917B01322FE4
:1026800033503D37E0F4FC012193215030E0A901A3
:102690004F575E4FA0E8B1E06D916193A417B50765
:1026A000D9F7FC01E058FF4F2F573E4FD9012C912D
:1026B00020838F579F4F21E0FC0120830895DC0188
:1026C0001C92FC01E058FF4F10828F579F4FFC0176
:1026D00010820895FC016093800101966350860F7B
:1026E000911DA1E8B1E021912D93E817F907D9F7E1
:1026F00008951F920F920FB60F920BB60F921124EE
:102700002F933F934F935F936F937F938F939F93F9
:10271000AF93BF93EF93FF93809147018093492636
:102720002091572630E0C901880F991F3695322F26
:10273000222737952795820F931F875A994D0E941C
:102740003D13809157268F5F80935726833010F07A
:10275000109257260E94F20FFF91EF91BF91AF9117
:102760009F918F917F916F915F914F913F912F91A9
:102770000F900BBE0F900FBE0F901F9018951F92D9
:102780000F920FB60F9211240F900FBE0F901F9053
:1027900018951F920F920FB60F9211240F900FBE33
:1027A0000F901F9018951F920F920FB60F92112441
:1027B0000F900FBE0F901F9018951F920F920FB69B
:1027C0000F9211241092E3270F900FBE0F901F90CD
:1027D00018951F920F920FB60F9211241092E327B3
:1027E0000F900FBE0F901F9018951F920F920FB66B
:1027F0000F9211248F9381E080934F268F910F9039
:102800000FBE0F901F9018951F920F920FB60F9248
:102810001124109250260F900FBE0F901F90189504
:102820001F920F920FB60F9211248F939F93809156
:102830008F099091900901969093900980938F0948
:102840009F918F910F900FBE0F901F901895262F7C
:10285000372FF901282F392FD90188E091919D93C5
:102860008150E1F70895282F392FD901862F972F0E
:10287000FC0188E02D919191291729F48150D1F71D
:1028800021E030E002C020E030E0C9010895282FA7
:10289000392FD901E5EEF7E28D91819387E2ED3E84
:1028A000F807D1F70895E0911203F0911303099509
:1028B0000895E091A303F091A40309950895E09190
:1028C0001803F091190309950895E0911A03F09106
:1028D0001B030995089580E090E008950895E09124
:1028E000D002F091D10209950895009731F0E0915E
:1028F000D002F091D10209950895E091D202F091B1
:10290000D3020995089580E090E008950F931F93F6
:10291000DF93CF93CDB7DEB7E0970FB6F894DEBF65
:102920000FBECDBF0E948A1D8C010E94381D602FF2
:10293000AE014F5F5F4F0E94904B882309F445C062
:1029400088A99801281B3109C9010E94141D00970C
:10295000E1F12E81222371F18A859B853BEA8D3C32
:10296000930721F03FEF8F3F930779F5223041F035
:1029700088E090E007C0019722912F3F41F00BC003
:1029800082E090E0FE01E80FF91F3C96F4CF1816A4
:1029900019068CF30FC089E1BE01645F7F4F0E946E
:1029A000781E89E10E94851E65EE77E20E9433144D
:1029B000009759F088E1BE016A5E7F4F0E94781E41
:1029C000E091FB02F091FC020995E0960FB6F894B5
:1029D000DEBF0FBECDBFCF91DF911F910F91089544
:1029E000AF92BF92CF92DF92EF92FF920F931F931D
:1029F000DF93CF93CDB7DEB7E0970FB6F894DEBF85
:102A00000FBECDBF6C018B01FE01319680E3DF016B
:102A10001D928A95E9F781E089838CE00E946F1E00
:102A20008C831D821F828091910989878F5F80939B
:102A3000910983E0E82EE8868DEC9BEA9B878A87E4
:102A400089E10E94851E65EE72E00E9433140097B2
:102A500031F082E08E838FEF8C878D8709C089E10A
:102A60000E94851EBC01CE010C960E942714EE82A6
:102A70008DEC9BEA9D8B8C8BCE01469665EE77E2C2
:102A80000E9427140E94381D9FA78EA70E948A1DAE
:102A900088AB7E010894E11CF11CC7010E94874AA3
:102AA000A82E90E00E94A01D009741F10E94401DB9
:102AB000BC01C7014A2D0E94A54AA090C602B09051
:102AC000C7020E94401D7C010E94941DBC01C701E9
:102AD000F5010995C114D10489F0009721F08130E6
:102AE000910561F404C0C80160E070E003C0C80152
:102AF00064E070E041E050E0F6010995E0960FB621
:102B0000F894DEBF0FBECDBFCF91DF911F910F9123
:102B1000FF90EF90DF90CF90BF90AF9008950E940C
:102B2000521C80939109E091D002F091D102099555
:102B300008950F931F93CF93DF938C01EB01411501
:102B4000510549F0FA01828193810E94191FC80141
:102B5000BE010E94F014DF91CF911F910F91089553
:102B60001F93CF93DF93EC01162F888580FF1DC044
:102B7000EC81FD813097C9F0D0939509C0939409F9
:102B800082E08887CE0106960995992787FD909562
:102B900002978230910510F0133829F4CE01BE015E
:102BA0000E94D91502C081E08887DF91CF911F91E3
:102BB0000895CF92DF92EF92FF920F931F93CF93DE
:102BC000DF93EC017B01C0909409D09095090091AE
:102BD000920910919309F80103C00190F081E02D52
:102BE000EC17FD0719F03097C1F746C0209709F49C
:102BF00043C08885882309F118860BC0C017D10708
:102C000029F0C80167E8AE010E94B015F801008103
:102C100011810115110591F7EC81FD81309769F063
:102C2000CE15DF0551F0D0939509C0939409CE01DC
:102C3000069663E840E050E00995E0919209F09132
:102C40009309CE17DF0791F48881998190939309B6
:102C5000809392090DC0808191818C179D0729F482
:102C6000888199819183808303C0FC01309799F713
:102C7000D0929509C0929409DF91CF911F910F9145
:102C8000FF90EF90DF90CF9008951F93CF93DF9345
:102C900010929609C0919209D091930911E00EC04B
:102CA0008985882341F018871986CE0162E840E0C3
:102CB00050E00E94B0150990D881C02D209781F76F
:102CC000DF91CF911F9108958091410A982F9F5FC6
:102CD0009093410A089560919409709195090E941A
:102CE000D91508958AE88093410A109298091092A4
:102CF00097091092930910929209109295091092D7
:102D00009409089580919609882311F00E94451630
:102D100070919709772309F455C02091980930E004
:102D2000F901EE0FFF1FEE0FFF1FE20FF31FE75633
:102D3000F64F60816093400A4181528150933F0A6F
:102D400040933E0A8381948190933D0A80933C0A8C
:102D50002F5F3F4F2F7130702093980971507093FF
:102D60009709009741F5809192099091930918C0B5
:102D700080919609882311F00E94451640913E0AE1
:102D800050913F0A80913A0A90913B0A6091400A23
:102D90000E94B015E0913A0AF0913B0A808191813E
:102DA00090933B0A80933A0A80913A0A90913B0AA9
:102DB0000097F1F607C0613819F421E0FC01208783
:102DC0000E94B015809196092091970930E0280F54
:102DD000311DC9010895809196092091970930E02D
:102DE000280F311DC9010895709197097032D9F0EB
:102DF00020919809270F2F712093390A30E0F901AB
:102E0000EE0FFF1FEE0FFF1FE20FF31FE756F64F07
:102E1000608352834183948383837F5F7093970998
:102E200020E030E002C021E030E0C9010895CF93F6
:102E3000DF93C0919409D09195090E94B015D09369
:102E40009509C0939409DF91CF910895FC01AB01DE
:102E500090919209809193099C01A32FB22F03C0F6
:102E60000D90BC91A02DAE17BF0791F01097C1F740
:102E7000309771F090838183F0939309E0939209E6
:102E800081E0808717821682CF0161E80E941717C0
:102E90000895FC01009741F080858150823020F434
:102EA00081E0818780939609089521E030E0FC015C
:102EB0008085882311F420E030E0C9010895EF9265
:102EC000FF92CF93DF93E82EE7017E01F92EE70111
:102ED00004C060E070E00E942617899199910097E4
:102EE000C1F7DF91CF91FF90EF900895EF92FF929D
:102EF000CF93DF93E82EE7017E01F92EE70102C0B0
:102F00000E946B16899199910097D1F7DF91CF912B
:102F1000FF90EF900895CF93DF93EC018881998122
:102F20008836910579F08A37910509F44EC00097EB
:102F300009F04EC00E946416809335281092480A0A
:102F40001092470A82E49AE00E947D1C2FEF8F3F87
:102F5000920719F488E690E035C02091470A309135
:102F6000480A8D30910571F02F3731055CF7F90172
:102F7000E75BF54F80832F5F3F4F3093480A2093E4
:102F8000470AE0CFF901E75BF54F10822F5F3F4F13
:102F90003093480A2093470A80E090E060913528FA
:102FA00049E45AE00E94F4168091940990919509A1
:102FB00065E840E050E00E94F416009709F0BECFAB
:102FC0008AE790E09983888307C0653829F4B6CFF3
:102FD0001982188283E001C081E0DF91CF910895CA
:102FE000682F8A30F9F08091490B882351F482E4EC
:102FF0009AE00E945D1C009771F481E08093490B78
:103000000AC06D3041F482E49AE00E945D1C009792
:1030100011F01092490B8CE293E00E94491721E0D5
:1030200030E002C020E030E0C901089582E49AE077
:1030300069EC7AE040E80E94551C8CE293E060E085
:1030400070E00E9426170895CF93DF93EC017B83F5
:103050006A830E947C0A99838883DF91CF910895C7
:10306000FC018081918122813381820F931F9183A2
:1030700080830895CF93DF93EC010E947C0A9983AB
:103080008883DF91CF910895CF93DF93EC010E9465
:103090007C0A28813981821B930B019621E030E064
:1030A0004A815B814817590710F020E030E0C901E0
:1030B000DF91CF910895EF92FF92CF93DF93FC01C0
:1030C000C281D38180819181C80FD91F0E947C0A5F
:1030D000C81BD90BCE01DF91CF91FF90EF900895DF
:1030E000CF92DF92EF92FF920F931F93CF93DF93D4
:1030F0008C017A01FC0180819181009729F08B3449
:10310000910509F051C01EC08BE49BE00E9427632B
:10311000C82EE6017E01F92EE70109C06C817D8190
:10312000CE0102960E940E040990D881C02D2097EE
:10313000A9F781E080934A0B8BE490E0F80191833A
:10314000808337C06838A9F58BE49BE00E94276331
:10315000C82EE6016E01D92EE60123C0CE010296EB
:10316000E816F906D9F48BE49BE0BE010E94756372
:10317000E0909409F09095098A859B859093950934
:1031800080939409EC85FD85309719F08E859F8595
:103190000995F0929509E0929409CECF0990D881D3
:1031A000C02D2097D9F6C8CFF8011182108283E094
:1031B00001C081E0DF91CF911F910F91FF90EF90BF
:1031C000DF90CF90089510924A0B8BE49BE00E9411
:1031D000236385E493E060E070E00E942617089581
:1031E0000F931F93CF93DF93EC01009194091091FB
:1031F00095091B870A875D874C873F872E878091BB
:103200004A0B882379F085E493E0909395098093A5
:103210009409CE0102960E940E0410939509009322
:10322000940902C07D836C838BE49BE0BE010E9405
:1032300075638BE49BE0BE010E94AE63DF91CF918A
:103240001F910F9108950F931F93CF93DF93EC017C
:1032500080914A0B882391F000919409109195096F
:1032600085E493E09093950980939409CE010296AA
:103270000E94190410939509009394098BE49BE034
:10328000BE010E9475638BE49BE0BE010E94AE63A9
:10329000DF91CF911F910F9108950F931F93CF93BB
:1032A000DF93EC0180914A0B882391F000919409FF
:1032B0001091950985E493E0909395098093940982
:1032C000CE0102960E94240410939509009394095C
:1032D0008BE49BE0BE010E9475638BE49BE0BE0122
:1032E0000E94AE63DF91CF911F910F910895CF930C
:1032F000DF93EC0180914A0B882329F0CE010296DE
:103300000E946C0404C01F821E82198618868BE4FA
:103310009BE0BE010E947563DF91CF910895CF932A
:10332000DF93EC0180914A0B882331F0CE010296A5
:103330000E9439049C0114C08BE49BE00E94276327
:10334000E82FF92F06C0EC17FD0741F00190F0813E
:10335000E02D3097C1F721E030E002C020E030E0FE
:10336000C901DF91CF910895CF93DF93E4E7F8E2AD
:10337000C6E3D8E2A8E6B8E2119211921992199226
:10338000199219921D9288E2EC38F807A9F7DF919B
:10339000CF9108950F931F93CF93DF93FC01DC012E
:1033A000A859B74D8C91882339F100919400109160
:1033B0009500EF01CC0FDD1FCC0FDD1FCA5CD74D90
:1033C000DF01AA0FBB1FAC58B74D8D919C9111978F
:1033D0009801281B390B40E050E0688179818A818F
:1033E0009B81260F371F481F591F288339834A8323
:1033F0005B8311961C930E93EE0FFF1FEE0FFF1FC2
:10340000EA5CF74D6081718182819381DF91CF9178
:103410001F910F91089560E070E0CB010895FC01C9
:10342000EE0FFF1FEE0FFF1FEA5CF74D4083518345
:10343000628373830895EF92FF920F931F93CF934C
:10344000DF9328E638E2C6E3D8E2E4E7F8E2D90100
:103450008D919D018823C9F0409194005091950071
:10346000808191817A01E81AF90A00E010E08881F0
:103470009981AA81BB818E0D9F1DA01FB11F8883DA
:103480009983AA83BB835183408324963296B8E202
:1034900024373B07E1F6DF91CF911F910F91FF9009
:1034A000EF9008950E943A4908950F931F93FC01ED
:1034B000CB0140914D0B50914E0B338322831583EA
:1034C000048371836083F0934E0BE0934D0B4115A1
:1034D000510511F40E94544980E090E01F910F9132
:1034E000089580914D0B90914E0B0097C1F0109272
:1034F0004E0B10924D0BDC0114966D917C9115973B
:103500001296ED91FC9113970995E0914D0BF09176
:103510004E0B309721F0808191810E94544908958B
:103520000F931F930091E5271091E6270E94890AC7
:103530002DB73EB7225530400FB6F8943EBF0FBEB0
:103540002DBFEDB7FEB731962FE233E0ADB7BEB772
:1035500012963C932E931197028313821483158243
:1035600066837783808791878091ED279091EE27FE
:10357000A091EF27B091F02782879387A487B58722
:103580008091F1279091F227A091F327B091F42731
:1035900086879787A08BB18B8091F5279091F6272E
:1035A000A091F727B091F827828B938BA48BB58BD2
:1035B0008091F9279091FA27A091FB27B091FC27E1
:1035C000868B978BA08FB18F8091FD279091FE27DE
:1035D000A091FF27B0910028828F938FA48FB58F81
:1035E0008091012890910228A0910328B09104288D
:1035F000868F978FA0A3B1A380910528909106286C
:10360000A0910728B091082882A393A3A4A3B5A3EF
:103610008091092890910A28A0910B28B0910C283C
:1036200086A397A3A0A7B1A780910D2890910E28FB
:10363000A0910F28B091102882A793A7A4A7B5A79F
:103640008091112890911228A0911328B0911428EC
:1036500086A797A7A0ABB1AB8091152890911628AB
:10366000A0911728B091182882AB93ABA4ABB5AB4F
:103670008091192890911A28A0911B28B0911C289C
:1036800086AB97ABA0AFB1AF80911D2890911E285B
:10369000A0911F28B091202882AF93AFA4AFB5AFFF
:1036A000EDB7FEB7FF968091212890912228A09136
:1036B0002328B091242880839183A283B383EDB71C
:1036C000FEB7ED5BFF4F8091252890912628A091B1
:1036D0002728B091282880839183A283B383EDB7F4
:1036E000FEB7E95BFF4F8091292890912A28A0918D
:1036F0002B28B0912C2880839183A283B383EDB7CC
:10370000FEB7E55BFF4F80912D2890912E28A09168
:103710002F28B091302880839183A283B383EDB7A3
:10372000FEB7E15BFF4F8091312890913228A09144
:103730003328B091342880839183A283B3830E947D
:1037400067670091E5271091E6272DB73EB72E5AFF
:103750003F4F0FB6F8943EBF0FBE2DBF0E94890A9F
:10376000ADB7BEB7D2970FB6F894BEBF0FBEADBF10
:10377000EDB7FEB7319620EC32E012963C932E93D3
:10378000119702831382148315826683778380875F
:1037900091878091362890913728A0913828B09150
:1037A000392882879387A487B58780913A2890919A
:1037B0003B28A0913C28B0913D2886879787A08B15
:1037C000B18B80913E2890913F28A0914028B091E4
:1037D0004128828B938BA48BB58B8091422890914A
:1037E0004328A0914428B0914528868B978BA08FC1
:1037F000B18F8091462890914728A0914828B09198
:103800004928828F938FA48FB58F80914A289091F9
:103810004B28A0914C28B0914D28868F978FA0A35C
:10382000B1A380914E2890914F28A0915028B0913B
:10383000512882A393A3A4A3B5A380915228909169
:103840005328A0915428B091552886A397A3A0A7E8
:10385000B1A780915E2890915F28A0916028B091D7
:10386000612882A793A7A4A7B5A780916228909109
:103870006328A0916428B091652886A797A7A0AB7C
:10388000B1AB0E9467672DB73EB72E5C3F4F0FB6B6
:10389000F8943EBF0FBE2DBF1F910F9108950E9457
:1038A000076708950E9402670895FC017183608391
:1038B00041504283138214820895FC012381428186
:1038C00050E030E08481D901A81BB109CD018423E7
:1038D00095238417950769F0A081B181A20FB31FCA
:1038E0006C9383818F5F92818923838321E030E011
:1038F00002C020E030E0C9010895FC0174816281BA
:10390000838190E0272F30E0821B930B462F50E0FD
:1039100084239523181619065CF4A081B181A20FA7
:10392000B31F2C91872F8F5F8623848330E002C0E2
:103930002FEF3FEFC9010895FC01228130E02F5F96
:103940003F4FC9010895FC01238130E08481281B89
:103950003109828190E028233923C901089580E349
:1039600080934F0B0895EF92FF92CF93DF932091B6
:103970004F0B30E0C0E3D0E0C21BD30B2C5A344FC6
:10398000B901AE010E943D67CE01DF91CF91FF905A
:10399000EF900895AF92BF92CF92DF92EF92FF9295
:1039A0000F931F93CF93DF937C01C090500BD09067
:1039B000510B20914F0B30E08601005D1F4F021B21
:1039C000130B01381105E0F4C0E3D0E0C21BD30BA8
:1039D0002C5A344FB901AE010E943D67CE0DDF1D58
:1039E0002091520B3091530B8091060C9091070C53
:1039F000280F391FCE01B901A6010E943D6702C000
:103A000000E010E0C801DF91CF911F910F91FF906E
:103A1000EF90DF90CF90BF90AF90089590914F0BB3
:103A2000980F90934F0B08954091500B5091510B6C
:103A30009C014817590798F08091060C9091070C4B
:103A4000820F931F9093070C8093060C421B530B1D
:103A50005093510B4093500B21E030E002C020E026
:103A600030E0C90108959093510B8093500B089555
:103A70002091060C3091070C2C57344FC901089542
:103A800020914F0B30E02C5A344FC901089521E0AA
:103A900030E08091520B9091530B4BE084389407A7
:103AA00011F420E030E0C90108950E94471D0097FD
:103AB00071F024E83BE06091520B7091530B409100
:103AC000500B5091510BC9010E943D670895A09180
:103AD000060CB091070C1097B9F02091500B309163
:103AE000510B205D3F4FAC57B44FE4E8FBE080E35F
:103AF00090E003C04D914193019682179307D4F350
:103B00001092070C1092060C08958091520B909120
:103B1000530B08958091500B9091510B0895909103
:103B20004F0B80E3891B089580E390914F0B891B15
:103B30002091500B3091510B280F311DC901089570
:103B40001F93CF93DF93EC0110914F0B812F90E0E7
:103B50008C179D076CF00E94941D8C0F9D1F81385F
:103B6000910530F41C1B10934F0B21E030E002C094
:103B700020E030E0C901DF91CF911F910895CF93EC
:103B8000DF93ECEAF8E21192119288E2EC3DF8073B
:103B9000D1F7C0E0D0E0CE0123E0880F991F2A952D
:103BA000E1F78457974D65EE72E00E942714219645
:103BB000C430D10581F7DF91CF9108951092070CA1
:103BC0001092060C1092510B1092500B80E38093D0
:103BD0004F0B84E89BE09093530B8093520B0E9411
:103BE000BF1D08950F931F93CF93DF93EC018B01BB
:103BF0000E94DE1DD093530BC093520B1093510BB8
:103C00000093500BDF91CF911F910F910895CF92A8
:103C1000DF92EF92FF920F931F93DF93CF9300D029
:103C2000CDB7DEB78C0169837A830E94DE1D69817E
:103C30007A81C62ED72E21E8C216D10418F030E8BA
:103C4000C32ED12C8091520B9091530BB801A60139
:103C50000E943D67D092510BC092500BC6010F904D
:103C60000F90CF91DF911F910F91FF90EF90DF9018
:103C7000CF900895282F392FD901ECEAF8E280E39C
:103C800001900D928150E1F7862F972FDC01ECE82F
:103C9000F8E280E201900D928150E1F70895ECEA9C
:103CA000F8E2282F392FD90180E30D90019281503D
:103CB000E1F7ACE8B8E2862F972FFC0180E2019093
:103CC0000D928150E1F70895E82FF0E0EE0FFF1F0D
:103CD000E455F74D7183608381E090E00895E82F0B
:103CE000F0E0EE0FFF1FE455F74D808191810895BC
:103CF00090E0E3E0880F991FEA95E1F78453984D2F
:103D00000E94271481E090E00895282F30E0F3E02E
:103D1000220F331FFA95E1F72453384DC901089556
:103D20008FE593E00E949B628FE493E00E949B6288
:103D300087E593E00E949B620895EF92FF920F93B4
:103D40001F93CF93DF930E94471D0097C9F087E52B
:103D500093E00E94BB62E82EE7017E01F92EE701A5
:103D6000209791F10E948A1D998388830E94851D66
:103D70009B838A83C70104960E94B31C8CAB24C02A
:103D80008FE493E00E94BB62EC017E01F92EE70113
:103D90002097D1F08FE593E00E94BB628C0199835C
:103DA0008883009779F002960E94CA1CF8019183DB
:103DB0008083B8016E547F4FC8018E579F4F0E9479
:103DC0003A1E02C0C0E0D0E0CE01DF91CF911F913A
:103DD0000F91FF90EF900895FC0180819181BC01CB
:103DE0006E547F4F8E579F4F0E943A1E0895CF9377
:103DF000DF93EC018FE493E0BE010E94066300971D
:103E000049F0688179818FE593E00E94E1628FE457
:103E100093E009C087E593E0BE010E940663009726
:103E200029F087E593E0BE010E94E162DF91CF9126
:103E30000895EF92FF92CF93DF93EC018FE493E02C
:103E4000BE010E940663009791F00990D881C02DB1
:103E500068817981CE0102960E94071EBE016E54D0
:103E60007F4FCE018E579F4F0E944F1E1BC087E58C
:103E700093E0BE010E9406630097A1F00E94DE1D40
:103E8000688179818A819B810E94071E8CA990E0BC
:103E90000E94A01D0E94401D4CA92496BE0150E026
:103EA0000E943D67DF91CF91FF90EF900895CF93EF
:103EB000DF93EC018FE493E0BE010E94066300975C
:103EC00029F0288139812E5F3F4F0CC087E593E0B0
:103ED000BE010E940663009719F02A813B8102C04F
:103EE00020E030E0C901DF91CF910895DC01ED9130
:103EF000FC91119780819181089570E023E0660F15
:103F0000771F2A95E1F76E507040FC0120813181C6
:103F1000260F371FC9010895DC01ED91FC9111971F
:103F200070E06F5B7F4F660F771FE60FF71F808192
:103F30009181089508959C0141505040460F571FAC
:103F4000DB0110C0FC91E0E011968C911197BF014C
:103F5000680F711D260F371F2617370710F42F5FC4
:103F60003F4F1296A417B50768F3A417B50749F495
:103F70009C9180E0280F391F2817390710F42F5F14
:103F80003F4FC90108950F931F93DF93CF9300D044
:103F9000CDB7DEB7009125133091F02820E010E076
:103FA000201B310B9091F128290F311D3A83298371
:103FB00029813A81A901480F511DCA0164EF78E2B5
:103FC00040E250E00E949B1F49815A81B8016C5E1B
:103FD000764D0E949B1F009719F0382F292F02C0A1
:103FE0002FEF3FEFC9010F900F90CF91DF911F91FD
:103FF0000F910895A09125136A2F70E0685D7F4F9F
:10400000FB01E451F74D418150E083E0440F551F1F
:104010008A95E1F7495F5F4F22E054C0FC01E60F4B
:10402000F71FE451F74D3081313009F448C0313089
:1040300018F03336D1F402C02F5F44C0209326130A
:104040000E940061009709F047C09091261380916B
:104050002513E92FF0E0E80FF11DEC5EF64D8181AC
:10406000890F8E5F8093261335C0832F90E0807C6C
:1040700090708038910549F0803C910549F080347A
:104080009105E9F42093261327C02093261306C038
:1040900020932613809104298F3F01F130E040E006
:1040A00050E02A0F311D411D511D285D3F4F4F4FDC
:1040B0005F4F84E062E00E94943082E00895818145
:1040C0008E5F280F822F90E0481759070CF0A6CF7B
:1040D0002093261380E0089581E0089581E00895FB
:1040E000FC014381460F4093E328872F99272281C3
:1040F000280F2093E228A181A093E12850815093BA
:10410000E02830E02817390748F48A2F8F5F809322
:10411000E128882319F45F5F5093E028842F90E012
:1041200070708617970798F48091E2288F5F8093CC
:10413000E228882361F48091E1288F5F8093E12851
:10414000882329F48091E0288F5F8093E0280895E8
:10415000BC018091F32D9091F42D44960E94702023
:10416000E091F32DF091F42D8091E028848B8091E3
:10417000E128858B8091E228868B8091E328878BCC
:1041800008959C01AB0180E090E0B9010E949B1F63
:10419000382F292FC90108958AE30E94C31F08956B
:1041A00086E00E94C31F089581E10E94C31F089505
:1041B0000E94C94780E009C0E82FF0E0EE0FFF1F22
:1041C000E755F14D118210828F5F8430A8F340E0F3
:1041D0008CE290E00DC0242F30E0289FF001299F51
:1041E000F00D389FF00D1124EB50F24D15A24F5FEA
:1041F000443088F380E094E09093301380932F1341
:1042000040E089E190E00EC0242F30E0289FF001CB
:10421000299FF00D389FF00D1124ED54F14D118AB6
:10422000108A4F5F4A3080F340932D1308950F9307
:104230001F93CF93DF9320912F13309130134CE2D3
:1042400050E02F5F3F4FEDE720303E0710F020E0B9
:1042500030E1B22FA32F10E015C0C12FD0E0C49FD2
:10426000F001C59FF00DD49FF00D1124EB50F24DDD
:1042700005A1002331F00088F189E02DEA17FB0742
:1042800001F31F5F143049F73093301320932F133D
:1042900010922D1310E0E0E0F0E02CE230E020C0BE
:1042A000412F50E0429FD001439FB00D529FB00D6F
:1042B0001124AB50B24D95964C919597442321F41F
:1042C00010932D13FD0110C0473049F4309731F0A1
:1042D00096965C91969746A1451708F4FD011F5FDD
:1042E0001430F0F210932D133097B1F122E025A392
:1042F00020912713208F20912813218F209129139B
:10430000228F20912A13238F148A158A168A178ADE
:1043100024EC34E0378F268F31A320A321E030E056
:10432000358F248F17A221E026A323E024A312A215
:1043300020E123A320912F1330913013322723271C
:104340003227318B208B738B628BEF01DC0180E194
:104350000D9009928150E1F7CF01DF91CF911F912C
:104360000F9108950F931F93CF93DF9360912513BF
:104370006623E9F070E0C091DC28D091DD28C61BEF
:10438000D70B8E01085210406C5E764D84E199E2A5
:10439000A8010E944667D093DD28C093DC28ECEE8C
:1043A000F8E214839E012852258310922513DF9191
:1043B000CF911F910F9108950F931F93CF93DF9388
:1043C00020912F133091301349E150E02F5F3F4F80
:1043D000EDE720303E0710F020E030E1B22FA32FB0
:1043E00010E012C0C12FD0E0C49FF001C59FF00DB6
:1043F000D49FF00D1124ED54F14D0088F189E02D8A
:10440000EA17FB0719F31F5F1A3061F73093301377
:1044100020932F1310E049E150E019C0012F0F5FE6
:10442000212F30E0249FF001259FF00D349FF00DE7
:104430001124ED54F14DDF015096C089D1892097A8
:1044400029F410932D13309749F433C0102F1A30EC
:1044500028F310932D13E0E0F0E02BC040912F13D0
:104460005091301354274527542711965C934E934F
:10447000738B628B009731F480E1EF0119928A957A
:10448000E9F707C0EF01DC0180E10D90099281504E
:10449000E1F789E190E0289FD001299FB00D389F76
:1044A000B00D1124AD54B14D8091C32F54968C930F
:1044B0005497CF01DF91CF911F910F91089540E064
:1044C00013C0E42FF0E0542F5F5FEE0FFF1FE7559E
:1044D000F14D208131812817390729F440932D139C
:1044E000118210820895452F443058F340932D13C4
:1044F000089540E013C0E42FF0E0542F5F5FEE0F0B
:10450000FF1FE755F14D208131812115310529F437
:1045100040932D13918380830895452F443058F3A1
:1045200040932D130895BF92CF92DF92EF92FF92A6
:104530000F931F93CF93DF93C091F32DD091F42D60
:10454000843009F488C328E239E23093F22D2093B5
:10455000F12D3093DF282093DE28833079F48DA16C
:1045600090E08F7090708330910509F079C08C8D48
:104570009D8D009711F00C94262B91C0823009F08C
:1045800092C01092DD281092DC281092B22E109268
:10459000B12E80912A138F5F80932A13882399F478
:1045A000809129138F5F80932913882361F4809170
:1045B00028138F5F80932813882329F48091271371
:1045C0008F5F809327138DA1873011F0853051F4D0
:1045D0008EA18F5F8EA3843111F00C94262B1DA227
:1045E0000C94262B882311F40C94262B2C8D3D8DB6
:1045F0002115310509F44FC09EA1292F21502EA36A
:10460000992311F00C94262B9FA1983031F0282F7C
:104610002150223048F4953039F41DA280E880936F
:10462000EC2D0E94D72EFAC6953048F423E030E0F6
:10463000092E02C0220F331F0A94E2F701C020E3C3
:104640002EA39F5F9FA390E08F70907083309105A1
:10465000E1F0843091054CF48130910509F4C6C431
:104660008230910509F0F2C70DC08630910509F43A
:1046700071C68830910509F46DC68430910509F042
:10468000E5C768C610922129B4C484E08093EC2D5C
:104690000E94D72EF5C68F70833009F0D7C788E007
:1046A0008093EC2DB0C6853019F5E091EF2DF09197
:1046B000F02D80899189009709F4C8C71092F42DD4
:1046C0001092F32D2C5030403093F22D2093F12D89
:1046D0003093DF282093DE281092B22E1092B12E54
:1046E0001092DD281092DC2888E08093EC2DB1C276
:1046F000E901EC978091EC28807F803609F0A6C70D
:104700009091F02880E02091F128820F911D209156
:10471000DC283091DD282817390708F497C78896D8
:104720009093DD288093DC288091F4288F3F09F452
:104730008DC7CE0106969093EE2D8093ED2D1092AD
:104740002513109224138091F2288823F9F481E034
:10475000809324130E94FA1F813009F477C78130B7
:1047600018F0823099F47AC780912513E82FF0E091
:10477000EC5EF64DF093EE2DE093ED2D885F918188
:10478000990F990F990F890F8093251384E099E26F
:104790000E943243009709F01CC184E099E20E9414
:1047A0006844009709F015C1209104292F3F09F4AE
:1047B00095C02E3F29F480910529803809F48EC0D8
:1047C0008091F4288E3F29F48091F528803809F4EF
:1047D00085C08091F4289091F528009759F5809133
:1047E000F6289091F728009729F58091F828909164
:1047F000F9280097F9F48091FA289091FB28009706
:10480000C9F48091FC289091FD28009799F480913B
:10481000FE289091FF28009769F4809100299091DB
:104820000129009739F4809102299091032900977A
:1048300009F454C08091042990910529009761F5ED
:104840008091062990910729009731F580910829D8
:1048500090910929009701F580910A2990910B29DF
:104860000097D1F480910C2990910D290097A1F423
:1048700080910E2990910F29009771F48091102951
:1048800090911129009741F480911229882321F4F5
:1048900080911329813011F18091DC289091DD28DD
:1048A00025E08130920738F082E060E020E035E0DA
:1048B00040E050E009C08091F328823040F483E06A
:1048C00060E020E030E0A9010E949430C7C60E9459
:1048D00047618091F32881508F83C0C68091F4286E
:1048E0008E3F09F0B3C68091F528803809F0AEC636
:1048F0008091F4289091F528009759F58091F62839
:104900009091F728009729F58091F8289091F9283F
:104910000097F9F48091FA289091FB280097C9F448
:104920008091FC289091FD28009799F48091FE28B1
:104930009091FF28009769F48091002990910129B6
:10494000009739F48091022990910329009709F486
:104950007DC68091042990910529009769F5809181
:10496000062990910729009739F58091082990919F
:104970000929009709F580910A2990910B29009740
:10498000D9F480910C2990910D290097A9F4809178
:104990000E2990910F29009779F480911029909118
:1049A0001129009749F480911229882329F48091D4
:1049B0001329813009F44AC62F3F09F447C684E021
:1049C00099E20E940243882309F040C681E062E038
:1049D00078CFE091ED2DF091EE2D80818B32E9F1D1
:1049E0008C3248F4863009F488C1813109F4A5C0BD
:1049F000882389F059C08A3309F460C08B3320F4CE
:104A00008C3209F051C022C68B3309F41FC68C3397
:104A100009F04AC006C08091241380FD45C0816022
:104A200009C08091241381FF04C086FD3DC08064CD
:104A300001C08260809324130E94FA1F813009F420
:104A400005C6813018F0823021F608C68091251302
:104A5000E82FF0E0EC5EF64D1AC08091241382FD41
:104A600023C084608093241380912513282F30E085
:104A7000F901EC5EF64D9381992349F0265D3F4F95
:104A8000442737FD4095542F84E060E01DCFF0931C
:104A9000EE2DE093ED2D885F9181990F990F990F7D
:104AA000890F8093251395CFEC5EF8429F01442730
:104AB00037FD4095542F84E061E006CF0E94CC2062
:104AC000EFEF8F3F9E0709F0C1C5E0912513F0E09D
:104AD000E451F74D80A50E94402CE0912513F0E0B1
:104AE000E451F74D80A58638E1F0873838F48138F5
:104AF000C1F08538B1F08038A1F410C0883841F099
:104B0000883818F08B3969F406C00E94F1310DC065
:104B10000E947B340AC00E94395B07C00E94EF2FBD
:104B200004C01092DD281092DC288091DC2890913E
:104B3000DD28009709F48AC591C50E94B2218091B1
:104B4000DC289091DD28C0979093DD288093DC28A5
:104B50008CE199E29093F22D8093F12D80911A29A6
:104B600090911B29009739F00E94D420FFEF8F3FCE
:104B70009F0709F06BC5009116291091172901159F
:104B8000110509F463C583EB9EE29093F02D8093A9
:104B9000EF2D40C0888999890097B9F10817190746
:104BA000A1F58A899B89009739F0209114293091C9
:104BB00015292817390749F5888199810097E1F46B
:104BC0008A819B810097C1F48C819D810097A1F41B
:104BD0008E819F81009781F488859985009761F483
:104BE0008A859B85009741F48C859D85009721F4EB
:104BF0008E859F850097C1F084EF98E2BE0140E169
:104C000050E00E943067009779F06996D093F02DBC
:104C1000C093EF2DC091EF2DD091F02D2FE2CD3A22
:104C2000D20708F4B7CF12C51092F42D1092F32DCD
:104C300082E08093EC2D8CE199E29093F22D8093A9
:104C4000F12D9093DF288093DE281092B22E1092DF
:104C5000B12E0E94D72E8091B12E9091B22E009746
:104C600009F4F4C49C01205D3F4F3093DD2820936C
:104C7000DC2808969093F02828522093F128E091A0
:104C8000EF2DF091F02D24892093F32821E120933A
:104C9000F228C4E1D9E29827892798279D838C833D
:104CA0001F821E82808991899093152980931429EF
:104CB000828993899B838A83DE01509780E10190EA
:104CC0000D928150E1F784EF98E264E079E20E946E
:104CD0002D4788E299E29093F22D8093F12D0E9466
:104CE000D420809590959F838E83009709F0A4C46B
:104CF0008FEF9FEF9F838E839FC40E94B2210E94FB
:104D0000D020EFEF8F3F9E0709F0A0C404E119E225
:104D1000E0901629F0901729E114F10409F496C4E3
:104D2000C0901429D0901529C114D10409F48EC45F
:104D3000C5EFDDE2BDA0BB20A1F088899989E81606
:104D4000F90679F48A899B89C816D90651F484EF4B
:104D500098E2BE0140E150E00E943067009709F4FC
:104D60005EC1AC96FEE2C53ADF0721F780912129AA
:104D70008F738230B9F4F0922C13E0922B1320E061
:104D80000DC0E22FF0E0EE0FFF1FE755F14D8081DF
:104D900091812F5FE816F90609F45FC0243088F38B
:104DA00020932D138091212982FD50C484E1F801C4
:104DB00085878CE390E09093DD288093DC2880E564
:104DC000848780911B2990911F29978330911A29FC
:104DD00090911E29968332872091192990911D293F
:104DE000958321879091182990932D1340911C2928
:104DF000448390878F5F8387882361F4832F8F5F3D
:104E00008287882339F4822F8F5F8187882311F46A
:104E10009F5F9087809114299091152990932C136E
:104E200080932B132091162930911729309315293F
:104E300020931429F80193838283E4E0F9E2DF01EF
:104E4000509780E10D9001928150E1F784EF98E254
:104E500064E079E20E942D47D3C310922D1340E005
:104E6000C0E0D0E08CE290E026C0242F30E0289F04
:104E7000F001299FF00D389FF00D1124EB50F24DF9
:104E800025A1222321F440932D13EF0118C02730D0
:104E900089F4209721F036A12EA1231758F4242F4E
:104EA00030E0289FE001299FD00D389FD00D1124BC
:104EB000CB50D24D4F5F4430C0F240932D1320971A
:104EC00009F4C4C3D093F42DC093F32D83E08EA3D3
:104ED0008CA31AA284E08BA31FA280911629909123
:104EE0001729998B888B80911429909115299B8B78
:104EF0008A8BDE01E4EFF8E280E101900D928150AF
:104F0000E1F781E08DA380912713888F809128138A
:104F1000898F809129138A8F80912A138B8F81E04A
:104F200090E09D8F8C8F80911B298F8B80911A2907
:104F30008E8B809119298D8B809118298C8B81E023
:104F400090E00E94A82080912029282F30E0207F27
:104F50003070213531050CF449C082958F7090E096
:104F60000597880F991F880F991F50912E1340E0C5
:104F700034C0F901E451F74D54AD552329F4409361
:104F80002D1310922E1332C0513011F44F5F25C0F3
:104F90005230E1F465AD6430C9F440932D13509361
:104FA0002E1336AD20E087AD90E0822B932B9093AB
:104FB0002C1380932B13F4E0853C9F0710F084ECB6
:104FC00094E09F8F8E8F99A388A310C0275D364DE4
:104FD000F9012081222331F0420F242F30E02817DD
:104FE00039073CF240932D1350932E1380E18093A8
:104FF0002129E4E1F9E2809121298260858782E01C
:10500000848B84E0858B868B84EC878B80E490E0B6
:105010009093DD288093DC2880E68487B7C2D09304
:10502000F42DC093F32D1092EC2D8091212990E066
:1050300082FF03C01DA280E250C240912029429508
:105040004F70440F440F40932D132091DC28309172
:10505000DD2828523040241B31093093DD2820936D
:10506000DC284B2D50E04F7050704230510539F420
:10507000AC014F7350704231510551F429C0413099
:10508000510531F4AC014F7350704230510501F1BC
:105090002115310531F49C01237030702115310543
:1050A000B9F0309118292C89321779F430911929E7
:1050B0002D89321751F430911A292E89321729F48B
:1050C00030911B292F89321719F081FD8FCF52C2E1
:1050D00084FF4AC06C8D7D8D6115710509F444C053
:1050E000CE0148960E94702030911C298091E028C2
:1050F0003817D1F520911D298091E1282817A1F5B5
:1051000090911E298091E228981771F580911F29AE
:105110004091E328841741F5388F298F9A8F8B8F20
:105120008FA18823D1F42AA18CA19EA1891B922F43
:10513000969596959695891B280F2AA387FD8195AC
:105140009BA1392F36953695931B980F9BA3822FE1
:10515000869586958695890F8CA381E08093EC2DAA
:105160008CA18EA31D8E1C8E2DA130E0C9018F70E5
:1051700090708430910509F4B5C18530910564F4CF
:1051800082309105C9F1833091050CF0B9C08130AE
:10519000910509F05BC211C08630910509F4E2C1A6
:1051A000863091050CF4BEC18730910509F4E2C147
:1051B0008830910509F04AC28AC18091EC2D80FFA8
:1051C00014C083E08DA380E48093EC2D1D8E1C8E93
:1051D0008091DC289091DD28009709F410C122E429
:1051E0002093EC2D0E94A8200AC1809121298F7361
:1051F000823009F02BC2FACE8091EC2D80FF75C071
:10520000809121298F73823109F06FC0809120290C
:10521000282F30E0207F3070213531050CF449C053
:1052200082958F7090E00597880F991F880F991FBE
:1052300050912E1340E034C0F901E451F74D54ADC4
:10524000552329F440932D1310922E1332C0513060
:1052500011F44F5F25C05230E1F465AD6430C9F4FC
:1052600040932D1350932E1336AD20E087AD90E080
:10527000822B932B90932C1380932B13F4E0853C7B
:105280009F0710F084EC94E09F8F8E8F99A388A3E2
:1052900010C0275D364DF9012081222331F0420FE5
:1052A000242F30E0281739073CF240932D135093F8
:1052B0002E1383E08DA3809118298C8B809119295E
:1052C0008D8B80911A298E8B80911B298F8B81E089
:1052D00090E00E94A82082E48093EC2D1D8E1C8E0D
:1052E0001092DD281092DC288AC080E28093EC2D99
:1052F0000E94D72EE091F32DF091F42D15A252CDFE
:105300008091212980FF2AC024FD28C08C8D9D8D8D
:10531000009709F09BC18091DC289091DD280196CF
:105320000E94A8202091EC2D822F80618093EC2D8B
:105330008091DC289091DD28009719F0226120935C
:10534000EC2D0E94D72E81E090E09D8F8C8F88E01D
:105350008DA31FA281E1809321290FC185FF1CC06D
:105360005091262940E08091272990E0842B952BAD
:105370004091F12D5091F22D480F591F5093F22D6D
:105380004093F12D4091DC285091DD28481B590BAA
:105390005093DD284093DC288091DC289091DD2813
:1053A000009749F024FD07C02091EC2D2260209346
:1053B000EC2D0E94A8209091222980E020912329A1
:1053C000820F911D90932C1380932B1328A139A148
:1053D0002817390710F0009721F430932C132093ED
:1053E0002B1380912B1390912C139F8F8E8F809174
:1053F000EC2D90E083709070009709F427C1109213
:10540000B22E1092B12E0E94D72E8091EC2D85FFE6
:1054100007C01092B22E1092B12E1DA284E19BCF34
:1054200084FF0AC01092B22E1092B12E81E090E05B
:105430009D8F8C8F84E08CCF2091B12E3091B22E35
:1054400021153105E1F080FF02C01D8E1C8E8C8D70
:105450009D8D009781F48E8D9F8D8217930720F488
:105460009093B22E8093B12E8091B12E9091B22E56
:105470009D8F8C8F04C09093B22E8093B12E1FA26B
:105480008091DE289091DF289093F22D8093F12D6A
:105490008091B12E9091B22E009759F08C8D9D8DF8
:1054A000009739F0CC969093DD288093DC2888E132
:1054B0000BC08091EC2D81FFC9C08CE390E09093EC
:1054C000DD288093DC2880E1809321295CC08091D5
:1054D000EC2D80FFBBC01DA280E18093EC2D0E94CB
:1054E000D72EB4C08091DC289091DD28009711F070
:1054F0000E94A820909121298091EC2D90FF0BC053
:1055000080FF06C087E08DA31EA21D8E1C8E19C0D1
:1055100086E08DA316C080FF1EC085E08DA31D8E82
:105520001C8E94C08091DC289091DD28009711F0AA
:105530000E94A8208091212980FF0DC087E08DA3C3
:105540001EA281E090E00E94A82080E18093EC2DD3
:105550000E94D72E0FC08091DC289091DD28009703
:1055600049F474C08091EC2D80FF70C087E08DA35A
:105570001EA26CC080E1F80185878CE390E09093D7
:10558000DD288093DC2880E58093202904E119E25E
:105590008C89F80180878D8981878E8982878F89A0
:1055A0008387888D8483898D85838A8D86838B8D7F
:1055B000878386E08093F2288889998990931529BA
:1055C000809314298A899B8993838283D801509779
:1055D000FE0180E101900D928150E1F784EF98E2A5
:1055E00064E079E20E942D478DA184FF04C0F80198
:1055F0001786168605C084E0F801868784EC8787C5
:105600008091C32F8093F3288091DC289091DD282E
:105610009C01285230403093F02888528093F12822
:10562000C4E1D9E21B8A1A8A198A188A0E94D020FA
:1056300080959095998B888B80E68093EC281092CA
:10564000ED281092EF281092EE2808C01092DD2865
:105650001092DC2810922513109224131092EC2D36
:10566000DF91CF911F910F91FF90EF90DF90CF903E
:10567000BF900895382F292FC9010895382F292F59
:1056800040E050E076276727762780E090E0CB0166
:1056900077276627262B372B482B592BB901CA01B0
:1056A0000895AC01E091DE28F091DF28222733270E
:1056B0002E1B3F0B2451324D621773070CF49B01D4
:1056C0001216130664F42093B12E3093B22E4E17A7
:1056D0005F0729F0CF01BA01A9010E943D67089533
:1056E00083E493E10E943904009721F083E493E17D
:1056F0000E9424040895E0915013F09151133097C3
:1057000011F00995089580E00895909351138093C6
:1057100050130895209194093091950960E0E1E3D8
:10572000F3E113C0408151814817590761F4428168
:1057300053814217530739F460934F13118210823B
:105740000E945F22089534966F5F643058F360932F
:105750004F13089540E0E1E3F3E116C0542F5F5F7B
:10576000208131812115310569F440934E139183D5
:1057700080832091940930919509338322830E947C
:10578000792208953496452F443040F340934E13C8
:105790000895FC01809194099091950991A780A7A3
:1057A00073A762A70895FC018091940990919509CF
:1057B000968B858B708F678B0895CF93DF93EA016B
:1057C0000E94DC21FC01009741F0809194099091A6
:1057D0009509968B858BD08FC78BCF01DF91CF91A9
:1057E00008950F931F93DF93CF93CDB7DEB76097E4
:1057F0000FB6F894DEBF0FBECDBF8C01AB018FEFAB
:1058000092E09A8389831C821B821E821D821886E5
:105810001F821A8619861C861B861E861D8680E0BE
:1058200091E0988B8F87CE010196B8010E94DD2B05
:10583000FC01009711F0118B008BCF0160960FB621
:10584000F894DEBF0FBECDBFCF91DF911F910F91B6
:1058500008952091A52E3091A62E2115310571F4C1
:1058600020919409309195093093A62E2093A52E6E
:105870009093A82E8093A72E80E0089581E008954C
:10588000DF93CF930F92CDB7DEB789838091A52E9A
:105890009091A62E009739F06091AE2FAE014F5F28
:1058A0005F4F0E9417170F90CF91DF91089584E703
:1058B00093E062E040E050E00E9417171092DD286C
:1058C0001092DC281092251308950F931F93CF9305
:1058D000DF938091DC289091DD28009709F412C1B4
:1058E00025E08130920708F0FEC004E019E28091C3
:1058F000042990910529009759F5809106299091E6
:105900000729009729F58091082990910929009786
:10591000F9F480910A2990910B290097C9F480919C
:105920000C2990910D29009799F480910E2990915E
:105930000F29009769F480911029909111290097FF
:1059400039F48091122990911329009709F4CBC062
:10595000809104298F3F09F4CBC084E099E20E9432
:105960000243882379F484E099E20E943846009744
:1059700031F40E943D428C01009721F4B4C08C01A7
:105980000D5E1F4FC8010E94D261009709F0ABC0A5
:10599000C8010E946641EC01009709F051C0C8019E
:1059A00060E070E040E020E00E94BF40EC01009722
:1059B00009F499C08C01025D1F4FC80160E072E0DC
:1059C0000E94CF35009799F0C8010E940A362CEE4C
:1059D00038E24091DC285091DD28B9010E943D67F2
:1059E0006091DC287091DD28C8010E94263684EF82
:1059F00098E20E943243AE014F5F5F4F009719F06B
:105A000084EF98E202C080E090E060E070E00E94E5
:105A1000A4336091CC2F7091CD2F8091CE2F909197
:105A2000CF2F28EE33E040E050E00E949266CE0196
:105A30008196BA01A9010E94F76381E08BA758C043
:105A40008DA58823E9F4AE96CE0160E072E00E9455
:105A5000CF35009709F447C0CE010E940A362CEEDC
:105A600038E24091DC285091DD28B9010E943D6761
:105A70006091DC287091DD28CE010E94263633C06B
:105A8000823059F483E08DA7CE01499645E050E07D
:105A900060E070E00E94F7631BA68E010F5E1F4F4F
:105AA000C8010E947B2BAE96CE010E94173600974C
:105AB000D1F0CE010E9417369093DD288093DC2828
:105AC000CE010E940A36BC012CEE38E24091DC285F
:105AD0005091DD28C9010E943D67CE010E94F43536
