:100000000C9406020C9425020C9425020C942502F3
:100010000C9425020C9425020C9425020C942502C4
:100020000C9425020C9425020C9425020C942502B4
:100030000C9425020C945F490C9425020C94250223
:100040000C9425020C9425020C9425020C94250294
:100050000C9451130C94820A0C9425020C942502E2
:100060000C9425020C94F70A0C9425020C9425029A
:100070000C9425020C9425020C9425020C94250264
:100080000C94FC470C9425020C9425020C94250238
:100090000C94260B0C9425020C9425020C9425023A
:1000A0000C9425020C9425020C9425020C94250234
:1000B0000C9425020C9425020C9425020C94250224
:1000C0000C9425020C9425020C9425020C94250214
:1000D0000C9425020C9425020C9425020C94250204
:1000E0000C9425020C940A130C9414130C94001312
:1000F0000C94BA120C9445130C9436130C942A13D6
:100100000C941E130C9425020C9425020C942502C9
:100110000C9425020C9425020C9425020C942502C3
:10012000257325730A004E657665722D75736564B7
:1001300020737461636B203E2025642062797465AE
:10014000730A000A2D2D2D2D2D2D2D2D2D0A002069
:10015000203C6E6F6E653E002920256C75730A0089
:100160002F2575202876696120000A526F75746505
:1001700073205B2575206D61785D0A0020203C6E40
:100180006F6E653E000A000A4E65696768626F72AD
:1001900073205B2575206D61785D0A000A000A41B5
:1001A0006464726573736573205B2575206D617877
:1001B0005D0A002578003A003A3A004F6E6C696E8D
:1001C000650A00526F7574696E6720456E61626CD6
:1001D00065640A0052504C20456E61626C65640A89
:1001E0000025732025732C206368616E6E656C207A
:1001F0002575202C20636865636B2072617465200F
:10020000257520487A20747820706F7765722025D4
:10021000750A004555492D3634204D41433A202575
:10022000782D25782D25782D25782D25782D257864
:100230002D25782D25780A0052616E646F6D20455A
:100240005549363420616464726573732067656E46
:100250006572617465640A000A2A2A2A2A2A2A2AEF
:10026000426F6F74696E672025732A2A2A2A2A2A08
:100270002A0A00020000FFFE00000141544D4547DC
:100280004131323872666131006C6F63616C686F46
:10029000737400454550524F4D20697320636F724F
:1002A000727570742C20726577726974696E67203C
:1002B000776974682064656661756C74732E0A00D2
:1002C000452025642E256420636C6F636B20256CAC
:1002D000752063707520256C75206C706D20256C01
:1002E000752069727120256C7520676C6564202506
:1002F0006C7520796C656420256C7520726C656462
:1003000020256C7520747820256C75206C697374B9
:10031000656E20256C752073656E736F7273202572
:100320006C752073657269616C20256C750A0053C9
:100330002025642E256420636C6F636B20256C750B
:1003400020747820256C7520727820256C752072B9
:10035000747820256C752072727820256C75207257
:1003600065786D697420256C752061636B747820E5
:10037000256C75206E6F61636B747820256C752019
:1003800061636B727820256C752074696D65646F8C
:10039000757420256C752062616461636B727820CE
:1003A000256C7520746F6F6C6F6E6720256C7520DF
:1003B000746F6F73686F727420256C75206261644E
:1003C00073796E636820256C752062616463726363
:1003D00020256C7520636F6E74656E74696F6E6432
:1003E000726F7020256C752073656E64696E67642A
:1003F000726F7020256C75206C6C747820256C757C
:10040000206C6C727820256C750A000011241FBEC8
:10041000CFEFD1E4DEBFCDBF13E0A0E0B2E0EAED64
:10042000F3ED00E00BBF02C007900D92A63DB107AF
:10043000D9F719E3A6EDB3E001C01D92AD36B107BF
:10044000E1F70E942E070C94EB690C940000EF92E8
:10045000FF920F931F93DF93CF93CDB7DEB76097D3
:100460000FB6F894DEBF0FBECDBF7C01FC018081CA
:1004700091818C35910501F180369105C9F1009784
:1004800009F06EC08FEF84B985B980BB81BB86ED62
:1004900093E062ED74E040E050E022ED34E003ECE4
:1004A00012E00E94F1048AEF93E060E872E00E949B
:1004B000C7038CE590E018C08AEF93E00E94F20336
:1004C000009709F452C08AEF93E00E94D2030E9481
:1004D000500460E872E00E94B965BC0182EF93E0CD
:1004E0000E94C70380E690E0F701918380833DC0BE
:1004F00082EF93E00E94F2030097B9F180E092E06E
:100500000E94AE668FEF92E09A8389831C821B82E1
:100510001E821D8218861F821A8619861C861B86DB
:100520001E861D8680E091E0988B8F8786ED93E094
:1005300062E172E04BE050E09E012F5F3F4F0E946E
:10054000DE0485B18F3F11F415B802C08FEF85B975
:1005500081B38F3F11F411BAACCF8FEF81BBA9CF1C
:10056000F7011182108283E001C081E060960FB62E
:10057000F894DEBF0FBECDBFCF91DF911F910F91D9
:10058000FF90EF900895EF92FF9200D000D08EE19F
:1005900092E0EDB7FEB792838183F482E3820E94FA
:1005A0007C660F900F900F900F90FF90EF90089542
:1005B0008091020490910304009729F4109205049D
:1005C0001092040408950E94BD09E0910204F09184
:1005D00003042281338140815181240F351F281B60
:1005E000390B0CC04281538160817181460F571FC6
:1005F000481B590B4217530708F49A010480F581F0
:10060000E02D309779F7280F391F30930504209398
:10061000040408958FE592E00E948A160895CF920F
:10062000DF92EF92FF920F931F93CF93DF937C01A2
:10063000FC0180819181009729F08A35910509F0AC
:100640006EC00BC010920304109202048AE590E081
:10065000F7019183808381E066C0673849F5CA015C
:10066000E0910204F091030403C00480F581E02DC1
:10067000309741F32681378128173907B1F3E0938A
:100680000204F09303040FC016962D913C91179726
:100690002817390739F414962D913C911597358315
:1006A0002483DF01FD01A481B581109769F7CECFC6
:1006B000623861F6C0910204D091030400E010E0BA
:1006C0002BC0CE010E9485170097F1F08E819F818B
:1006D00068E8AE010E9435160097A1F41F821E82C1
:1006E0008C819D810115110521F0F801958384838A
:1006F00004C090930304809302041D821C820E9414
:10070000D802D8CF0E940A038E019C818D81C92E08
:10071000E6016E01D82EE601209799F697CFF701F2
:100720001182108283E0DF91CF911F910F91FF9092
:10073000EF90DF90CF900895CF93DF93EC010E946C
:100740000A038E819F81009769F0E0910204F09185
:10075000030406C0EC17FD07A9F00480F581E02D25
:100760003097C1F780919409909195099F838E836A
:1007700080910204909103049D838C83D0930304A1
:10078000C09302040E94D802DF91CF910895CF93C5
:10079000DF93EC010E946517CE010E949C03DF915C
:1007A000CF910895CF93DF93EC010E947117CE0192
:1007B0000E949C03DF91CF910895CF93DF93EC01CA
:1007C0000E947B17CE010E949C03DF91CF91089578
:1007D000FC0180819181860F971F918380830E9405
:1007E000D802089521E030E0FC01868197810097CE
:1007F00011F020E030E0C9010895FC01228133812D
:1008000080819181280F391FC9010895FC018081E1
:100810009181089521E030E08091020490910304D9
:10082000009711F420E030E0C9010895809102049E
:1008300090910304009729F020910404309105045D
:1008400002C020E030E0C9010895CF93DF93EC01AE
:10085000E0910204F09103048E179F0741F48C810C
:100860009D81909303048093020414C0FC0130978F
:1008700031F0848195818C179D07C1F707C01D82D7
:100880001C821F821E82DF91CF9108958C819D81F1
:10089000958384830E94D802F2CF0E944266089515
:1008A0000E943D6608958F929F92AF92BF92CF9221
:1008B000DF92EF92FF920F931F93CF93DF935C0130
:1008C000FC0180819181009729F08B3A910509F014
:1008D0004EC007C08BEA90E0F5019183808381E0F0
:1008E0004AC08091822F6817A9F7E42EE7017E01A4
:1008F000F52EE701209771F38091C12D81FFEACF9A
:10090000C090B128D090B22886E0E82E84E0F82E7E
:100910006091C62D7091C72DC701A6010E945A662D
:10092000EE89FF893097B1F28090940990909509F3
:100930008A8D9B8D90939509809394094091E92825
:100940005091EA285427452754270091EB2810910D
:10095000EC28102701271027CE0169EC78E229ED59
:1009600038E209959092950980929409B3CFF501E8
:100970001182108283E0DF91CF911F910F91FF9040
:10098000EF90DF90CF90BF90AF909F908F900895A1
:100990000F931F93FC01808D918D009751F09F0163
:1009A0002E5F3F4F028913891027012710270E94CD
:1009B000792E80E090E01F910F9108950F931F937F
:1009C000FC01808D918D009739F0028913891027E1
:1009D000012710270E94792E80E090E01F910F914F
:1009E0000895AF92BF92CF92DF92EF92FF920F9352
:1009F0001F93CF93DF93EC015B017A016901809132
:100A00000609882349F48CE792E060E070E00E94D8
:100A1000671681E080930609BD8AAC8ADB8ACA8AA0
:100A2000E114F10441F0DE011296F70180E101903A
:100A30000D928150E1F71F8B0E8B0091940910915C
:100A400095098CE792E090939509809394097C2D09
:100A50006D2DC701AE010E94182B998F888F0097CA
:100A600029F03A2D2B2DFC01318B208B1093950909
:100A70000093940921E030E0888D998D009711F45E
:100A800020E030E0C901DF91CF911F910F91FF90DD
:100A9000EF90DF90CF90BF90AF9008956F927F92CC
:100AA0008F929F92AF92BF92CF92DF92EF92FF927E
:100AB0000F931F93CF93DF93E82EE7017E01F92E6A
:100AC000E7017724662423EBC22E21E0D22E96EB99
:100AD000A92E91E0B92E88EB882E81E0982E01C0D6
:100AE0007E2C188100E089817801E80EF11CE11468
:100AF000F10481F477FC10C0E72CE394772049F5EA
:100B000000D0EDB7FEB7928281820E948E660F9070
:100B10000F901FC0171464F0662061F000D0EDB78D
:100B2000FEB7B282A1820E948E660F900F9002C023
:100B300077247A9400D000D0EDB7FEB7D282C1827C
:100B4000F482E3820E948E660F900F900F900F90B8
:100B5000E72CF2E06F0E2296862D803109F0C0CF8F
:100B6000DF91CF911F910F91FF90EF90DF90CF9089
:100B7000BF90AF909F908F907F906F900895E6E424
:100B8000F1E03081208190818081829586958695E3
:100B90008370307C830F269526952073820F929563
:100BA0009C70890F0895BF92CF92DF92EF92FF92CF
:100BB0000F931F93DF93CF93CDB7DEB728970FB670
:100BC000F894DEBF0FBECDBF0E94D90B0E94E50B8B
:100BD00081E069E146E00E94550B81E061E377E145
:100BE0000E949C0B81E00E94D00B0E94AD0984B74B
:100BF00084B784B784B784B7EDE6F9E322E432E43E
:100C0000318320833A968DB79EB70A97E817F90784
:100C1000B8F300D000D088E592E0ADB7BEB7129629
:100C20009C938E93119786E892E014969C938E93F2
:100C300013970E948E660F900F900F900F900E9456
:100C400093190E94B3158FE592E060E070E00E9476
:100C500067160E942418E091B702F091B802099536
:100C60000E94BF0590E00E944D04CE0101960E94B3
:100C70009409882359F000D088E392E0EDB7FEB7DD
:100C8000928381830E948E660F900F90A9EBB8E249
:100C9000FE01319688E001900D928150E1F78E01BE
:100CA0000F5F1F4FC8010E9488130E949E097C019C
:100CB0000E94A309BC01C701A8010E94010F0E9464
:100CC000FC080E94E60E0E94A8090E9491102DB710
:100CD0003EB7225130400FB6F8943EBF0FBE2DBF35
:100CE000EDB7FEB7319683E192E0ADB7BEB712968D
:100CF0009C938E9311978981828313828A81848346
:100D000015828B81868317828C81808711868D81E5
:100D1000828713868E81848715868F8186871786C2
:100D20008885808B118A0E948E66EDB7FEB7729619
:100D30000FB6F894FEBF0FBEEDBF0E94CB1DE09131
:100D40000703F09108030995E091EE02F091EF029C
:100D50000995E0919803F091990309950091EC02AF
:100D60001091ED02C0900503D09006030E94E30E9F
:100D7000B82EE0901303F0901403F7010995009743
:100D800049F0F7010995BC0180E890E00E94B9653F
:100D90007B0103C030E8E32EF12C0E9494102DB7A4
:100DA0003EB72C5030400FB6F8943EBF0FBE2DBF5B
:100DB000EDB7FEB7319621EE31E0ADB7BEB7129672
:100DC0003C932E93119713830283D582C482B682FB
:100DD0001782F186E086828713860E948E66EDB7C1
:100DE000FEB73A960FB6F894FEBF0FBEEDBF84ED86
:100DF00091E0928381830E948E6683EC91E0ADB78F
:100E0000BEB712969C938E9311970E948E660F9098
:100E10000F908BE693E060E070E00E9467168FE42D
:100E200092E00E94A01600D08BEB91E0EDB7FEB7E8
:100E3000928381830E948E660F900F9028960FB642
:100E4000F894DEBF0FBECDBFCF91DF911F910F9100
:100E5000FF90EF90DF90CF90BF9008952F923F9238
:100E60004F925F926F927F928F929F92AF92BF92BA
:100E7000CF92DF92EF92FF920F931F93CF93DF9366
:100E80000E94D305A6E2CA2EA1E0DA2EFEE9AF2E1B
:100E9000F1E0BF2EECE98E2EE1E09E2E77E8672E82
:100EA00071E0772E60E3462E512C55E8252E51E057
:100EB000352E0E94C3150E94F10B80910726909158
:100EC0000826009729F0019790930826809307261B
:100ED000E0900926F0900A2600910B2610910C262E
:100EE0000E94CA09E616F7060807190711F30E94BF
:100EF000CA096093092670930A2680930B26909363
:100F00000C262CE330E040E050E00E94CD656115F6
:100F100071058105910511F40E94D119609109268E
:100F200070910A2680910B2690910C2628E532E0DC
:100F300040E050E00E94CD65623071058105910569
:100F400009F009C100D000D0ADB7BEB71296BC926F
:100F5000AE92119784E090E014969C938E93139731
:100F60000E948E6606EA1FE20F900F900F900F907E
:100F7000C0E0D0E04CE1E42EF12CF8018081882320
:100F8000B1F0CE9DC001CF9D900DDE9D900D11243E
:100F90008955904D0E944E0500D0ADB7BEB7129650
:100FA0009C928E9211970E948E660F900F902196C0
:100FB000045E1F4FC430D10501F700D000D0EDB75B
:100FC000FEB77282618284E190E0948383830E9401
:100FD0008E660DE511E30F900F900F900F90C0E01B
:100FE000D0E081E0D8019C919923A9F0C49DC00173
:100FF000C59D900DD49D900D1124825A9E4C0E9447
:101000004E0500D0EDB7FEB7328221820E948E6677
:101010000F900F9080E02196005D1F4FC431D105E5
:1010200009F7882369F000D0ECE7F1E0ADB7BEB76F
:101030001296FC93EE9311970E948E660F900F907C
:1010400000D000D0EAE6F1E0ADB7BEB71296FC934F
:10105000EE93119784E190E014969C938E931397EE
:101060000E948E66CDE1D5E30F900F900F900F9008
:1010700000E010E081E09881992309F449C08EE2F4
:1010800090E0089F7001099FF00C189FF00C11244C
:10109000C701825E9A4C0E944E0500D000D0EDB789
:1010A000FEB7319680E691E0ADB7BEB712969C933D
:1010B0008E9311978989828313820E948E660F9086
:1010C0000F900F900F90C701805D9A4C0E944E05C3
:1010D00000D000D000D0E8E5F1E0ADB7BEB7129681
:1010E000FC93EE9311978BA19CA1ADA1BEA1EDB78E
:1010F000FEB783839483A583B6830E948E668DB7E3
:101100009EB706960FB6F8949EBF0FBE8DBF80E0C7
:101110000F5F1F4FAE960431110509F0ACCF882345
:1011200069F000D0EFE4F1E0ADB7BEB71296FC93E2
:10113000EE9311970E948E660F900F9000D0E3E41B
:10114000F1E0ADB7BEB71296FC93EE9311970E94F3
:101150008E660F900F908091092690910A26A0919B
:101160000B26B0910C269370A070B070833091055F
:10117000A105B10509F09DCEEDE6F9E380819181ED
:1011800022E482349207A9F000D000D0ADB7BEB7F8
:101190001296DC92CE921197ED56F9431496FC9379
:1011A000EE9313970E948E660F900F900F900F9002
:1011B00080CE3A96B1E4E53FFB0700F37ACE00D04B
:1011C00000D000D0EDB7FEB7319620E231E0ADB7E8
:1011D000BEB712963C932E931197938382837583A7
:1011E00064830E948E668DB79EB706960FB6F894FC
:1011F0009EBF0FBE8DBF08950F931F93DF93CF93B4
:10120000CDB7DEB7A2970FB6F894DEBF0FBECDBF45
:1012100082E290E00E940D6989839A83982F9B5007
:10122000903108F08A839A819095891709F470C0EB
:1012300000D083E992E0ADB7BEB712969C938E932F
:1012400011970E948E668E010D5F1F4F0F900F90B9
:10125000D80180E090E0FC01ED58FD4FE491ED9362
:10126000019688309105B9F7F894CE01039660E0B5
:1012700070E048E050E00E941369D80180E090E0FF
:10128000FC01E558FD4FE491ED9301968E309105F8
:10129000B9F7CE01039668E070E04EE050E00E949E
:1012A000136980E090E0FC01E757FD4FE491D8011D
:1012B000ED938D0101968A309105A9F7CE01039631
:1012C00066E170E04AE050E00E94136984E290E039
:1012D0006DEC7BEA0E942B6986E290E060E070E0B2
:1012E0000E942B6988E290E060E00E941D6980E224
:1012F00090E060E070E00E942B698AE1898385EECE
:101300008A8369817A8182E290E00E942B697894D5
:101310008981A2960FB6F894DEBF0FBECDBFCF91E4
:10132000DF911F910F910895F89460E070E048E01C
:1013300050E00E94F568789480E0089584E290E09F
:101340000E940D69089586E290E00E940D6908955B
:1013500088E290E00E9405690895F8941092B60022
:1013600016BC83EF87BD82E084BD94E095BD95B344
:1013700095BB80936E007894089520910709309171
:101380000809809107099091080928173907A9F7DA
:10139000C9010895209115263091162640911726EF
:1013A000509118268091152690911626A091172607
:1013B000B0911826281739074A075B0759F7B90172
:1013C000CA010895609315267093162680931726F8
:1013D000909318260895CF93DF93EC010E94BD09E6
:1013E000C80FD91F0E94BD098C1B9D0B97FDFACF1A
:1013F000DF91CF9108958430910548F00397880FCD
:10140000991F880F991F969587950197F1F7089571
:10141000CF93DF93EC0184EE93E005C00E94FB09BB
:10142000219787EE93E02097C9F7DF91CF91089538
:101430000F931F931FB7F894209107093091080963
:10144000280F391F309308092093070920910909B3
:10145000FC01E20FF11D0091B927609111267091F6
:1014600012268091132690911426DF012CC0A058DB
:10147000B0402091152630911626409117265091A4
:1014800018262F5F3F4F4F4F5F4F20931526309305
:10149000162640931726509318260023A1F020917A
:1014A0000D2630910E2640910F26509110262F5F69
:1014B0003F4F4F4F5F4F20930D2630930E264093A2
:1014C0000F2650931026A038B10588F69F01220FF1
:1014D000232F221F330B319540E050E0260F371F9A
:1014E000481F591F2093112630931226409313262C
:1014F00050931426EF77F070E09309091FBF1F91F6
:101500000F9108951F920F920FB60F920BB60F9284
:1015100011242F933F934F935F936F937F938F93F8
:101520009F93AF93BF93EF93FF938091070990919F
:101530000809019690930809809307098091090989
:101540008F5F809309098091090987FF15C0109268
:1015500009098091152690911626A0911726B09121
:1015600018260196A11DB11D80931526909316266D
:10157000A0931726B09318268091B9278823F1F0FD
:1015800080910A098F5F80930A0980910A0987FF79
:1015900015C010920A0980910D2690910E26A091F7
:1015A0000F26B09110260196A11DB11D80930D2626
:1015B00090930E26A0930F26B09310260E940A0443
:1015C000009711F00E940A03FF91EF91BF91AF9134
:1015D0009F918F917F916F915F914F913F912F914B
:1015E0000F900BBE0F900FBE0F901F9018951F927B
:1015F0000F920FB60F920BB60F9211242F933F93B9
:101600004F935F936F937F938F939F93AF93BF930A
:10161000EF93FF938091C600E0911B26F0911C266A
:10162000309709F00995FF91EF91BF91AF919F918C
:101630008F917F916F915F914F913F912F910F907B
:101640000BBE0F900FBE0F901F9018951F920F9218
:101650000FB60F920BB60F9211242F933F934F9317
:101660005F936F937F938F939F93AF93BF93EF930A
:10167000FF938091CE00E0911926F0911A263097C1
:1016800009F00995FF91EF91BF91AF919F918F91D3
:101690007F916F915F914F913F912F910F900BBE72
:1016A0000F900FBE0F901F901895882371F4109221
:1016B000C5006093C40088E98093C1004093C200D4
:1016C00010921C2610921B260895813069F4109206
:1016D000CD006093CC0088E98093C9004093CA0094
:1016E00010921A26109219260895882339F48091B1
:1016F000C00085FFFCCF6093C6000895813031F4AF
:101700008091C80085FFFCCF6093CE0008951F93A1
:10171000182F8A3031F480910B096DE00E94750B0F
:1017200002C08D3029F080910B09612F0E94750B4A
:1017300080E090E01F910895882329F470931C267F
:1017400060931B260895813021F470931A266093CC
:1017500019260895EF92FF921F93CF93DF93182FCE
:10176000E62EE7017E01F72EE7010CC08A3021F456
:10177000812F6DE00E94750B69916D3019F0812FFA
:101780000E94750B8881882389F7DF91CF911F9183
:10179000FF90EF900895682F80E00E94750B0895E8
:1017A00080930B0982E992E090936A3980936939BA
:1017B000089584B7877F84BF88E10FB6F89480933B
:1017C0006000109260000FBE08952FE088E190E065
:1017D0000FB6F894A895809360000FBE2093600028
:1017E0000895A895089588E10FB6F8948093600055
:1017F000109260000FBE0895F89428E088E190E010
:101800000FB6F894A895809360000FBE20936000F7
:10181000FFCF80912D2690E0FC01EE0FFF1F9695E3
:10182000982F882797958795E80FF91FE25DF94D66
:10183000108208958091242690E0089580913901C6
:1018400081FD0CC081E491E06FE140E00E946312F1
:10185000813039F021E030E0813129F020E030E0C2
:1018600002C021E030E0C90108958091390181FD75
:1018700012C081E491E06FE140E00E946312982F72
:101880008151823050F09F3141F0913041F081E040
:10189000923031F402C081E0089580E0089580E044
:1018A0000895CF93DF93C0E1D7E20E94350C8823DF
:1018B00011F42197D1F7DF91CF910895E9E3F1E099
:1018C000808180818D7F80838DE090E00197F1F7AA
:1018D00082E491E06FE140E023E00E946D1283E03A
:1018E00090E00197F1F708950E94510C0E945E0C60
:1018F0008091390182608093390180914228882348
:10190000E9F18091940090919500209153283091B5
:10191000542882179307A0F480911F2890912028C3
:10192000A0912128B09122288C57914EAF4FBF4FE4
:1019300080931F2890932028A0932128B0932228D9
:101940008091940090919500821B930BA0E0B0E0F1
:1019500020911F2830912028409121285091222841
:10196000820F931FA41FB51F80931F2890932028D8
:10197000A0932128B0932228109242281092B927D0
:10198000809144288823E9F18091940090919500FA
:10199000209157283091582882179307A0F48091FE
:1019A000272890912828A0912928B0912A288C577F
:1019B000914EAF4FBF4F8093272890932828A09334
:1019C0002928B0932A288091940090919500821B39
:1019D000930BA0E0B0E02091272830912828409177
:1019E000292850912A28820F931FA41FB51F809386
:1019F000272890932828A0932928B0932A2810926A
:101A0000442808958091B927882321F00E94350C3D
:101A10000E94740C80E090E008959091390191FD4E
:101A20000AC0282F803108F02FE085E491E06FE0B4
:101A300040E00E946D120895B82FA92FF62FE72FCE
:101A40002091C2273091C3274091C4275091C527C8
:101A50002F5F3F4F4F4F5F4F2093C2273093C327D5
:101A60004093C4275093C527862F8E5F87FF0CC0F5
:101A70008091B6279091B72701969093B7278093CE
:101A8000B6272FEF3FEF0BC02CE039E0C9016B2FD9
:101A90007A2F4F2F5E2F0E945A6620E030E0C90156
:101AA000089581E491E06FE140E00E94631208959F
:101AB0000F931F93182F883049F0863039F0893002
:101AC00029F0863119F0893109F041C0809139013E
:101AD00081FD40C00E94510C0E94510D082F181723
:101AE00009F43BC0183019F40E945E0C29C019316A
:101AF00041F48631A9F482E491E06FE140E029E00D
:101B000009C0163169F4893159F482E491E06FE13A
:101B100040E026E00E946D12E3E0F0E03197F1F73B
:101B200082E491E06FE140E0212F0E946D120830C5
:101B300019F4E9E6F1E002C0E3E0F0E03197F1F7F3
:101B40000E94510D811749F023E430E008C022E4DF
:101B500030E005C024E430E002C020E430E0C901F8
:101B60001F910F910895809194009091950090930A
:101B700058288093572821E0209344282093B927A0
:101B80008091390181FF16C0809194009091950059
:101B90009093542880935328209342282093B82769
:101BA0007894809139018D7F809339018091B82795
:101BB0008823E1F786E10E94580D0E94510C089598
:101BC0008091B927882311F40E94B30D81E090E041
:101BD00008950F931F938091B927882359F080911E
:101BE000390181FD74C00E94350C882309F46FC04F
:101BF00000E003C00E94E00D01E08091940090910C
:101C00009500909352288093512811E01093412819
:101C1000789486E00E94580D109325261092470173
:101C2000809125268823E1F7809147018E3010F0BE
:101C300010E001C01FEF86E10E94580D80914128FD
:101C40008823E9F18091940090919500209151288A
:101C50003091522882179307A0F480911B2890910D
:101C60001C28A0911D28B0911E288C57914EAF4F73
:101C7000BF4F80931B2890931C28A0931D28B093DE
:101C80001E288091940090919500821B930BA0E0F8
:101C9000B0E020911B2830911C2840911D285091C4
:101CA0001E28820F931FA41FB51F80931B2890939B
:101CB0001C28A0931D28B0931E28109241280023B1
:101CC00011F00E94020D21E030E016FD02C020E07C
:101CD00030E0C9011F910F91089580938E090895F6
:101CE0000E94510D8250813130F4E82FF0E0E5532D
:101CF000FD4F8081089581E00895282F8EE691E0C0
:101D000060E245E00E946D1208958FEF80934E01CE
:101D10008CE691E060EF44E022E00E946D128CE6D8
:101D200091E06EE041E025E00E946D1280E8809332
:101D30006F018091460180936D0184E491E060E23F
:101D400045E021E00E946D120895CF93DF93CDEF1F
:101D5000D3E0CE010197F1F70E945E1210922E2679
:101D60001092B0261092322710922D2610922C2617
:101D7000E9E3F1E080818E7F808380818D7F8083A5
:101D800081EC9DE00197F1F780818160808382E49E
:101D900091E06FE140E023E00E946D122197F1F79E
:101DA00080915D0180915E010E94850E8DEA92E036
:101DB00060E070E00E9467160E94B30D81E090E041
:101DC000DF91CF91089580918D090895DF93CF938E
:101DD0000F92CDB7DEB789830E94510C29812093E1
:101DE0008D0988E491E06FE140E00E946D120F9050
:101DF000CF91DF9108950E94E60E86E00E94580D73
:101E000008958093620190936301609360017093E1
:101E100061014115510531F1FA01819180936B0106
:101E2000DA0111968C9180936A01DF01119681810C
:101E300080936901FD01319611968C918093680120
:101E4000DF011196818180936701FD013196119622
:101E50008C911197809366018181809365018281C5
:101E60008093640108958DEA92E00E948A1681E0D1
:101E70008093242680912626909127260196909380
:101E80002726809326268091062890910728A091E6
:101E90000828B09109280196A11DB11D809306283C
:101EA00090930728A0930828B093092881E090E038
:101EB0000895EF92FF92CF93DF9350912D26252F17
:101EC00030E0F901EE0FFF1F3695322F22273795AC
:101ED0002795E20FF31FE25DF94D4081442309F499
:101EE000CEC02091390121FDCAC02091B9272223FB
:101EF00009F4C5C047FF16C00E94090C8091F22763
:101F00009091F327A091F427B091F5270196A11D98
:101F1000B11D8093F2279093F327A093F427B093F9
:101F2000F527ADC04330B0F40E94090C8091EE2734
:101F30009091EF27A091F027B091F1270196A11D74
:101F4000B11D8093EE279093EF27A093F027B093D5
:101F5000F12795C0C42FD0E022976C177D07B0F40D
:101F60000E94090C8091EA279091EB27A091EC2721
:101F7000B091ED270196A11DB11D8093EA279093A2
:101F8000EB27A093EC27B093ED2779C0652F70E085
:101F90009B01220F331F7695762F662777956795DD
:101FA000260F371F215D394DB90150E00E945A6656
:101FB00020912D26822F90E0FC01EE0FFF1F9695B9
:101FC000982F882797958795E80FF91FE255F94DC7
:101FD000808180931D26822F90E0FC01EE0FFF1F71
:101FE0009695982F882797958795E80FF91FE25DBA
:101FF000F94D10822F5F20932D26233010F0109280
:102000002D2680912D2690E0FC01EE0FFF1F969566
:10201000982F882797958795E80FF91FE25DF94D6E
:102020008081882311F00E94330F609147016093F3
:102030001E2680912326882311F0681710F46093E0
:10204000232684E070E00E949F1D60911D2683E09E
:1020500070E00E949F1D8091C6279091C727A09194
:10206000C827B091C9270196A11DB11D8093C6272D
:102070009093C727A093C827B093C92702C0C0E098
:10208000D0E0CE01DF91CF91FF90EF9008950F93B4
:102090001F93DF93CF930F92CDB7DEB78C01FC0176
:1020A00080819181009729F0F5E081319F0769F5E2
:1020B00006C081E195E0F801918380832BC06238EE
:1020C00049F5109224260E94191D8FB78983F89430
:1020D0000E94731C60E870E00E94590F29812FBF95
:1020E0001816190644F40E946E1CE0910D03F0913D
:1020F0000E030995DECF809121269091222601962C
:102100009093222680932126D4CFF8011182108249
:1021100083E001C081E00F90CF91DF911F910F917B
:1021200008950E940D0D08958091390181FD07C029
:1021300085E491E06FE040E00E946312089580E141
:102140000895DF92EF92FF920F931F93CF93DF9347
:10215000D82E8091390181FF1AC08091940090910E
:102160009500909354288093532881E080934228CF
:102170008093B827809139018D7F8093390180E168
:1021800097E22091B827222311F00197D1F70E94FE
:10219000510C8091B927882309F441C080914428CB
:1021A0008823E9F12091940030919500809157287F
:1021B0009091582828173907A0F4209127283091AA
:1021C00028284091292850912A282C57314E4F4FCA
:1021D0005F4F209327283093282840932928509335
:1021E0002A282091940030919500281B390B40E05B
:1021F00050E0E0902728F09028280091292810919D
:102200002A282E0D3F1D401F511F20932728309351
:1022100028284093292850932A281092442889E19D
:102220000E94580D86E00E94AA1D009751F00E945E
:102230009410C82F86E00E94AA1D81500E940D0DA7
:1022400002C0C0E0D0E080919400909195009093FE
:1022500056288093552881E080934328F8948091F4
:102260003901826080933901809139018D7F80939B
:1022700039016D2D6E5F8CE099E00E94AB1278946D
:102280008091B4279091B52701969093B5278093BC
:10229000B4270E94510C82E491E060EE45E00E9478
:1022A0006312182F86E00E94AA1D009719F08C2F48
:1022B0000E940D0D809143288823E9F1209194001C
:1022C000309195008091552890915628281739070C
:1022D000A0F4209123283091242840912528509162
:1022E00026282C57314E4F4F5F4F20932328309391
:1022F000242840932528509326282091940030913B
:102300009500281B390B40E050E060912328709124
:1023100024288091252890912628260F371F481FB2
:10232000591F209323283093242840932528509325
:102330002628109243288091B927882371F0809134
:10234000940090919500909358288093572881E0AD
:10235000809344280E94B30D02C00E94740C113077
:1023600011F0112369F58091022890910328A09122
:102370000428B09105280196A11DB11D8093022863
:1023800090930328A0930428B09305288CE00E9422
:10239000AA1D009709F445C08091DE279091DF27A0
:1023A000A091E027B091E1270196A11DB11D809376
:1023B000DE279093DF27A093E027B093E12731C079
:1023C0001330A9F48091FA279091FB27A091FC2764
:1023D000B091FD270196A11DB11D8093FA2790931E
:1023E000FB27A093FC27B093FD2712E01DC01530FA
:1023F000A9F48091E6279091E727A091E827B09172
:10240000E9270196A11DB11D8093E6279093E72748
:10241000A093E827B093E92713E006C0173021F412
:1024200002C010E001C011E0812F90E0DF91CF9158
:102430001F910F91FF90EF90DF900895CF93DF935E
:10244000EB010E941C0D9C01009731F4CE010E940B
:10245000A1109C01009749F08091B6279091B72771
:1024600001969093B7278093B627C901DF91CF914A
:1024700008950F931F938091B927882321F40E9418
:10248000E00D11E001C010E00E94510D863111F005
:10249000813119F40091470109C086E491E06FE1B0
:1024A00040E00E946312082F000F080F112311F063
:1024B0000E94020D802F1F910F9108951092900994
:1024C00010928F090895FC018081862390E002C05C
:1024D000959587954A95E2F70895F894FC019081C7
:1024E000862F8095892330E002C0220F331F4A9542
:1024F000E2F72623282B20837894089520917B01EE
:10250000322F33503D37E0F4FC012193215030E06D
:10251000A9014F575E4FA0E8B1E06D916193A417F8
:10252000B507D9F7FC01E058FF4F2F573E4FD901AF
:102530002C9120838F579F4F21E0FC012083089529
:10254000DC011C92FC01E058FF4F10828F579F4F17
:10255000FC0110820895FC01609380010196635094
:10256000860F911DA1E8B1E021912D93E817F9079D
:10257000D9F708951F920F920FB60F920BB60F92D4
:1025800011242F933F934F935F936F937F938F9378
:102590009F93AF93BF93EF93FF93809147018093F5
:1025A0001E2620912C2630E0C901880F991F3695F0
:1025B000322F222737952795820F931F825D994DE1
:1025C0000E947E1280912C268F5F80932C26833070
:1025D00010F010922C260E94330FFF91EF91BF91C3
:1025E000AF919F918F917F916F915F914F913F91AB
:1025F0002F910F900BBE0F900FBE0F901F9018954C
:102600001F920F920FB60F9211240F900FBE0F90D2
:102610001F9018951F920F920FB60F9211240F90D2
:102620000FBE0F901F9018951F920F920FB60F922A
:1026300011240F900FBE0F901F9018951F920F92AC
:102640000FB60F9211241092B8270F900FBE0F9063
:102650001F9018951F920F920FB60F92112410928F
:10266000B8270F900FBE0F901F9018951F920F92D2
:102670000FB60F9211248F9381E0809324268F91BF
:102680000F900FBE0F901F9018951F920F920FB6CC
:102690000F921124109225260F900FBE0F901F90BD
:1026A00018951F920F920FB60F9211248F939F933C
:1026B00080918F0990919009019690939009809351
:1026C0008F099F918F910F900FBE0F901F901895BB
:1026D000262F372FF901282F392FD90188E0919122
:1026E0009D938150E1F70895282F392FD901862F26
:1026F000972FFC0188E02D919191291729F48150A1
:10270000D1F721E030E002C020E030E0C9010895B7
:10271000282F392FD901EAEBF7E28D91819387E2D7
:10272000E23CF807D1F70895E0910903F0910A031C
:1027300009950895E0919A03F0919B0309950895F6
:10274000E0910F03F091100309950895E0911103B2
:10275000F09112030995089580E090E0089508959E
:10276000E091C702F091C80209950895009731F0F1
:10277000E091C702F091C80209950895E091C9025D
:10278000F091CA020995089580E090E008950F93B2
:102790001F93DF93CF93CDB7DEB7E0970FB6F894D2
:1027A000DEBF0FBECDBF0E94C51C8C010E94731CF2
:1027B000602FAE014F5F5F4F0E94CB4A882309F420
:1027C00045C088A99801281B3109C9010E944F1CE6
:1027D0000097E1F12E81222371F18A859B853BEAE6
:1027E0008D3C930721F03FEF8F3F930779F522301F
:1027F00041F088E090E007C0019722912F3F41F01F
:102800000BC082E090E0FE01E80FF91F3C96F4CF88
:10281000181619068CF30FC089E1BE01645F7F4F63
:102820000E94B31D89E10E94C01D6AEB77E20E94FD
:102830007413009759F088E1BE016A5E7F4F0E94D1
:10284000B31DE091F202F091F3020995E0960FB604
:10285000F894DEBF0FBECDBFCF91DF911F910F91D6
:102860000895AF92BF92CF92DF92EF92FF920F93B3
:102870001F93DF93CF93CDB7DEB7E0970FB6F894F1
:10288000DEBF0FBECDBF6C018B01FE01319680E330
:10289000DF011D928A95E9F781E089838CE00E942F
:1028A000AA1D8C831D821F828091910989878F5F69
:1028B0008093910983E0E82EE8868DEC9BEA9B8764
:1028C0008A8789E10E94C01D6CED72E00E9474133A
:1028D000009731F082E08E838FEF8C878D8709C05F
:1028E00089E10E94C01DBC01CE010C960E946813B4
:1028F000EE828DEC9BEA9D8B8C8BCE0146966AEB2B
:1029000077E20E9468130E94731C9FA78EA70E9403
:10291000C51C88AB7E010894E11CF11CC7010E9414
:10292000C249A82E90E00E94DB1C009741F10E9452
:102930007B1CBC01C7014A2D0E94E049A090BD024A
:10294000B090BE020E947B1C7C010E94CF1CBC0187
:10295000C701F5010995C114D10489F0009721F050
:102960008130910561F404C0C80160E070E003C0EB
:10297000C80164E070E041E050E0F6010995E0969E
:102980000FB6F894DEBF0FBECDBFCF91DF911F9180
:102990000F91FF90EF90DF90CF90BF90AF90089590
:1029A0000E94500480939109E091C702F091C802FF
:1029B000099508950F931F93CF93DF938C01EB013B
:1029C0004115510549F0FA01828193810E94541EFC
:1029D000C801BE010E943114DF91CF911F910F9168
:1029E00008951F93CF93DF93EC01162F888580FF06
:1029F0001DC0EC81FD813097C9F0D0939509C0933B
:102A0000940982E08887CE0106960995992787FD6B
:102A1000909502978230910510F0133829F4CE0179
:102A2000BE010E941A1502C081E08887DF91CF9114
:102A30001F910895CF92DF92EF92FF920F931F9311
:102A4000CF93DF93EC017B01C0909409D09095095E
:102A50000091920910919309F80103C00190F0814F
:102A6000E02DEC17FD0719F03097C1F746C020970D
:102A700009F443C08885882309F118860BC0C01764
:102A8000D10729F0C80167E8AE010E94F114F801EE
:102A9000008111810115110591F7EC81FD813097BD
:102AA00069F0CE15DF0551F0D0939509C0939409D4
:102AB000CE01069663E840E050E00995E091920966
:102AC000F0919309CE17DF0791F488819981909353
:102AD0009309809392090DC0808191818C179D0785
:102AE00029F4888199819183808303C0FC01309708
:102AF00099F7D0929509C0929409DF91CF911F91D7
:102B00000F91FF90EF90DF90CF9008951F93CF9398
:102B1000DF9310929609C0919209D091930911E028
:102B20000EC08985882341F018871986CE0162E896
:102B300040E050E00E94F1140990D881C02D209708
:102B400081F7DF91CF911F9108958091410A982FCD
:102B50009F5F9093410A089560919409709195093F
:102B60000E941A1508958AE88093410A10929809E4
:102B70001092970910929309109292091092950958
:102B800010929409089580919609882311F00E946B
:102B9000861570919709772309F455C020919809FB
:102BA00030E0F901EE0FFF1FEE0FFF1FE20FF31FE2
:102BB000E756F64F60816093400A418152815093FD
:102BC0003F0A40933E0A8381948190933D0A80930B
:102BD0003C0A2F5F3F4F2F7130702093980971503E
:102BE00070939709009741F580919209909193090C
:102BF00018C080919609882311F00E948615409193
:102C00003E0A50913F0A80913A0A90913B0A6091A6
:102C1000400A0E94F114E0913A0AF0913B0A808147
:102C2000918190933B0A80933A0A80913A0A90915D
:102C30003B0A0097F1F607C0613819F421E0FC0166
:102C400020870E94F114809196092091970930E025
:102C5000280F311DC9010895809196092091970987
:102C600030E0280F311DC901089570919709703225
:102C7000D9F020919809270F2F712093390A30E05D
:102C8000F901EE0FFF1FEE0FFF1FE20FF31FE756D4
:102C9000F64F608352834183948383837F5F709375
:102CA000970920E030E002C021E030E0C90108953A
:102CB000CF93DF93C0919409D09195090E94F114AC
:102CC000D0939509C0939409DF91CF910895FC01A9
:102CD000AB0190919209809193099C01A32FB22F8F
:102CE00003C00D90BC91A02DAE17BF0791F01097B7
:102CF000C1F7309771F090838183F0939309E0934B
:102D0000920981E0808717821682CF0161E80E94D4
:102D100058160895FC01009741F08085815082305B
:102D200020F481E0818780939609089521E030E0C6
:102D3000FC018085882311F420E030E0C90108956A
:102D4000EF92FF92CF93DF93E82EE7017E01F92EF9
:102D5000E70104C060E070E00E94671689919991D4
:102D60000097C1F7DF91CF91FF90EF900895EF9218
:102D7000FF92CF93DF93E82EE7017E01F92EE70162
:102D800002C00E94AC15899199910097D1F7DF910B
:102D9000CF91FF90EF900895CF93DF93EC0188815E
:102DA00099818836910579F08A37910509F44EC0EA
:102DB000009709F04EC00E94A51580930A28109232
:102DC000480A1092470A82E49AE00E94B81B2FEF4B
:102DD0008F3F920719F488E690E035C02091470AAA
:102DE0003091480A8D30910571F02F3731055CF72D
:102DF000F901E75BF54F80832F5F3F4F3093480A1F
:102E00002093470AE0CFF901E75BF54F10822F5F6F
:102E10003F4F3093480A2093470A80E090E060914A
:102E20000A2849E45AE00E9435168091940990914D
:102E3000950965E840E050E00E943516009709F0DA
:102E4000BECF8AE790E09983888307C0653829F46C
:102E5000B6CF1982188283E001C081E0DF91CF9163
:102E60000895682F8A30F9F08091490B882351F436
:102E700082E49AE00E94981B009771F481E08093AD
:102E8000490B0AC06D3041F482E49AE00E94981B1D
:102E9000009711F01092490B83E293E00E948A168A
:102EA00021E030E002C020E030E0C901089582E472
:102EB0009AE069EC7AE040E80E94901B83E293E09C
:102EC00060E070E00E9467160895CF93DF93EC01F5
:102ED0007B836A830E94BD0999838883DF91CF91A8
:102EE0000895FC018081918122813381820F931F9B
:102EF000918380830895CF93DF93EC010E94BD09F5
:102F000099838883DF91CF910895CF93DF93EC016C
:102F10000E94BD0928813981821B930B019621E013
:102F200030E04A815B814817590710F020E030E01B
:102F3000C901DF91CF910895EF92FF92CF93DF9374
:102F4000FC01C281D38180819181C80FD91F0E9469
:102F5000BD09C81BD90BCE01DF91CF91FF90EF9037
:102F60000895CF92DF92EF92FF920F931F93CF932A
:102F7000DF938C017A01FC0180819181009729F017
:102F80008B34910509F051C01EC08BE49BE00E9478
:102F90006262C82EE6017E01F92EE70109C06C814C
:102FA0007D81CE0102960E94C7030990D881C02D71
:102FB0002097A9F781E080934A0B8BE490E0F80119
:102FC0009183808337C06838A9F58BE49BE00E9429
:102FD0006262C82EE6016E01D92EE60123C0CE0141
:102FE0000296E816F906D9F48BE49BE0BE010E9434
:102FF000B062E0909409F09095098A859B85909342
:10300000950980939409EC85FD85309719F08E859C
:103010009F850995F0929509E0929409CECF099089
:10302000D881C02D2097D9F6C8CFF801118210821F
:1030300083E001C081E0DF91CF911F910F91FF905C
:10304000EF90DF90CF90089510924A0B8BE49BE0B5
:103050000E945E628CE393E060E070E00E9467167D
:1030600008950F931F93CF93DF93EC010091940980
:10307000109195091B870A875D874C873F872E87AC
:1030800080914A0B882379F08CE393E09093950923
:1030900080939409CE0102960E94C703109395096C
:1030A0000093940902C07D836C838BE49BE0BE0196
:1030B0000E94B0628BE49BE0BE010E94E962DF9156
:1030C000CF911F910F9108950F931F93CF93DF938B
:1030D000EC0180914A0B882391F0009194091091A2
:1030E00095098CE393E09093950980939409CE0120
:1030F00002960E94D20310939509009394098BE4E1
:103100009BE0BE010E94B0628BE49BE0BE010E9486
:10311000E962DF91CF911F910F9108950F931F9353
:10312000CF93DF93EC0180914A0B882391F00091BB
:103130009409109195098CE393E0909395098093FD
:103140009409CE0102960E94DD0310939509009325
:1031500094098BE49BE0BE010E94B0628BE49BE08B
:10316000BE010E94E962DF91CF911F910F910895F6
:10317000CF93DF93EC0180914A0B882329F0CE0195
:1031800002960E94250404C01F821E82198618869A
:103190008BE49BE0BE010E94B062DF91CF91089565
:1031A000CF93DF93EC0180914A0B882331F0CE015D
:1031B00002960E94F2039C0114C08BE49BE00E94E3
:1031C0006262E82FF92F06C0EC17FD0741F001906D
:1031D000F081E02D3097C1F721E030E002C020E01F
:1031E00030E0C901DF91CF910895CF93DF93E9E4F7
:1031F000F8E2CBE0D8E2ADE3B8E211921192199275
:103200001992199219921D9288E2E136F807A9F7EE
:10321000DF91CF9108950F931F93CF93DF93FC011C
:10322000DC01A35CB74D8C91882339F100919400A7
:1032300010919500EF01CC0FDD1FCC0FDD1FC55F96
:10324000D74DDF01AA0FBB1FA75BB74D8D919C9196
:1032500011979801281B390B40E050E06881798173
:103260008A819B81260F371F481F591F2883398366
:103270004A835B8311961C930E93EE0FFF1FEE0F94
:10328000FF1FE55FF74D6081718182819381DF913E
:10329000CF911F910F91089560E070E0CB010895E8
:1032A000FC01EE0FFF1FEE0FFF1FE55FF74D4083A0
:1032B0005183628373830895EF92FF920F931F935C
:1032C000CF93DF932DE338E2CBE0D8E2E9E4F8E2F4
:1032D000D9018D919D018823C9F0409194005091AE
:1032E0009500808191817A01E81AF90A00E010E0E6
:1032F00088819981AA81BB818E0D9F1DA01FB11F5E
:1033000088839983AA83BB83518340832496329612
:10331000B8E229343B07E1F6DF91CF911F910F917D
:10332000FF90EF9008950E94754808950F931F93A2
:10333000FC01CB0140914D0B50914E0B3383228306
:103340001583048371836083F0934E0BE0934D0BE0
:103350004115510511F40E948F4880E090E01F91C3
:103360000F91089580914D0B90914E0B0097C1F0F5
:1033700010924E0B10924D0BDC0114966D917C91C6
:1033800015971296ED91FC9113970995E0914D0BCD
:10339000F0914E0B309721F0808191810E948F48EF
:1033A00008950F931F930091BA271091BB270E9495
:1033B000CA092DB73EB7225530400FB6F8943EBF2C
:1033C0000FBE2DBFEDB7FEB731962FE233E0ADB79C
:1033D000BEB712963C932E931197028313821483E7
:1033E000158266837783808791878091C227909129
:1033F000C327A091C427B091C52782879387A4874C
:10340000B5878091C6279091C727A091C827B09112
:10341000C92786879787A08BB18B8091CA27909107
:10342000CB27A091CC27B091CD27828B938BA48BF7
:10343000B58B8091CE279091CF27A091D027B091C6
:10344000D127868B978BA08FB18F8091D2279091B7
:10345000D327A091D427B091D527828F938FA48FA3
:10346000B58F8091D6279091D727A091D827B0917A
:10347000D927868F978FA0A3B1A38091DA27909147
:10348000DB27A091DC27B091DD2782A393A3A4A31F
:10349000B5A38091DE279091DF27A091E027B0911E
:1034A000E12786A397A3A0A7B1A78091E2279091D7
:1034B000E327A091E427B091E52782A793A7A4A7CB
:1034C000B5A78091E6279091E727A091E827B091D2
:1034D000E92786A797A7A0ABB1AB8091EA27909187
:1034E000EB27A091EC27B091ED2782AB93ABA4AB77
:1034F000B5AB8091EE279091EF27A091F027B09186
:10350000F12786AB97ABA0AFB1AF8091F227909136
:10351000F327A091F427B091F52782AF93AFA4AF22
:10352000B5AFEDB7FEB7FF968091F6279091F727DC
:10353000A091F827B091F92780839183A283B38368
:10354000EDB7FEB7ED5BFF4F8091FA279091FB2717
:10355000A091FC27B091FD2780839183A283B38340
:10356000EDB7FEB7E95BFF4F8091FE279091FF27F3
:10357000A0910028B091012880839183A283B38316
:10358000EDB7FEB7E55BFF4F8091022890910328CD
:10359000A0910428B091052880839183A283B383EE
:1035A000EDB7FEB7E15BFF4F8091062890910728A9
:1035B000A0910828B091092880839183A283B383C6
:1035C0000E948E660091BA271091BB272DB73EB797
:1035D0002E5A3F4F0FB6F8943EBF0FBE2DBF0E942C
:1035E000CA09ADB7BEB7D2970FB6F894BEBF0FBE2B
:1035F000ADBFEDB7FEB7319620EC32E012963C93AA
:103600002E93119702831382148315826683778326
:103610008087918780910B2890910C28A0910D288C
:10362000B0910E2882879387A487B58780910F2851
:1036300090911028A0911128B09112288687978721
:10364000A08BB18B8091132890911428A0911528FC
:10365000B0911628828B938BA48BB58B8091172801
:1036600090911828A0911928B0911A28868B978BD1
:10367000A08FB18F80911B2890911C28A0911D28AC
:10368000B0911E28828F938FA48FB58F80911F28B1
:1036900090912028A0912128B0912228868F978F81
:1036A000A0A3B1A38091232890912428A09125283C
:1036B000B091262882A393A3A4A3B5A38091272821
:1036C00090912828A0912928B0912A2886A397A311
:1036D000A0A7B1A78091332890913428A0913528D4
:1036E000B091362882A793A7A4A7B5A780913728C1
:1036F00090913828A0913928B0913A2886A797A7A9
:10370000A0ABB1AB0E948E662DB73EB72E5C3F4F8B
:103710000FB6F8943EBF0FBE2DBF1F910F910895B5
:10372000FC017183608341504283138214820895A7
:10373000FC012381428150E030E08481D901A81B43
:10374000B109CD01842395238417950769F0A081E1
:10375000B181A20FB31F6C9383818F5F9281892304
:10376000838321E030E002C020E030E0C901089509
:10377000FC0174816281838190E0272F30E0821BFD
:10378000930B462F50E084239523181619065CF4FA
:10379000A081B181A20FB31F2C91872F8F5F862349
:1037A000848330E002C02FEF3FEFC9010895FC0190
:1037B000228130E02F5F3F4FC9010895FC01238132
:1037C00030E08481281B3109828190E0282339234D
:1037D000C901089580E380934F0B0895EF92FF9203
:1037E000CF93DF9320914F0B30E0C0E3D0E0C21BBA
:1037F000D30B2C5A344FB901AE010E945A66CE0148
:10380000DF91CF91FF90EF900895AF92BF92CF924A
:10381000DF92EF92FF920F931F93CF93DF937C0180
:10382000C090500BD090510B20914F0B30E086018F
:10383000005D1F4F021B130B01381105E0F4C0E3BC
:10384000D0E0C21BD30B2C5A344FB901AE010E94F9
:103850005A66CE0DDF1D2091520B3091530B809193
:10386000060C9091070C280F391FCE01B901A60153
:103870000E945A6602C000E010E0C801DF91CF91BB
:103880001F910F91FF90EF90DF90CF90BF90AF907E
:10389000089590914F0B980F90934F0B089540917E
:1038A000500B5091510B9C014817590798F080918B
:1038B000060C9091070C820F931F9093070C809336
:1038C000060C421B530B5093510B4093500B21E0BD
:1038D00030E002C020E030E0C90108959093510B20
:1038E0008093500B08952091060C3091070C2C57B3
:1038F000344FC901089520914F0B30E02C5A344FBA
:10390000C901089521E030E08091520B9091530B52
:103910004BE08438940711F420E030E0C9010895A9
:103920000E94821C009771F024E83BE06091520BEA
:103930007091530B4091500B5091510BC9010E9453
:103940005A660895A091060CB091070C1097B9F033
:103950002091500B3091510B205D3F4FAC57B44F2D
:10396000E4E8FBE080E390E003C04D9141930196D1
:1039700082179307D4F31092070C1092060C089547
:103980008091520B9091530B08958091500B909120
:10399000510B089590914F0B80E3891B089580E3AC
:1039A00090914F0B891B2091500B3091510B280F98
:1039B000311DC90108951F93CF93DF93EC0110913E
:1039C0004F0B812F90E08C179D076CF00E94CF1C4D
:1039D0008C0F9D1F8138910530F41C1B10934F0BE9
:1039E00021E030E002C020E030E0C901DF91CF915A
:1039F0001F910895CF93DF93E1E8F8E211921192BD
:103A000088E2E13BF807D1F7C0E0D0E0CE0123E047
:103A1000880F991F2A95E1F78F59974D6CED72E049
:103A20000E9468132196C430D10581F7DF91CF91B0
:103A300008951092070C1092060C1092510B1092E0
:103A4000500B80E380934F0B84E89BE09093530BE3
:103A50008093520B0E94FA1C08950F931F93CF93EB
:103A6000DF93EC018B010E94191DD093530BC0937F
:103A7000520B1093510B0093500BDF91CF911F917C
:103A80000F910895CF92DF92EF92FF920F931F93C1
:103A9000DF93CF9300D0CDB7DEB78C0169837A83F3
:103AA0000E94191D69817A81C62ED72E21E8C2167F
:103AB000D10418F030E8C32ED12C8091520B909194
:103AC000530BB801A6010E945A66D092510BC092C6
:103AD000500BC6010F900F90CF91DF911F910F9166
:103AE000FF90EF90DF90CF900895282F392FD901C4
:103AF000E1E8F8E280E301900D928150E1F7862F32
:103B0000972FDC01E1E6F8E280E201900D9281500E
:103B1000E1F70895E1E8F8E2282F392FD90180E391
:103B20000D9001928150E1F7A1E6B8E2862F972F20
:103B3000FC0180E201900D928150E1F70895E82F99
:103B4000F0E0EE0FFF1FEF57F74D7183608381E0C8
:103B500090E00895E82FF0E0EE0FFF1FEF57F74DCC
:103B600080819181089590E0E3E0880F991FEA95A4
:103B7000E1F78F55984D0E94681381E090E0089519
:103B8000282F30E0F3E0220F331FFA95E1F72F558D
:103B9000384DC901089586E593E00E94D66186E418
:103BA00093E00E94D6618EE493E00E94D66108956E
:103BB000EF92FF920F931F93CF93DF930E94821C8B
:103BC0000097C9F08EE493E00E94F661E82EE701C9
:103BD0007E01F92EE701209791F10E94C51C99837F
:103BE00088830E94C01C9B838A83C70104960E941D
:103BF000EE1B8CAB24C086E493E00E94F661EC01DE
:103C00007E01F92EE7012097D1F086E593E00E942E
:103C1000F6618C0199838883009779F002960E945F
:103C2000051CF80191838083B8016E547F4FC80151
:103C30008E579F4F0E94751D02C0C0E0D0E0CE019C
:103C4000DF91CF911F910F91FF90EF900895FC01AC
:103C500080819181BC016E547F4F8E579F4F0E948F
:103C6000751D0895CF93DF93EC0186E493E0BE01C8
:103C70000E944162009749F06881798186E593E06E
:103C80000E941C6286E493E009C08EE493E0BE01CA
:103C90000E944162009729F08EE493E0BE010E94E9
:103CA0001C62DF91CF910895EF92FF92CF93DF9343
:103CB000EC0186E493E0BE010E944162009791F01E
:103CC0000990D881C02D68817981CE0102960E9429
:103CD000421DBE016E547F4FCE018E579F4F0E94F2
:103CE0008A1D1BC08EE493E0BE010E9441620097D2
:103CF000A1F00E94191D688179818A819B810E94AF
:103D0000421D8CA990E00E94DB1C0E947B1C4CA9E8
:103D10002496BE0150E00E945A66DF91CF91FF9039
:103D2000EF900895CF93DF93EC0186E493E0BE011A
:103D30000E944162009729F0288139812E5F3F4F10
:103D40000CC08EE493E0BE010E944162009719F01E
:103D50002A813B8102C020E030E0C901DF91CF9190
:103D60000895DC01ED91FC91119780819181089576
:103D700070E023E0660F771F2A95E1F76E507040E0
:103D8000FC0120813181260F371FC9010895DC0114
:103D9000ED91FC91119770E06F5B7F4F660F771F7D
:103DA000E60FF71F80819181089508959C0141508D
:103DB0005040460F571FDB0110C0FC91E0E0119608
:103DC0008C911197BF01680F711D260F371F2617A1
:103DD000370710F42F5F3F4F1296A417B50768F30B
:103DE000A417B50749F49C9180E0280F391F2817C4
:103DF000390710F42F5F3F4FC90108950F931F93A8
:103E0000DF93CF9300D0CDB7DEB70091251330916B
:103E1000C52820E010E0201B310B9091C628290F07
:103E2000311D3A83298329813A81A901480F511D07
:103E3000CA0169EC78E240E250E00E94D61E498156
:103E40005A81B8016751774D0E94D61E009719F02C
:103E5000382F292F02C02FEF3FEFC9010F900F908D
:103E6000CF91DF911F910F910895A09125136A2F93
:103E700070E0685D7F4FFB01EF53F74D418150E0EB
:103E800083E0440F551F8A95E1F7495F5F4F22E0B9
:103E900054C0FC01E60FF71FEF53F74D308131306E
:103EA00009F448C0313018F03336D1F402C02F5F26
:103EB00044C0209326130E943B60009709F047C03E
:103EC0009091261380912513E92FF0E0E80FF11D62
:103ED000E751F74D8181890F8E5F8093261335C09E
:103EE000832F90E0807C90708038910549F0803C71
:103EF000910549F080349105E9F42093261327C0F9
:103F00002093261306C0209326138091D9288F3F33
:103F100001F130E040E050E02A0F311D411D511DFC
:103F2000285D3F4F4F4F5F4F84E062E00E94CF2FEC
:103F300082E0089581818E5F280F822F90E04817DC
:103F400059070CF0A6CF2093261380E0089581E056
:103F5000089581E00895FC014381460F4093B828FD
:103F6000872F99272281280F2093B728A181A0931A
:103F7000B62850815093B52830E02817390748F407
:103F80008A2F8F5F8093B628882319F45F5F509340
:103F9000B528842F90E070708617970798F4809169
:103FA000B7288F5F8093B728882361F48091B62863
:103FB0008F5F8093B628882329F48091B5288F5F7E
:103FC0008093B5280895BC018091C82D9091C92D8A
:103FD00044960E94AB1FE091C82DF091C92D8091AD
:103FE000B528848B8091B628858B8091B728868BE5
:103FF0008091B828878B08959C01AB0180E090E008
:10400000B9010E94D61E382F292FC90108958AE3CD
:104010000E94FE1E089586E00E94FE1E089581E122
:104020000E94FE1E08950E94044780E009C0E82F08
:10403000F0E0EE0FFF1FE258F14D118210828F5F0A
:104040008430A8F340E08CE290E00DC0242F30E0F3
:10405000289FF001299FF00D389FF00D1124E653A1
:10406000F24D15A24F5F443088F380E094E09093C6
:10407000301380932F1340E089E190E00EC0242F8D
:1040800030E0289FF001299FF00D389FF00D11249A
:10409000E857F14D118A108A4F5F4A3080F3409300
:1040A0002D1308950F931F93CF93DF9320912F1318
:1040B000309130134CE250E02F5F3F4FEDE720305E
:1040C0003E0710F020E030E1B22FA32F10E015C022
:1040D000C12FD0E0C49FF001C59FF00DD49FF00D1B
:1040E0001124E653F24D05A1002331F00088F18937
:1040F000E02DEA17FB0701F31F5F143049F73093F7
:10410000301320932F1310922D1310E0E0E0F0E015
:104110002CE230E020C0412F50E0429FD001439F6D
:10412000B00D529FB00D1124A653B24D95964C91EF
:104130009597442321F410932D13FD0110C04730AF
:1041400049F4309731F096965C91969746A14517C1
:1041500008F4FD011F5F1430F0F210932D13309717
:10416000B1F122E025A320912713208F209128135D
:10417000218F20912913228F20912A13238F148AB3
:10418000158A168A178A24EC34E0378F268F31A3DC
:1041900020A321E030E0358F248F17A221E026A351
:1041A00023E024A312A220E123A320912F13309116
:1041B0003013322723273227318B208B738B628B6E
:1041C000EF01DC0180E10D9009928150E1F7CF0110
:1041D000DF91CF911F910F9108950F931F93CF936C
:1041E000DF93609125136623E9F070E0C091B12858
:1041F000D091B228C61BD70B8E01085210406751D0
:10420000774D89EE98E2A8010E946366D093B228A8
:10421000C093B128E1ECF8E214839E012852258373
:1042200010922513DF91CF911F910F9108950F9355
:104230001F93CF93DF9320912F133091301349E1D7
:1042400050E02F5F3F4FEDE720303E0710F020E0B9
:1042500030E1B22FA32F10E012C0C12FD0E0C49FD5
:10426000F001C59FF00DD49FF00D1124E857F14DDA
:104270000088F189E02DEA17FB0719F31F5F1A3058
:1042800061F73093301320932F1310E049E150E091
:1042900019C0012F0F5F212F30E0249FF001259FCF
:1042A000F00D349FF00D1124E857F14DDF015096C9
:1042B000C089D189209729F410932D13309749F4A0
:1042C00033C0102F1A3028F310932D13E0E0F0E0E4
:1042D0002BC040912F13509130135427452754275A
:1042E00011965C934E93738B628B009731F480E14F
:1042F000EF0119928A95E9F707C0EF01DC0180E12F
:104300000D9009928150E1F789E190E0289FD0015A
:10431000299FB00D389FB00D1124A857B14D809141
:10432000982F54968C935497CF01DF91CF911F9182
:104330000F91089540E013C0E42FF0E0542F5F5F29
:10434000EE0FFF1FE258F14D208131812817390708
:1043500029F440932D13118210820895452F443083
:1043600058F340932D13089540E013C0E42FF0E07C
:10437000542F5F5FEE0FFF1FE258F14D2081318116
:104380002115310529F440932D13918380830895DD
:10439000452F443058F340932D130895BF92CF9288
:1043A000DF92EF92FF920F931F93CF93DF93C09111
:1043B000C82DD091C92D843009F488C32DEF38E27F
:1043C0003093C72D2093C62D3093B4282093B32863
:1043D000833079F48DA190E08F70907083309105D7
:1043E00009F079C08C8D9D8D009711F00C94612A95
:1043F00091C0823009F092C01092B2281092B12878
:104400001092872E1092862E80912A138F5F8093B0
:104410002A13882399F4809129138F5F809329139D
:10442000882361F4809128138F5F80932813882359
:1044300029F4809127138F5F809327138DA18730F4
:1044400011F0853051F48EA18F5F8EA3843111F06D
:104450000C94612A1DA20C94612A882311F40C94F7
:10446000612A2C8D3D8D2115310509F44FC09EA187
:10447000292F21502EA3992311F00C94612A9FA17A
:10448000983031F0282F2150223048F4953039F4FB
:104490001DA280E88093C12D0E94122EFAC695308D
:1044A00048F423E030E0092E02C0220F331F0A94A3
:1044B000E2F701C020E32EA39F5F9FA390E08F70DF
:1044C000907083309105E1F0843091054CF4813097
:1044D000910509F4C6C48230910509F0F2C70DC0F8
:1044E0008630910509F471C68830910509F46DC6CE
:1044F0008430910509F0E5C768C61092F628B4C467
:1045000084E08093C12D0E94122EF5C68F708330F7
:1045100009F0D7C788E08093C12DB0C6853019F562
:10452000E091C42DF091C52D80899189009709F4FF
:10453000C8C71092C92D1092C82D2C50304030930E
:10454000C72D2093C62D3093B4282093B328109202
:10455000872E1092862E1092B2281092B12888E0F1
:104560008093C12DB1C2E901EC978091C128807F71
:10457000803609F0A6C79091C52880E02091C62812
:10458000820F911D2091B1283091B2282817390748
:1045900008F497C788969093B2288093B1288091A9
:1045A000C9288F3F09F48DC7CE0106969093C32D7D
:1045B0008093C22D10922513109224138091C72846
:1045C0008823F9F481E0809324130E94351F813001
:1045D00009F477C7813018F0823099F47AC7809156
:1045E0002513E82FF0E0E751F74DF093C32DE0934A
:1045F000C22D885F9181990F990F990F890F809330
:10460000251389ED98E20E946D42009709F01CC1C4
:1046100089ED98E20E94A343009709F015C120910B
:10462000D9282F3F09F495C02E3F29F48091DA282C
:10463000803809F48EC08091C9288E3F29F480917A
:10464000CA28803809F485C08091C9289091CA2869
:10465000009759F58091CB289091CC28009729F5A7
:104660008091CD289091CE280097F9F48091CF28A1
:104670009091D0280097C9F48091D1289091D228A8
:10468000009799F48091D3289091D428009769F4E9
:104690008091D5289091D628009739F48091D72819
:1046A0009091D828009709F454C08091D92890910E
:1046B000DA28009761F58091DB289091DC2800973B
:1046C00031F58091DD289091DE28009701F58091E9
:1046D000DF289091E0280097D1F48091E128909113
:1046E000E2280097A1F48091E3289091E4280097B4
:1046F00071F48091E5289091E628009741F480912B
:10470000E728882321F48091E828813011F18091F5
:10471000B1289091B22825E08130920738F082E0EC
:1047200060E020E035E040E050E009C08091C8281A
:10473000823040F483E060E020E030E0A9010E9494
:10474000CF2FC7C60E9482608091C82881508F8376
:10475000C0C68091C9288E3F09F0B3C68091CA288F
:10476000803809F0AEC68091C9289091CA28009778
:1047700059F58091CB289091CC28009729F580910C
:10478000CD289091CE280097F9F48091CF28909170
:10479000D0280097C9F48091D1289091D228009711
:1047A00099F48091D3289091D428009769F480914E
:1047B000D5289091D628009739F48091D7289091E8
:1047C000D828009709F47DC68091D9289091DA28DD
:1047D000009769F58091DB289091DC28009739F5E6
:1047E0008091DD289091DE28009709F58091DF28DF
:1047F0009091E0280097D9F48091E1289091E228E7
:104800000097A9F48091E3289091E428009779F427
:104810008091E5289091E628009749F48091E72857
:10482000882329F48091E828813009F44AC62F3F73
:1048300009F447C689ED98E20E943D42882309F0B9
:1048400040C681E062E078CFE091C22DF091C32DA7
:1048500080818B32E9F18C3248F4863009F488C1CA
:10486000813109F4A5C0882389F059C08A3309F43D
:1048700060C08B3320F48C3209F051C022C68B33D8
:1048800009F41FC68C3309F04AC006C08091241376
:1048900080FD45C0816009C08091241381FF04C060
:1048A00086FD3DC0806401C08260809324130E9415
:1048B000351F813009F405C6813018F0823021F6A9
:1048C00008C680912513E82FF0E0E751F74D1AC094
:1048D0008091241382FD23C08460809324138091EF
:1048E0002513282F30E0F901E751F74D93819923E3
:1048F00049F0265D3F4F442737FD4095542F84E013
:1049000060E01DCFF093C32DE093C22D885F9181AD
:10491000990F990F990F890F8093251395CFE15C1B
:10492000F8429F01442737FD4095542F84E061E011
:1049300006CF0E940720EFEF8F3F9E0709F0C1C509
:10494000E0912513F0E0EF53F74D80A50E947B2BFB
:10495000E0912513F0E0EF53F74D80A58638E1F0A4
:10496000873838F48138C1F08538B1F08038A1F447
:1049700010C0883841F0883818F08B3969F406C0C7
:104980000E942C310DC00E94B6330AC00E94745A96
:1049900007C00E942A2F04C01092B2281092B1289A
:1049A0008091B1289091B228009709F48AC591C5E9
:1049B0000E94ED208091B1289091B228C0979093E9
:1049C000B2288093B12881EF98E29093C72D80930D
:1049D000C62D8091EF289091F028009739F00E9421
:1049E0000F20FFEF8F3F9F0709F06BC50091EB2869
:1049F0001091EC280115110509F463C588E89EE2C1
:104A00009093C52D8093C42D40C0888999890097C3
:104A1000B9F108171907A1F58A899B89009739F020
:104A20002091E9283091EA282817390749F588812B
:104A300099810097E1F48A819B810097C1F48C8170
:104A40009D810097A1F48E819F81009781F48885D4
:104A50009985009761F48A859B85009741F48C8540
:104A60009D85009721F48E859F850097C1F089EC84
:104A700098E2BE0140E150E00E944D66009779F057
:104A80006996D093C52DC093C42DC091C42DD091EB
:104A9000C52D2FE2C238D20708F4B7CF12C5109245
:104AA000C92D1092C82D82E08093C12D81EF98E22C
:104AB0009093C72D8093C62D9093B4288093B328EC
:104AC0001092872E1092862E0E94122E8091862E92
:104AD0009091872E009709F4F4C49C01205D3F4F0C
:104AE0003093B2282093B12808969093C528285275
:104AF0002093C628E091C42DF091C52D24892093E0
:104B0000C82821E12093C728C9EED8E29827892731
:104B100098279D838C831F821E8280899189909320
:104B2000EA288093E928828993899B838A83DE011E
:104B3000509780E101900D928150E1F789EC98E265
:104B400069ED78E20E9468468DEF98E29093C72D58
:104B50008093C62D0E940F20809590959F838E8311
:104B6000009709F0A4C48FEF9FEF9F838E839FC4AB
:104B70000E94ED200E940B20EFEF8F3F9E0709F06F
:104B8000A0C409EE18E2E090EB28F090EC28E114C4
:104B9000F10409F496C4C090E928D090EA28C11421
:104BA000D10409F48EC4CAECDDE2BDA0BB20A1F0A3
:104BB00088899989E816F90679F48A899B89C81643
:104BC000D90651F489EC98E2BE0140E150E00E9420
:104BD0004D66009709F45EC1AC96FEE2CA37DF0766
:104BE00021F78091F6288F738230B9F4F0922C135C
:104BF000E0922B1320E00DC0E22FF0E0EE0FFF1F3C
:104C0000E258F14D808191812F5FE816F90609F491
:104C10005FC0243088F320932D138091F62882FD05
:104C200050C484E1F80185878CE390E09093B2282A
:104C30008093B12880E584878091F0289091F428B2
:104C400097833091EF289091F328968332872091B3
:104C5000EE289091F228958321879091ED289093EA
:104C60002D134091F128448390878F5F8387882399
:104C700061F4832F8F5F8287882339F4822F8F5FBF
:104C80008187882311F49F5F90878091E928909114
:104C9000EA2890932C1380932B132091EB283091CA
:104CA000EC283093EA282093E928F8019383828343
:104CB000E9EDF8E2DF01509780E10D90019281501B
:104CC000E1F789EC98E269ED78E20E946846D3C387
:104CD00010922D1340E0C0E0D0E08CE290E026C0BE
:104CE000242F30E0289FF001299FF00D389FF00D10
:104CF0001124E653F24D25A1222321F440932D13D4
:104D0000EF0118C0273089F4209721F036A12EA199
:104D1000231758F4242F30E0289FE001299FD00D5D
:104D2000389FD00D1124C653D24D4F5F4430C0F28E
:104D300040932D13209709F4C4C3D093C92DC09379
:104D4000C82D83E08EA38CA31AA284E08BA31FA29C
:104D50008091EB289091EC28998B888B8091E928A1
:104D60009091EA289B8B8A8BDE01E9ECF8E280E1E6
:104D700001900D928150E1F781E08DA3809127137E
:104D8000888F80912813898F809129138A8F809131
:104D90002A138B8F81E090E09D8F8C8F8091F0287B
:104DA0008F8B8091EF288E8B8091EE288D8B809158
:104DB000ED288C8B81E090E00E94E31F8091F52824
:104DC000282F30E0207F3070213531050CF449C0A8
:104DD00082958F7090E00597880F991F880F991F13
:104DE00050912E1340E034C0F901EF53F74D54AD0C
:104DF000552329F440932D1310922E1332C05130B5
:104E000011F44F5F25C05230E1F465AD6430C9F450
:104E100040932D1350932E1336AD20E087AD90E0D4
:104E2000822B932B90932C1380932B13F4E0853CCF
:104E30009F0710F084EC94E09F8F8E8F99A388A336
:104E400010C02250374DF9012081222331F0420F4A
:104E5000242F30E0281739073CF240932D1350934C
:104E60002E1380E18093F628E9EEF8E28091F6288F
:104E70008260858782E0848B84E0858B868B84ECDE
:104E8000878B80E490E09093B2288093B12880E6ED
:104E90008487B7C2D093C92DC093C82D1092C12D5D
:104EA0008091F62890E082FF03C01DA280E250C2EC
:104EB0004091F52842954F70440F440F40932D13B5
:104EC0002091B1283091B22828523040241B31095A
:104ED0003093B2282093B1284B2D50E04F70507082
:104EE0004230510539F4AC014F73507042315105D5
:104EF00051F429C04130510531F4AC014F73507069
:104F00004230510501F12115310531F49C01237026
:104F1000307021153105B9F03091ED282C89321708
:104F200079F43091EE282D89321751F43091EF2821
:104F30002E89321729F43091F0282F89321719F071
:104F400081FD8FCF52C284FF4AC06C8D7D8D61156B
:104F5000710509F444C0CE0148960E94AB1F309100
:104F6000F1288091B5283817D1F52091F228809149
:104F7000B6282817A1F59091F3288091B7289817A3
:104F800071F58091F4284091B828841741F5388F45
:104F9000298F9A8F8B8F8FA18823D1F42AA18CA17E
:104FA0009EA1891B922F969596959695891B280F01
:104FB0002AA387FD81959BA1392F36953695931BA2
:104FC000980F9BA3822F869586958695890F8CA333
:104FD00081E08093C12D8CA18EA31D8E1C8E2DA1EE
:104FE00030E0C9018F7090708430910509F4B5C12B
:104FF0008530910564F482309105C9F183309105C3
:105000000CF0B9C08130910509F05BC211C0863047
:10501000910509F4E2C1863091050CF4BEC18730D8
:10502000910509F4E2C18830910509F04AC28AC1AC
:105030008091C12D80FF14C083E08DA380E4809314
:10504000C12D1D8E1C8E8091B1289091B2280097A1
:1050500009F410C122E42093C12D0E94E31F0AC16C
:105060008091F6288F73823009F02BC2FACE80919E
:10507000C12D80FF75C08091F6288F73823109F0B1
:105080006FC08091F528282F30E0207F30702135C7
:1050900031050CF449C082958F7090E00597880F18
:1050A000991F880F991F50912E1340E034C0F901C9
:1050B000EF53F74D54AD552329F440932D1310921F
:1050C0002E1332C0513011F44F5F25C05230E1F43D
:1050D00065AD6430C9F440932D1350932E1336AD53
:1050E00020E087AD90E0822B932B90932C1380933C
:1050F0002B13F4E0853C9F0710F084EC94E09F8F25
:105100008E8F99A388A310C02250374DF9012081BA
:10511000222331F0420F242F30E0281739073CF2C8
:1051200040932D1350932E1383E08DA38091ED288F
:105130008C8B8091EE288D8B8091EF288E8B8091C7
:10514000F0288F8B81E090E00E94E31F82E480933F
:10515000C12D1D8E1C8E1092B2281092B1288AC0CB
:1051600080E28093C12D0E94122EE091C82DF09113
:10517000C92D15A252CD8091F62880FF2AC024FDAA
:1051800028C08C8D9D8D009709F09BC18091B1281E
:105190009091B22801960E94E31F2091C12D822F89
:1051A00080618093C12D8091B1289091B2280097A1
:1051B00019F022612093C12D0E94122E81E090E00F
:1051C0009D8F8C8F88E08DA31FA281E18093F628AC
:1051D0000FC185FF1CC05091FB2840E08091FC2846
:1051E00090E0842B952B4091C62D5091C72D480FF0
:1051F000591F5093C72D4093C62D4091B12850910F
:10520000B228481B590B5093B2284093B128809183
:10521000B1289091B228009749F024FD07C0209151
:10522000C12D22602093C12D0E94E31F9091F72889
:1052300080E02091F828820F911D90932C13809389
:105240002B1328A139A12817390710F0009721F452
:1052500030932C1320932B1380912B1390912C13AC
:105260009F8F8E8F8091C12D90E0837090700097FA
:1052700009F427C11092872E1092862E0E94122EBA
:105280008091C12D85FF07C01092872E1092862E27
:105290001DA284E19BCF84FF0AC01092872E10923A
:1052A000862E81E090E09D8F8C8F84E08CCF2091C2
:1052B000862E3091872E21153105E1F080FF02C046
:1052C0001D8E1C8E8C8D9D8D009781F48E8D9F8DF3
:1052D0008217930720F49093872E8093862E8091D7
:1052E000862E9091872E9D8F8C8F04C09093872E51
:1052F0008093862E1FA28091B3289091B42890931A
:10530000C72D8093C62D8091862E9091872E009771
:1053100059F08C8D9D8D009739F0CC969093B228E2
:105320008093B12888E10BC08091C12D81FFC9C055
:105330008CE390E09093B2288093B12880E1809331
:10534000F6285CC08091C12D80FFBBC01DA280E10A
:105350008093C12D0E94122EB4C08091B1289091EB
:10536000B228009711F00E94E31F9091F6288091D7
:10537000C12D90FF0BC080FF06C087E08DA31EA249
:105380001D8E1C8E19C086E08DA316C080FF1EC026
:1053900085E08DA31D8E1C8E94C08091B1289091C4
:1053A000B228009711F00E94E31F8091F62880FF39
:1053B0000DC087E08DA31EA281E090E00E94E31F54
:1053C00080E18093C12D0E94122E0FC08091B128E0
:1053D0009091B228009749F474C08091C12D80FF4C
:1053E00070C087E08DA31EA26CC080E1F8018587A4
:1053F0008CE390E09093B2288093B12880E580936D
:10540000F52809EE18E28C89F80180878D8981875B
:105410008E8982878F898387888D8483898D858310
:105420008A8D86838B8D878386E08093C7288889C1
:1054300099899093EA288093E9288A899B899383A4
:105440008283D8015097FE0180E101900D92815036
:10545000E1F789EC98E269ED78E20E9468468DA157
:1054600084FF04C0F8011786168605C084E0F801A1
:10547000868784EC87878091982F8093C8288091B5
:10548000B1289091B2289C01285230403093C52811
:1054900088528093C628C9EED8E21B8A1A8A198AD4
:1054A000188A0E940B2080959095998B888B80E6B6
:1054B0008093C1281092C2281092C4281092C32849
:1054C00008C01092B2281092B128109225131092A1
:1054D00024131092C12DDF91CF911F910F91FF9056
:1054E000EF90DF90CF90BF900895382F292FC901FA
:1054F0000895382F292F40E050E076276727762738
:1055000080E090E0CB0177276627262B372B482BAE
:10551000592BB901CA010895AC01E091B328F0916B
:10552000B428222733272E1B3F0B2F53324D6217EF
:1055300073070CF49B011216130664F42093862E55
:105540003093872E4E175F0729F0CF01BA01A901CA
:105550000E945A66089583E493E10E94F203009743
:1055600021F083E493E10E94DD030895E09150135C
:10557000F0915113309711F00995089580E0089546
:105580009093511380935013089520919409309172
:10559000950960E0E1E3F3E113C0408151814817D0
:1055A000590761F4428153814217530739F46093DC
:1055B0004F13118210820E949A21089534966F5FD2
:1055C000643058F360934F13089540E0E1E3F3E152
:1055D00016C0542F5F5F208131812115310569F498
:1055E00040934E13918380832091940930919509C3
:1055F000338322830E94B42108953496452F44308A
:1056000040F340934E130895FC01809194099091CA
:10561000950991A780A773A762A70895FC018091BF
:10562000940990919509968B858B708F678B08955F
:10563000CF93DF93EA010E941721FC01009741F00C
:105640008091940990919509968B858BD08FC78B0B
:10565000CF01DF91CF9108950F931F93DF93CF93E5
:10566000CDB7DEB760970FB6F894DEBF0FBECDBFE3
:105670008C01AB018FEF92E09A8389831C821B829D
:105680001E821D8218861F821A8619861C861B861A
:105690001E861D8680E091E0988B8F87CE01019653
:1056A000B8010E94182BFC01009711F0118B008BA0
:1056B000CF0160960FB6F894DEBF0FBECDBFCF917D
:1056C000DF911F910F91089520917A2E30917B2EBA
:1056D0002115310571F42091940930919509309389
:1056E0007B2E20937A2E90937D2E80937C2E80E0CB
:1056F000089581E00895DF93CF930F92CDB7DEB781
:10570000898380917A2E90917B2E009739F0609159
:10571000832FAE014F5F5F4F0E9458160F90CF91BD
:10572000DF9108958BE693E062E040E050E00E9454
:1057300058161092B2281092B1281092251308958D
:105740000F931F93CF93DF938091B1289091B2284C
:10575000009709F412C125E08130920708F0FEC0DD
:1057600009ED18E28091D9289091DA28009759F52F
:105770008091DB289091DC28009729F58091DD2825
:105780009091DE280097F9F48091DF289091E0282D
:105790000097C9F48091E1289091E228009799F44C
:1057A0008091E3289091E428009769F48091E5289E
:1057B0009091E628009739F48091E7289091E828A5
:1057C000009709F4CBC08091D9288F3F09F4CBC052
:1057D00089ED98E20E943D42882379F489ED98E2B0
:1057E0000E947345009731F40E9478418C01009724
:1057F00021F4B4C08C010D5E1F4FC8010E940D61E1
:10580000009709F0ABC0C8010E94A140EC010097CD
:1058100009F051C0C80160E070E040E020E00E9463
:10582000FA3FEC01009709F499C08C01025D1F4F0B
:10583000C80160E072E00E940A35009799F0C80143
:105840000E94453521EC38E24091B1285091B228B0
:10585000B9010E945A666091B1287091B228C801BE
:105860000E94613589EC98E20E946D42AE014F5F63
:105870005F4F009719F089EC98E202C080E090E059
:1058800060E070E00E94DF326091A12F7091A22F42
:105890008091A32F9091A42F28EE33E040E050E0B8
:1058A0000E94CD65CE018196BA01A9010E943263A2
:1058B00081E08BA758C08DA58823E9F4AE96CE0170
:1058C00060E072E00E940A35009709F447C0CE01FB
:1058D0000E94453521EC38E24091B1285091B22820
:1058E000B9010E945A666091B1287091B228CE0128
:1058F0000E94613533C0823059F483E08DA7CE0118
:10590000499645E050E060E070E00E9432631BA6DB
:105910008E010F5E1F4FC8010E94B62AAE96CE01BF
:105920000E9452350097D1F0CE010E9452359093DB
:10593000B2288093B128CE010E944535BC0121ECEC
:1059400038E24091B1285091B228C9010E945A66AC
:10595000CE010E942F35C8010E94B62A1092B228AB
:105960001092B1280AC080E090E00E94B62A1092FE
:10597000B2281092B12810922513DF91CF911F9178
:105980000F910895EF92FF920F931F93CF93DF93A0
:10599000EC018A0188819981009731F023E0803001
:1059A000920709F00BC131C080E00BC0E82FF0E096
:1059B000EE0FFF1FEE0FFF1FEF5CFC4E11821082F7
:1059C0008F5F843098F380934B138091940990916A
:1059D000950990934213809341130E94A5158093DB
:1059E000822F0E94A5158093832F83E493E160E4C6
:1059F00070E00E94C7030E9413200E94FE4C80E0CA
:105A000093E09983888381E0DCC0623009F4B8C0F8
:105A1000633030F4662309F495C0613081F7A2C089
:105A2000673819F0683859F741C010924C1391E368
:105A3000E92E93E1F92E18C0F70182819381801736
:105A4000910749F4808191810E949A21F701118286
:105A500010821382128284E090E0E80EF91E809199
:105A60004C138F5F80934C1380914C13843020F340
:105A7000EFEEFDE2838194818017910719F414827F
:105A800013821082BC969EE2EF39F90799F7E8E895
:105A9000FEE2858996898017910711F4118A108A90
:105AA00079962FE2E238F207A1F7A9CF83E14334D8
:105AB0005807D1F5CA010E94F2030097A9F110928C
:105AC0004C138CE2E82EF12C2BC090E08E9DF0015F
:105AD0008F9DF00D9E9DF00D1124E653F24D85A192
