:100000000C9406020C9425020C9425020C942502F3
:100010000C9425020C9425020C9425020C942502C4
:100020000C9425020C9425020C9425020C942502B4
:100030000C9425020C945F490C9425020C94250223
:100040000C9425020C9425020C9425020C94250294
:100050000C9451130C94820A0C9425020C942502E2
:100060000C9425020C94F70A0C9425020C9425029A
:100070000C9425020C9425020C9425020C94250264
:100080000C94FC470C9425020C9425020C94250238
:100090000C94260B0C9425020C9425020C9425023A
:1000A0000C9425020C9425020C9425020C94250234
:1000B0000C9425020C9425020C9425020C94250224
:1000C0000C9425020C9425020C9425020C94250214
:1000D0000C9425020C9425020C9425020C94250204
:1000E0000C9425020C940A130C9414130C94001312
:1000F0000C94BA120C9445130C9436130C942A13D6
:100100000C941E130C9425020C9425020C942502C9
:100110000C9425020C9425020C9425020C942502C3
:10012000257325730A004E657665722D75736564B7
:1001300020737461636B203E2025642062797465AE
:10014000730A000A2D2D2D2D2D2D2D2D2D0A002069
:10015000203C6E6F6E653E002920256C75730A0089
:100160002F2575202876696120000A526F75746505
:1001700073205B2575206D61785D0A0020203C6E40
:100180006F6E653E000A000A4E65696768626F72AD
:1001900073205B2575206D61785D0A000A000A41B5
:1001A0006464726573736573205B2575206D617877
:1001B0005D0A002578003A003A3A004F6E6C696E8D
:1001C000650A00526F7574696E6720456E61626CD6
:1001D00065640A0052504C20456E61626C65640A89
:1001E0000025732025732C206368616E6E656C207A
:1001F0002575202C20636865636B2072617465200F
:10020000257520487A20747820706F7765722025D4
:10021000750A004555492D3634204D41433A202575
:10022000782D25782D25782D25782D25782D257864
:100230002D25782D25780A0052616E646F6D20455A
:100240005549363420616464726573732067656E46
:100250006572617465640A000A2A2A2A2A2A2A2AEF
:10026000426F6F74696E672025732A2A2A2A2A2A08
:100270002A0A00020000FFFE00000141544D4547DC
:100280004131323872666131006C6F63616C686F46
:10029000737400454550524F4D20697320636F724F
:1002A000727570742C20726577726974696E67203C
:1002B000776974682064656661756C74732E0A00D2
:1002C000452025642E256420636C6F636B20256CAC
:1002D000752063707520256C75206C706D20256C01
:1002E000752069727120256C7520676C6564202506
:1002F0006C7520796C656420256C7520726C656462
:1003000020256C7520747820256C75206C697374B9
:10031000656E20256C752073656E736F7273202572
:100320006C752073657269616C20256C750A0053C9
:100330002025642E256420636C6F636B20256C750B
:1003400020747820256C7520727820256C752072B9
:10035000747820256C752072727820256C75207257
:1003600065786D697420256C752061636B747820E5
:10037000256C75206E6F61636B747820256C752019
:1003800061636B727820256C752074696D65646F8C
:10039000757420256C752062616461636B727820CE
:1003A000256C7520746F6F6C6F6E6720256C7520DF
:1003B000746F6F73686F727420256C75206261644E
:1003C00073796E636820256C752062616463726363
:1003D00020256C7520636F6E74656E74696F6E6432
:1003E000726F7020256C752073656E64696E67642A
:1003F000726F7020256C75206C6C747820256C757C
:10040000206C6C727820256C750A000011241FBEC8
:10041000CFEFD1E4DEBFCDBF13E0A0E0B2E0EAED64
:10042000F3ED00E00BBF02C007900D92AC3DB107A9
:10043000D9F719E3ACEDB3E001C01D92A337B107C2
:10044000E1F70E942E070C94EB690C940000EF92E8
:10045000FF920F931F93DF93CF93CDB7DEB76097D3
:100460000FB6F894DEBF0FBECDBF7C01FC018081CA
:1004700091818C35910501F180369105C9F1009784
:1004800009F06EC08FEF84B985B980BB81BB8CED5C
:1004900093E062ED74E040E050E022ED34E003ECE4
:1004A00012E00E94F10480E094E060E872E00E94B3
:1004B000C7038CE590E018C080E094E00E94F2034E
:1004C000009709F452C080E094E00E94D2030E9499
:1004D000500460E872E00E94B965BC0188EF93E0C7
:1004E0000E94C70380E690E0F701918380833DC0BE
:1004F00088EF93E00E94F2030097B9F180E092E068
:100500000E94AE668FEF92E09A8389831C821B82E1
:100510001E821D8218861F821A8619861C861B86DB
:100520001E861D8680E091E0988B8F878CED93E08E
:1005300062E172E041E150E09E012F5F3F4F0E9477
:10054000DE0485B18F3F11F415B802C08FEF85B975
:1005500081B38F3F11F411BAACCF8FEF81BBA9CF1C
:10056000F7011182108283E001C081E060960FB62E
:10057000F894DEBF0FBECDBFCF91DF911F910F91D9
:10058000FF90EF900895EF92FF9200D000D084E2A8
:1005900092E0EDB7FEB792838183F482E3820E94FA
:1005A0007C660F900F900F900F90FF90EF90089542
:1005B0008091080490910904009729F410920B048B
:1005C00010920A0408950E94BD09E0910804F09178
:1005D00009042281338140815181240F351F281B5A
:1005E000390B0CC04281538160817181460F571FC6
:1005F000481B590B4217530708F49A010480F581F0
:10060000E02D309779F7280F391F30930B04209392
:100610000A04089585E692E00E948A160895CF9212
:10062000DF92EF92FF920F931F93CF93DF937C01A2
:10063000FC0180819181009729F08A35910509F0AC
:100640006EC00BC010920904109208048AE590E075
:10065000F7019183808381E066C0673849F5CA015C
:10066000E0910804F091090403C00480F581E02DB5
:10067000309741F32681378128173907B1F3E0938A
:100680000804F09309040FC016962D913C9117971A
:100690002817390739F414962D913C911597358315
:1006A0002483DF01FD01A481B581109769F7CECFC6
:1006B000623861F6C0910804D091090400E010E0AE
:1006C0002BC0CE010E9485170097F1F08E819F818B
:1006D00068E8AE010E9435160097A1F41F821E82C1
:1006E0008C819D810115110521F0F801958384838A
:1006F00004C090930904809308041D821C820E9408
:10070000D802D8CF0E940A038E019C818D81C92E08
:10071000E6016E01D82EE601209799F697CFF701F2
:100720001182108283E0DF91CF911F910F91FF9092
:10073000EF90DF90CF900895CF93DF93EC010E946C
:100740000A038E819F81009769F0E0910804F0917F
:10075000090406C0EC17FD07A9F00480F581E02D1F
:100760003097C1F780919A0990919B099F838E835E
:1007700080910804909109049D838C83D09309048F
:10078000C09308040E94D802DF91CF910895CF93BF
:10079000DF93EC010E946517CE010E949C03DF915C
:1007A000CF910895CF93DF93EC010E947117CE0192
:1007B0000E949C03DF91CF910895CF93DF93EC01CA
:1007C0000E947B17CE010E949C03DF91CF91089578
:1007D000FC0180819181860F971F918380830E9405
:1007E000D802089521E030E0FC01868197810097CE
:1007F00011F020E030E0C9010895FC01228133812D
:1008000080819181280F391FC9010895FC018081E1
:100810009181089521E030E08091080490910904CD
:10082000009711F420E030E0C90108958091080498
:1008300090910904009729F020910A0430910B044B
:1008400002C020E030E0C9010895CF93DF93EC01AE
:10085000E0910804F09109048E179F0741F48C8100
:100860009D81909309048093080414C0FC01309783
:1008700031F0848195818C179D07C1F707C01D82D7
:100880001C821F821E82DF91CF9108958C819D81F1
:10089000958384830E94D802F2CF0E944266089515
:1008A0000E943D6608958F929F92AF92BF92CF9221
:1008B000DF92EF92FF920F931F93CF93DF935C0130
:1008C000FC0180819181009729F08B3A910509F014
:1008D0004EC007C08BEA90E0F5019183808381E0F0
:1008E0004AC08091882F6817A9F7E42EE7017E019E
:1008F000F52EE701209771F38091C72D81FFEACF94
:10090000C090B728D090B8288CE0E82E84E0F82E6C
:100910006091CC2D7091CD2DC701A6010E945A6621
:10092000EE89FF893097B1F280909A0990909B09E7
:100930008A8D9B8D90939B0980939A094091EF2813
:100940005091F0285427452754270091F128109101
:10095000F228102701271027CE016FEC78E22FED47
:1009600038E2099590929B0980929A09B3CFF501DC
:100970001182108283E0DF91CF911F910F91FF9040
:10098000EF90DF90CF90BF90AF909F908F900895A1
:100990000F931F93FC01808D918D009751F09F0163
:1009A0002E5F3F4F028913891027012710270E94CD
:1009B000792E80E090E01F910F9108950F931F937F
:1009C000FC01808D918D009739F0028913891027E1
:1009D000012710270E94792E80E090E01F910F914F
:1009E0000895AF92BF92CF92DF92EF92FF920F9352
:1009F0001F93CF93DF93EC015B017A016901809132
:100A00000C09882349F482E892E060E070E00E94DB
:100A1000671681E080930C09BD8AAC8ADB8ACA8A9A
:100A2000E114F10441F0DE011296F70180E101903A
:100A30000D928150E1F71F8B0E8B00919A09109156
:100A40009B0982E892E090939B0980939A097C2D00
:100A50006D2DC701AE010E94182B998F888F0097CA
:100A600029F03A2D2B2DFC01318B208B10939B0903
:100A700000939A0921E030E0888D998D009711F458
:100A800020E030E0C901DF91CF911F910F91FF90DD
:100A9000EF90DF90CF90BF90AF9008956F927F92CC
:100AA0008F929F92AF92BF92CF92DF92EF92FF927E
:100AB0000F931F93CF93DF93E82EE7017E01F92E6A
:100AC000E7017724662423EBC22E21E0D22E96EB99
:100AD000A92E91E0B92E88EB882E81E0982E01C0D6
:100AE0007E2C188100E089817801E80EF11CE11468
:100AF000F10481F477FC10C0E72CE394772049F5EA
:100B000000D0EDB7FEB7928281820E948E660F9070
:100B10000F901FC0171464F0662061F000D0EDB78D
:100B2000FEB7B282A1820E948E660F900F9002C023
:100B300077247A9400D000D0EDB7FEB7D282C1827C
:100B4000F482E3820E948E660F900F900F900F90B8
:100B5000E72CF2E06F0E2296862D803109F0C0CF8F
:100B6000DF91CF911F910F91FF90EF90DF90CF9089
:100B7000BF90AF909F908F907F906F900895E6E424
:100B8000F1E03081208190818081829586958695E3
:100B90008370307C830F269526952073820F929563
:100BA0009C70890F0895BF92CF92DF92EF92FF92CF
:100BB0000F931F93DF93CF93CDB7DEB728970FB670
:100BC000F894DEBF0FBECDBF0E94D90B0E94E50B8B
:100BD00081E069E146E00E94550B81E061E377E145
:100BE0000E949C0B81E00E94D00B0E94AD0984B74B
:100BF00084B784B784B784B7E3E7F9E322E432E447
:100C0000318320833A968DB79EB70A97E817F90784
:100C1000B8F300D000D088E592E0ADB7BEB7129629
:100C20009C938E9311978CE892E014969C938E93EC
:100C300013970E948E660F900F900F900F900E9456
:100C400093190E94B31585E692E060E070E00E947F
:100C500067160E942418E091BD02F091BE0209952A
:100C60000E94BF0590E00E944D04CE0101960E94B3
:100C70009409882359F000D088E392E0EDB7FEB7DD
:100C8000928381830E948E660F900F90AFEBB8E243
:100C9000FE01319688E001900D928150E1F78E01BE
:100CA0000F5F1F4FC8010E9488130E949E097C019C
:100CB0000E94A309BC01C701A8010E94010F0E9464
:100CC000FC080E94E60E0E94A8090E9491102DB710
:100CD0003EB7225130400FB6F8943EBF0FBE2DBF35
:100CE000EDB7FEB7319683E192E0ADB7BEB712968D
:100CF0009C938E9311978981828313828A81848346
:100D000015828B81868317828C81808711868D81E5
:100D1000828713868E81848715868F8186871786C2
:100D20008885808B118A0E948E66EDB7FEB7729619
:100D30000FB6F894FEBF0FBEEDBF0E94CB1DE09131
:100D40000D03F0910E030995E091F402F091F50284
:100D50000995E0919E03F0919F0309950091F2029D
:100D60001091F302C0900B03D0900C030E94E30E8D
:100D7000B82EE0901903F0901A03F7010995009737
:100D800049F0F7010995BC0180E890E00E94B9653F
:100D90007B0103C030E8E32EF12C0E9494102DB7A4
:100DA0003EB72C5030400FB6F8943EBF0FBE2DBF5B
:100DB000EDB7FEB7319621EE31E0ADB7BEB7129672
:100DC0003C932E93119713830283D582C482B682FB
:100DD0001782F186E086828713860E948E66EDB7C1
:100DE000FEB73A960FB6F894FEBF0FBEEDBF84ED86
:100DF00091E0928381830E948E6683EC91E0ADB78F
:100E0000BEB712969C938E9311970E948E660F9098
:100E10000F9081E793E060E070E00E94671685E53F
:100E200092E00E94A01600D08BEB91E0EDB7FEB7E8
:100E3000928381830E948E660F900F9028960FB642
:100E4000F894DEBF0FBECDBFCF91DF911F910F9100
:100E5000FF90EF90DF90CF90BF9008952F923F9238
:100E60004F925F926F927F928F929F92AF92BF92BA
:100E7000CF92DF92EF92FF920F931F93CF93DF9366
:100E80000E94D305A6E2CA2EA1E0DA2EFEE9AF2E1B
:100E9000F1E0BF2EECE98E2EE1E09E2E77E8672E82
:100EA00071E0772E60E3462E512C55E8252E51E057
:100EB000352E0E94C3150E94F10B80910D26909152
:100EC0000E26009729F0019790930E2680930D2609
:100ED000E0900F26F0901026009111261091122616
:100EE0000E94CA09E616F7060807190711F30E94BF
:100EF000CA0960930F267093102680931126909351
:100F000012262CE330E040E050E00E94CD656115F0
:100F100071058105910511F40E94D11960910F2688
:100F200070911026809111269091122628E532E0CA
:100F300040E050E00E94CD65623071058105910569
:100F400009F009C100D000D0ADB7BEB71296BC926F
:100F5000AE92119784E090E014969C938E93139731
:100F60000E948E660CEA1FE20F900F900F900F9078
:100F7000C0E0D0E04CE1E42EF12CF8018081882320
:100F8000B1F0CE9DC001CF9D900DDE9D900D11243E
:100F90008355904D0E944E0500D0ADB7BEB7129656
:100FA0009C928E9211970E948E660F900F902196C0
:100FB000045E1F4FC430D10501F700D000D0EDB75B
:100FC000FEB77282618284E190E0948383830E9401
:100FD0008E6603E611E30F900F900F900F90C0E024
:100FE000D0E081E0D8019C919923A9F0C49DC00173
:100FF000C59D900DD49D900D11248C599E4C0E943E
:101000004E0500D0EDB7FEB7328221820E948E6677
:101010000F900F9080E02196005D1F4FC431D105E5
:1010200009F7882369F000D0ECE7F1E0ADB7BEB76F
:101030001296FC93EE9311970E948E660F900F907C
:1010400000D000D0EAE6F1E0ADB7BEB71296FC934F
:10105000EE93119784E190E014969C938E931397EE
:101060000E948E66C3E2D5E30F900F900F900F9011
:1010700000E010E081E09881992309F449C08EE2F4
:1010800090E0089F7001099FF00C189FF00C11244C
:10109000C7018C5D9A4C0E944E0500D000D0EDB780
:1010A000FEB7319680E691E0ADB7BEB712969C933D
:1010B0008E9311978989828313820E948E660F9086
:1010C0000F900F900F90C7018A5C9A4C0E944E05BA
:1010D00000D000D000D0E8E5F1E0ADB7BEB7129681
:1010E000FC93EE9311978BA19CA1ADA1BEA1EDB78E
:1010F000FEB783839483A583B6830E948E668DB7E3
:101100009EB706960FB6F8949EBF0FBE8DBF80E0C7
:101110000F5F1F4FAE960431110509F0ACCF882345
:1011200069F000D0EFE4F1E0ADB7BEB71296FC93E2
:10113000EE9311970E948E660F900F9000D0E3E41B
:10114000F1E0ADB7BEB71296FC93EE9311970E94F3
:101150008E660F900F9080910F2690911026A0918F
:101160001126B09112269370A070B0708330910553
:10117000A105B10509F09DCEE3E7F9E380819181F6
:1011800022E482349207A9F000D000D0ADB7BEB7F8
:101190001296DC92CE921197E357F9431496FC9382
:1011A000EE9313970E948E660F900F900F900F9002
:1011B00080CE3A96B1E4E53FFB0700F37ACE00D04B
:1011C00000D000D0EDB7FEB7319620E231E0ADB7E8
:1011D000BEB712963C932E931197938382837583A7
:1011E00064830E948E668DB79EB706960FB6F894FC
:1011F0009EBF0FBE8DBF08950F931F93DF93CF93B4
:10120000CDB7DEB7A2970FB6F894DEBF0FBECDBF45
:1012100082E290E00E940D6989839A83982F9B5007
:10122000903108F08A839A819095891709F470C0EB
:1012300000D083E992E0ADB7BEB712969C938E932F
:1012400011970E948E668E010D5F1F4F0F900F90B9
:10125000D80180E090E0FC01ED58FD4FE491ED9362
:10126000019688309105B9F7F894CE01039660E0B5
:1012700070E048E050E00E941369D80180E090E0FF
:10128000FC01E558FD4FE491ED9301968E309105F8
:10129000B9F7CE01039668E070E04EE050E00E949E
:1012A000136980E090E0FC01E757FD4FE491D8011D
:1012B000ED938D0101968A309105A9F7CE01039631
:1012C00066E170E04AE050E00E94136984E290E039
:1012D0006DEC7BEA0E942B6986E290E060E070E0B2
:1012E0000E942B6988E290E060E00E941D6980E224
:1012F00090E060E070E00E942B698AE1898385EECE
:101300008A8369817A8182E290E00E942B697894D5
:101310008981A2960FB6F894DEBF0FBECDBFCF91E4
:10132000DF911F910F910895F89460E070E048E01C
:1013300050E00E94F568789480E0089584E290E09F
:101340000E940D69089586E290E00E940D6908955B
:1013500088E290E00E9405690895F8941092B60022
:1013600016BC83EF87BD82E084BD94E095BD95B344
:1013700095BB80936E007894089520910D0930916B
:101380000E0980910D0990910E0928173907A9F7C8
:10139000C901089520911B2630911C2640911D26DD
:1013A00050911E2680911B2690911C26A0911D26EF
:1013B000B0911E26281739074A075B0759F7B9016C
:1013C000CA01089560931B2670931C2680931D26E6
:1013D00090931E260895CF93DF93EC010E94BD09E0
:1013E000C80FD91F0E94BD098C1B9D0B97FDFACF1A
:1013F000DF91CF9108958430910548F00397880FCD
:10140000991F880F991F969587950197F1F7089571
:10141000CF93DF93EC0184EE93E005C00E94FB09BB
:10142000219787EE93E02097C9F7DF91CF91089538
:101430000F931F931FB7F89420910D0930910E0957
:10144000280F391F30930E0920930D0920910F09A1
:10145000FC01E20FF11D0091BF27609117267091EA
:1014600018268091192690911A26DF012CC0A058C9
:10147000B04020911B2630911C2640911D26509192
:101480001E262F5F3F4F4F4F5F4F20931B263093F9
:101490001C2640931D2650931E260023A1F0209168
:1014A00013263091142640911526509116262F5F51
:1014B0003F4F4F4F5F4F2093132630931426409396
:1014C000152650931626A038B10588F69F01220FE5
:1014D000232F221F330B319540E050E0260F371F9A
:1014E000481F591F2093172630931826409319261A
:1014F00050931A26EF77F070E0930F091FBF1F91EA
:101500000F9108951F920F920FB60F920BB60F9284
:1015100011242F933F934F935F936F937F938F93F8
:101520009F93AF93BF93EF93FF9380910D09909199
:101530000E09019690930E0980930D0980910F0971
:101540008F5F80930F0980910F0987FF15C010925C
:101550000F0980911B2690911C26A0911D26B09109
:101560001E260196A11DB11D80931B2690931C265B
:10157000A0931D26B0931E268091BF278823F1F0EB
:10158000809110098F5F809310098091100987FF67
:1015900015C0109210098091132690911426A091E5
:1015A0001526B09116260196A11DB11D8093132614
:1015B00090931426A0931526B09316260E940A0431
:1015C000009711F00E940A03FF91EF91BF91AF9134
:1015D0009F918F917F916F915F914F913F912F914B
:1015E0000F900BBE0F900FBE0F901F9018951F927B
:1015F0000F920FB60F920BB60F9211242F933F93B9
:101600004F935F936F937F938F939F93AF93BF930A
:10161000EF93FF938091C600E0912126F09122265E
:10162000309709F00995FF91EF91BF91AF919F918C
:101630008F917F916F915F914F913F912F910F907B
:101640000BBE0F900FBE0F901F9018951F920F9218
:101650000FB60F920BB60F9211242F933F934F9317
:101660005F936F937F938F939F93AF93BF93EF930A
:10167000FF938091CE00E0911F26F09120263097B5
:1016800009F00995FF91EF91BF91AF919F918F91D3
:101690007F916F915F914F913F912F910F900BBE72
:1016A0000F900FBE0F901F901895882371F4109221
:1016B000C5006093C40088E98093C1004093C200D4
:1016C00010922226109221260895813069F41092FA
:1016D000CD006093CC0088E98093C9004093CA0094
:1016E0001092202610921F260895882339F48091A5
:1016F000C00085FFFCCF6093C6000895813031F4AF
:101700008091C80085FFFCCF6093CE0008951F93A1
:10171000182F8A3031F4809111096DE00E94750B09
:1017200002C08D3029F080911109612F0E94750B44
:1017300080E090E01F910895882329F47093222679
:10174000609321260895813021F4709320266093C0
:101750001F260895EF92FF921F93CF93DF93182FC8
:10176000E62EE7017E01F72EE7010CC08A3021F456
:10177000812F6DE00E94750B69916D3019F0812FFA
:101780000E94750B8881882389F7DF91CF911F9183
:10179000FF90EF900895682F80E00E94750B0895E8
:1017A0008093110988E992E09093703980936F39A2
:1017B000089584B7877F84BF88E10FB6F89480933B
:1017C0006000109260000FBE08952FE088E190E065
:1017D0000FB6F894A895809360000FBE2093600028
:1017E0000895A895089588E10FB6F8948093600055
:1017F000109260000FBE0895F89428E088E190E010
:101800000FB6F894A895809360000FBE20936000F7
:10181000FFCF8091332690E0FC01EE0FFF1F9695DD
:10182000982F882797958795E80FF91FEC5CF94D5D
:101830001082089580912A2690E0089580913901C0
:1018400081FD0CC081E491E06FE140E00E946312F1
:10185000813039F021E030E0813129F020E030E0C2
:1018600002C021E030E0C90108958091390181FD75
:1018700012C081E491E06FE140E00E946312982F72
:101880008151823050F09F3141F0913041F081E040
:10189000923031F402C081E0089580E0089580E044
:1018A0000895CF93DF93C0E1D7E20E94350C8823DF
:1018B00011F42197D1F7DF91CF910895E9E3F1E099
:1018C000808180818D7F80838DE090E00197F1F7AA
:1018D00082E491E06FE140E023E00E946D1283E03A
:1018E00090E00197F1F708950E94510C0E945E0C60
:1018F0008091390182608093390180914828882342
:10190000E9F18091940090919500209159283091AF
:101910005A2882179307A0F48091252890912628B1
:10192000A0912728B09128288C57914EAF4FBF4FD8
:101930008093252890932628A0932728B0932828C1
:101940008091940090919500821B930BA0E0B0E0F1
:101950002091252830912628409127285091282829
:10196000820F931FA41FB51F8093252890932628CC
:10197000A0932728B0932828109248281092BF27B8
:1019800080914A288823E9F18091940090919500F4
:1019900020915D2830915E2882179307A0F48091F2
:1019A0002D2890912E28A0912F28B09130288C5767
:1019B000914EAF4FBF4F80932D2890932E28A09328
:1019C0002F28B09330288091940090919500821B2D
:1019D000930BA0E0B0E020912D2830912E2840916B
:1019E0002F2850913028820F931FA41FB51F80937A
:1019F0002D2890932E28A0932F28B0933028109252
:101A00004A2808958091BF27882321F00E94350C31
:101A10000E94740C80E090E008959091390191FD4E
:101A20000AC0282F803108F02FE085E491E06FE0B4
:101A300040E00E946D120895B82FA92FF62FE72FCE
:101A40002091C8273091C9274091CA275091CB27B0
:101A50002F5F3F4F4F4F5F4F2093C8273093C927C9
:101A60004093CA275093CB27862F8E5F87FF0CC0E9
:101A70008091BC279091BD2701969093BD278093BC
:101A8000BC272FEF3FEF0BC022E139E0C9016B2FDC
:101A90007A2F4F2F5E2F0E945A6620E030E0C90156
:101AA000089581E491E06FE140E00E94631208959F
:101AB0000F931F93182F883049F0863039F0893002
:101AC00029F0863119F0893109F041C0809139013E
:101AD00081FD40C00E94510C0E94510D082F181723
:101AE00009F43BC0183019F40E945E0C29C019316A
:101AF00041F48631A9F482E491E06FE140E029E00D
:101B000009C0163169F4893159F482E491E06FE13A
:101B100040E026E00E946D12E3E0F0E03197F1F73B
:101B200082E491E06FE140E0212F0E946D120830C5
:101B300019F4E9E6F1E002C0E3E0F0E03197F1F7F3
:101B40000E94510D811749F023E430E008C022E4DF
:101B500030E005C024E430E002C020E430E0C901F8
:101B60001F910F910895809194009091950090930A
:101B70005E2880935D2821E020934A282093BF2788
:101B80008091390181FF16C0809194009091950059
:101B900090935A2880935928209348282093BE2751
:101BA0007894809139018D7F809339018091BE278F
:101BB0008823E1F786E10E94580D0E94510C089598
:101BC0008091BF27882311F40E94B30D81E090E03B
:101BD00008950F931F938091BF27882359F0809118
:101BE000390181FD74C00E94350C882309F46FC04F
:101BF00000E003C00E94E00D01E08091940090910C
:101C00009500909358288093572811E01093472807
:101C1000789486E00E94580D10932B26109247016D
:101C200080912B268823E1F7809147018E3010F0B8
:101C300010E001C01FEF86E10E94580D80914728F7
:101C40008823E9F180919400909195002091572884
:101C50003091582882179307A0F480912128909101
:101C60002228A0912328B09124288C57914EAF4F61
:101C7000BF4F8093212890932228A0932328B093CC
:101C800024288091940090919500821B930BA0E0F2
:101C9000B0E02091212830912228409123285091B2
:101CA0002428820F931FA41FB51F8093212890938F
:101CB0002228A0932328B093242810924728002399
:101CC00011F00E94020D21E030E016FD02C020E07C
:101CD00030E0C9011F910F910895809394090895F0
:101CE0000E94510D8250813130F4E82FF0E0EF5224
:101CF000FD4F8081089581E00895282F8EE691E0C0
:101D000060E245E00E946D1208958FEF80934E01CE
:101D10008CE691E060EF44E022E00E946D128CE6D8
:101D200091E06EE041E025E00E946D1280E8809332
:101D30006F018091460180936D0184E491E060E23F
:101D400045E021E00E946D120895CF93DF93CDEF1F
:101D5000D3E0CE010197F1F70E945E121092342673
:101D60001092B626109238271092332610923226FF
:101D7000E9E3F1E080818E7F808380818D7F8083A5
:101D800081EC9DE00197F1F780818160808382E49E
:101D900091E06FE140E023E00E946D122197F1F79E
:101DA00080915D0180915E010E94850E83EB92E03F
:101DB00060E070E00E9467160E94B30D81E090E041
:101DC000DF91CF910895809193090895DF93CF9388
:101DD0000F92CDB7DEB789830E94510C29812093E1
:101DE000930988E491E06FE140E00E946D120F904A
:101DF000CF91DF9108950E94E60E86E00E94580D73
:101E000008958093620190936301609360017093E1
:101E100061014115510531F1FA01819180936B0106
:101E2000DA0111968C9180936A01DF01119681810C
:101E300080936901FD01319611968C918093680120
:101E4000DF011196818180936701FD013196119622
:101E50008C911197809366018181809365018281C5
:101E600080936401089583EB92E00E948A1681E0DA
:101E700080932A2680912C2690912D26019690936E
:101E80002D2680932C2680910C2890910D28A091CE
:101E90000E28B0910F280196A11DB11D80930C282A
:101EA00090930D28A0930E28B0930F2881E090E026
:101EB0000895EF92FF92CF93DF9350913326252F11
:101EC00030E0F901EE0FFF1F3695322F22273795AC
:101ED0002795E20FF31FEC5CF94D4081442309F490
:101EE000CEC02091390121FDCAC02091BF272223F5
:101EF00009F4C5C047FF16C00E94090C8091F8275D
:101F00009091F927A091FA27B091FB270196A11D86
:101F1000B11D8093F8279093F927A093FA27B093E7
:101F2000FB27ADC04330B0F40E94090C8091F42728
:101F30009091F527A091F627B091F7270196A11D62
:101F4000B11D8093F4279093F527A093F627B093C3
:101F5000F72795C0C42FD0E022976C177D07B0F407
:101F60000E94090C8091F0279091F127A091F2270F
:101F7000B091F3270196A11DB11D8093F027909396
:101F8000F127A093F227B093F32779C0652F70E073
:101F90009B01220F331F7695762F662777956795DD
:101FA000260F371F2B5C394DB90150E00E945A664D
:101FB00020913326822F90E0FC01EE0FFF1F9695B3
:101FC000982F882797958795E80FF91FEC54F94DBE
:101FD000808180932326822F90E0FC01EE0FFF1F6B
:101FE0009695982F882797958795E80FF91FEC5CB1
:101FF000F94D10822F5F20933326233010F010927A
:1020000033268091332690E0FC01EE0FFF1F96955A
:10201000982F882797958795E80FF91FEC5CF94D65
:102020008081882311F00E94330F609147016093F3
:10203000242680912926882311F0681710F46093D4
:10204000292684E070E00E949F1D6091232683E092
:1020500070E00E949F1D8091CC279091CD27A09188
:10206000CE27B091CF270196A11DB11D8093CC271B
:102070009093CD27A093CE27B093CF2702C0C0E086
:10208000D0E0CE01DF91CF91FF90EF9008950F93B4
:102090001F93DF93CF930F92CDB7DEB78C01FC0176
:1020A00080819181009729F0F5E081319F0769F5E2
:1020B00006C081E195E0F801918380832BC06238EE
:1020C00049F510922A260E94191D8FB78983F8942A
:1020D0000E94731C60E870E00E94590F29812FBF95
:1020E0001816190644F40E946E1CE0911303F09137
:1020F00014030995DECF809127269091282601961A
:102100009093282680932726D4CFF801118210823D
:1021100083E001C081E00F90CF91DF911F910F917B
:1021200008950E940D0D08958091390181FD07C029
:1021300085E491E06FE040E00E946312089580E141
:102140000895DF92EF92FF920F931F93CF93DF9347
:10215000D82E8091390181FF1AC08091940090910E
:10216000950090935A288093592881E080934828BD
:102170008093BE27809139018D7F8093390180E162
:1021800097E22091BE27222311F00197D1F70E94F8
:10219000510C8091BF27882309F441C080914A28BF
:1021A0008823E9F1209194003091950080915D2879
:1021B00090915E2828173907A0F420912D2830919E
:1021C0002E2840912F28509130282C57314E4F4FB8
:1021D0005F4F20932D2830932E2840932F28509323
:1021E00030282091940030919500281B390B40E055
:1021F00050E0E0902D28F0902E2800912F2810918B
:1022000030282E0D3F1D401F511F20932D28309345
:102210002E2840932F285093302810924A2889E185
:102220000E94580D86E00E94AA1D009751F00E945E
:102230009410C82F86E00E94AA1D81500E940D0DA7
:1022400002C0C0E0D0E080919400909195009093FE
:102250005C2880935B2881E080934928F8948091E2
:102260003901826080933901809139018D7F80939B
:1022700039016D2D6E5F82E199E00E94AB12789476
:102280008091BA279091BB2701969093BB278093AA
:10229000BA270E94510C82E491E060EE45E00E9472
:1022A0006312182F86E00E94AA1D009719F08C2F48
:1022B0000E940D0D809149288823E9F12091940016
:1022C0003091950080915B2890915C282817390700
:1022D000A0F42091292830912A2840912B28509150
:1022E0002C282C57314E4F4F5F4F20932928309385
:1022F0002A2840932B2850932C2820919400309129
:102300009500281B390B40E050E06091292870911E
:102310002A2880912B2890912C28260F371F481FA0
:10232000591F2093292830932A2840932B28509313
:102330002C28109249288091BF27882371F0809122
:1023400094009091950090935E2880935D2881E0A1
:1023500080934A280E94B30D02C00E94740C113071
:1023600011F0112369F58091082890910928A09116
:102370000A28B0910B280196A11DB11D8093082851
:1023800090930928A0930A28B0930B288CE00E9410
:10239000AA1D009709F445C08091E4279091E52794
:1023A000A091E627B091E7270196A11DB11D80936A
:1023B000E4279093E527A093E627B093E72731C061
:1023C0001330A9F48091002890910128A09102284F
:1023D000B09103280196A11DB11D80930028909310
:1023E0000128A0930228B093032812E01DC01530E5
:1023F000A9F48091EC279091ED27A091EE27B09160
:10240000EF270196A11DB11D8093EC279093ED2736
:10241000A093EE27B093EF2713E006C0173021F406
:1024200002C010E001C011E0812F90E0DF91CF9158
:102430001F910F91FF90EF90DF900895CF93DF935E
:10244000EB010E941C0D9C01009731F4CE010E940B
:10245000A1109C01009749F08091BC279091BD2765
:1024600001969093BD278093BC27C901DF91CF913E
:1024700008950F931F938091BF27882321F40E9412
:10248000E00D11E001C010E00E94510D863111F005
:10249000813119F40091470109C086E491E06FE1B0
:1024A00040E00E946312082F000F080F112311F063
:1024B0000E94020D802F1F910F910895109296098E
:1024C000109295090895FC018081862390E002C056
:1024D000959587954A95E2F70895F894FC019081C7
:1024E000862F8095892330E002C0220F331F4A9542
:1024F000E2F72623282B20837894089520917B01EE
:10250000322F33503D37E0F4FC012193215030E06D
:10251000A9014F575E4FA0E8B1E06D916193A417F8
:10252000B507D9F7FC01E058FF4F2F573E4FD901AF
:102530002C9120838F579F4F21E0FC012083089529
:10254000DC011C92FC01E058FF4F10828F579F4F17
:10255000FC0110820895FC01609380010196635094
:10256000860F911DA1E8B1E021912D93E817F9079D
:10257000D9F708951F920F920FB60F920BB60F92D4
:1025800011242F933F934F935F936F937F938F9378
:102590009F93AF93BF93EF93FF93809147018093F5
:1025A00024262091322630E0C901880F991F3695E4
:1025B000322F222737952795820F931F8C5C994DD8
:1025C0000E947E12809132268F5F80933226833064
:1025D00010F0109232260E94330FFF91EF91BF91BD
:1025E000AF919F918F917F916F915F914F913F91AB
:1025F0002F910F900BBE0F900FBE0F901F9018954C
:102600001F920F920FB60F9211240F900FBE0F90D2
:102610001F9018951F920F920FB60F9211240F90D2
:102620000FBE0F901F9018951F920F920FB60F922A
:1026300011240F900FBE0F901F9018951F920F92AC
:102640000FB60F9211241092BE270F900FBE0F905D
:102650001F9018951F920F920FB60F92112410928F
:10266000BE270F900FBE0F901F9018951F920F92CC
:102670000FB60F9211248F9381E080932A268F91B9
:102680000F900FBE0F901F9018951F920F920FB6CC
:102690000F92112410922B260F900FBE0F901F90B7
:1026A00018951F920F920FB60F9211248F939F933C
:1026B000809195099091960901969093960980933F
:1026C00095099F918F910F900FBE0F901F901895B5
:1026D000262F372FF901282F392FD90188E0919122
:1026E0009D938150E1F70895282F392FD901862F26
:1026F000972FFC0188E02D919191291729F48150A1
:10270000D1F721E030E002C020E030E0C9010895B7
:10271000282F392FD901E0ECF7E28D91819387E2E0
:10272000E83CF807D1F70895E0910F03F09110030A
:1027300009950895E091A003F091A10309950895EA
:10274000E0911503F091160309950895E0911703A0
:10275000F09118030995089580E090E00895089598
:10276000E091CD02F091CE0209950895009731F0E5
:10277000E091CD02F091CE0209950895E091CF024B
:10278000F091D0020995089580E090E008950F93AC
:102790001F93DF93CF93CDB7DEB7E0970FB6F894D2
:1027A000DEBF0FBECDBF0E94C51C8C010E94731CF2
:1027B000602FAE014F5F5F4F0E94CB4A882309F420
:1027C00045C088A99801281B3109C9010E944F1CE6
:1027D0000097E1F12E81222371F18A859B853BEAE6
:1027E0008D3C930721F03FEF8F3F930779F522301F
:1027F00041F088E090E007C0019722912F3F41F01F
:102800000BC082E090E0FE01E80FF91F3C96F4CF88
:10281000181619068CF30FC089E1BE01645F7F4F63
:102820000E94B31D89E10E94C01D60EC77E20E9406
:102830007413009759F088E1BE016A5E7F4F0E94D1
:10284000B31DE091F802F091F9020995E0960FB6F8
:10285000F894DEBF0FBECDBFCF91DF911F910F91D6
:102860000895AF92BF92CF92DF92EF92FF920F93B3
:102870001F93DF93CF93CDB7DEB7E0970FB6F894F1
:10288000DEBF0FBECDBF6C018B01FE01319680E330
:10289000DF011D928A95E9F781E089838CE00E942F
:1028A000AA1D8C831D821F828091970989878F5F63
:1028B0008093970983E0E82EE8868DEC9BEA9B875E
:1028C0008A8789E10E94C01D62EE72E00E94741343
:1028D000009731F082E08E838FEF8C878D8709C05F
:1028E00089E10E94C01DBC01CE010C960E946813B4
:1028F000EE828DEC9BEA9D8B8C8BCE01469660EC34
:1029000077E20E9468130E94731C9FA78EA70E9403
:10291000C51C88AB7E010894E11CF11CC7010E9414
:10292000C249A82E90E00E94DB1C009741F10E9452
:102930007B1CBC01C7014A2D0E94E049A090C30244
:10294000B090C4020E947B1C7C010E94CF1CBC0181
:10295000C701F5010995C114D10489F0009721F050
:102960008130910561F404C0C80160E070E003C0EB
:10297000C80164E070E041E050E0F6010995E0969E
:102980000FB6F894DEBF0FBECDBFCF91DF911F9180
:102990000F91FF90EF90DF90CF90BF90AF90089590
:1029A0000E94500480939709E091CD02F091CE02ED
:1029B000099508950F931F93CF93DF938C01EB013B
:1029C0004115510549F0FA01828193810E94541EFC
:1029D000C801BE010E943114DF91CF911F910F9168
:1029E00008951F93CF93DF93EC01162F888580FF06
:1029F0001DC0EC81FD813097C9F0D0939B09C09335
:102A00009A0982E08887CE0106960995992787FD65
:102A1000909502978230910510F0133829F4CE0179
:102A2000BE010E941A1502C081E08887DF91CF9114
:102A30001F910895CF92DF92EF92FF920F931F9311
:102A4000CF93DF93EC017B01C0909A09D0909B0952
:102A50000091980910919909F80103C00190F08143
:102A6000E02DEC17FD0719F03097C1F746C020970D
:102A700009F443C08885882309F118860BC0C01764
:102A8000D10729F0C80167E8AE010E94F114F801EE
:102A9000008111810115110591F7EC81FD813097BD
:102AA00069F0CE15DF0551F0D0939B09C0939A09C8
:102AB000CE01069663E840E050E00995E091980960
:102AC000F0919909CE17DF0791F48881998190934D
:102AD0009909809398090DC0808191818C179D0779
:102AE00029F4888199819183808303C0FC01309708
:102AF00099F7D0929B09C0929A09DF91CF911F91CB
:102B00000F91FF90EF90DF90CF9008951F93CF9398
:102B1000DF9310929C09C0919809D091990911E016
:102B20000EC08985882341F018871986CE0162E896
:102B300040E050E00E94F1140990D881C02D209708
:102B400081F7DF91CF911F9108958091470A982FC7
:102B50009F5F9093470A089560919A0970919B092D
:102B60000E941A1508958AE88093470A10929E09D8
:102B700010929D09109299091092980910929B0940
:102B800010929A09089580919C09882311F00E945F
:102B9000861570919D09772309F455C020919E09EF
:102BA00030E0F901EE0FFF1FEE0FFF1FE20FF31FE2
:102BB000E156F64F60816093460A418152815093FD
:102BC000450A4093440A838194819093430A8093F9
:102BD000420A2F5F3F4F2F71307020939E09715032
:102BE00070939D09009741F58091980990919909FA
:102BF00018C080919C09882311F00E94861540918D
:102C0000440A5091450A8091400A9091410A60918E
:102C1000460A0E94F114E091400AF091410A808135
:102C200091819093410A8093400A8091400A90914B
:102C3000410A0097F1F607C0613819F421E0FC0160
:102C400020870E94F11480919C0920919D0930E019
:102C5000280F311DC901089580919C0920919D097B
:102C600030E0280F311DC901089570919D0970321F
:102C7000D9F020919E09270F2F7120933F0A30E051
:102C8000F901EE0FFF1FEE0FFF1FE20FF31FE156DA
:102C9000F64F608352834183948383837F5F709375
:102CA0009D0920E030E002C021E030E0C901089534
:102CB000CF93DF93C0919A09D0919B090E94F114A0
:102CC000D0939B09C0939A09DF91CF910895FC019D
:102CD000AB0190919809809199099C01A32FB22F83
:102CE00003C00D90BC91A02DAE17BF0791F01097B7
:102CF000C1F7309771F090838183F0939909E09345
:102D0000980981E0808717821682CF0161E80E94CE
:102D100058160895FC01009741F08085815082305B
:102D200020F481E0818780939C09089521E030E0C0
:102D3000FC018085882311F420E030E0C90108956A
:102D4000EF92FF92CF93DF93E82EE7017E01F92EF9
:102D5000E70104C060E070E00E94671689919991D4
:102D60000097C1F7DF91CF91FF90EF900895EF9218
:102D7000FF92CF93DF93E82EE7017E01F92EE70162
:102D800002C00E94AC15899199910097D1F7DF910B
:102D9000CF91FF90EF900895CF93DF93EC0188815E
:102DA00099818836910579F08A37910509F44EC0EA
:102DB000009709F04EC00E94A5158093102810922C
:102DC0004E0A10924D0A88E49AE00E94B81B2FEF39
:102DD0008F3F920719F488E690E035C020914D0AA4
:102DE00030914E0A8D30910571F02F3731055CF727
:102DF000F901E15BF54F80832F5F3F4F30934E0A1F
:102E000020934D0AE0CFF901E15BF54F10822F5F6F
:102E10003F4F30934E0A20934D0A80E090E060913E
:102E200010284FE45AE00E94351680919A0990913B
:102E30009B0965E840E050E00E943516009709F0D4
:102E4000BECF8AE790E09983888307C0653829F46C
:102E5000B6CF1982188283E001C081E0DF91CF9163
:102E60000895682F8A30F9F080914F0B882351F430
:102E700088E49AE00E94981B009771F481E08093A7
:102E80004F0B0AC06D3041F488E49AE00E94981B11
:102E9000009711F010924F0B89E293E00E948A167E
:102EA00021E030E002C020E030E0C901089588E46C
:102EB0009AE06FEC7AE040E80E94901B89E293E090
:102EC00060E070E00E9467160895CF93DF93EC01F5
:102ED0007B836A830E94BD0999838883DF91CF91A8
:102EE0000895FC018081918122813381820F931F9B
:102EF000918380830895CF93DF93EC010E94BD09F5
:102F000099838883DF91CF910895CF93DF93EC016C
:102F10000E94BD0928813981821B930B019621E013
:102F200030E04A815B814817590710F020E030E01B
:102F3000C901DF91CF910895EF92FF92CF93DF9374
:102F4000FC01C281D38180819181C80FD91F0E9469
:102F5000BD09C81BD90BCE01DF91CF91FF90EF9037
:102F60000895CF92DF92EF92FF920F931F93CF932A
:102F7000DF938C017A01FC0180819181009729F017
:102F80008B34910509F051C01EC081E59BE00E9481
:102F90006262C82EE6017E01F92EE70109C06C814C
:102FA0007D81CE0102960E94C7030990D881C02D71
:102FB0002097A9F781E08093500B8BE490E0F80113
:102FC0009183808337C06838A9F581E59BE00E9432
:102FD0006262C82EE6016E01D92EE60123C0CE0141
:102FE0000296E816F906D9F481E59BE0BE010E943D
:102FF000B062E0909A09F0909B098A859B85909336
:103000009B0980939A09EC85FD85309719F08E8590
:103010009F850995F0929B09E0929A09CECF09907D
:10302000D881C02D2097D9F6C8CFF801118210821F
:1030300083E001C081E0DF91CF911F910F91FF905C
:10304000EF90DF90CF9008951092500B81E59BE0B8
:103050000E945E6282E493E060E070E00E94671686
:1030600008950F931F93CF93DF93EC0100919A097A
:1030700010919B091B870A875D874C873F872E87A6
:103080008091500B882379F082E493E090939B0920
:1030900080939A09CE0102960E94C70310939B0960
:1030A00000939A0902C07D836C8381E59BE0BE0199
:1030B0000E94B06281E59BE0BE010E94E962DF915F
:1030C000CF911F910F9108950F931F93CF93DF938B
:1030D000EC018091500B882391F000919A09109196
:1030E0009B0982E493E090939B0980939A09CE0117
:1030F00002960E94D20310939B0900939A0981E5DE
:103100009BE0BE010E94B06281E59BE0BE010E948F
:10311000E962DF91CF911F910F9108950F931F9353
:10312000CF93DF93EC018091500B882391F00091B5
:103130009A0910919B0982E493E090939B098093F4
:103140009A09CE0102960E94DD0310939B09009319
:103150009A0981E59BE0BE010E94B06281E59BE097
:10316000BE010E94E962DF91CF911F910F910895F6
:10317000CF93DF93EC018091500B882329F0CE018F
:1031800002960E94250404C01F821E82198618869A
:1031900081E59BE0BE010E94B062DF91CF9108956E
:1031A000CF93DF93EC018091500B882331F0CE0157
:1031B00002960E94F2039C0114C081E59BE00E94EC
:1031C0006262E82FF92F06C0EC17FD0741F001906D
:1031D000F081E02D3097C1F721E030E002C020E01F
:1031E00030E0C901DF91CF910895CF93DF93EFE4F1
:1031F000F8E2C1E1D8E2A3E4B8E211921192199287
:103200001992199219921D9288E2E736F807A9F7E8
:10321000DF91CF9108950F931F93CF93DF93FC011C
:10322000DC01AD5BB74D8C91882339F1009194009E
:1032300010919500EF01CC0FDD1FCC0FDD1FCF5E8D
:10324000D74DDF01AA0FBB1FA15BB74D8D919C919C
:1032500011979801281B390B40E050E06881798173
:103260008A819B81260F371F481F591F2883398366
:103270004A835B8311961C930E93EE0FFF1FEE0F94
:10328000FF1FEF5EF74D6081718182819381DF9135
:10329000CF911F910F91089560E070E0CB010895E8
:1032A000FC01EE0FFF1FEE0FFF1FEF5EF74D408397
:1032B0005183628373830895EF92FF920F931F935C
:1032C000CF93DF9323E438E2C1E1D8E2EFE4F8E200
:1032D000D9018D919D018823C9F0409194005091AE
:1032E0009500808191817A01E81AF90A00E010E0E6
:1032F00088819981AA81BB818E0D9F1DA01FB11F5E
:1033000088839983AA83BB83518340832496329612
:10331000B8E22F343B07E1F6DF91CF911F910F9177
:10332000FF90EF9008950E94754808950F931F93A2
:10333000FC01CB014091530B5091540B33832283FA
:103340001583048371836083F093540BE093530BD4
:103350004115510511F40E948F4880E090E01F91C3
:103360000F9108958091530B9091540B0097C1F0E9
:103370001092540B1092530BDC0114966D917C91BA
:1033800015971296ED91FC9113970995E091530BC7
:10339000F091540B309721F0808191810E948F48E9
:1033A00008950F931F930091C0271091C1270E9489
:1033B000CA092DB73EB7225530400FB6F8943EBF2C
:1033C0000FBE2DBFEDB7FEB731962FE233E0ADB79C
:1033D000BEB712963C932E931197028313821483E7
:1033E000158266837783808791878091C827909123
:1033F000C927A091CA27B091CB2782879387A4873A
:10340000B5878091CC279091CD27A091CE27B09100
:10341000CF2786879787A08BB18B8091D0279091FB
:10342000D127A091D227B091D327828B938BA48BE5
:10343000B58B8091D4279091D527A091D627B091B4
:10344000D727868B978BA08FB18F8091D8279091AB
:10345000D927A091DA27B091DB27828F938FA48F91
:10346000B58F8091DC279091DD27A091DE27B09168
:10347000DF27868F978FA0A3B1A38091E02790913B
:10348000E127A091E227B091E32782A393A3A4A30D
:10349000B5A38091E4279091E527A091E627B0910C
:1034A000E72786A397A3A0A7B1A78091E8279091CB
:1034B000E927A091EA27B091EB2782A793A7A4A7B9
:1034C000B5A78091EC279091ED27A091EE27B091C0
:1034D000EF2786A797A7A0ABB1AB8091F02790917B
:1034E000F127A091F227B091F32782AB93ABA4AB65
:1034F000B5AB8091F4279091F527A091F627B09174
:10350000F72786AB97ABA0AFB1AF8091F82790912A
:10351000F927A091FA27B091FB2782AF93AFA4AF10
:10352000B5AFEDB7FEB7FF968091FC279091FD27D0
:10353000A091FE27B091FF2780839183A283B3835C
:10354000EDB7FEB7ED5BFF4F809100289091012809
:10355000A0910228B091032880839183A283B38332
:10356000EDB7FEB7E95BFF4F8091042890910528E5
:10357000A0910628B091072880839183A283B3830A
:10358000EDB7FEB7E55BFF4F8091082890910928C1
:10359000A0910A28B0910B2880839183A283B383E2
:1035A000EDB7FEB7E15BFF4F80910C2890910D289D
:1035B000A0910E28B0910F2880839183A283B383BA
:1035C0000E948E660091C0271091C1272DB73EB78B
:1035D0002E5A3F4F0FB6F8943EBF0FBE2DBF0E942C
:1035E000CA09ADB7BEB7D2970FB6F894BEBF0FBE2B
:1035F000ADBFEDB7FEB7319620EC32E012963C93AA
:103600002E93119702831382148315826683778326
:10361000808791878091112890911228A09113287A
:10362000B091142882879387A487B5878091152845
:1036300090911628A0911728B0911828868797870F
:10364000A08BB18B8091192890911A28A0911B28EA
:10365000B0911C28828B938BA48BB58B80911D28F5
:1036600090911E28A0911F28B0912028868B978BBF
:10367000A08FB18F8091212890912228A09123289A
:10368000B0912428828F938FA48FB58F80912528A5
:1036900090912628A0912728B0912828868F978F6F
:1036A000A0A3B1A38091292890912A28A0912B282A
:1036B000B0912C2882A393A3A4A3B5A380912D2815
:1036C00090912E28A0912F28B091302886A397A3FF
:1036D000A0A7B1A78091392890913A28A0913B28C2
:1036E000B0913C2882A793A7A4A7B5A780913D28B5
:1036F00090913E28A0913F28B091402886A797A797
:10370000A0ABB1AB0E948E662DB73EB72E5C3F4F8B
:103710000FB6F8943EBF0FBE2DBF1F910F910895B5
:10372000FC017183608341504283138214820895A7
:10373000FC012381428150E030E08481D901A81B43
:10374000B109CD01842395238417950769F0A081E1
:10375000B181A20FB31F6C9383818F5F9281892304
:10376000838321E030E002C020E030E0C901089509
:10377000FC0174816281838190E0272F30E0821BFD
:10378000930B462F50E084239523181619065CF4FA
:10379000A081B181A20FB31F2C91872F8F5F862349
:1037A000848330E002C02FEF3FEFC9010895FC0190
:1037B000228130E02F5F3F4FC9010895FC01238132
:1037C00030E08481281B3109828190E0282339234D
:1037D000C901089580E38093550B0895EF92FF92FD
:1037E000CF93DF932091550B30E0C0E3D0E0C21BB4
:1037F000D30B265A344FB901AE010E945A66CE014E
:10380000DF91CF91FF90EF900895AF92BF92CF924A
:10381000DF92EF92FF920F931F93CF93DF937C0180
:10382000C090560BD090570B2091550B30E086017D
:10383000005D1F4F021B130B01381105E0F4C0E3BC
:10384000D0E0C21BD30B265A344FB901AE010E94FF
:103850005A66CE0DDF1D2091580B3091590B809187
:103860000C0C90910D0C280F391FCE01B901A60147
:103870000E945A6602C000E010E0C801DF91CF91BB
:103880001F910F91FF90EF90DF90CF90BF90AF907E
:1038900008959091550B980F9093550B0895409172
:1038A000560B5091570B9C014817590798F080917F
:1038B0000C0C90910D0C820F931F90930D0C809324
:1038C0000C0C421B530B5093570B4093560B21E0AB
:1038D00030E002C020E030E0C90108959093570B1A
:1038E0008093560B089520910C0C30910D0C2657A7
:1038F000344FC90108952091550B30E0265A344FBA
:10390000C901089521E030E08091580B9091590B46
:103910004BE08A38940711F420E030E0C9010895A3
:103920000E94821C009771F02AE83BE06091580BDE
:103930007091590B4091560B5091570BC9010E9441
:103940005A660895A0910C0CB0910D0C1097B9F027
:103950002091560B3091570B205D3F4FA657B44F27
:10396000EAE8FBE080E390E003C04D9141930196CB
:1039700082179307D4F310920D0C10920C0C08953B
:103980008091580B9091590B08958091560B90910E
:10399000570B08959091550B80E3891B089580E3A0
:1039A0009091550B891B2091560B3091570B280F86
:1039B000311DC90108951F93CF93DF93EC0110913E
:1039C000550B812F90E08C179D076CF00E94CF1C47
:1039D0008C0F9D1F8138910530F41C1B1093550BE3
:1039E00021E030E002C020E030E0C901DF91CF915A
:1039F0001F910895CF93DF93E7E8F8E211921192B7
:103A000088E2E73BF807D1F7C0E0D0E0CE0123E041
:103A1000880F991F2A95E1F78959974D62EE72E058
:103A20000E9468132196C430D10581F7DF91CF91B0
:103A3000089510920D0C10920C0C1092570B1092CE
:103A4000560B80E38093550B8AE89BE09093590BCB
:103A50008093580B0E94FA1C08950F931F93CF93E5
:103A6000DF93EC018B010E94191DD093590BC09379
:103A7000580B1093570B0093560BDF91CF911F916A
:103A80000F910895CF92DF92EF92FF920F931F93C1
:103A9000DF93CF9300D0CDB7DEB78C0169837A83F3
:103AA0000E94191D69817A81C62ED72E21E8C2167F
:103AB000D10418F030E8C32ED12C8091580B90918E
:103AC000590BB801A6010E945A66D092570BC092BA
:103AD000560BC6010F900F90CF91DF911F910F9160
:103AE000FF90EF90DF90CF900895282F392FD901C4
:103AF000E7E8F8E280E301900D928150E1F7862F2C
:103B0000972FDC01E7E6F8E280E201900D92815008
:103B1000E1F70895E7E8F8E2282F392FD90180E38B
:103B20000D9001928150E1F7A7E6B8E2862F972F1A
:103B3000FC0180E201900D928150E1F70895E82F99
:103B4000F0E0EE0FFF1FE957F74D7183608381E0CE
:103B500090E00895E82FF0E0EE0FFF1FE957F74DD2
:103B600080819181089590E0E3E0880F991FEA95A4
:103B7000E1F78955984D0E94681381E090E008951F
:103B8000282F30E0F3E0220F331FFA95E1F7295593
:103B9000384DC90108958CE593E00E94D6618CE40C
:103BA00093E00E94D66184E593E00E94D661089577
:103BB000EF92FF920F931F93CF93DF930E94821C8B
:103BC0000097C9F084E593E00E94F661E82EE701D2
:103BD0007E01F92EE701209791F10E94C51C99837F
:103BE00088830E94C01C9B838A83C70104960E941D
:103BF000EE1B8CAB24C08CE493E00E94F661EC01D8
:103C00007E01F92EE7012097D1F08CE593E00E9428
:103C1000F6618C0199838883009779F002960E945F
:103C2000051CF80191838083B8016E547F4FC80151
:103C30008E579F4F0E94751D02C0C0E0D0E0CE019C
:103C4000DF91CF911F910F91FF90EF900895FC01AC
:103C500080819181BC016E547F4F8E579F4F0E948F
:103C6000751D0895CF93DF93EC018CE493E0BE01C2
:103C70000E944162009749F0688179818CE593E068
:103C80000E941C628CE493E009C084E593E0BE01CD
:103C90000E944162009729F084E593E0BE010E94F2
:103CA0001C62DF91CF910895EF92FF92CF93DF9343
:103CB000EC018CE493E0BE010E944162009791F018
:103CC0000990D881C02D68817981CE0102960E9429
:103CD000421DBE016E547F4FCE018E579F4F0E94F2
:103CE0008A1D1BC084E593E0BE010E9441620097DB
:103CF000A1F00E94191D688179818A819B810E94AF
:103D0000421D8CA990E00E94DB1C0E947B1C4CA9E8
:103D10002496BE0150E00E945A66DF91CF91FF9039
:103D2000EF900895CF93DF93EC018CE493E0BE0114
:103D30000E944162009729F0288139812E5F3F4F10
:103D40000CC084E593E0BE010E944162009719F027
:103D50002A813B8102C020E030E0C901DF91CF9190
:103D60000895DC01ED91FC91119780819181089576
:103D700070E023E0660F771F2A95E1F76E507040E0
:103D8000FC0120813181260F371FC9010895DC0114
:103D9000ED91FC91119770E06F5B7F4F660F771F7D
:103DA000E60FF71F80819181089508959C0141508D
:103DB0005040460F571FDB0110C0FC91E0E0119608
:103DC0008C911197BF01680F711D260F371F2617A1
:103DD000370710F42F5F3F4F1296A417B50768F30B
:103DE000A417B50749F49C9180E0280F391F2817C4
:103DF000390710F42F5F3F4FC90108950F931F93A8
:103E0000DF93CF9300D0CDB7DEB700912B13309165
:103E1000CB2820E010E0201B310B9091CC28290FFB
:103E2000311D3A83298329813A81A901480F511D07
:103E3000CA016FEC78E240E250E00E94D61E498150
:103E40005A81B8016151774D0E94D61E009719F032
:103E5000382F292F02C02FEF3FEFC9010F900F908D
:103E6000CF91DF911F910F910895A0912B136A2F8D
:103E700070E0685D7F4FFB01E953F74D418150E0F1
:103E800083E0440F551F8A95E1F7495F5F4F22E0B9
:103E900054C0FC01E60FF71FE953F74D3081313074
:103EA00009F448C0313018F03336D1F402C02F5F26
:103EB00044C020932C130E943B60009709F047C038
:103EC00090912C1380912B13E92FF0E0E80FF11D56
:103ED000E151F74D8181890F8E5F80932C1335C09E
:103EE000832F90E0807C90708038910549F0803C71
:103EF000910549F080349105E9F420932C1327C0F3
:103F000020932C1306C020932C138091DF288F3F21
:103F100001F130E040E050E02A0F311D411D511DFC
:103F2000285D3F4F4F4F5F4F84E062E00E94CF2FEC
:103F300082E0089581818E5F280F822F90E04817DC
:103F400059070CF0A6CF20932C1380E0089581E050
:103F5000089581E00895FC014381460F4093BE28F7
:103F6000872F99272281280F2093BD28A181A09314
:103F7000BC2850815093BB2830E02817390748F4FB
:103F80008A2F8F5F8093BC28882319F45F5F50933A
:103F9000BB28842F90E070708617970798F4809163
:103FA000BD288F5F8093BD28882361F48091BC2851
:103FB0008F5F8093BC28882329F48091BB288F5F72
:103FC0008093BB280895BC018091CE2D9091CF2D78
:103FD00044960E94AB1FE091CE2DF091CF2D8091A1
:103FE000BB28848B8091BC28858B8091BD28868BD3
:103FF0008091BE28878B08959C01AB0180E090E002
:10400000B9010E94D61E382F292FC90108958AE3CD
:104010000E94FE1E089586E00E94FE1E089581E122
:104020000E94FE1E08950E94044780E009C0E82F08
:10403000F0E0EE0FFF1FEC57F14D118210828F5F01
:104040008430A8F340E08CE290E00DC0242F30E0F3
:10405000289FF001299FF00D389FF00D1124E053A7
:10406000F24D15A24F5F443088F380E094E09093C6
:1040700036138093351340E089E190E00EC0242F81
:1040800030E0289FF001299FF00D389FF00D11249A
:10409000E257F14D118A108A4F5F4A3080F3409306
:1040A000331308950F931F93CF93DF93209135130C
:1040B000309136134CE250E02F5F3F4FEDE7203058
:1040C0003E0710F020E030E1B22FA32F10E015C022
:1040D000C12FD0E0C49FF001C59FF00DD49FF00D1B
:1040E0001124E053F24D05A1002331F00088F1893D
:1040F000E02DEA17FB0701F31F5F143049F73093F7
:104100003613209335131092331310E0E0E0F0E003
:104110002CE230E020C0412F50E0429FD001439F6D
:10412000B00D529FB00D1124A053B24D95964C91F5
:104130009597442321F410933313FD0110C04730A9
:1041400049F4309731F096965C91969746A14517C1
:1041500008F4FD011F5F1430F0F210933313309711
:10416000B1F122E025A320912D13208F20912E1351
:10417000218F20912F13228F20913013238F148AA7
:10418000158A168A178A24EC34E0378F268F31A3DC
:1041900020A321E030E0358F248F17A221E026A351
:1041A00023E024A312A220E123A320913513309110
:1041B0003613322723273227318B208B738B628B68
:1041C000EF01DC0180E10D9009928150E1F7CF0110
:1041D000DF91CF911F910F9108950F931F93CF936C
:1041E000DF9360912B136623E9F070E0C091B7284C
:1041F000D091B828C61BD70B8E01085210406151D0
:10420000774D8FEE98E2A8010E946366D093B8289C
:10421000C093B728E7ECF8E214839E012852258367
:1042200010922B13DF91CF911F910F9108950F934F
:104230001F93CF93DF93209135133091361349E1CB
:1042400050E02F5F3F4FEDE720303E0710F020E0B9
:1042500030E1B22FA32F10E012C0C12FD0E0C49FD5
:10426000F001C59FF00DD49FF00D1124E257F14DE0
:104270000088F189E02DEA17FB0719F31F5F1A3058
:1042800061F7309336132093351310E049E150E085
:1042900019C0012F0F5F212F30E0249FF001259FCF
:1042A000F00D349FF00D1124E257F14DDF015096CF
:1042B000C089D189209729F410933313309749F49A
:1042C00033C0102F1A3028F310933313E0E0F0E0DE
:1042D0002BC040913513509136135427452754274E
:1042E00011965C934E93738B628B009731F480E14F
:1042F000EF0119928A95E9F707C0EF01DC0180E12F
:104300000D9009928150E1F789E190E0289FD0015A
:10431000299FB00D389FB00D1124A257B14D809147
:104320009E2F54968C935497CF01DF91CF911F917C
:104330000F91089540E013C0E42FF0E0542F5F5F29
:10434000EE0FFF1FEC57F14D2081318128173907FF
:1043500029F440933313118210820895452F44307D
:1043600058F340933313089540E013C0E42FF0E076
:10437000542F5F5FEE0FFF1FEC57F14D208131810D
:104380002115310529F440933313918380830895D7
:10439000452F443058F3409333130895BF92CF9282
:1043A000DF92EF92FF920F931F93CF93DF93C09111
:1043B000CE2DD091CF2D843009F488C323E039E28B
:1043C0003093CD2D2093CC2D3093BA282093B9284B
:1043D000833079F48DA190E08F70907083309105D7
:1043E00009F079C08C8D9D8D009711F00C94612A95
:1043F00091C0823009F092C01092B8281092B7286C
:1044000010928D2E10928C2E809130138F5F80939E
:104410003013882399F480912F138F5F80932F138B
:10442000882361F480912E138F5F80932E1388234D
:1044300029F480912D138F5F80932D138DA18730E8
:1044400011F0853051F48EA18F5F8EA3843111F06D
:104450000C94612A1DA20C94612A882311F40C94F7
:10446000612A2C8D3D8D2115310509F44FC09EA187
:10447000292F21502EA3992311F00C94612A9FA17A
:10448000983031F0282F2150223048F4953039F4FB
:104490001DA280E88093C72D0E94122EFAC6953087
:1044A00048F423E030E0092E02C0220F331F0A94A3
:1044B000E2F701C020E32EA39F5F9FA390E08F70DF
:1044C000907083309105E1F0843091054CF4813097
:1044D000910509F4C6C48230910509F0F2C70DC0F8
:1044E0008630910509F471C68830910509F46DC6CE
:1044F0008430910509F0E5C768C61092FC28B4C461
:1045000084E08093C72D0E94122EF5C68F708330F1
:1045100009F0D7C788E08093C72DB0C6853019F55C
:10452000E091CA2DF091CB2D80899189009709F4F3
:10453000C8C71092CF2D1092CE2D2C503040309302
:10454000CD2D2093CC2D3093BA282093B9281092EA
:104550008D2E10928C2E1092B8281092B72888E0D9
:104560008093C72DB1C2E901EC978091C728807F65
:10457000803609F0A6C79091CB2880E02091CC2806
:10458000820F911D2091B7283091B828281739073C
:1045900008F497C788969093B8288093B72880919D
:1045A000CF288F3F09F48DC7CE0106969093C92D71
:1045B0008093C82D10922B1310922A138091CD282E
:1045C0008823F9F481E080932A130E94351F8130FB
:1045D00009F477C7813018F0823099F47AC7809156
:1045E0002B13E82FF0E0E151F74DF093C92DE09344
:1045F000C82D885F9181990F990F990F890F80932A
:104600002B138FED98E20E946D42009709F01CC1B8
:104610008FED98E20E94A343009709F015C1209105
:10462000DF282F3F09F495C02E3F29F48091E02820
:10463000803809F48EC08091CF288E3F29F4809174
:10464000D028803809F485C08091CF289091D02857
:10465000009759F58091D1289091D228009729F59B
:104660008091D3289091D4280097F9F48091D5288F
:104670009091D6280097C9F48091D7289091D82896
:10468000009799F48091D9289091DA28009769F4DD
:104690008091DB289091DC28009739F48091DD2807
:1046A0009091DE28009709F454C08091DF28909102
:1046B000E028009761F58091E1289091E228009729
:1046C00031F58091E3289091E428009701F58091DD
:1046D000E5289091E6280097D1F48091E728909101
:1046E000E8280097A1F48091E9289091EA280097A2
:1046F00071F48091EB289091EC28009741F480911F
:10470000ED28882321F48091EE28813011F18091E9
:10471000B7289091B82825E08130920738F082E0E0
:1047200060E020E035E040E050E009C08091CE2814
:10473000823040F483E060E020E030E0A9010E9494
:10474000CF2FC7C60E9482608091CE2881508F8370
:10475000C0C68091CF288E3F09F0B3C68091D02883
:10476000803809F0AEC68091CF289091D02800976C
:1047700059F58091D1289091D228009729F5809100
:10478000D3289091D4280097F9F48091D52890915E
:10479000D6280097C9F48091D7289091D8280097FF
:1047A00099F48091D9289091DA28009769F4809142
:1047B000DB289091DC28009739F48091DD289091D6
:1047C000DE28009709F47DC68091DF289091E028CB
:1047D000009769F58091E1289091E228009739F5DA
:1047E0008091E3289091E428009709F58091E528CD
:1047F0009091E6280097D9F48091E7289091E828D5
:104800000097A9F48091E9289091EA28009779F41B
:104810008091EB289091EC28009749F48091ED2845
:10482000882329F48091EE28813009F44AC62F3F6D
:1048300009F447C68FED98E20E943D42882309F0B3
:1048400040C681E062E078CFE091C82DF091C92D9B
:1048500080818B32E9F18C3248F4863009F488C1CA
:10486000813109F4A5C0882389F059C08A3309F43D
:1048700060C08B3320F48C3209F051C022C68B33D8
:1048800009F41FC68C3309F04AC006C080912A1370
:1048900080FD45C0816009C080912A1381FF04C05A
:1048A00086FD3DC0806401C0826080932A130E940F
:1048B000351F813009F405C6813018F0823021F6A9
:1048C00008C680912B13E82FF0E0E151F74D1AC094
:1048D00080912A1382FD23C0846080932A138091E3
:1048E0002B13282F30E0F901E151F74D93819923E3
:1048F00049F0265D3F4F442737FD4095542F84E013
:1049000060E01DCFF093C92DE093C82D885F9181A1
:10491000990F990F990F890F80932B1395CFE75C0F
:10492000F8429F01442737FD4095542F84E061E011
:1049300006CF0E940720EFEF8F3F9E0709F0C1C509
:10494000E0912B13F0E0E953F74D80A50E947B2BFB
:10495000E0912B13F0E0E953F74D80A58638E1F0A4
:10496000873838F48138C1F08538B1F08038A1F447
:1049700010C0883841F0883818F08B3969F406C0C7
:104980000E942C310DC00E94B6330AC00E94745A96
:1049900007C00E942A2F04C01092B8281092B7288E
:1049A0008091B7289091B828009709F48AC591C5DD
:1049B0000E94ED208091B7289091B828C0979093DD
:1049C000B8288093B72887EF98E29093CD2D8093F5
:1049D000CC2D8091F5289091F628009739F00E940F
:1049E0000F20FFEF8F3F9F0709F06BC50091F12863
:1049F0001091F2280115110509F463C58EE89EE2B5
:104A00009093CB2D8093CA2D40C0888999890097B7
:104A1000B9F108171907A1F58A899B89009739F020
:104A20002091EF283091F0282817390749F588811F
:104A300099810097E1F48A819B810097C1F48C8170
:104A40009D810097A1F48E819F81009781F48885D4
:104A50009985009761F48A859B85009741F48C8540
:104A60009D85009721F48E859F850097C1F08FEC7E
:104A700098E2BE0140E150E00E944D66009779F057
:104A80006996D093CB2DC093CA2DC091CA2DD091D9
:104A9000CB2D2FE2C838D20708F4B7CF12C5109239
:104AA000CF2D1092CE2D82E08093C72D87EF98E214
:104AB0009093CD2D8093CC2D9093BA288093B928D4
:104AC00010928D2E10928C2E0E94122E80918C2E80
:104AD00090918D2E009709F4F4C49C01205D3F4F06
:104AE0003093B8282093B72808969093CB28285263
:104AF0002093CC28E091CA2DF091CB2D24892093CE
:104B0000CE2821E12093CD28CFEED8E2982789271F
:104B100098279D838C831F821E8280899189909320
:104B2000F0288093EF28828993899B838A83DE0112
:104B3000509780E101900D928150E1F78FEC98E25F
:104B40006FED78E20E94684683E099E29093CD2D64
:104B50008093CC2D0E940F20809590959F838E830B
:104B6000009709F0A4C48FEF9FEF9F838E839FC4AB
:104B70000E94ED200E940B20EFEF8F3F9E0709F06F
:104B8000A0C40FEE18E2E090F128F090F228E114B2
:104B9000F10409F496C4C090EF28D090F028C11415
:104BA000D10409F48EC4C0EDDDE2BDA0BB20A1F0AC
:104BB00088899989E816F90679F48A899B89C81643
:104BC000D90651F48FEC98E2BE0140E150E00E941A
:104BD0004D66009709F45EC1AC96FEE2C038DF076F
:104BE00021F78091FC288F738230B9F4F092321350
:104BF000E092311320E00DC0E22FF0E0EE0FFF1F36
:104C0000EC57F14D808191812F5FE816F90609F488
:104C10005FC0243088F3209333138091FC2882FDF9
:104C200050C484E1F80185878CE390E09093B82824
:104C30008093B72880E584878091F6289091FA28A0
:104C400097833091F5289091F928968332872091A7
:104C5000F4289091F828958321879091F3289093D8
:104C600033134091F728448390878F5F838788238D
:104C700061F4832F8F5F8287882339F4822F8F5FBF
:104C80008187882311F49F5F90878091EF2890910E
:104C9000F02890933213809331132091F1283091B2
:104CA000F2283093F0282093EF28F8019383828331
:104CB000EFEDF8E2DF01509780E10D900192815015
:104CC000E1F78FEC98E26FED78E20E946846D3C37B
:104CD0001092331340E0C0E0D0E08CE290E026C0B8
:104CE000242F30E0289FF001299FF00D389FF00D10
:104CF0001124E053F24D25A1222321F440933313D4
:104D0000EF0118C0273089F4209721F036A12EA199
:104D1000231758F4242F30E0289FE001299FD00D5D
:104D2000389FD00D1124C053D24D4F5F4430C0F294
:104D300040933313209709F4C4C3D093CF2DC0936D
:104D4000CE2D83E08EA38CA31AA284E08BA31FA296
:104D50008091F1289091F228998B888B8091EF288F
:104D60009091F0289B8B8A8BDE01EFECF8E280E1DA
:104D700001900D928150E1F781E08DA380912D1378
:104D8000888F80912E13898F80912F138A8F809125
:104D900030138B8F81E090E09D8F8C8F8091F6286F
:104DA0008F8B8091F5288E8B8091F4288D8B80914C
:104DB000F3288C8B81E090E00E94E31F8091FB2818
:104DC000282F30E0207F3070213531050CF449C0A8
:104DD00082958F7090E00597880F991F880F991F13
:104DE0005091341340E034C0F901E953F74D54AD0C
:104DF000552329F4409333131092341332C05130A9
:104E000011F44F5F25C05230E1F465AD6430C9F450
:104E1000409333135093341336AD20E087AD90E0C8
:104E2000822B932B9093321380933113F4E0853CC3
:104E30009F0710F084EC94E09F8F8E8F99A388A336
:104E400010C02C5F364DF9012081222331F0420F32
:104E5000242F30E0281739073CF240933313509346
:104E6000341380E18093FC28EFEEF8E28091FC2877
:104E70008260858782E0848B84E0858B868B84ECDE
:104E8000878B80E490E09093B8288093B72880E6E1
:104E90008487B7C2D093CF2DC093CE2D1092C72D4B
:104EA0008091FC2890E082FF03C01DA280E250C2E6
:104EB0004091FB2842954F70440F440F40933313A9
:104EC0002091B7283091B82828523040241B31094E
:104ED0003093B8282093B7284B2D50E04F70507076
:104EE0004230510539F4AC014F73507042315105D5
:104EF00051F429C04130510531F4AC014F73507069
:104F00004230510501F12115310531F49C01237026
:104F1000307021153105B9F03091F3282C89321702
:104F200079F43091F4282D89321751F43091F52815
:104F30002E89321729F43091F6282F89321719F06B
:104F400081FD8FCF52C284FF4AC06C8D7D8D61156B
:104F5000710509F444C0CE0148960E94AB1F309100
:104F6000F7288091BB283817D1F52091F828809137
:104F7000BC282817A1F59091F9288091BD28981791
:104F800071F58091FA284091BE28841741F5388F39
:104F9000298F9A8F8B8F8FA18823D1F42AA18CA17E
:104FA0009EA1891B922F969596959695891B280F01
:104FB0002AA387FD81959BA1392F36953695931BA2
:104FC000980F9BA3822F869586958695890F8CA333
:104FD00081E08093C72D8CA18EA31D8E1C8E2DA1E8
:104FE00030E0C9018F7090708430910509F4B5C12B
:104FF0008530910564F482309105C9F183309105C3
:105000000CF0B9C08130910509F05BC211C0863047
:10501000910509F4E2C1863091050CF4BEC18730D8
:10502000910509F4E2C18830910509F04AC28AC1AC
:105030008091C72D80FF14C083E08DA380E480930E
:10504000C72D1D8E1C8E8091B7289091B82800978F
:1050500009F410C122E42093C72D0E94E31F0AC166
:105060008091FC288F73823009F02BC2FACE809198
:10507000C72D80FF75C08091FC288F73823109F0A5
:105080006FC08091FB28282F30E0207F30702135C1
:1050900031050CF449C082958F7090E00597880F18
:1050A000991F880F991F5091341340E034C0F901C3
:1050B000E953F74D54AD552329F44093331310921F
:1050C000341332C0513011F44F5F25C05230E1F437
:1050D00065AD6430C9F4409333135093341336AD47
:1050E00020E087AD90E0822B932B90933213809336
:1050F0003113F4E0853C9F0710F084EC94E09F8F1F
:105100008E8F99A388A310C02C5F364DF9012081A2
:10511000222331F0420F242F30E0281739073CF2C8
:10512000409333135093341383E08DA38091F3287D
:105130008C8B8091F4288D8B8091F5288E8B8091BB
:10514000F6288F8B81E090E00E94E31F82E4809339
:10515000C72D1D8E1C8E1092B8281092B7288AC0B9
:1051600080E28093C72D0E94122EE091CE2DF09107
:10517000CF2D15A252CD8091FC2880FF2AC024FD9E
:1051800028C08C8D9D8D009709F09BC18091B72818
:105190009091B82801960E94E31F2091C72D822F7D
:1051A00080618093C72D8091B7289091B82800978F
:1051B00019F022612093C72D0E94122E81E090E009
:1051C0009D8F8C8F88E08DA31FA281E18093FC28A6
:1051D0000FC185FF1CC05091012940E08091022938
:1051E00090E0842B952B4091CC2D5091CD2D480FE4
:1051F000591F5093CD2D4093CC2D4091B7285091FD
:10520000B828481B590B5093B8284093B728809171
:10521000B7289091B828009749F024FD07C0209145
:10522000C72D22602093C72D0E94E31F9091FD2877
:1052300080E02091FE28820F911D9093321380937D
:10524000311328A139A12817390710F0009721F44C
:105250003093321320933113809131139091321394
:105260009F8F8E8F8091C72D90E0837090700097F4
:1052700009F427C110928D2E10928C2E0E94122EAE
:105280008091C72D85FF07C010928D2E10928C2E15
:105290001DA284E19BCF84FF0AC010928D2E109234
:1052A0008C2E81E090E09D8F8C8F84E08CCF2091BC
:1052B0008C2E30918D2E21153105E1F080FF02C03A
:1052C0001D8E1C8E8C8D9D8D009781F48E8D9F8DF3
:1052D0008217930720F490938D2E80938C2E8091CB
:1052E0008C2E90918D2E9D8F8C8F04C090938D2E3F
:1052F00080938C2E1FA28091B9289091BA28909308
:10530000CD2D8093CC2D80918C2E90918D2E009759
:1053100059F08C8D9D8D009739F0CC969093B828DC
:105320008093B72888E10BC08091C72D81FFC9C049
:105330008CE390E09093B8288093B72880E1809325
:10534000FC285CC08091C72D80FFBBC01DA280E1FE
:105350008093C72D0E94122EB4C08091B7289091DF
:10536000B828009711F00E94E31F9091FC288091CB
:10537000C72D90FF0BC080FF06C087E08DA31EA243
:105380001D8E1C8E19C086E08DA316C080FF1EC026
:1053900085E08DA31D8E1C8E94C08091B7289091BE
:1053A000B828009711F00E94E31F8091FC2880FF2D
:1053B0000DC087E08DA31EA281E090E00E94E31F54
:1053C00080E18093C72D0E94122E0FC08091B728D4
:1053D0009091B828009749F474C08091C72D80FF40
:1053E00070C087E08DA31EA26CC080E1F8018587A4
:1053F0008CE390E09093B8288093B72880E5809361
:10540000FB280FEE18E28C89F80180878D8981874F
:105410008E8982878F898387888D8483898D858310
:105420008A8D86838B8D878386E08093CD288889BB
:1054300099899093F0288093EF288A899B89938398
:105440008283D8015097FE0180E101900D92815036
:10545000E1F78FEC98E26FED78E20E9468468DA14B
:1054600084FF04C0F8011786168605C084E0F801A1
:10547000868784EC878780919E2F8093CE288091A9
:10548000B7289091B8289C01285230403093CB28FF
:1054900088528093CC28CFEED8E21B8A1A8A198AC8
:1054A000188A0E940B2080959095998B888B80E6B6
:1054B0008093C7281092C8281092CA281092C92831
:1054C00008C01092B8281092B72810922B1310928F
:1054D0002A131092C72DDF91CF911F910F91FF904A
:1054E000EF90DF90CF90BF900895382F292FC901FA
:1054F0000895382F292F40E050E076276727762738
:1055000080E090E0CB0177276627262B372B482BAE
:10551000592BB901CA010895AC01E091B928F09165
:10552000BA28222733272E1B3F0B2953324D6217EF
:1055300073070CF49B011216130664F420938C2E4F
:1055400030938D2E4E175F0729F0CF01BA01A901C4
:105550000E945A66089589E493E10E94F20300973D
:1055600021F089E493E10E94DD030895E091561350
:10557000F0915713309711F00995089580E0089540
:105580009093571380935613089520919A09309160
:105590009B0960E0E7E3F3E113C0408151814817C4
:1055A000590761F4428153814217530739F46093DC
:1055B0005513118210820E949A21089534966F5FCC
:1055C000643058F360935513089540E0E7E3F3E146
:1055D00016C0542F5F5F208131812115310569F498
:1055E000409354139183808320919A0930919B09B1
:1055F000338322830E94B42108953496452F44308A
:1056000040F3409354130895FC0180919A099091BE
:105610009B0991A780A773A762A70895FC018091B9
:105620009A0990919B09968B858B708F678B089553
:10563000CF93DF93EA010E941721FC01009741F00C
:1056400080919A0990919B09968B858BD08FC78BFF
:10565000CF01DF91CF9108950F931F93DF93CF93E5
:10566000CDB7DEB760970FB6F894DEBF0FBECDBFE3
:105670008C01AB018FEF92E09A8389831C821B829D
:105680001E821D8218861F821A8619861C861B861A
:105690001E861D8680E091E0988B8F87CE01019653
:1056A000B8010E94182BFC01009711F0118B008BA0
:1056B000CF0160960FB6F894DEBF0FBECDBFCF917D
:1056C000DF911F910F9108952091802E3091812EAE
:1056D0002115310571F420919A0930919B0930937D
:1056E000812E2093802E9093832E8093822E80E0B3
:1056F000089581E00895DF93CF930F92CDB7DEB781
:1057000089838091802E9091812E009739F060914D
:10571000892FAE014F5F5F4F0E9458160F90CF91B7
:10572000DF91089581E793E062E040E050E00E945D
:1057300058161092B8281092B72810922B1308957B
:105740000F931F93CF93DF938091B7289091B82840
:10575000009709F412C125E08130920708F0FEC0DD
:105760000FED18E28091DF289091E028009759F51D
:105770008091E1289091E228009729F58091E32813
:105780009091E4280097F9F48091E5289091E6281B
:105790000097C9F48091E7289091E828009799F440
:1057A0008091E9289091EA28009769F48091EB288C
:1057B0009091EC28009739F48091ED289091EE2893
:1057C000009709F4CBC08091DF288F3F09F4CBC04C
:1057D0008FED98E20E943D42882379F48FED98E2A4
:1057E0000E947345009731F40E9478418C01009724
:1057F00021F4B4C08C010D5E1F4FC8010E940D61E1
:10580000009709F0ABC0C8010E94A140EC010097CD
:1058100009F051C0C80160E070E040E020E00E9463
:10582000FA3FEC01009709F499C08C01025D1F4F0B
:10583000C80160E072E00E940A35009799F0C80143
:105840000E94453527EC38E24091B7285091B8289E
:10585000B9010E945A666091B7287091B828C801B2
:105860000E9461358FEC98E20E946D42AE014F5F5D
:105870005F4F009719F08FEC98E202C080E090E053
:1058800060E070E00E94DF326091A72F7091A82F36
:105890008091A92F9091AA2F28EE33E040E050E0AC
:1058A0000E94CD65CE018196BA01A9010E943263A2
:1058B00081E08BA758C08DA58823E9F4AE96CE0170
:1058C00060E072E00E940A35009709F447C0CE01FB
:1058D0000E94453527EC38E24091B7285091B8280E
:1058E000B9010E945A666091B7287091B828CE011C
:1058F0000E94613533C0823059F483E08DA7CE0118
:10590000499645E050E060E070E00E9432631BA6DB
:105910008E010F5E1F4FC8010E94B62AAE96CE01BF
:105920000E9452350097D1F0CE010E9452359093DB
:10593000B8288093B728CE010E944535BC0127ECDA
:1059400038E24091B7285091B828C9010E945A66A0
:10595000CE010E942F35C8010E94B62A1092B828A5
:105960001092B7280AC080E090E00E94B62A1092F8
:10597000B8281092B72810922B13DF91CF911F9166
:105980000F910895EF92FF920F931F93CF93DF93A0
:10599000EC018A0188819981009731F023E0803001
:1059A000920709F00BC131C080E00BC0E82FF0E096
:1059B000EE0FFF1FEE0FFF1FE95CFC4E11821082FD
:1059C0008F5F843098F38093511380919A0990915E
:1059D0009B0990934813809347130E94A5158093C9
:1059E000882F0E94A5158093892F89E493E160E4B4
:1059F00070E00E94C7030E9413200E94FE4C80E0CA
:105A000093E09983888381E0DCC0623009F4B8C0F8
:105A1000633030F4662309F495C0613081F7A2C089
:105A2000673819F0683859F741C01092521397E35C
:105A3000E92E93E1F92E18C0F70182819381801736
:105A4000910749F4808191810E949A21F701118286
:105A500010821382128284E090E0E80EF91E809199
:105A600052138F5F8093521380915213843020F32E
:105A7000E5EFFDE2838194818017910719F4148288
:105A800013821082BC969EE2E53AF90799F7EEE898
:105A9000FEE2858996898017910711F4118A108A90
:105AA00079962FE2E838F207A1F7A9CF83E14934CC
:105AB0005807D1F5CA010E94F2030097A9F110928C
:105AC00052138CE2E82EF12C2BC090E08E9DF00159
:105AD0008F9DF00D9E9DF00D1124E053F24D85A198
