:100000000C9406020C9425020C9425020C942502F3
:100010000C9425020C9425020C9425020C942502C4
:100020000C9425020C9427020C9425020C942502B2
:100030000C9425020C942A4B0C9425020C94250256
:100040000C9425020C9425020C9425020C94250294
:100050000C9462150C94930C0C9425020C942502BC
:100060000C9425020C94080D0C9425020C94250286
:100070000C9425020C9425020C9425020C94250264
:100080000C94C7490C9425020C9425020C9425026B
:100090000C94370D0C9425020C9425020C94250227
:1000A0000C9425020C9425020C9425020C94250234
:1000B0000C9425020C9425020C9425020C94250224
:1000C0000C9425020C9425020C9425020C94250214
:1000D0000C9425020C9425020C9425020C94250204
:1000E0000C9425020C941B150C9425150C941115D9
:1000F0000C94CB140C9456150C9447150C943B158A
:100100000C942F150C9425020C9425020C942502B6
:100110000C9425020C9425020C9425020C942502C3
:10012000257325730A004E657665722D75736564B7
:1001300020737461636B203E2025642062797465AE
:10014000730A000A2D2D2D2D2D2D2D2D2D0A002069
:10015000203C6E6F6E653E002920256C75730A0089
:100160002F2575202876696120000A526F75746505
:1001700073205B2575206D61785D0A0020203C6E40
:100180006F6E653E000A000A4E65696768626F72AD
:1001900073205B2575206D61785D0A000A000A41B5
:1001A0006464726573736573205B2575206D617877
:1001B0005D0A002578003A003A3A004F6E6C696E8D
:1001C000650A00526F7574696E6720456E61626CD6
:1001D00065640A0052504C20456E61626C65640A89
:1001E0000025732025732C206368616E6E656C207A
:1001F0002575202C20636865636B2072617465200F
:10020000257520487A20747820706F7765722025D4
:10021000750A004555492D3634204D41433A202575
:10022000782D25782D25782D25782D25782D257864
:100230002D25782D25780A0052616E646F6D20455A
:100240005549363420616464726573732067656E46
:100250006572617465640A000A2A2A2A2A2A2A2AEF
:10026000426F6F74696E672025732A2A2A2A2A2A08
:100270002A0A00020000FFFE00000141544D4547DC
:100280004131323872666131006C6F63616C686F46
:10029000737400454550524F4D20697320636F724F
:1002A000727570742C20726577726974696E67203C
:1002B000776974682064656661756C74732E0A00D2
:1002C000452025642E256420636C6F636B20256CAC
:1002D000752063707520256C75206C706D20256C01
:1002E000752069727120256C7520676C6564202506
:1002F0006C7520796C656420256C7520726C656462
:1003000020256C7520747820256C75206C697374B9
:10031000656E20256C752073656E736F7273202572
:100320006C752073657269616C20256C750A0053C9
:100330002025642E256420636C6F636B20256C750B
:1003400020747820256C7520727820256C752072B9
:10035000747820256C752072727820256C75207257
:1003600065786D697420256C752061636B747820E5
:10037000256C75206E6F61636B747820256C752019
:1003800061636B727820256C752074696D65646F8C
:10039000757420256C752062616461636B727820CE
:1003A000256C7520746F6F6C6F6E6720256C7520DF
:1003B000746F6F73686F727420256C75206261644E
:1003C00073796E636820256C752062616463726363
:1003D00020256C7520636F6E74656E74696F6E6432
:1003E000726F7020256C752073656E64696E67642A
:1003F000726F7020256C75206C6C747820256C757C
:10040000206C6C727820256C750A000011241FBEC8
:10041000CFEFD1E4DEBFCDBF14E0A0E0B2E0ECE16D
:10042000F8ED00E00BBF02C007900D92AA3BB107A8
:10043000D9F71AE3AAEBB4E001C01D92A638B107C0
:10044000E1F70E943F090C940C6C0C9400001F9281
:100450000F920FB60F920BB60F921124EF92FF92EC
:100460000F931F932F933F934F935F936F937F93BC
:100470008F939F93AF93BF93EF93FF938091E20489
:100480009091E304009781F58091EE049091EF0440
:1004900001969093EF048093EE04833091050CF461
:1004A00045C080E092E00E949F6881E090E09093D8
:1004B000E3048093E2040E94DB0B6093BE0470931C
:1004C000BF048093C0049093C1040E94DB0B60932F
:1004D000BA047093BB048093BC049093BD04109243
:1004E000EF041092EE0422C0E090BE04F090BF042E
:1004F0000091C0041091C1040894E11CF11C011D7D
:10050000111D0E94DB0BE616F7060807190770F4A9
:100510000E94DB0B6093BE047093BF048093C00401
:100520009093C10480E392E00E949F68FF91EF9155
:10053000BF91AF919F918F917F916F915F914F91FB
:100540003F912F911F910F91FF90EF900F900BBE55
:100550000F900FBE0F901F901895EF92FF920F9380
:100560001F93DF93CF93CDB7DEB7CA56D0400FB6F7
:10057000F894DEBF0FBECDBF7C018CE692E00E94F6
:100580009F688FEF92E09A8389831C821B821E8270
:100590001D8218861F821A8619861C861B861E8657
:1005A0001D8680E091E0988B8F878DB79EB70A9764
:1005B0000FB6F8949EBF0FBE8DBFEDB7FEB7319654
:1005C0008E010F5E1F4FADB7BEB712961C930E93F0
:1005D000119782E792E09383828315821482F782D7
:1005E000E68281E090E0918780870E94D668F801DA
:1005F00001900020E9F7AF0141505040401B510BE2
:100600008DB79EB70A960FB6F8949EBF0FBE8DBFEA
:1006100082EC94E0B8019E012F5F3F4F0E9471066B
:10062000C659DF4F0FB6F894DEBF0FBECDBFCF91D6
:10063000DF911F910F91FF90EF900895AF92BF92BD
:10064000CF92DF92EF92FF920F931F93CF93DF939E
:10065000EC0188819981009729F08737910509F08D
:10066000C9C02BC014B815B810BA11BA809168006F
:1006700081608093680080916B00816080936B0043
:1006800082EC94E062ED74E040E050E022ED34E072
:100690000AE014E00E94840686EE94E060E871E0CF
:1006A0000E9460058EED94E060E870E00E942504F1
:1006B00087E790E099838883A1C086EE94E00E944A
:1006C0008B05009709F49AC086EE94E00E946B05B2
:1006D0008091E2049091E304009709F484C084E0DF
:1006E00090E09093E5048093E404E090BA04F090E5
:1006F000BB040091BC041091BD0484E190E0A0E033
:10070000B0E0E80EF91E0A1F1B1F0E94DB0B6E15DE
:100710007F058007910708F040C00E94DB0B5B015A
:100720006C01E090BA04F090BB040091BC041091FD
:10073000BD040E94DB0BADB7BEB71E970FB6F89491
:10074000BEBF0FBEADBFEDB7FEB731962CE932E0AC
:1007500012963C932E931197A282B382C482D582C3
:10076000E682F78200871187A80197012C5E3F4F30
:100770004F4F5F4F261B370B480B590B2287338790
:10078000448755870E946D68EDB7FEB73E960FB659
:10079000F894FEBF0FBEEDBF26C00E94DB0B00D059
:1007A00000D000D023EE32E0ADB7BEB712963C9336
:1007B0002E931197EDB7FEB7638374838583968379
:1007C0000E946D681092E3041092E2041092E50416
:1007D0001092E4042DB73EB72A5F3F4F0FB6F8944E
:1007E0003EBF0FBE2DBF8091E4049091E5040E94AE
:1007F000AD025ECF1982188283E001C081E0DF91F3
:10080000CF911F910F91FF90EF90DF90CF90BF900D
:10081000AF900895EF92FF92C70163E173E00E94E9
:10082000E106FC018081833769F4C70167E173E069
:100830000E94E1060E941868009721F480E090E091
:100840000E94AD02FF90EF900895CF93DF93EC01EB
:100850007B836A830E94CE0B99838883DF91CF913B
:100860000895FC018081918122813381820F931F41
:10087000918380830895CF93DF93EC010E94CE0B88
:1008800099838883DF91CF910895CF93DF93EC0113
:100890000E94CE0B28813981821B930B019621E0A7
:1008A00030E04A815B814817590710F020E030E0C2
:1008B000C901DF91CF910895EF92FF92CF93DF931B
:1008C000FC01C281D38180819181C80FD91F0E9410
:1008D000CE0BC81BD90BCE01DF91CF91FF90EF90CB
:1008E00008958091F0049091F104009729F41092FA
:1008F000F3041092F20408950E94CE0BE091F004EC
:10090000F091F1042281338140815181240F351F00
:10091000281B390B0CC04281538160817181460FC5
:10092000571F481B590B4217530708F49A010480BC
:10093000F581E02D309779F7280F391F3093F304B4
:100940002093F204089583E493E00E949B18089595
:10095000CF92DF92EF92FF920F931F93CF93DF938B
:100960007C01FC0180819181009729F08A359105F5
:1009700009F06EC00BC01092F1041092F0048AE5E9
:1009800090E0F7019183808381E066C0673849F584
:10099000CA01E091F004F091F10403C00480F581F4
:1009A000E02D309741F32681378128173907B1F3BD
:1009B000E093F004F093F1040FC016962D913C9152
:1009C00017972817390739F414962D913C911597EC
:1009D00035832483DF01FD01A481B581109769F778
:1009E000CECF623861F6C091F004D091F10400E0FE
:1009F00010E02BC0CE010E9445040097F1F08E81DB
:100A00009F8168E8AE010E9446180097A1F41F82FA
:100A10001E828C819D810115110521F0F8019583BD
:100A2000848304C09093F1048093F0041D821C829F
:100A30000E947104D8CF0E94A3048E019C818D81F5
:100A4000C92EE6016E01D82EE601209799F697CFC0
:100A5000F7011182108283E0DF91CF911F910F91F6
:100A6000FF90EF90DF90CF900895CF93DF93EC014C
:100A70000E94A3048E819F81009769F0E091F004A9
:100A8000F091F10406C0EC17FD07A9F00480F58190
:100A9000E02D3097C1F78091820A9091830A9F835D
:100AA0008E838091F0049091F1049D838C83D09388
:100AB000F104C093F0040E947104DF91CF91089576
:100AC000CF93DF93EC010E942504CE010E943505EF
:100AD000DF91CF910895CF93DF93EC010E94310411
:100AE000CE010E943505DF91CF910895CF93DF931A
:100AF000EC010E943B04CE010E943505DF91CF91AD
:100B00000895FC0180819181860F971F91838083D6
:100B10000E947104089521E030E0FC0186819781F4
:100B2000009711F020E030E0C9010895FC01228116
:100B3000338180819181280F391FC9010895FC01FB
:100B400080819181089521E030E08091F0049091BE
:100B5000F104009711F420E030E0C901089580917C
:100B6000F0049091F104009729F02091F204309163
:100B7000F30402C020E030E0C9010895CF93DF9371
:100B8000EC01E091F004F091F1048E179F0741F41D
:100B90008C819D819093F1048093F00414C0FC013A
:100BA000309731F0848195818C179D07C1F707C07C
:100BB0001D821C821F821E82DF91CF9108958C813D
:100BC0009D81958384830E947104F2CF8F929F92BE
:100BD000AF92BF92CF92DF92EF92FF920F931F934B
:100BE000CF93DF935C01FC0180819181009729F014
:100BF0008B3A910509F04EC007C08BEA90E0F501F1
:100C00009183808381E04AC080919B306817A9F767
:100C1000E42EE7017E01F52EE701209771F3809124
:100C2000DA2E81FFEACFC090CA29D090CB2984EF79
:100C3000E82E84E0F82E6091DF2E7091E02EC7013F
:100C4000A6010E944368EE89FF893097B1F2809037
:100C5000820A9090830A8A8D9B8D9093830A809359
:100C6000820A4091022A5091032A5427452754278B
:100C70000091042A1091052A102701271027CE0180
:100C800062EE79E222EF39E209959092830A80922E
:100C9000820AB3CFF5011182108283E0DF91CF91F8
:100CA0001F910F91FF90EF90DF90CF90BF90AF908A
:100CB0009F908F9008950F931F93FC01808D918DCD
:100CC000009751F09F012E5F3F4F02891389102733
:100CD000012710270E94443080E090E01F910F917F
:100CE00008950F931F93FC01808D918D009739F02B
:100CF000028913891027012710270E94443080E0C1
:100D000090E01F910F910895AF92BF92CF92DF9222
:100D1000EF92FF920F931F93CF93DF93EC015B0150
:100D20007A0169018091F409882349F480E693E00F
:100D300060E070E00E94781881E08093F409BD8A39
:100D4000AC8ADB8ACA8AE114F10441F0DE01129612
:100D5000F70180E101900D928150E1F71F8B0E8B1E
:100D60000091820A1091830A80E693E09093830AAF
:100D70008093820A7C2D6D2DC701AE010E94E32C69
:100D8000998F888F009729F03A2D2B2DFC01318BFC
:100D9000208B1093830A0093820A21E030E0888D33
:100DA000998D009711F420E030E0C901DF91CF91D7
:100DB0001F910F91FF90EF90DF90CF90BF90AF9079
:100DC0000895CF92DF92EF92FF920F931F93CF93EC
:100DD000DF93FC0101900020E9F73197E81BF90B44
:100DE000E62EE7017E01F72ED7010D900020E9F7EE
:100DF0001197AE19BF091092F52620E030E01EC011
:100E00008A01020F131F0E171F07B4F4E601199190
:100E10006E01E70109917E01101771F44F5F5F4F7A
:100E200001E04A175B0764F3002331F0240F351FFC
:100E3000FC01E20FF31F10C02F5F3F4F2E173F073B
:100E40009CF56C01C20ED31EE62EF72E40E050E05A
:100E500000E0E7CF2F5F3F4F41914A3321F4FC017F
:100E6000E20FF31F05C04423A9F7F9CF2F5F3F4FCF
:100E70004191423211F04423C9F7F9013196E80F4C
:100E8000F91FA5EFB6E280E090E002C02D93019635
:100E90002191223229F0222319F08A329105B1F7EB
:100EA0008B50994DFC01108285EF96E2DF91CF9136
:100EB0001F910F91FF90EF90DF90CF9008956F9268
:100EC0007F928F929F92AF92BF92CF92DF92EF92DA
:100ED000FF920F931F93CF93DF93E82EE7017E01DC
:100EE000F92EE7017724662423EBC22E21E0D22ECF
:100EF00096EBA92E91E0B92E88EB882E81E0982EF2
:100F000001C07E2C188100E089817801E80EF11C77
:100F1000E114F10481F477FC10C0E72CE39477200E
:100F200049F500D0EDB7FEB7928281820E947F68BA
:100F30000F900F901FC0171464F0662061F000D06E
:100F4000EDB7FEB7B282A1820E947F680F900F902A
:100F500002C077247A9400D000D0EDB7FEB7D282D9
:100F6000C182F482E3820E947F680F900F900F90FD
:100F70000F90E72CF2E06F0E2296862D803109F05B
:100F8000C0CFDF91CF911F910F91FF90EF90DF9035
:100F9000CF90BF90AF909F908F907F906F9008956B
:100FA000E6E4F1E030812081908180818295869510
:100FB00086958370307C830F269526952073820F4B
:100FC00092959C70890F0895BF92CF92DF92EF9215
:100FD000FF920F931F93DF93CF93CDB7DEB7289780
:100FE0000FB6F894DEBF0FBECDBF0E94EA0D0E947F
:100FF000F60D81E069E146E00E94660D81E062E461
:1010000079E10E94AD0D81E00E94E10D0E94BE0BCE
:1010100084B784B784B784B784B7E6E8FAE322E4F8
:1010200032E4318320833A968DB79EB70A97E8174A
:10103000F907B8F300D000D088E592E0ADB7BEB7AD
:1010400012969C938E9311978AE693E014969C9344
:101050008E9313970E947F680F900F900F900F90C0
:101060000E94581B0E94C41783E493E060E070E084
:101070000E9478180E94E919E0919B03F0919C036B
:1010800009950E94D00790E00E94551DCE0101965F
:101090000E94A50B882359F000D088E392E0EDB7B9
:1010A000FEB7928381830E947F680F900F90A2ED1C
:1010B000B9E2FE01319688E001900D928150E1F78E
:1010C0008E010F5F1F4FC8010E9499150E94AF0B40
:1010D0007C010E94B40BBC01C701A8010E9412113F
:1010E0000E940D0B0E94F7100E94B90B0E94A212E1
:1010F0002DB73EB7225130400FB6F8943EBF0FBE19
:101100002DBFEDB7FEB7319683E192E0ADB7BEB724
:1011100012969C938E9311978981828313828A8180
:10112000848315828B81868317828C8180871186C8
:101130008D81828713868E81848715868F8186872D
:1011400017868885808B118A0E947F68EDB7FEB76D
:1011500072960FB6F894FEBF0FBEEDBF0E94961FA9
:10116000E091EB03F091EC030995E091D203F0914B
:10117000D3030995E0917C04F0917D0409950091D9
:10118000D0031091D103C090E903D090EA030E94EC
:10119000F410B82EE090F703F090F803F7010995EA
:1011A000009749F0F7010995BC0180E890E00E94A2
:1011B00084677B0103C030E8E32EF12C0E94A51266
:1011C0002DB73EB72C5030400FB6F8943EBF0FBE3F
:1011D0002DBFEDB7FEB7319621EE31E0ADB7BEB70A
:1011E00012963C932E93119713830283D582C48267
:1011F000B6821782F186E086828713860E947F6816
:10120000EDB7FEB73A960FB6F894FEBF0FBEEDBF2E
:1012100084ED91E0928381830E947F6883EC91E06A
:10122000ADB7BEB712969C938E9311970E947F68BC
:101230000F900F908FE494E060E070E00E947818C7
:1012400083E393E00E94B11800D08BEB91E0EDB7FF
:10125000FEB7928381830E947F680F900F9028963B
:101260000FB6F894DEBF0FBECDBFCF91DF911F91B7
:101270000F91FF90EF90DF90CF90BF9008952F9245
:101280003F924F925F926F927F928F929F92AF9216
:10129000BF92CF92DF92EF92FF920F931F93CF9363
:1012A000DF930E94E407A6E2CA2EA1E0DA2EFEE94F
:1012B000AF2EF1E0BF2EECE98E2EE1E09E2E77E816
:1012C000672E71E0772E60E3462E512C55E8252ECF
:1012D00051E0352E0E94D4170E94020E80912027E3
:1012E00090912127009729F00197909321278093CF
:1012F0002027E0902227F0902327009124271091A7
:1013000025270E94DB0BE616F7060807190711F3DD
:101310000E94DB0B6093222770932327809324275E
:10132000909325272CE330E040E050E00E9498673E
:10133000611571058105910511F40E94961B60915C
:10134000222770912327809124279091252728E533
:1013500032E040E050E00E949867623071058105FC
:10136000910509F009C100D000D0ADB7BEB7129603
:10137000BC92AE92119784E090E014969C938E9369
:1013800013970E947F680FEB10E30F900F900F9060
:101390000F90C0E0D0E04CE1E42EF12CF801808108
:1013A0008823B1F0CE9DC001CF9D900DDE9D900DA4
:1013B000112480549F4C0E945F0700D0ADB7BEB788
:1013C00012969C928E9211970E947F680F900F90B8
:1013D0002196045E1F4FC430D10501F700D000D024
:1013E000EDB7FEB77282618284E190E094838383DB
:1013F0000E947F6806E712E30F900F900F900F9006
:10140000C0E0D0E081E0D8019C919923A9F0C49D6F
:10141000C001C59D900DD49D900D112489589D4CFF
:101420000E945F0700D0EDB7FEB7328221820E9492
:101430007F680F900F9080E02196005D1F4FC431B0
:10144000D10509F7882369F000D0ECE7F1E0ADB7EA
:10145000BEB71296FC93EE9311970E947F680F908F
:101460000F9000D000D0EAE6F1E0ADB7BEB712961B
:10147000FC93EE93119784E190E014969C938E93E5
:1014800013970E947F68C6E3D6E30F900F900F90EA
:101490000F9000E010E081E09881992309F449C0A1
:1014A0008EE290E0089F7001099FF00C189FF00CED
:1014B0001124C701895C994C0E945F0700D000D0BD
:1014C000EDB7FEB7319680E691E0ADB7BEB71296A4
:1014D0009C938E9311978989828313820E947F68DF
:1014E0000F900F900F900F90C701875B994C0E944F
:1014F0005F0700D000D000D0E8E5F1E0ADB7BEB79F
:101500001296FC93EE9311978BA19CA1ADA1BEA165
:10151000EDB7FEB783839483A583B6830E947F686B
:101520008DB79EB706960FB6F8949EBF0FBE8DBFBF
:1015300080E00F5F1F4FAE960431110509F0ACCF6C
:10154000882369F000D0EFE4F1E0ADB7BEB71296A2
:10155000FC93EE9311970E947F680F900F9000D03C
:10156000E3E4F1E0ADB7BEB71296FC93EE931197AA
:101570000E947F680F900F908091222790912327DF
:10158000A0912427B09125279370A070B07083306C
:101590009105A105B10509F09DCEE6E8FAE3808149
:1015A000918122E482349207A9F000D000D0ADB737
:1015B000BEB71296DC92CE921197E658FA43149673
:1015C000FC93EE9313970E947F680F900F900F90FB
:1015D0000F9080CE3A96B1E4E53FFB0700F37ACE58
:1015E00000D000D000D0EDB7FEB7319620E231E058
:1015F000ADB7BEB712963C932E9311979383828317
:10160000758364830E947F688DB79EB706960FB678
:10161000F8949EBF0FBE8DBF08950F931F93DF9365
:10162000CF93CDB7DEB7A2970FB6F894DEBF0FBE4B
:10163000CDBF82E290E00E942E6B89839A83982F1F
:101640009B50903108F08A839A819095891709F40C
:1016500070C000D083E992E0ADB7BEB712969C93FC
:101660008E9311970E947F688E010D5F1F4F0F9020
:101670000F90D80180E090E0FC01ED58FD4FE4911F
:10168000ED93019688309105B9F7F894CE01039651
:1016900060E070E048E050E00E94346BD80180E0E8
:1016A00090E0FC01E558FD4FE491ED9301968E30FA
:1016B0009105B9F7CE01039668E070E04EE050E086
:1016C0000E94346B80E090E0FC01E757FD4FE4910D
:1016D000D801ED938D0101968A309105A9F7CE01CD
:1016E000039666E170E04AE050E00E94346B84E2C9
:1016F00090E06DEC7BEA0E944C6B86E290E060E04B
:1017000070E00E944C6B88E290E060E00E943E6BCB
:1017100080E290E060E070E00E944C6B8AE1898397
:1017200085EE8A8369817A8182E290E00E944C6B27
:1017300078948981A2960FB6F894DEBF0FBECDBF14
:10174000CF91DF911F910F910895F89460E070E0C0
:1017500048E050E00E94166B789480E0089584E29F
:1017600090E00E942E6B089586E290E00E942E6B1E
:10177000089588E290E00E94266B0895F8941092F4
:10178000B60016BC83EF87BD82E084BD94E095BDB2
:1017900095B395BB80936E00789408952091F509D8
:1017A0003091F6098091F5099091F60928173907CB
:1017B000A9F7C901089520912E2730912F27409134
:1017C00030275091312780912E2790912F27A0917B
:1017D0003027B0913127281739074A075B0759F797
:1017E000B901CA01089560932E2770932F27809323
:1017F0003027909331270895CF93DF93EC010E9417
:10180000CE0BC80FD91F0E94CE0B8C1B9D0B97FDD2
:10181000FACFDF91CF9108958430910548F0039776
:10182000880F991F880F991F969587950197F1F753
:101830000895CF93DF93EC0184EE93E005C00E94FE
:101840000C0C219787EE93E02097C9F7DF91CF9199
:1018500008950F931F931FB7F8942091F5093091C5
:10186000F609280F391F3093F6092093F5092091C6
:10187000F709FC01E20FF11D0091D22860912A279F
:1018800070912B2780912C2790912D27DF012CC060
:10189000A058B04020912E2730912F27409130271B
:1018A000509131272F5F3F4F4F4F5F4F20932E278F
:1018B00030932F2740933027509331270023A1F0F6
:1018C00020912627309127274091282750912927BA
:1018D0002F5F3F4F4F4F5F4F20932627309327278F
:1018E0004093282750932927A038B10588F69F01F7
:1018F000220F232F221F330B319540E050E0260F9B
:10190000371F481F591F20932A2730932B274093B6
:101910002C2750932D27EF77F070E093F7091FBF26
:101920001F910F9108951F920F920FB60F920BB651
:101930000F9211242F933F934F935F936F937F9355
:101940008F939F93AF93BF93EF93FF938091F5098C
:101950009091F60901969093F6098093F50980918C
:10196000F7098F5F8093F7098091F70987FF15C00A
:101970001092F70980912E2790912F27A091302760
:10198000B09131270196A11DB11D80932E27909310
:101990002F27A0933027B09331278091D228882316
:1019A000F1F08091F8098F5F8093F8098091F80930
:1019B00087FF15C01092F80980912627909127275C
:1019C000A0912827B09129270196A11DB11D8093D0
:1019D000262790932727A0932827B09329270E9492
:1019E000A305009711F00E94A304FF91EF91BF910E
:1019F000AF919F918F917F916F915F914F913F91A7
:101A00002F910F900BBE0F900FBE0F901F90189547
:101A10001F920F920FB60F920BB60F9211242F93B5
:101A20003F934F935F936F937F938F939F93AF9366
:101A3000BF93EF93FF938091C600E0913427F0911C
:101A40003527309709F00995FF91EF91BF91AF913C
:101A50009F918F917F916F915F914F913F912F91C6
:101A60000F900BBE0F900FBE0F901F9018951F92F6
:101A70000F920FB60F920BB60F9211242F933F9334
:101A80004F935F936F937F938F939F93AF93BF9386
:101A9000EF93FF938091CE00E0913227F0913327AE
:101AA000309709F00995FF91EF91BF91AF919F9108
:101AB0008F917F916F915F914F913F912F910F90F7
:101AC0000BBE0F900FBE0F901F901895882371F4D6
:101AD0001092C5006093C40088E98093C1004093D0
:101AE000C20010923527109234270895813069F48E
:101AF0001092CD006093CC0088E98093C900409398
:101B0000CA0010923327109232270895882339F49F
:101B10008091C00085FFFCCF6093C600089581309E
:101B200031F48091C80085FFFCCF6093CE0008950A
:101B30001F93182F8A3031F48091F9096DE00E94CB
:101B4000860D02C08D3029F08091F909612F0E9425
:101B5000860D80E090E01F910895882329F470930A
:101B60003527609334270895813021F4709333270B
:101B7000609332270895EF92FF921F93CF93DF93E4
:101B8000182FE62EE7017E01F72EE7010CC08A3000
:101B900021F4812F6DE00E94860D69916D3019F05E
:101BA000812F0E94860D8881882389F7DF91CF914C
:101BB0001F91FF90EF900895682F80E00E94860D9E
:101BC00008958093F90986E793E09093833A809390
:101BD000823A089584B7877F84BF88E10FB6F8946E
:101BE00080936000109260000FBE08952FE088E19E
:101BF00090E00FB6F894A895809360000FBE2093F4
:101C000060000895A895089588E10FB6F894809330
:101C10006000109260000FBE0895F89428E088E1FB
:101C200090E00FB6F894A895809360000FBE2093C3
:101C30006000FFCF8091462790E0FC01EE0FFF1F70
:101C40009695982F882797958795E80FF91FE95B58
:101C5000F84D1082089580913D2790E0089580917D
:101C6000390181FD0CC081E491E06FE140E00E9408
:101C70007414813039F021E030E0813129F020E026
:101C800030E002C021E030E0C901089580913901BF
:101C900081FD12C081E491E06FE140E00E94741484
:101CA000982F8151823050F09F3141F0913041F0B6
:101CB00081E0923031F402C081E0089580E008951F
:101CC00080E00895CF93DF93C0E1D7E20E94460EF3
:101CD000882311F42197D1F7DF91CF910895E9E39B
:101CE000F1E0808180818D7F80838DE090E001979D
:101CF000F1F782E491E06FE140E023E00E947E147E
:101D000083E090E00197F1F708950E94620E0E942F
:101D10006F0E8091390182608093390180915B2937
:101D20008823E9F1809194009091950020916C298D
:101D300030916D2982179307A0F4809138299091F2
:101D40003929A0913A29B0913B298C57914EAF4F38
:101D5000BF4F8093382990933929A0933A29B093A3
:101D60003B298091940090919500821B930BA0E0F9
:101D7000B0E0209138293091392940913A29509189
:101D80003B29820F931FA41FB51F8093382990937E
:101D90003929A0933A29B0933B2910925B291092DC
:101DA000D22880915D298823E9F180919400909157
:101DB0009500209170293091712982179307A0F422
:101DC0008091402990914129A0914229B0914329C5
:101DD0008C57914EAF4FBF4F80934029909341292C
:101DE000A0934229B093432980919400909195004B
:101DF000821B930BA0E0B0E0209140293091412953
:101E00004091422950914329820F931FA41FB51F6F
:101E10008093402990934129A0934229B09343296C
:101E200010925D2908958091D228882321F00E9484
:101E3000460E0E94850E80E090E008959091390151
:101E400091FD0AC0282F803108F02FE085E491E051
:101E50006FE040E00E947E140895B82FA92FF62F5E
:101E6000E72F2091DB283091DC284091DD2850912C
:101E7000DE282F5F3F4F4F4F5F4F2093DB2830937B
:101E8000DC284093DD285093DE28862F8E5F87FF65
:101E90000CC08091CF289091D02801969093D028A3
:101EA0008093CF282FEF3FEF0BC02AEF39E0C90115
:101EB0006B2F7A2F4F2F5E2F0E94436820E030E077
:101EC000C901089581E491E06FE140E00E9474143B
:101ED00008950F931F93182F883049F0863039F0FA
:101EE000893029F0863119F0893109F041C080919B
:101EF000390181FD40C00E94620E0E94620F082FCE
:101F0000181709F43BC0183019F40E946F0E29C04D
:101F1000193141F48631A9F482E491E06FE140E0A7
:101F200029E009C0163169F4893159F482E491E05D
:101F30006FE140E026E00E947E14E3E0F0E031979C
:101F4000F1F782E491E06FE140E0212F0E947E14DE
:101F5000083019F4E9E6F1E002C0E3E0F0E031977F
:101F6000F1F70E94620F811749F023E430E008C0C6
:101F700022E430E005C024E430E002C020E430E098
:101F8000C9011F910F91089580919400909195003F
:101F9000909371298093702921E020935D292093EB
:101FA000D2288091390181FF16C0809194009091D0
:101FB000950090936D2980936C2920935B29209341
:101FC000D1287894809139018D7F80933901809157
:101FD000D1288823E1F786E10E94690F0E94620EF2
:101FE00008958091D228882311F40E94C40F81E0C3
:101FF00090E008950F931F938091D228882359F081
:102000008091390181FD74C00E94460E882309F435
:102010006FC000E003C00E94F10F01E080919400C6
:102020009091950090936B2980936A2911E0109309
:102030005A29789486E00E94690F10933E271092E7
:10204000470180913E278823E1F7809147018E3038
:1020500010F010E001C01FEF86E10E94690F80912F
:102060005A298823E9F1809194009091950020915C
:102070006A2930916B2982179307A0F48091342943
:1020800090913529A0913629B09137298C57914EDE
:10209000AF4FBF4F8093342990933529A0933629B1
:1020A000B09337298091940090919500821B930BF7
:1020B000A0E0B0E0209134293091352940913629B3
:1020C00050913729820F931FA41FB51F8093342985
:1020D00090933529A0933629B093372910925A2925
:1020E000002311F00E94130F21E030E016FD02C022
:1020F00020E030E0C9011F910F91089580937C0A80
:1021000008950E94620F8250813130F4E82FF0E090
:10211000E155FC4F8081089581E00895282F8EE6D7
:1021200091E060E245E00E947E1408958FEF809375
:102130004E018CE691E060EF44E022E00E947E14C4
:102140008CE691E06EE041E025E00E947E1480E89C
:1021500080936F018091460180936D0184E491E04A
:1021600060E245E021E00E947E140895CF93DF9362
:10217000CDEFD3E0CE010197F1F70E946F141092DA
:1021800047271092C92710924B2810924627109289
:102190004527E9E3F1E080818E7F808380818D7F18
:1021A000808381EC9DE00197F1F7808181608083DD
:1021B00082E491E06FE140E023E00E947E142197E9
:1021C000F1F780915D0180915E010E94961081E996
:1021D00093E060E070E00E9478180E94C40F81E0F4
:1021E00090E0DF91CF91089580917B0A0895DF936D
:1021F000CF930F92CDB7DEB789830E94620E2981FB
:1022000020937B0A88E491E06FE140E00E947E1415
:102210000F90CF91DF9108950E94F71086E00E9401
:10222000690F089580936201909363016093600148
:10223000709361014115510531F1FA01819180934B
:102240006B01DA0111968C9180936A01DF0111967E
:10225000818180936901FD01319611968C91809363
:102260006801DF011196818180936701FD0131963C
:1022700011968C91119780936601818180936501FD
:10228000828180936401089581E993E00E949B1804
:1022900081E080933D2780913F27909140270196D0
:1022A0009093402780933F2780911F299091202968
:1022B000A0912129B09122290196A11DB11D8093E1
:1022C0001F2990932029A0932129B093222981E0EE
:1022D00090E00895EF92FF92CF93DF9350914627BD
:1022E000252F30E0F901EE0FFF1F3695322F222700
:1022F00037952795E20FF31FE95BF84D40814423A2
:1023000009F4CEC02091390121FDCAC02091D22804
:10231000222309F4C5C047FF16C00E941A0E8091FF
:102320000B2990910C29A0910D29B0910E290196AD
:10233000A11DB11D80930B2990930C29A0930D2909
:10234000B0930E29ADC04330B0F40E941A0E8091B4
:10235000072990910829A0910929B0910A2901968D
:10236000A11DB11D8093072990930829A0930929E5
:10237000B0930A2995C0C42FD0E022976C177D072F
:10238000B0F40E941A0E8091032990910429A09123
:102390000529B09106290196A11DB11D809303293D
:1023A00090930429A0930529B093062979C0652F3D
:1023B00070E09B01220F331F7695762F6627779565
:1023C0006795260F371F285B384DB90150E00E94F2
:1023D000436820914627822F90E0FC01EE0FFF1FFB
:1023E0009695982F882797958795E80FF91FE953B9
:1023F000F84D808180933627822F90E0FC01EE0F0C
:10240000FF1F9695982F882797958795E80FF91FB6
:10241000E95BF84D10822F5F20934627233010F0A0
:10242000109246278091462790E0FC01EE0FFF1F97
:102430009695982F882797958795E80FF91FE95B60
:10244000F84D8081882311F00E944411609147016A
:102450006093372780913C27882311F0681710F488
:1024600060933C2784E070E00E946A1F60913627E9
:1024700083E070E00E946A1F8091DF289091E0283D
:10248000A091E128B091E2280196A11DB11D809391
:10249000DF289093E028A093E128B093E22802C0BF
:1024A000C0E0D0E0CE01DF91CF91FF90EF90089592
:1024B0000F931F93DF93CF930F92CDB7DEB78C01AD
:1024C000FC0180819181009729F0F5E081319F071F
:1024D00069F506C081E195E0F801918380832BC006
:1024E000623849F510923D270E94E41E8FB7898318
:1024F000F8940E943E1E60E870E00E946A112981F3
:102500002FBF1816190644F40E94391EE091F103FA
:10251000F091F2030995DECF80913A2790913B2705
:10252000019690933B2780933A27D4CFF8011182EC
:10253000108283E001C081E00F90CF91DF911F9165
:102540000F9108950E941E0F08958091390181FD19
:1025500007C085E491E06FE040E00E9474140895A4
:1025600080E10895DF92EF92FF920F931F93CF9334
:10257000DF93D82E8091390181FF1AC08091940099
:102580009091950090936D2980936C2981E08093C0
:102590005B298093D128809139018D7F8093390107
:1025A00080E197E22091D128222311F00197D1F701
:1025B0000E94620E8091D228882309F441C0809144
:1025C0005D298823E9F12091940030919500809154
:1025D00070299091712928173907A0F4209140297A
:1025E0003091412940914229509143292C57314E35
:1025F0004F4F5F4F20934029309341294093422908
:10260000509343292091940030919500281B390B59
:1026100040E050E0E0904029F090412900914229AB
:10262000109143292E0D3F1D401F511F209340291B
:1026300030934129409342295093432910925D29B8
:1026400089E10E94690F86E00E94751F009751F092
:102650000E94A512C82F86E00E94751F81500E941B
:102660001E0F02C0C0E0D0E08091940090919500D0
:1026700090936F2980936E2981E080935C29F89470
:1026800080913901826080933901809139018D7F79
:10269000809339016D2D6E5F8AEF99E00E94BC1422
:1026A00078948091CD289091CE2801969093CE2851
:1026B0008093CD280E94620E82E491E060EE45E0B6
:1026C0000E947414182F86E00E94751F009719F05D
:1026D0008C2F0E941E0F80915C298823E9F12091A4
:1026E00094003091950080916E2990916F29281760
:1026F0003907A0F420913C2930913D2940913E2991
:1027000050913F292C57314E4F4F5F4F20933C291A
:1027100030933D2940933E2950933F2920919400C6
:1027200030919500281B390B40E050E060913C2926
:1027300070913D2980913E2990913F29260F371FA6
:10274000481F591F20933C2930933D2940933E292F
:1027500050933F2910925C298091D228882371F0F0
:1027600080919400909195009093712980937029A5
:1027700081E080935D290E94C40F02C00E94850EF3
:10278000113011F0112369F580911B2990911C29BA
:10279000A0911D29B0911E290196A11DB11D809304
:1027A0001B2990931C29A0931D29B0931E298CE00E
:1027B0000E94751F009709F445C08091F7289091F9
:1027C000F828A091F928B091FA280196A11DB11D11
:1027D0008093F7289093F828A093F928B093FA28CB
:1027E00031C01330A9F48091132990911429A0913C
:1027F0001529B09116290196A11DB11D80931329A9
:1028000090931429A0931529B093162912E01DC0A6
:102810001530A9F48091FF2890910029A0910129F9
:10282000B09102290196A11DB11D8093FF289093BC
:102830000029A0930129B093022913E006C01730A4
:1028400021F402C010E001C011E0812F90E0DF917F
:10285000CF911F910F91FF90EF90DF900895CF934C
:10286000DF93EB010E942D0F9C01009731F4CE0104
:102870000E94B2129C01009749F08091CF2890915C
:10288000D02801969093D0288093CF28C901DF915A
:10289000CF9108950F931F938091D228882321F41C
:1028A0000E94F10F11E001C010E00E94620F86311A
:1028B00011F0813119F40091470109C086E491E0DB
:1028C0006FE140E00E947414082F000F080F1123DD
:1028D00011F00E94130F802F1F910F9108951092F5
:1028E0007E0A10927D0A0895FC018081862390E083
:1028F00002C0959587954A95E2F70895F894FC01F2
:102900009081862F8095892330E002C0220F331FEB
:102910004A95E2F72623282B208378940895209166
:102920007B01322F33503D37E0F4FC0121932150DD
:1029300030E0A9014F575E4FA0E8B1E06D9161937F
:10294000A417B507D9F7FC01E058FF4F2F573E4FAA
:10295000D9012C9120838F579F4F21E0FC012083C8
:102960000895DC011C92FC01E058FF4F10828F5744
:102970009F4FFC0110820895FC0160938001019635
:102980006350860F911DA1E8B1E021912D93E817C6
:10299000F907D9F708951F920F920FB60F920BB651
:1029A0000F9211242F933F934F935F936F937F93D5
:1029B0008F939F93AF93BF93EF93FF9380914701C2
:1029C000809337272091452730E0C901880F991F50
:1029D0003695322F222737952795820F931F895BD3
:1029E000984D0E948F14809145278F5F80934527D3
:1029F000833010F0109245270E944411FF91EF910F
:102A0000BF91AF919F918F917F916F915F914F9106
:102A10003F912F910F900BBE0F900FBE0F901F9004
:102A200018951F920F920FB60F9211240F900FBEA0
:102A30000F901F9018951F920F920FB60F921124AE
:102A40000F900FBE0F901F9018951F920F920FB608
:102A50000F9211240F900FBE0F901F9018951F9288
:102A60000F920FB60F9211241092D1280F900FBE23
:102A70000F901F9018951F920F920FB60F9211246E
:102A80001092D1280F900FBE0F901F9018951F9293
:102A90000F920FB60F9211248F9381E080933D2700
:102AA0008F910F900FBE0F901F9018951F920F924D
:102AB0000FB60F92112410923E270F900FBE0F9069
:102AC0001F9018951F920F920FB60F9211248F939B
:102AD0009F9380917D0A90917E0A019690937E0A41
:102AE00080937D0A9F918F910F900FBE0F901F9042
:102AF0001895262F372FF901282F392FD90188E073
:102B000091919D938150E1F70895282F392FD90194
:102B1000862F972FFC0188E02D919191291729F498
:102B20008150D1F721E030E002C020E030E0C9015F
:102B30000895282F392FD901E3EDF8E28D91819383
:102B400088E2EB3DF807D1F70895E091ED03F091AD
:102B5000EE0309950895E0917E04F0917F040995B4
:102B60000895E091F303F091F40309950895E0913D
:102B7000F503F091F6030995089580E090E008953B
:102B80000895E091AB03F091AC0309950895009787
:102B900031F0E091AB03F091AC0309950895E09119
:102BA000AD03F091AE030995089580E090E008959B
:102BB0000F931F93DF93CF93CDB7DEB7E0970FB698
:102BC000F894DEBF0FBECDBF0E94901E8C010E9404
:102BD0003E1E602FAE014F5F5F4F0E94964C8823D0
:102BE00009F445C088A99801281B3109C9010E9430
:102BF0001A1E0097E1F12E81222371F18A859B85AF
:102C00003BEA8D3C930721F03FEF8F3F930779F527
:102C1000223041F088E090E007C0019722912F3FD9
:102C200041F00BC082E090E0FE01E80FF91F3C96F6
:102C3000F4CF181619068CF30FC089E1BE01645F4A
:102C40007F4F0E947E1F89E10E948B1F63ED78E217
:102C50000E948515009759F088E1BE016A5E7F4F9A
:102C60000E947E1FE091D603F091D7030995E0966C
:102C70000FB6F894DEBF0FBECDBFCF91DF911F918D
:102C80000F910895AF92BF92CF92DF92EF92FF9291
:102C90000F931F93DF93CF93CDB7DEB7E0970FB6B7
:102CA000F894DEBF0FBECDBF6C018B01FE013196E3
:102CB00080E3DF011D928A95E9F781E089838CE04A
:102CC0000E94751F8C831D821F8280917F0A8987D5
:102CD0008F5F80937F0A83E0E82EE8868DEC9BEA85
:102CE0009B878A8789E10E948B1F60EC73E00E94BA
:102CF0008515009731F082E08E838FEF8C878D876A
:102D000009C089E10E948B1FBC01CE010C960E9474
:102D10007915EE828DEC9BEA9D8B8C8BCE014696CD
:102D200063ED78E20E9479150E943E1E9FA78EA750
:102D30000E94901E88AB7E010894E11CF11CC70123
:102D40000E948D4BA82E90E00E94A61E009741F194
:102D50000E94461EBC01C7014A2D0E94AB4BA090A9
:102D6000A103B090A2030E94461E7C010E949A1EFD
:102D7000BC01C701F5010995C114D10489F0009780
:102D800021F08130910561F404C0C80160E070E079
:102D900003C0C80164E070E041E050E0F60109952D
:102DA000E0960FB6F894DEBF0FBECDBFCF91DF9196
:102DB0001F910F91FF90EF90DF90CF90BF90AF9059
:102DC00008950E94581D80937F0AE091AB03F09113
:102DD000AC03099508950F931F93CF93DF938C0154
:102DE000EB014115510549F0FA01828193810E945E
:102DF0001F20C801BE010E944216DF91CF911F9192
:102E00000F9108951F93CF93DF93EC01162F8885C0
:102E100080FF1DC0EC81FD813097C9F0D093830AFB
:102E2000C093820A82E08887CE0106960995992789
:102E300087FD909502978230910510F0133829F4A0
:102E4000CE01BE010E942B1702C081E08887DF916E
:102E5000CF911F910895CF92DF92EF92FF920F933F
:102E60001F93CF93DF93EC017B01C090820AD09037
:102E7000830A0091800A1091810AF80103C0019031
:102E8000F081E02DEC17FD0719F03097C1F746C02F
:102E9000209709F443C08885882309F118860BC060
:102EA000C017D10729F0C80167E8AE010E940217D8
:102EB000F801008111810115110591F7EC81FD8167
:102EC000309769F0CE15DF0551F0D093830AC09397
:102ED000820ACE01069663E840E050E00995E09151
:102EE000800AF091810ACE17DF0791F488819981D9
:102EF0009093810A8093800A0DC0808191818C1704
:102F00009D0729F4888199819183808303C0FC0106
:102F1000309799F7D092830AC092820ADF91CF91BD
:102F20001F910F91FF90EF90DF90CF9008951F9326
:102F3000CF93DF931092840AC091800AD091810AC6
:102F400011E00EC08985882341F018871986CE01CB
:102F500062E840E050E00E9402170990D881C02D3D
:102F6000209781F7DF91CF911F91089580912F0BCA
:102F7000982F9F5F90932F0B08956091820A709114
:102F8000830A0E942B1708958AE880932F0B1092D2
:102F9000860A1092850A1092810A1092800A109275
:102FA000830A1092820A08958091840A882311F07E
:102FB0000E9497177091850A772309F455C02091D4
:102FC000860A30E0F901EE0FFF1FEE0FFF1FE20F40
:102FD000F31FE957F54F608160932E0B41815281B9
:102FE00050932D0B40932C0B8381948190932B0B4A
:102FF00080932A0B2F5F3F4F2F7130702093860AEA
:1030000071507093850A009741F58091800A9091E4
:10301000810A18C08091840A882311F00E949717B2
:1030200040912C0B50912D0B8091280B9091290BE6
:1030300060912E0B0E940217E091280BF091290B52
:10304000808191819093290B8093280B8091280B8C
:103050009091290B0097F1F607C0613819F421E02F
:10306000FC0120870E9402178091840A2091850A22
:1030700030E0280F311DC90108958091840A209104
:10308000850A30E0280F311DC90108957091850A25
:103090007032D9F02091860A270F2F712093270BC9
:1030A00030E0F901EE0FFF1FEE0FFF1FE20FF31FDD
:1030B000E957F54F608352834183948383837F5F15
:1030C0007093850A20E030E002C021E030E0C901C1
:1030D0000895CF93DF93C091820AD091830A0E9412
:1030E0000217D093830AC093820ADF91CF9108958B
:1030F000FC01AB019091800A8091810A9C01A32F71
:10310000B22F03C00D90BC91A02DAE17BF0791F058
:103110001097C1F7309771F090838183F093810A03
:10312000E093800A81E0808717821682CF0161E8F0
:103130000E9469180895FC01009741F08085815034
:10314000823020F481E081878093840A089521E011
:1031500030E0FC018085882311F420E030E0C901D3
:103160000895EF92FF92CF93DF93E82EE7017E015F
:10317000F92EE70104C060E070E00E9478188991A0
:1031800099910097C1F7DF91CF91FF90EF9008954B
:10319000EF92FF92CF93DF93E82EE7017E01F92EA5
:1031A000E70102C00E94BD17899199910097D1F75C
:1031B000DF91CF91FF90EF900895CF93DF93EC01D3
:1031C000888199818836910579F08A37910509F4CB
:1031D0004EC0009709F04EC00E94B6178093232975
:1031E0001092360B1092350B80E39BE00E94831DFA
:1031F0002FEF8F3F920719F488E690E035C02091B9
:10320000350B3091360B8D30910571F02F3731052C
:103210005CF7F901E95CF44F80832F5F3F4F3093F7
:10322000360B2093350BE0CFF901E95CF44F1082A7
:103230002F5F3F4F3093360B2093350B80E090E0AB
:103240006091232947E35BE00E9446188091820A3F
:103250009091830A65E840E050E00E94461800978C
:1032600009F0BECF8AE790E09983888307C065386C
:1032700029F4B6CF1982188283E001C081E0DF9182
:10328000CF910895682F8A30F9F08091370C882308
:1032900051F480E39BE00E94631D009771F481E08C
:1032A0008093370C0AC06D3041F480E39BE00E94AC
:1032B000631D009711F01092370C87E094E00E9494
:1032C0009B1821E030E002C020E030E0C901089501
:1032D00080E39BE067EB7BE040E80E945B1D87E0BA
:1032E00094E060E070E00E9478180895CF92DF9239
:1032F000EF92FF920F931F93CF93DF938C017A018C
:10330000FC0180819181009729F08B34910509F0AF
:1033100051C01EC089E39CE00E942D64C82EE601C6
:103320007E01F92EE70109C06C817D81CE010296F4
:103330000E9460050990D881C02D2097A9F781E0EF
:103340008093380C8BE490E0F8019183808337C040
:103350006838A9F589E39CE00E942D64C82EE60137
:103360006E01D92EE60123C0CE010296E816F906B9
:10337000D9F489E39CE0BE010E947B64E090820A5C
:10338000F090830A8A859B859093830A8093820AB2
:10339000EC85FD85309719F08E859F850995F09213
:1033A000830AE092820ACECF0990D881C02D20975F
:1033B000D9F6C8CFF8011182108283E001C081E004
:1033C000DF91CF911F910F91FF90EF90DF90CF9001
:1033D00008951092380C89E39CE00E94296480E2F1
:1033E00094E060E070E00E94781808950F931F93B6
:1033F000CF93DF93EC010091820A1091830A1B871F
:103400000A875D874C873F872E878091380C8823F9
:1034100079F080E294E09093830A8093820ACE014F
:1034200002960E9460051093830A0093820A02C0EC
:103430007D836C8389E39CE0BE010E947B6489E309
:103440009CE0BE010E94B464DF91CF911F910F9167
:1034500008950F931F93CF93DF93EC018091380C65
:10346000882391F00091820A1091830A80E294E00F
:103470009093830A8093820ACE0102960E946B0584
:103480001093830A0093820A89E39CE0BE010E94A4
:103490007B6489E39CE0BE010E94B464DF91CF911C
:1034A0001F910F9108950F931F93CF93DF93EC011A
:1034B0008091380C882391F00091820A1091830A40
:1034C00080E294E09093830A8093820ACE01029670
:1034D0000E9476051093830A0093820A89E39CE098
:1034E000BE010E947B6489E39CE0BE010E94B4643B
:1034F000DF91CF911F910F910895CF93DF93EC014E
:103500008091380C882329F0CE0102960E94BE05D6
:1035100004C01F821E821986188689E39CE0BE01C2
:103520000E947B64DF91CF910895CF93DF93EC01EC
:103530008091380C882331F0CE0102960E948B05D1
:103540009C0114C089E39CE00E942D64E82FF92FB0
:1035500006C0EC17FD0741F00190F081E02D309797
:10356000C1F721E030E002C020E030E0C901DF9186
:10357000CF910895CF93DF93E2E6F9E2C4E2D9E276
:10358000A6E5B9E211921192199219921992199223
:103590001D9289E2EA37F807A9F7DF91CF910895E4
:1035A0000F931F93CF93DF93FC01DC01AA5AB64D12
:1035B0008C91882339F10091940010919500EF01CE
:1035C000CC0FDD1FCC0FDD1FCC5DD64DDF01AA0F68
:1035D000BB1FAE59B64D8D919C9111979801281B38
:1035E000390B40E050E0688179818A819B81260F08
:1035F000371F481F591F288339834A835B831196DD
:103600001C930E93EE0FFF1FEE0FFF1FEC5DF64DA8
:103610006081718182819381DF91CF911F910F91A0
:10362000089560E070E0CB010895FC01EE0FFF1FEC
:10363000EE0FFF1FEC5DF64D408351836283738371
:103640000895EF92FF920F931F93CF93DF9326E598
:1036500039E2C4E2D9E2E2E6F9E2D9018D919D01B5
:103660008823C9F040919400509195008081918108
:103670007A01E81AF90A00E010E088819981AA81AC
:10368000BB818E0D9F1DA01FB11F88839983AA83C4
:10369000BB835183408324963296B9E222363B079E
:1036A000E1F6DF91CF911F910F91FF90EF90089578
:1036B0000E94404A08950F931F93FC01CB01409153
:1036C0003B0C50913C0C338322831583048371831C
:1036D0006083F0933C0CE0933B0C4115510511F4D1
:1036E0000E945A4A80E090E01F910F9108958091C6
:1036F0003B0C90913C0C0097C1F010923C0C109246
:103700003B0CDC0114966D917C9115971296ED910E
:10371000FC9113970995E0913B0CF0913C0C30978C
:1037200021F0808191810E945A4A08950F931F933E
:103730000091D3281091D4280E94DB0B2DB73EB7FF
:10374000225530400FB6F8943EBF0FBE2DBFEDB7E7
:10375000FEB731962FE233E0ADB7BEB712963C9379
:103760002E931197028313821483158266837783C5
:10377000808791878091DB289091DC28A091DD28BB
:10378000B091DE2882879387A487B5878091DF2850
:103790009091E028A091E128B091E2288687978750
:1037A000A08BB18B8091E3289091E428A091E5282B
:1037B000B091E628828B938BA48BB58B8091E72800
:1037C0009091E828A091E928B091EA28868B978B00
:1037D000A08FB18F8091EB289091EC28A091ED28DB
:1037E000B091EE28828F938FA48FB58F8091EF28B0
:1037F0009091F028A091F128B091F228868F978FB0
:10380000A0A3B1A38091F3289091F428A091F5286A
:10381000B091F62882A393A3A4A3B5A38091F7281F
:103820009091F828A091F928B091FA2886A397A33F
:10383000A0A7B1A78091FB289091FC28A091FD281A
:10384000B091FE2882A793A7A4A7B5A78091FF28CF
:1038500090910029A0910129B091022986A797A7EC
:10386000A0ABB1AB8091032990910429A0910529C7
:10387000B091062982AB93ABA4ABB5AB809107297D
:1038800090910829A0910929B0910A2986AB97AB9C
:10389000A0AFB1AF80910B2990910C29A0910D2977
:1038A000B0910E2982AF93AFA4AFB5AFEDB7FEB71D
:1038B000FF9680910F2990911029A0911129B09124
:1038C000122980839183A283B383EDB7FEB7ED5BAA
:1038D000FF4F8091132990911429A0911529B0913F
:1038E000162980839183A283B383EDB7FEB7E95B8A
:1038F000FF4F8091172990911829A0911929B09113
:103900001A2980839183A283B383EDB7FEB7E55B69
:10391000FF4F80911B2990911C29A0911D29B091E6
:103920001E2980839183A283B383EDB7FEB7E15B49
:10393000FF4F80911F2990912029A0912129B091BA
:10394000222980839183A283B3830E947F680091A0
:10395000D3281091D4282DB73EB72E5A3F4F0FB61B
:10396000F8943EBF0FBE2DBF0E94DB0BADB7BEB7B4
:10397000D2970FB6F894BEBF0FBEADBFEDB7FEB77E
:10398000319620EC32E012963C932E9311970283ED
:103990001382148315826683778380879187809151
:1039A000242990912529A0912629B0912729828741
:1039B0009387A487B5878091282990912929A09180
:1039C0002A29B0912B2986879787A08BB18B80916C
:1039D0002C2990912D29A0912E29B0912F29828BED
:1039E000938BA48BB58B8091302990913129A09134
:1039F0003229B0913329868B978BA08FB18F80911C
:103A0000342990913529A0913629B0913729828F98
:103A1000938FA48FB58F8091382990913929A091E7
:103A20003A29B0913B29868F978FA0A3B1A38091AB
:103A30003C2990913D29A0913E29B0913F2982A334
:103A400093A3A4A3B5A38091402990914129A0916B
:103A50004229B091432986A397A3A0A7B1A780913B
:103A60004C2990914D29A0914E29B0914F2982A7C0
:103A700093A7A4A7B5A78091502990915129A0910F
:103A80005229B091532986A797A7A0ABB1AB0E944A
:103A90007F682DB73EB72E5C3F4F0FB6F8943EBF00
:103AA0000FBE2DBF1F910F9108950E940D680895BC
:103AB0000E9408680895FC0171836083415042832D
:103AC000138214820895FC012381428150E030E08A
:103AD0008481D901A81BB109CD01842395238417C2
:103AE000950769F0A081B181A20FB31F6C93838108
:103AF0008F5F92818923838321E030E002C020E040
:103B000030E0C9010895FC0174816281838190E0F5
:103B1000272F30E0821B930B462F50E08423952300
:103B2000181619065CF4A081B181A20FB31F2C9165
:103B3000872F8F5F8623848330E002C02FEF3FEF13
:103B4000C9010895FC01228130E02F5F3F4FC90178
:103B50000895FC01238130E08481281B3109828192
:103B600090E028233923C901089580E380933D0C18
:103B70000895EF92FF92CF93DF9320913D0C30E0B8
:103B8000C0E3D0E0C21BD30B2E5B334FB901AE01B3
:103B90000E944368CE01DF91CF91FF90EF9008958E
:103BA000AF92BF92CF92DF92EF92FF920F931F934B
:103BB000CF93DF937C01C0903E0CD0903F0C2091BE
:103BC0003D0C30E08601005D1F4F021B130B0138D6
:103BD0001105E0F4C0E3D0E0C21BD30B2E5B334FE2
:103BE000B901AE010E944368CE0DDF1D2091400C4B
:103BF0003091410C8091F40C9091F50C280F391FF5
:103C0000CE01B901A6010E94436802C000E010E0A5
:103C1000C801DF91CF911F910F91FF90EF90DF903E
:103C2000CF90BF90AF90089590913D0C980F9093D6
:103C30003D0C089540913E0C50913F0C9C0148175B
:103C4000590798F08091F40C9091F50C820F931F16
:103C50009093F50C8093F40C421B530B50933F0C44
:103C600040933E0C21E030E002C020E030E0C9018A
:103C7000089590933F0C80933E0C08952091F40C8E
:103C80003091F50C2E58334FC901089520913D0C09
:103C900030E02E5B334FC901089521E030E0809180
:103CA000400C9091410C4CE08237940711F420E0D5
:103CB00030E0C90108950E944D1E009771F022E77F
:103CC0003CE06091400C7091410C40913E0C509151
:103CD0003F0CC9010E9443680895A091F40CB09173
:103CE000F50C1097B9F020913E0C30913F0C205DFF
:103CF0003F4FAE58B34FE2E7FCE080E390E003C0F3
:103D00004D914193019682179307D4F31092F50CCD
:103D10001092F40C08958091400C9091410C0895FC
:103D200080913E0C90913F0C089590913D0C80E362
:103D3000891B089580E390913D0C891B20913E0CD6
:103D400030913F0C280F311DC90108951F93CF9367
:103D5000DF93EC0110913D0C812F90E08C179D07B3
:103D60006CF00E949A1E8C0F9D1F8138910530F4D3
:103D70001C1B10933D0C21E030E002C020E030E03D
:103D8000C901DF91CF911F910895CF93DF93EAE9A5
:103D9000F9E21192119289E2EA3CF807D1F7C0E00A
:103DA000D0E0CE0123E0880F991F2A95E1F78658CD
:103DB000964D60EC73E00E9479152196C430D105D0
:103DC00081F7DF91CF9108951092F50C1092F40CC9
:103DD00010923F0C10923E0C80E380933D0C82E7E2
:103DE0009CE09093410C8093400C0E94C51E089566
:103DF0000F931F93CF93DF93EC018B010E94E41E7E
:103E0000D093410CC093400C10933F0C00933E0C98
:103E1000DF91CF911F910F910895CF92DF92EF9292
:103E2000FF920F931F93DF93CF9300D0CDB7DEB7F0
:103E30008C0169837A830E94E41E69817A81C62E8F
:103E4000D72E21E8C216D10418F030E8C32ED12CA9
:103E50008091400C9091410CB801A6010E944368EA
:103E6000D0923F0CC0923E0CC6010F900F90CF91A4
:103E7000DF911F910F91FF90EF90DF90CF90089509
:103E8000282F392FD901EAE9F9E280E301900D9258
:103E90008150E1F7862F972FDC01EAE7F9E280E213
:103EA00001900D928150E1F70895EAE9F9E2282F97
:103EB000392FD90180E30D9001928150E1F7AAE7F3
:103EC000B9E2862F972FFC0180E201900D9281507C
:103ED000E1F70895E82FF0E0EE0FFF1FE656F64DEC
:103EE0007183608381E090E00895E82FF0E0EE0FA9
:103EF000FF1FE656F64D80819181089590E0E3E042
:103F0000880F991FEA95E1F78654974D0E9479151D
:103F100081E090E00895282F30E0F3E0220F331F76
:103F2000FA95E1F72654374DC90108958AE394E0E4
:103F30000E94A1638AE294E00E94A16382E394E07C
:103F40000E94A1630895EF92FF920F931F93CF9366
:103F5000DF930E944D1E0097C9F082E394E00E9417
:103F6000C163E82EE7017E01F92EE701209791F168
:103F70000E94901E998388830E948B1E9B838A8354
:103F8000C70104960E94B91D8CAB24C08AE294E05C
:103F90000E94C163EC017E01F92EE7012097D1F068
:103FA0008AE394E00E94C1638C019983888300971F
:103FB00079F002960E94D01DF80191838083B801A8
:103FC0006E547F4FC8018E579F4F0E94401F02C002
:103FD000C0E0D0E0CE01DF91CF911F910F91FF9013
:103FE000EF900895FC0180819181BC016E547F4F58
:103FF0008E579F4F0E94401F0895CF93DF93EC018F
:104000008AE294E0BE010E940C64009749F0688146
:1040100079818AE394E00E94E7638AE294E009C030
:1040200082E394E0BE010E940C64009729F082E3D1
:1040300094E0BE010E94E763DF91CF910895EF9273
:10404000FF92CF93DF93EC018AE294E0BE010E94DD
:104050000C64009791F00990D881C02D6881798116
:10406000CE0102960E940D1FBE016E547F4FCE01FD
:104070008E579F4F0E94551F1BC082E394E0BE01E4
:104080000E940C640097A1F00E94E41E688179816F
:104090008A819B810E940D1F8CA990E00E94A61E20
:1040A0000E94461E4CA92496BE0150E00E9443681F
:1040B000DF91CF91FF90EF900895CF93DF93EC01C4
:1040C0008AE294E0BE010E940C64009729F02881E6
:1040D00039812E5F3F4F0CC082E394E0BE010E9405
:1040E0000C64009719F02A813B8102C020E030E087
:1040F000C901DF91CF910895DC01ED91FC911197F9
:1041000080819181089570E023E0660F771F2A95E2
:10411000E1F76E507040FC0120813181260F371F7E
:10412000C9010895DC01ED91FC91119770E06F5B7E
:104130007F4F660F771FE60FF71F808191810895EB
:1041400008959C0141505040460F571FDB0110C09D
:10415000FC91E0E011968C911197BF01680F711DE1
:10416000260F371F2617370710F42F5F3F4F129681
:10417000A417B50768F3A417B50749F49C9180E02C
:10418000280F391F2817390710F42F5F3F4FC90137
:1041900008950F931F93DF93CF9300D0CDB7DEB771
:1041A000009113143091DE2920E010E0201B310B28
:1041B0009091DF29290F311D3A83298329813A8182
:1041C000A901480F511DCA0162EE79E240E250E0B8
:1041D0000E94A12049815A81B8016E5F754D0E94ED
:1041E000A120009719F0382F292F02C02FEF3FEFA1
:1041F000C9010F900F90CF91DF911F910F910895FA
:10420000A09113146A2F70E0685D7F4FFB01E652A6
:10421000F64D418150E083E0440F551F8A95E1F748
:10422000495F5F4F22E054C0FC01E60FF71FE652E2
:10423000F64D3081313009F448C0313018F0333652
:10424000D1F402C02F5F44C0209314140E94066270
:10425000009709F047C09091141480911314E92F2E
:10426000F0E0E80FF11DEE5FF54D8181890F8E5F63
:104270008093141435C0832F90E0807C9070803838
:10428000910549F0803C910549F080349105E9F4AD
:104290002093141427C02093141406C020931414E0
:1042A0008091F2298F3F01F130E040E050E02A0F89
:1042B000311D411D511D285D3F4F4F4F5F4F84E021
:1042C00062E00E949A3182E0089581818E5F280F1A
:1042D000822F90E0481759070CF0A6CF20931414B2
:1042E00080E0089581E0089581E00895FC01438114
:1042F000460F4093D129872F99272281280F209399
:10430000D029A181A093CF2950815093CE2930E0AC
:104310002817390748F48A2F8F5F8093CF29882385
:1043200019F45F5F5093CE29842F90E07070861748
:10433000970798F48091D0298F5F8093D0298823A4
:1043400061F48091CF298F5F8093CF29882329F44E
:104350008091CE298F5F8093CE290895BC018091F2
:10436000E12E9091E22E44960E947621E091E12E7A
:10437000F091E22E8091CE29848B8091CF29858B7C
:104380008091D029868B8091D129878B08959C01BB
:10439000AB0180E090E0B9010E94A120382F292FC5
:1043A000C90108958AE30E94C920089586E00E9409
:1043B000C920089581E10E94C92008950E94CF4834
:1043C00080E009C0E82FF0E0EE0FFF1FE956F04D46
:1043D000118210828F5F8430A8F340E08CE290E07D
:1043E0000DC0242F30E0289FF001299FF00D389F49
:1043F000F00D1124ED51F14D15A24F5F443088F3BB
:1044000080E094E090931E1480931D1440E089E1B5
:1044100090E00EC0242F30E0289FF001299FF00D7E
:10442000389FF00D1124EF55F04D118A108A4F5F1F
:104430004A3080F340931B1408950F931F93CF933A
:10444000DF9320911D1430911E144CE250E02F5F39
:104450003F4FEDE720303E0710F020E030E1B22F73
:10446000A32F10E015C0C12FD0E0C49FF001C59F5D
:10447000F00DD49FF00D1124ED51F14D05A1002355
:1044800031F00088F189E02DEA17FB0701F31F5F87
:10449000143049F730931E1420931D1410921B14EE
:1044A00010E0E0E0F0E02CE230E020C0412F50E0EE
:1044B000429FD001439FB00D529FB00D1124AD51CA
:1044C000B14D95964C919597442321F410931B146C
:1044D000FD0110C0473049F4309731F096965C9159
:1044E000969746A1451708F4FD011F5F1430F0F2BE
:1044F00010931B143097B1F122E025A320911514DD
:10450000208F20911614218F20911714228F209133
:104510001814238F148A158A168A178A24EC34E01B
:10452000378F268F31A320A321E030E0358F248FF1
:1045300017A221E026A323E024A312A220E123A3B3
:1045400020911D1430911E14322723273227318BDE
:10455000208B738B628BEF01DC0180E10D9009925F
:104560008150E1F7CF01DF91CF911F910F91089515
:104570000F931F93CF93DF93609113146623E9F099
:1045800070E0C091CA29D091CB29C61BD70B8E01F0
:10459000085210406E5F754D82E09AE2A8010E94B9
:1045A0004C68D093CB29C093CA29EAEDF9E2148371
:1045B0009E012852258310921314DF91CF911F91F1
:1045C0000F9108950F931F93CF93DF9320911D14A4
:1045D00030911E1449E150E02F5F3F4FEDE720304E
:1045E0003E0710F020E030E1B22FA32F10E012C000
:1045F000C12FD0E0C49FF001C59FF00DD49FF00DF6
:104600001124EF55F04D0088F189E02DEA17FB07E2
:1046100019F31F5F1A3061F730931E1420931D1495
:1046200010E049E150E019C0012F0F5F212F30E069
:10463000249FF001259FF00D349FF00D1124EF55BC
:10464000F04DDF015096C089D189209729F410934D
:104650001B14309749F433C0102F1A3028F31093ED
:104660001B14E0E0F0E02BC040911D1450911E148B
:1046700054274527542711965C934E93738B628B76
:10468000009731F480E1EF0119928A95E9F707C0AC
:10469000EF01DC0180E10D9009928150E1F789E1A1
:1046A00090E0289FD001299FB00D389FB00D1124B4
:1046B000AF55B04D8091B13054968C935497CF0143
:1046C000DF91CF911F910F91089540E013C0E42F27
:1046D000F0E0542F5F5FEE0FFF1FE956F04D208191
:1046E00031812817390729F440931B141182108255
:1046F0000895452F443058F340931B14089540E02B
:1047000013C0E42FF0E0542F5F5FEE0FFF1FE95658
:10471000F04D208131812115310529F440931B147E
:10472000918380830895452F443058F340931B14A0
:104730000895BF92CF92DF92EF92FF920F931F9353
:10474000CF93DF93C091E12ED091E22E843009F413
:1047500088C326E13AE23093E02E2093DF2E309397
:10476000CD292093CC29833079F48DA190E08F70EE
:1047700090708330910509F079C08C8D9D8D0097E4
:1047800011F00C942C2C91C0823009F092C0109240
:10479000CB291092CA291092A02F10929F2F80919E
:1047A00018148F5F80931814882399F4809117143C
:1047B0008F5F80931714882361F4809116148F5FA4
:1047C00080931614882329F4809115148F5F8093A9
:1047D00015148DA1873011F0853051F48EA18F5FB3
:1047E0008EA3843111F00C942C2C1DA20C942C2C33
:1047F000882311F40C942C2C2C8D3D8D2115310522
:1048000009F44FC09EA1292F21502EA3992311F006
:104810000C942C2C9FA1983031F0282F215022305D
:1048200048F4953039F41DA280E88093DA2E0E9476
:10483000DD2FFAC6953048F423E030E0092E02C09F
:10484000220F331F0A94E2F701C020E32EA39F5FDB
:104850009FA390E08F70907083309105E1F08430D9
:1048600091054CF48130910509F4C6C4823091055C
:1048700009F0F2C70DC08630910509F471C6883081
:10488000910509F46DC68430910509F0E5C768C645
:1048900010920F2AB4C484E08093DA2E0E94DD2F98
:1048A000F5C68F70833009F0D7C788E08093DA2E81
:1048B000B0C6853019F5E091DD2EF091DE2E8089AD
:1048C0009189009709F4C8C71092E22E1092E12E48
:1048D0002C5030403093E02E2093DF2E3093CD29A2
:1048E0002093CC291092A02F10929F2F1092CB29A9
:1048F0001092CA2988E08093DA2EB1C2E901EC97C0
:104900008091DA29807F803609F0A6C79091DE2950
:1049100080E02091DF29820F911D2091CA293091DA
:10492000CB292817390708F497C788969093CB2985
:104930008093CA298091E2298F3F09F48DC7CE0167
:1049400006969093DC2E8093DB2E10921314109217
:1049500012148091E0298823F9F481E080931214E5
:104960000E940021813009F477C7813018F082302D
:1049700099F47AC780911314E82FF0E0EE5FF54DBB
:10498000F093DC2EE093DB2E885F9181990F990FD5
:10499000990F890F8093131482EF99E20E94384493
:1049A000009709F01CC182EF99E20E946E450097C2
:1049B00009F015C12091F2292F3F09F495C02E3F2F
:1049C00029F48091F329803809F48EC08091E2297E
:1049D0008E3F29F48091E329803809F485C08091C5
:1049E000E2299091E329009759F58091E42990916B
:1049F000E529009729F58091E6299091E72900970C
:104A0000F9F48091E8299091E9290097C9F48091FF
:104A1000EA299091EB29009799F48091EC299091E3
:104A2000ED29009769F48091EE299091EF29009784
:104A300039F48091F0299091F129009709F454C03C
:104A40008091F2299091F329009761F58091F429E2
:104A50009091F529009731F58091F6299091F729E9
:104A6000009701F58091F8299091F9290097D1F4E8
:104A70008091FA299091FB290097A1F48091FC295B
:104A80009091FD29009771F48091FE299091FF2962
:104A9000009741F48091002A882321F48091012A13
:104AA000813011F18091CA299091CB2925E0813084
:104AB000920738F082E060E020E035E040E050E02E
:104AC00009C08091E129823040F483E060E020E079
:104AD00030E0A9010E949A31C7C60E944D628091C0
:104AE000E12981508F83C0C68091E2298E3F09F071
:104AF000B3C68091E329803809F0AEC68091E229DF
:104B00009091E329009759F58091E4299091E52946
:104B1000009729F58091E6299091E7290097F9F40B
:104B20008091E8299091E9290097C9F48091EA29B8
:104B30009091EB29009799F48091EC299091ED29BF
:104B4000009769F48091EE299091EF29009739F44C
:104B50008091F0299091F129009709F47DC6809108
:104B6000F2299091F329009769F58091F4299091A9
:104B7000F529009739F58091F6299091F72900974A
:104B800009F58091F8299091F9290097D9F480913D
:104B9000FA299091FB290097A9F48091FC29909122
:104BA000FD29009779F48091FE299091FF290097C3
:104BB00049F48091002A882329F48091012A8130C8
:104BC00009F44AC62F3F09F447C682EF99E20E94D2
:104BD0000844882309F040C681E062E078CFE09184
:104BE000DB2EF091DC2E80818B32E9F18C3248F49F
:104BF000863009F488C1813109F4A5C0882389F081
:104C000059C08A3309F460C08B3320F48C3209F028
:104C100051C022C68B3309F41FC68C3309F04AC039
:104C200006C08091121480FD45C0816009C080914A
:104C3000121481FF04C086FD3DC0806401C0826003
:104C4000809312140E940021813009F405C681303E
:104C500018F0823021F608C680911314E82FF0E096
:104C6000EE5FF54D1AC08091121482FD23C084605E
:104C70008093121480911314282F30E0F901EE5F15
:104C8000F54D9381992349F0265D3F4F442737FD29
:104C90004095542F84E060E01DCFF093DC2EE0932C
:104CA000DB2E885F9181990F990F990F890F80935F
:104CB000131495CFEA5DF9429F01442737FD4095D3
:104CC000542F84E061E006CF0E94D221EFEF8F3FA6
:104CD0009E0709F0C1C5E0911314F0E0E652F64DCD
:104CE00080A50E94462DE0911314F0E0E652F64DA7
:104CF00080A58638E1F0873838F48138C1F08538EE
:104D0000B1F08038A1F410C0883841F0883818F02C
:104D10008B3969F406C00E94F7320DC00E948135BC
:104D20000AC00E943F5C07C00E94F53004C0109288
:104D3000CB291092CA298091CA299091CB2900973A
:104D400009F48AC591C50E94B8228091CA29909120
:104D5000CB29C0979093CB298093CA298AE09AE205
:104D60009093E02E8093DF2E8091082A9091092A5B
:104D7000009739F00E94DA21FFEF8F3F9F0709F07B
:104D80006BC50091042A1091052A0115110509F43B
:104D900063C581EA9FE29093DE2E8093DD2E40C0B2
:104DA000888999890097B9F108171907A1F58A89A7
:104DB0009B89009739F02091022A3091032A281705
:104DC000390749F5888199810097E1F48A819B81AF
:104DD0000097C1F48C819D810097A1F48E819F8101
:104DE000009781F488859985009761F48A859B8571
:104DF000009741F48C859D85009721F48E859F85D1
:104E00000097C1F082EE99E2BE0140E150E00E94BD
:104E10003668009779F06996D093DE2EC093DD2E28
:104E2000C091DD2ED091DE2E20E3CB39D20708F4DD
:104E3000B7CF12C51092E22E1092E12E82E080933D
:104E4000DA2E8AE09AE29093E02E8093DF2E909300
:104E5000CD298093CC291092A02F10929F2F0E94D1
:104E6000DD2F80919F2F9091A02F009709F4F4C41B
:104E70009C01205D3F4F3093CB292093CA2908968F
:104E80009093DE2928522093DF29E091DD2EF091C6
:104E9000DE2E24892093E12921E12093E029C2E03C
:104EA000DAE29827892798279D838C831F821E82A8
:104EB000808991899093032A8093022A8289938919
:104EC0009B838A83DE01509780E101900D9281508F
:104ED000E1F782EE99E262EF79E20E94334886E1DF
:104EE0009AE29093E02E8093DF2E0E94DA21809543
:104EF00090959F838E83009709F0A4C48FEF9FEF56
:104F00009F838E839FC40E94B8220E94D621EFEF18
:104F10008F3F9E0709F0A0C402E01AE2E090042A45
:104F2000F090052AE114F10409F496C4C090022A15
:104F3000D090032AC114D10409F48EC4C3EEDEE27A
:104F4000BDA0BB20A1F088899989E816F90679F4FB
:104F50008A899B89C816D90651F482EE99E2BE016E
:104F600040E150E00E943668009709F45EC1AC96BB
:104F7000FFE2C339DF0721F780910F2A8F73823058
:104F8000B9F4F0921A14E092191420E00DC0E22F47
:104F9000F0E0EE0FFF1FE956F04D808191812F5F09
:104FA000E816F90609F45FC0243088F320931B1437
:104FB00080910F2A82FD50C484E1F80185878CE33B
:104FC00090E09093CB298093CA2980E584878091D3
:104FD000092A90910D2A97833091082A90910C2AE2
:104FE000968332872091072A90910B2A95832187F7
:104FF0009091062A90931B1440910A2A448390872B
:105000008F5F8387882361F4832F8F5F8287882354
:1050100039F4822F8F5F8187882311F49F5F9087F7
:105020008091022A9091032A90931A148093191464
:105030002091042A3091052A3093032A2093022AD2
:10504000F80193838283E2EFF9E2DF01509780E178
:105050000D9001928150E1F782EE99E262EF79E2E0
:105060000E943348D3C310921B1440E0C0E0D0E04C
:105070008CE290E026C0242F30E0289FF001299F89
:10508000F00D389FF00D1124ED51F14D25A1222393
:1050900021F440931B14EF0118C0273089F42097A6
:1050A00021F036A12EA1231758F4242F30E0289F99
:1050B000E001299FD00D389FD00D1124CD51D14D45
:1050C0004F5F4430C0F240931B14209709F4C4C3CF
:1050D000D093E22EC093E12E83E08EA38CA31AA27C
:1050E00084E08BA31FA28091042A9091052A998BBA
:1050F000888B8091022A9091032A9B8B8A8BDE01F8
:10510000E2EEF9E280E101900D928150E1F781E059
:105110008DA380911514888F80911614898F8091AA
:1051200017148A8F809118148B8F81E090E09D8FE7
:105130008C8F8091092A8F8B8091082A8E8B809189
:10514000072A8D8B8091062A8C8B81E090E00E944B
:10515000AE2180910E2A282F30E0207F307021353B
:1051600031050CF449C082958F7090E00597880F47
:10517000991F880F991F50911C1440E034C0F90109
:10518000E652F64D54AD552329F440931B1410926A
:105190001C1432C0513011F44F5F25C05230E1F47D
:1051A00065AD6430C9F440931B1450931C1436ADA4
:1051B00020E087AD90E0822B932B90931A1480937C
:1051C0001914F4E0853C9F0710F084EC94E09F8F65
:1051D0008E8F99A388A310C0295E354DF9012081D7
:1051E000222331F0420F242F30E0281739073CF2F8
:1051F00040931B1450931C1480E180930F2AE2E02B
:10520000FAE280910F2A8260858782E0848B84E0B5
:10521000858B868B84EC878B80E490E09093CB2900
:105220008093CA2980E68487B7C2D093E22EC093C8
:10523000E12E1092DA2E80910F2A90E082FF03C0B7
:105240001DA280E250C240910E2A42954F70440F39
:10525000440F40931B142091CA293091CB29285226
:105260003040241B31093093CB292093CA294B2D80
:1052700050E04F7050704230510539F4AC014F731B
:1052800050704231510551F429C04130510531F47B
:10529000AC014F7350704230510501F121153105B9
:1052A00031F49C012370307021153105B9F0309133
:1052B000062A2C89321779F43091072A2D89321762
:1052C00051F43091082A2E89321729F43091092A95
:1052D0002F89321719F081FD8FCF52C284FF4AC047
:1052E0006C8D7D8D6115710509F444C0CE01489621
:1052F0000E94762130910A2A8091CE293817D1F563
:1053000020910B2A8091CF292817A1F590910C2A82
:105310008091D029981771F580910D2A4091D1295B
:10532000841741F5388F298F9A8F8B8F8FA188230F
:10533000D1F42AA18CA19EA1891B922F96959695B6
:105340009695891B280F2AA387FD81959BA1392F4C
:1053500036953695931B980F9BA3822F869586953D
:105360008695890F8CA381E08093DA2E8CA18EA381
:105370001D8E1C8E2DA130E0C9018F70907084307D
:10538000910509F4B5C18530910564F48230910529
:10539000C9F1833091050CF0B9C08130910509F055
:1053A0005BC211C08630910509F4E2C186309105D7
:1053B0000CF4BEC18730910509F4E2C18830910533
:1053C00009F04AC28AC18091DA2E80FF14C083E0BE
:1053D0008DA380E48093DA2E1D8E1C8E8091CA29C5
:1053E0009091CB29009709F410C122E42093DA2E82
:1053F0000E94AE210AC180910F2A8F73823009F07A
:105400002BC2FACE8091DA2E80FF75C080910F2AD0
:105410008F73823109F06FC080910E2A282F30E0FF
:10542000207F3070213531050CF449C082958F7092
:1054300090E00597880F991F880F991F50911C14B1
:1054400040E034C0F901E652F64D54AD552329F43D
:1054500040931B1410921C1432C0513011F44F5F52
:1054600025C05230E1F465AD6430C9F440931B149B
:1054700050931C1436AD20E087AD90E0822B932B27
:1054800090931A1480931914F4E0853C9F0710F050
:1054900084EC94E09F8F8E8F99A388A310C0295E1F
:1054A000354DF9012081222331F0420F242F30E0C5
:1054B000281739073CF240931B1450931C1483E0C7
:1054C0008DA38091062A8C8B8091072A8D8B8091E9
:1054D000082A8E8B8091092A8F8B81E090E00E94B0
:1054E000AE2182E48093DA2E1D8E1C8E1092CB2981
:1054F0001092CA298AC080E28093DA2E0E94DD2FA2
:10550000E091E12EF091E22E15A252CD80910F2A6A
:1055100080FF2AC024FD28C08C8D9D8D009709F046
:105520009BC18091CA299091CB2901960E94AE21FE
:105530002091DA2E822F80618093DA2E8091CA2901
:105540009091CB29009719F022612093DA2E0E94C6
:10555000DD2F81E090E09D8F8C8F88E08DA31FA2CE
:1055600081E180930F2A0FC185FF1CC05091142A3E
:1055700040E08091152A90E0842B952B4091DF2EFE
:105580005091E02E480F591F5093E02E4093DF2E8C
:105590004091CA295091CB29481B590B5093CB29D4
:1055A0004093CA298091CA299091CB29009749F04C
:1055B00024FD07C02091DA2E22602093DA2E0E946B
:1055C000AE219091102A80E02091112A820F911D26
:1055D00090931A148093191428A139A12817390718
:1055E00010F0009721F430931A142093191480912D
:1055F000191490911A149F8F8E8F8091DA2E90E05B
:1056000083709070009709F427C11092A02F109218
:105610009F2F0E94DD2F8091DA2E85FF07C0109208
:10562000A02F10929F2F1DA284E19BCF84FF0AC060
:105630001092A02F10929F2F81E090E09D8F8C8F71
:1056400084E08CCF20919F2F3091A02F2115310520
:10565000E1F080FF02C01D8E1C8E8C8D9D8D009709
:1056600081F48E8D9F8D8217930720F49093A02F45
:1056700080939F2F80919F2F9091A02F9D8F8C8F33
:1056800004C09093A02F80939F2F1FA28091CC29BC
:105690009091CD299093E02E8093DF2E80919F2FC3
:1056A0009091A02F009759F08C8D9D8D009739F027
:1056B000CC969093CB298093CA2988E10BC0809126
:1056C000DA2E81FFC9C08CE390E09093CB298093C0
:1056D000CA2980E180930F2A5CC08091DA2E80FF76
:1056E000BBC01DA280E18093DA2E0E94DD2FB4C0E2
:1056F0008091CA299091CB29009711F00E94AE2188
:1057000090910F2A8091DA2E90FF0BC080FF06C087
:1057100087E08DA31EA21D8E1C8E19C086E08DA36E
:1057200016C080FF1EC085E08DA31D8E1C8E94C008
:105730008091CA299091CB29009711F00E94AE2147
:1057400080910F2A80FF0DC087E08DA31EA281E00B
:1057500090E00E94AE2180E18093DA2E0E94DD2F3E
:105760000FC08091CA299091CB29009749F474C049
:105770008091DA2E80FF70C087E08DA31EA26CC0DE
:1057800080E1F80185878CE390E09093CB298093AA
:10579000CA2980E580930E2A02E01AE28C89F8017A
:1057A00080878D8981878E8982878F898387888D7D
:1057B0008483898D85838A8D86838B8D878386E01C
:1057C0008093E029888999899093032A8093022AFB
:1057D0008A899B8993838283D8015097FE0180E157
:1057E00001900D928150E1F782EE99E262EF79E249
:1057F0000E9433488DA184FF04C0F80117861686E5
:1058000005C084E0F801868784EC87878091B130F9
:105810008093E1298091CA299091CB299C0128523B
:1058200030403093DE2988528093DF29C2E0DAE2EB
:105830001B8A1A8A198A188A0E94D6218095909507
:10584000998B888B80E68093DA291092DB2910925D
:10585000DD291092DC2908C01092CB291092CA29A8
:1058600010921314109212141092DA2EDF91CF912D
:105870001F910F91FF90EF90DF90CF90BF90089510
:10588000382F292FC9010895382F292F40E050E0E3
:1058900076276727762780E090E0CB017727662779
:1058A000262B372B482B592BB901CA010895AC017F
:1058B000E091CC29F091CD29222733272E1B3F0BD5
:1058C0002652314D621773070CF49B011216130612
:1058D00064F420939F2F3093A02F4E175F0729F079
:1058E000CF01BA01A9010E944368089581E394E1C0
:1058F0000E948B05009721F081E394E10E947605D8
:105900000895E0913E14F0913F14309711F00995FD
:10591000089580E0089590933F1480933E14089575
:105920002091820A3091830A60E0EFE1F4E113C034
:10593000408151814817590761F4428153814217D0
:10594000530739F460933D14118210820E9465233D
:10595000089534966F5F643058F360933D14089552
:1059600040E0EFE1F4E116C0542F5F5F2081318108
:105970002115310569F440933C1491838083209173
:10598000820A3091830A338322830E947F23089501
:105990003496452F443040F340933C140895FC0165
:1059A0008091820A9091830A91A780A773A762A72A
:1059B0000895FC018091820A9091830A968B858BD1
:1059C000708F678B0895CF93DF93EA010E94E222E4
:1059D000FC01009741F08091820A9091830A968B96
:1059E000858BD08FC78BCF01DF91CF9108950F9317
:1059F0001F93DF93CF93CDB7DEB760970FB6F894C0
:105A0000DEBF0FBECDBF8C01AB018FEF92E09A835A
:105A100089831C821B821E821D8218861F821A8621
:105A200019861C861B861E861D8680E091E0988B59
:105A30008F87CE010196B8010E94E32CFC010097EC
:105A400011F0118B008BCF0160960FB6F894DEBF7A
:105A50000FBECDBFCF91DF911F910F91089520917F
:105A6000932F3091942F2115310571F42091820AE2
:105A70003091830A3093942F2093932F9093962FF5
:105A80008093952F80E0089581E00895DF93CF9370
:105A90000F92CDB7DEB789838091932F9091942F89
:105AA000009739F060919C30AE014F5F5F4F0E94CC
:105AB00069180F90CF91DF9108958FE494E062E030
:105AC00040E050E00E9469181092CB291092CA2938
:105AD0001092131408950F931F93CF93DF93809127
