:020000040000FA
:06000000C0EF05F0120044
:020006001200E6
:0600080078EF03F0120086
:02000E000100EF
:0C0010009C0B00006000000010000000CD
:04001C00D9CFE6FF53
:10002000E1CFD9FF020EE126DE6ADD6ADE6ADD6A13
:10003000DECF02F0DDCF03F0D890035004E6400E8F
:10004000025C000E035829E2DECFE9FFDDCFEAFFB4
:10005000000EE926010EEA22EF6ADECFE9FFDDCFCE
:10006000EAFF400EE926010EEA22EF6ADECFE9FF41
:10007000DDCFEAFF800EE926010EEA22EF6ADECF2D
:10008000E9FFDDCFEAFFC00EE926010EEA22EF6AA2
:10009000DF2A010E01E3DB2ACBD7020EE15C02E28C
:1000A000E16AE552E16EE552E7CFD9FF12000001A7
:1000B000000E606F010E616F000E626F010E636FC4
:1000C00012000001400E646F010E656F400E666FF6
:1000D000010E676F12000001800E686F010E696FDC
:1000E000800E6A6F010E6B6F12000001C00E6C6F04
:1000F000010E6D6FC00E6E6F010E6F6F1200D9CFC3
:10010000E6FFE1CFD9FFFE0EDB5060C0E9FF61C022
:10011000EAFFEF6E0001602B000E6123400E605D70
:10012000010E615904E3000E606F010E616FE5522C
:10013000E7CFD9FF1200D9CFE6FFE1CFD9FFE652D2
:1001400062C0E9FF63C0EAFFEFCFDFFF000160514B
:10015000621902E16151631902E1000E0ED0622BB7
:10016000000E6323400E625D010E635904E3000E2E
:10017000626F010E636FDF5000D0E552E552E7CFAA
:10018000D9FF1200D9CFE6FFE1CFD9FF020EE12659
:10019000DE6ADD6A00016251605D635161591EE2F1
:1001A00060C002F061C003F0400ED8800256010E1C
:1001B000035602C0DEFF03C0DDFF62C002F063C071
:1001C00003F0000E025E010E035AD9CFE9FFDACF29
:1001D000EAFF0250EE260350ED220AD06251605D24
:1001E000026E61516355036E02C0DEFF03C0DDFF86
:1001F000DECF02F0DDCF03F002C0F3FF03C0F4FF57
:10020000020EE15C03E200D0E16AE552E16EE552E4
:10021000E7CFD9FF1200D9CFE6FFE1CFD9FFFE0E1D
:10022000DB5064C0E9FF65C0EAFFEF6E0001642B9C
:10023000000E6523800E645D010E655904E3400ED7
:10024000646F010E656FE552E7CFD9FF1200D9CF79
:10025000E6FFE1CFD9FFE65266C0E9FF67C0EAFFDB
:10026000EFCFDFFF00016451661902E165516719A4
:1002700002E1000E0ED0662B000E6723800E665D35
:10028000010E675904E3400E666F010E676FDF5081
:1002900000D0E552E552E7CFD9FF1200D9CFE6FFF3
:1002A000E1CFD9FF020EE126DE6ADD6A0001665168
:1002B000645D675165591EE264C002F065C003F0D9
:1002C000800ED8800256010E035602C0DEFF03C026
:1002D000DDFF66C002F067C003F0400E025E010E53
:1002E000035AD9CFE9FFDACFEAFF0250EE260350D6
:1002F000ED220AD06651645D026E65516755036E4A
:1003000002C0DEFF03C0DDFFDECF02F0DDCF03F071
:1003100002C0F3FF03C0F4FF020EE15C03E200D071
:10032000E16AE552E16EE552E7CFD9FF1200D9CF7D
:10033000E6FFE1CFD9FFFE0EDB5068C0E9FF69C0E0
:10034000EAFFEF6E0001682B000E6923C00E685DA6
:10035000010E695904E3800E686F010E696FE55262
:10036000E7CFD9FF1200D9CFE6FFE1CFD9FFE652A0
:100370006AC0E9FF6BC0EAFFEFCFDFFF0001685101
:100380006A1902E169516B1902E1000E0ED06A2B65
:10039000000E6B23C00E6A5D010E6B5904E3800EE4
:1003A0006A6F010E6B6FDF5000D0E552E552E7CF68
:1003B000D9FF1200D9CFE6FFE1CFD9FF020EE12627
:1003C000DE6ADD6A00016A51685D6B5169591EE29F
:1003D00068C002F069C003F0C00ED8800256010E5A
:1003E000035602C0DEFF03C0DDFF6AC002F06BC02F
:1003F00003F0800E025E010E035AD9CFE9FFDACF77
:10040000EAFF0250EE260350ED220AD06A51685DE1
:10041000026E69516B55036E02C0DEFF03C0DDFF43
:10042000DECF02F0DDCF03F002C0F3FF03C0F4FF24
:10043000020EE15C03E200D0E16AE552E16EE552B2
:10044000E7CFD9FF1200D9CFE6FFE1CFD9FFFE0EEB
:10045000DB506CC0E9FF6DC0EAFFEF6E00016C2B52
:10046000000E6D23000E6C5D020E6D5904E3C00E8C
:100470006C6F010E6D6FE552E7CFD9FF1200D9CF37
:10048000E6FFE1CFD9FFE6526EC0E9FF6FC0EAFF99
:10049000EFCFDFFF00016C516E1902E16D516F1952
:1004A00002E1000E0ED06E2B000E6F23000E6E5D6B
:1004B000020E6F5904E3C00E6E6F010E6F6FDF50B6
:1004C00000D0E552E552E7CFD9FF1200D9CFE6FFC1
:1004D000E1CFD9FF020EE126DE6ADD6A00016E512E
:1004E0006C5D6F516D591EE26CC002F06DC003F07F
:1004F000000ED8800256020E035602C0DEFF03C073
:10050000DDFF6EC002F06FC003F0C00E025E010E90
:10051000035AD9CFE9FFDACFEAFF0250EE260350A3
:10052000ED220AD06E516C5D026E6D516F55036EF7
:1005300002C0DEFF03C0DDFFDECF02F0DDCF03F03F
:1005400002C0F3FF03C0F4FF020EE15C03E200D03F
:0E055000E16AE552E16EE552E7CFD9FF1200F5
:02055E000F0E7E
:10056000936E956A836A669C0E012A81F10E2A17A2
:1005700015891F0E1517500E2A135F0E2A171D819D
:10058000F10E1D17030E2B13F30E2B171983F20E0A
:100590001917500E2B135F0E2B171D8B2F0E1D17C7
:1005A000030E2C13F30E2C171883F20E1817600E7F
:1005B0002C136F0E2C171E8B2F0E1E17668C0C0E15
:1005C000E66EE66A7C0EE66EA2EC04F0E552E552B9
:1005D000E5520C0EE66EE66A7C0EE66E65EC04F003
:1005E000E552E552E552190EE66EE66A7C0EE66EBD
:1005F00028EC04F0E552E552E552F28CF28ED09EE2
:100600001200ADDF0EEC00F0640EE66E82EC05F039
:10061000E552C2EC00F0F3CF02F0F4CF03F0010E8C
:10062000D8800254000E03541BE29BEC00F0020A37
:100630000DE0030A01E014D00F0132A3FDD79BECBB
:1006400000F0E66E68EC05F0E5520AD00F012EA32B
:10065000FDD79BEC00F0E66E4EEC05F0E55200D0C5
:100660004EEC01F0F3CF02F0F4CF03F0000ED8808F
:100670000254000E03540FE2ACA2FED7010EE66E48
:1006800099EC05F0E552ACA2FED727EC01F0E66E3E
:1006900099EC05F0E552DAEC01F0F3CF02F0F4CF7B
:1006A00003F0000ED8800254000E03540FE2ACA2F7
:1006B000FED7020EE66E99EC05F0E552ACA2FED72D
:1006C000B3EC01F0E66E99EC05F0E552A2D74F0EBF
:1006D000AB16AC9ACF0E9D164F0E0F013317329BFF
:1006E000CF0EA3164F0E2F172E9BCF0E61161200A2
:1006F000DACFE4FFE2CFDAFFE9CFE4FFEACFE4FFAD
:10070000F6CFE4FFF7CFE4FFF5CFE4FFF3CFE4FF4C
:10071000F4CFE4FFFACFE4FF00EE00F0020EE804AD
:1007200003E3EECFE4FFFBD700EE02F0020EE80495
:1007300003E3EECFE4FFFBD7E6529EAA06D02FECF0
:1007400005F0E66E7FEC00F0E552A4AA06D005ECB9
:1007500005F0E66E0BEC01F0E552A6AA06D0DBEC44
:1007600004F0E66E97EC01F0E552E55200EE03F07E
:10077000020EE80403E3E5CFEDFFFBD700EE01F046
:10078000020EE80403E3E5CFEDFFFBD7E5CFFAFF68
:10079000E5CFF4FFE5CFF3FFE5CFF5FFE5CFF7FFBA
:1007A000E5CFF6FFE5CFEAFFE5CFE9FFE5CFDAFFDA
:0207B000110036
:0E07B2000E0EF66E000EF76E000EF86E0001D1
:1007C0000900F550756F0900F550766F03E1756704
:1007D00001D03DD00900F550706F0900F550716FE0
:1007E0000900F550726F09000900F550E96E090023
:1007F000F550EA6E090009000900F550736F090011
:10080000F550746F09000900F6CF77F0F7CF78F054
:10081000F8CF79F070C0F6FF71C0F7FF72C0F8FF33
:100820000001735302E1745307E00900F550EE6EC6
:100830007307F8E27407F9D777C0F6FF78C0F7FFBF
:1008400079C0F8FF00017507000E765BBFD7120074
:10085000D9CFE6FFDACFE6FFE1CFD9FFE2CFDAFF6B
:100860000F012E6B2F6BFD0EDBB02E89DBA202D0A9
:100870002E8D2F8DDBB42E8FDBA602D02F8901D0D9
:100880002F8BDBA802D02E8501D02E95DBBA2F87C7
:10089000DBAC02D0618A01D0619ADBAE02D0618804
:1008A00001D06198FB0EDBCF2BFFFC0EDBCF03F0FA
:1008B00003C002F0036A02C02CFF2E8B2F8FE5527B
:0A08C000E5CFDAFFE7CFD9FF120001
:0608CA00D9CFE6FFDACFF2
:1008D000E6FFE1CFD9FFE2CFDAFF0F01326B336BD6
:1008E000FD0EDBB03289DBA202D0328D338DDBB45A
:1008F000328FDBA602D0338901D0338BDBA802D044
:10090000328501D03295DBBA3387DBAC02D0A38AC3
:1009100001D0A39ADBAE02D0A38801D0A398FB0E2E
:10092000DBCF1FFFFC0EDBCF03F003C002F0036A36
:1009300002C020FF328B338FE552E5CFDAFFE7CFDD
:04094000D9FF1200C9
:0C094400D9CFE6FFDACFE6FFE1CFD9FF04
:10095000E2CFDAFFAC6AAB6AFD0EDBB0AC88DBA29B
:1009600002D0AC8CAB8CDBB4AC8EDBA602D0AB88F7
:1009700001D0AB8ADBB8AC84DBBAAB86DBAC02D08F
:100980009D8A01D09D9ADBAE02D09D8801D09D98B2
:10099000FB0EDB50AF6EFC0EDBCF03F003C002F0AA
:1009A000036A02C030FFAC8AAB8EE552E5CFDAFFB6
:0609B000E7CFD9FF1200A1
:0A09B600D9CFE6FFDACFE6FFE1CF6C
:1009C000D9FFE2CFDAFFE652F20E00017A170F01EB
:1009D0002FAD07D000017A910F012FA102D00001A5
:1009E0007A810F012FA502D000017A850F012FA374
:1009F00002D000017A872ACFDFFFDF50E552E552AF
:0A0A0000E5CFDAFFE7CFD9FF1200BF
:060A0A00D9CFE6FFDACFB0
:100A1000E6FFE1CFD9FFE2CFDAFFE652F20E0001A6
:100A20007B170F0133AD07D000017B910F0133A17C
:100A300002D000017B810F0133A502D000017B852C
:100A40000F0133A302D000017B871ECFDFFFDF50F1
:0E0A5000E552E552E5CFDAFFE7CFD9FF1200FD
:020A5E00D9CFEE
:100A6000E6FFDACFE6FFE1CFD9FFE2CFDAFFE652C9
:100A7000F20E00017C17ABAC03D07C91ABB07C8153
:100A8000ABB47C85ABB27C87AE50DF6EDF50E552F5
:0C0A9000E552E5CFDAFFE7CFD9FF1200F6
:040A9C00D9CFE6FFC9
:100AA000DACFE6FFE1CFD9FFE2CFDAFF0F012EADBB
:100AB00006D02E9100017AA302D00F012E81FD0EE7
:100AC000DBCF29FFE552E5CFDAFFE7CFD9FF1200F0
:100AD000D9CFE6FFDACFE6FFE1CFD9FFE2CFDAFFE9
:100AE0000F0132AD06D0329100017BA302D00F017D
:100AF0003281FD0EDBCF1DFFE552E5CFDAFFE7CFF8
:040B0000D9FF120007
:0C0B0400FF0EE350056EEF0E01D0F30E63
:100B1000E76EE72E89EF05F00C0E046EE76AE72E0C
:100B20008FEF05F0042E8EEF05F0052E87EF05F010
:020B30001200B1
:0E0B3200D9CFE6FFDACFE6FFE1CFD9FFE2CF61
:100B4000DAFFACAC04D0AC9000017CB3AC80FD0EFD
:100B5000DB50AD6EE552E5CFDAFFE7CFD9FF1200EB
:100B6000FA0EF36E00EE00F00D0E01D81200EA60EE
:100B700002D0EE6AFCD7F350E9601200EE6AFCD7AF
:100B80001CEE00F02CEE00F0F86A019CD9EC03F0AA
:0C0B900003EC00F001EC03F0FBD71200B6
:040B9C000001000153
:0C0BA0004001400180018001C001C00143
:020000040001F9
:01FFF0008090
:01FFF100F619
:01FFF200AA64
:01FFF300FF0E
:01FFF40032DA
:01FFFB00FC09
:01FFFF00F20F
:00000001FF
